{
    "_format": "hh-sol-artifact-1",
    "contractName": "Zapper",
    "sourceName": "contracts/Zapper.sol",
    "abi": [
        {
            "inputs": [
                {
                    "internalType": "contract IWrappedNative",
                    "name": "wrappedNative_",
                    "type": "address"
                },
                {
                    "internalType": "contract IPermit2",
                    "name": "permit2_",
                    "type": "address"
                },
                {
                    "internalType": "contract ZapperExecutor",
                    "name": "executor_",
                    "type": "address"
                }
            ],
            "stateMutability": "nonpayable",
            "type": "constructor"
        },
        {
            "inputs": [
                {
                    "components": [
                        {
                            "internalType": "contract IERC20",
                            "name": "tokenIn",
                            "type": "address"
                        },
                        {
                            "internalType": "uint256",
                            "name": "amountIn",
                            "type": "uint256"
                        },
                        {
                            "internalType": "bytes32[]",
                            "name": "commands",
                            "type": "bytes32[]"
                        },
                        {
                            "internalType": "bytes[]",
                            "name": "state",
                            "type": "bytes[]"
                        },
                        {
                            "internalType": "contract IERC20[]",
                            "name": "tokens",
                            "type": "address[]"
                        },
                        {
                            "internalType": "uint256",
                            "name": "amountOut",
                            "type": "uint256"
                        },
                        {
                            "internalType": "contract IERC20",
                            "name": "tokenOut",
                            "type": "address"
                        }
                    ],
                    "internalType": "struct ZapERC20Params",
                    "name": "params",
                    "type": "tuple"
                }
            ],
            "name": "zapERC20",
            "outputs": [
                {
                    "components": [
                        {
                            "internalType": "uint256[]",
                            "name": "dust",
                            "type": "uint256[]"
                        },
                        {
                            "internalType": "uint256",
                            "name": "amountOut",
                            "type": "uint256"
                        },
                        {
                            "internalType": "uint256",
                            "name": "gasUsed",
                            "type": "uint256"
                        }
                    ],
                    "internalType": "struct ZapperOutput",
                    "name": "out",
                    "type": "tuple"
                }
            ],
            "stateMutability": "nonpayable",
            "type": "function"
        },
        {
            "inputs": [
                {
                    "components": [
                        {
                            "internalType": "contract IERC20",
                            "name": "tokenIn",
                            "type": "address"
                        },
                        {
                            "internalType": "uint256",
                            "name": "amountIn",
                            "type": "uint256"
                        },
                        {
                            "internalType": "bytes32[]",
                            "name": "commands",
                            "type": "bytes32[]"
                        },
                        {
                            "internalType": "bytes[]",
                            "name": "state",
                            "type": "bytes[]"
                        },
                        {
                            "internalType": "contract IERC20[]",
                            "name": "tokens",
                            "type": "address[]"
                        },
                        {
                            "internalType": "uint256",
                            "name": "amountOut",
                            "type": "uint256"
                        },
                        {
                            "internalType": "contract IERC20",
                            "name": "tokenOut",
                            "type": "address"
                        }
                    ],
                    "internalType": "struct ZapERC20Params",
                    "name": "params",
                    "type": "tuple"
                },
                {
                    "components": [
                        {
                            "components": [
                                {
                                    "internalType": "address",
                                    "name": "token",
                                    "type": "address"
                                },
                                {
                                    "internalType": "uint256",
                                    "name": "amount",
                                    "type": "uint256"
                                }
                            ],
                            "internalType": "struct TokenPermissions",
                            "name": "permitted",
                            "type": "tuple"
                        },
                        {
                            "internalType": "uint256",
                            "name": "nonce",
                            "type": "uint256"
                        },
                        {
                            "internalType": "uint256",
                            "name": "deadline",
                            "type": "uint256"
                        }
                    ],
                    "internalType": "struct PermitTransferFrom",
                    "name": "permit",
                    "type": "tuple"
                },
                {
                    "internalType": "bytes",
                    "name": "signature",
                    "type": "bytes"
                }
            ],
            "name": "zapERC20WithPermit2",
            "outputs": [
                {
                    "components": [
                        {
                            "internalType": "uint256[]",
                            "name": "dust",
                            "type": "uint256[]"
                        },
                        {
                            "internalType": "uint256",
                            "name": "amountOut",
                            "type": "uint256"
                        },
                        {
                            "internalType": "uint256",
                            "name": "gasUsed",
                            "type": "uint256"
                        }
                    ],
                    "internalType": "struct ZapperOutput",
                    "name": "out",
                    "type": "tuple"
                }
            ],
            "stateMutability": "nonpayable",
            "type": "function"
        },
        {
            "inputs": [
                {
                    "components": [
                        {
                            "internalType": "contract IERC20",
                            "name": "tokenIn",
                            "type": "address"
                        },
                        {
                            "internalType": "uint256",
                            "name": "amountIn",
                            "type": "uint256"
                        },
                        {
                            "internalType": "bytes32[]",
                            "name": "commands",
                            "type": "bytes32[]"
                        },
                        {
                            "internalType": "bytes[]",
                            "name": "state",
                            "type": "bytes[]"
                        },
                        {
                            "internalType": "contract IERC20[]",
                            "name": "tokens",
                            "type": "address[]"
                        },
                        {
                            "internalType": "uint256",
                            "name": "amountOut",
                            "type": "uint256"
                        },
                        {
                            "internalType": "contract IERC20",
                            "name": "tokenOut",
                            "type": "address"
                        }
                    ],
                    "internalType": "struct ZapERC20Params",
                    "name": "params",
                    "type": "tuple"
                }
            ],
            "name": "zapETH",
            "outputs": [
                {
                    "components": [
                        {
                            "internalType": "uint256[]",
                            "name": "dust",
                            "type": "uint256[]"
                        },
                        {
                            "internalType": "uint256",
                            "name": "amountOut",
                            "type": "uint256"
                        },
                        {
                            "internalType": "uint256",
                            "name": "gasUsed",
                            "type": "uint256"
                        }
                    ],
                    "internalType": "struct ZapperOutput",
                    "name": "out",
                    "type": "tuple"
                }
            ],
            "stateMutability": "payable",
            "type": "function"
        },
        {
            "stateMutability": "payable",
            "type": "receive"
        }
    ],
    "bytecode": "0x60e06040523480156200001157600080fd5b506040516200242c3803806200242c833981810160405281019062000037919062000200565b60016000819055508273ffffffffffffffffffffffffffffffffffffffff1660808173ffffffffffffffffffffffffffffffffffffffff16815250508173ffffffffffffffffffffffffffffffffffffffff1660a08173ffffffffffffffffffffffffffffffffffffffff16815250508073ffffffffffffffffffffffffffffffffffffffff1660c08173ffffffffffffffffffffffffffffffffffffffff16815250505050506200025c565b600080fd5b600073ffffffffffffffffffffffffffffffffffffffff82169050919050565b60006200011682620000e9565b9050919050565b60006200012a8262000109565b9050919050565b6200013c816200011d565b81146200014857600080fd5b50565b6000815190506200015c8162000131565b92915050565b60006200016f8262000109565b9050919050565b620001818162000162565b81146200018d57600080fd5b50565b600081519050620001a18162000176565b92915050565b6000620001b482620000e9565b9050919050565b6000620001c882620001a7565b9050919050565b620001da81620001bb565b8114620001e657600080fd5b50565b600081519050620001fa81620001cf565b92915050565b6000806000606084860312156200021c576200021b620000e4565b5b60006200022c868287016200014b565b93505060206200023f8682870162000190565b92505060406200025286828701620001e9565b9150509250925092565b60805160a05160c051612170620002bc60003960008181610238015281816104bb0152818161069401526108ce0152600061064c015260008181603f015281816102a6015281816104160152818161049a01526104dc01526121706000f3fe6080604052600436106100385760003560e01c80638e0a8e9d146100d2578063dd074ea01461010f578063f78a98611461013f576100cd565b366100cd577f000000000000000000000000000000000000000000000000000000000000000073ffffffffffffffffffffffffffffffffffffffff163373ffffffffffffffffffffffffffffffffffffffff16146100cb576040517f08c379a00000000000000000000000000000000000000000000000000000000081526004016100c290610e8b565b60405180910390fd5b005b600080fd5b3480156100de57600080fd5b506100f960048036038101906100f49190610ee3565b61017c565b6040516101069190611044565b60405180910390f35b61012960048036038101906101249190610ee3565b61028f565b6040516101369190611044565b60405180910390f35b34801561014b57600080fd5b50610166600480360381019061016191906110ea565b6105a7565b6040516101739190611044565b60405180910390f35b610184610e0d565b61018c61075c565b60005a905060008360200135036101d8576040517f08c379a00000000000000000000000000000000000000000000000000000000081526004016101cf906111c6565b60405180910390fd5b60008360a001350361021f576040517f08c379a000000000000000000000000000000000000000000000000000000000815260040161021690611232565b60405180910390fd5b61026183600001602081019061023591906112c2565b337f000000000000000000000000000000000000000000000000000000000000000086602001356107ab565b61026a83610834565b91505a81610278919061131e565b8260400181815250505061028a610ae8565b919050565b610297610e0d565b61029f61075c565b60005a90507f000000000000000000000000000000000000000000000000000000000000000073ffffffffffffffffffffffffffffffffffffffff168360000160208101906102ee91906112c2565b73ffffffffffffffffffffffffffffffffffffffff1614610344576040517f08c379a000000000000000000000000000000000000000000000000000000000815260040161033b9061139e565b60405180910390fd5b3483602001351461038a576040517f08c379a0000000000000000000000000000000000000000000000000000000008152600401610381906111c6565b60405180910390fd5b600034036103cd576040517f08c379a00000000000000000000000000000000000000000000000000000000081526004016103c4906111c6565b60405180910390fd5b60008360a0013503610414576040517f08c379a000000000000000000000000000000000000000000000000000000000815260040161040b90611232565b60405180910390fd5b7f000000000000000000000000000000000000000000000000000000000000000073ffffffffffffffffffffffffffffffffffffffff1663d0e30db0346040518263ffffffff1660e01b81526004016000604051808303818588803b15801561047c57600080fd5b505af1158015610490573d6000803e3d6000fd5b50505050506105797f00000000000000000000000000000000000000000000000000000000000000007f00000000000000000000000000000000000000000000000000000000000000007f000000000000000000000000000000000000000000000000000000000000000073ffffffffffffffffffffffffffffffffffffffff166370a08231306040518263ffffffff1660e01b815260040161053391906113cd565b602060405180830381865afa158015610550573d6000803e3d6000fd5b505050506040513d601f19601f820116820180604052508101906105749190611414565b610af2565b61058283610834565b91505a81610590919061131e565b826040018181525050506105a2610ae8565b919050565b6105af610e0d565b6105b761075c565b60005a90506000866020013503610603576040517f08c379a00000000000000000000000000000000000000000000000000000000081526004016105fa906111c6565b60405180910390fd5b60008660a001350361064a576040517f08c379a000000000000000000000000000000000000000000000000000000000815260040161064190611232565b60405180910390fd5b7f000000000000000000000000000000000000000000000000000000000000000073ffffffffffffffffffffffffffffffffffffffff166330f28b7a8660405180604001604052807f000000000000000000000000000000000000000000000000000000000000000073ffffffffffffffffffffffffffffffffffffffff1681526020018a602001358152503388886040518663ffffffff1660e01b81526004016106f99594939291906115f0565b600060405180830381600087803b15801561071357600080fd5b505af1158015610727573d6000803e3d6000fd5b5050505061073486610834565b91505a81610742919061131e565b82604001818152505050610754610ae8565b949350505050565b6002600054036107a1576040517f08c379a00000000000000000000000000000000000000000000000000000000081526004016107989061168b565b60405180910390fd5b6002600081905550565b61082e846323b872dd60e01b8585856040516024016107cc939291906116ba565b604051602081830303815290604052907bffffffffffffffffffffffffffffffffffffffffffffffffffffffff19166020820180517bffffffffffffffffffffffffffffffffffffffffffffffffffffffff8381831617835250505050610b78565b50505050565b61083c610e0d565b60008260c001602081019061085191906112c2565b73ffffffffffffffffffffffffffffffffffffffff166370a08231336040518263ffffffff1660e01b815260040161088991906113cd565b602060405180830381865afa1580156108a6573d6000803e3d6000fd5b505050506040513d601f19601f820116820180604052508101906108ca9190611414565b90507f000000000000000000000000000000000000000000000000000000000000000073ffffffffffffffffffffffffffffffffffffffff166308c4b4988480604001906109189190611700565b8680606001906109289190611763565b88806080019061093891906117c6565b6040518763ffffffff1660e01b815260040161095996959493929190611b1b565b6000604051808303816000875af1158015610978573d6000803e3d6000fd5b505050506040513d6000823e3d601f19601f820116820180604052508101906109a19190611d0d565b60000151826000018190525060008360c00160208101906109c291906112c2565b73ffffffffffffffffffffffffffffffffffffffff166370a08231336040518263ffffffff1660e01b81526004016109fa91906113cd565b602060405180830381865afa158015610a17573d6000803e3d6000fd5b505050506040513d601f19601f82011682018060405250810190610a3b9190611414565b9050818111610a7f576040517f08c379a0000000000000000000000000000000000000000000000000000000008152600401610a7690611da2565b60405180910390fd5b60008282610a8d919061131e565b90508460a00135811015610ad6576040517f08c379a0000000000000000000000000000000000000000000000000000000008152600401610acd90611e0e565b60405180910390fd5b80846020018181525050505050919050565b6001600081905550565b610b738363a9059cbb60e01b8484604051602401610b11929190611e2e565b604051602081830303815290604052907bffffffffffffffffffffffffffffffffffffffffffffffffffffffff19166020820180517bffffffffffffffffffffffffffffffffffffffffffffffffffffffff8381831617835250505050610b78565b505050565b6000610bda826040518060400160405280602081526020017f5361666545524332303a206c6f772d6c6576656c2063616c6c206661696c65648152508573ffffffffffffffffffffffffffffffffffffffff16610c409092919063ffffffff16565b9050600081511480610bfc575080806020019051810190610bfb9190611e8f565b5b610c3b576040517f08c379a0000000000000000000000000000000000000000000000000000000008152600401610c3290611f2e565b60405180910390fd5b505050565b6060610c4f8484600085610c58565b90509392505050565b606082471015610c9d576040517f08c379a0000000000000000000000000000000000000000000000000000000008152600401610c9490611fc0565b60405180910390fd5b6000808673ffffffffffffffffffffffffffffffffffffffff168587604051610cc69190612051565b60006040518083038185875af1925050503d8060008114610d03576040519150601f19603f3d011682016040523d82523d6000602084013e610d08565b606091505b5091509150610d1987838387610d25565b92505050949350505050565b60608315610d87576000835103610d7f57610d3f85610d9a565b610d7e576040517f08c379a0000000000000000000000000000000000000000000000000000000008152600401610d75906120b4565b60405180910390fd5b5b829050610d92565b610d918383610dbd565b5b949350505050565b6000808273ffffffffffffffffffffffffffffffffffffffff163b119050919050565b600082511115610dd05781518083602001fd5b806040517f08c379a0000000000000000000000000000000000000000000000000000000008152600401610e049190612118565b60405180910390fd5b60405180606001604052806060815260200160008152602001600081525090565b600082825260208201905092915050565b7f494e56414c49445f43414c4c4552000000000000000000000000000000000000600082015250565b6000610e75600e83610e2e565b9150610e8082610e3f565b602082019050919050565b60006020820190508181036000830152610ea481610e68565b9050919050565b6000604051905090565b600080fd5b600080fd5b600080fd5b600060e08284031215610eda57610ed9610ebf565b5b81905092915050565b600060208284031215610ef957610ef8610eb5565b5b600082013567ffffffffffffffff811115610f1757610f16610eba565b5b610f2384828501610ec4565b91505092915050565b600081519050919050565b600082825260208201905092915050565b6000819050602082019050919050565b6000819050919050565b610f6b81610f58565b82525050565b6000610f7d8383610f62565b60208301905092915050565b6000602082019050919050565b6000610fa182610f2c565b610fab8185610f37565b9350610fb683610f48565b8060005b83811015610fe7578151610fce8882610f71565b9750610fd983610f89565b925050600181019050610fba565b5085935050505092915050565b600060608301600083015184820360008601526110118282610f96565b91505060208301516110266020860182610f62565b5060408301516110396040860182610f62565b508091505092915050565b6000602082019050818103600083015261105e8184610ff4565b905092915050565b60006080828403121561107c5761107b610ebf565b5b81905092915050565b600080fd5b600080fd5b600080fd5b60008083601f8401126110aa576110a9611085565b5b8235905067ffffffffffffffff8111156110c7576110c661108a565b5b6020830191508360018202830111156110e3576110e261108f565b5b9250929050565b60008060008060c0858703121561110457611103610eb5565b5b600085013567ffffffffffffffff81111561112257611121610eba565b5b61112e87828801610ec4565b945050602061113f87828801611066565b93505060a085013567ffffffffffffffff8111156111605761115f610eba565b5b61116c87828801611094565b925092505092959194509250565b7f494e56414c49445f494e5055545f414d4f554e54000000000000000000000000600082015250565b60006111b0601483610e2e565b91506111bb8261117a565b602082019050919050565b600060208201905081810360008301526111df816111a3565b9050919050565b7f494e56414c49445f4f55545055545f414d4f554e540000000000000000000000600082015250565b600061121c601583610e2e565b9150611227826111e6565b602082019050919050565b6000602082019050818103600083015261124b8161120f565b9050919050565b600073ffffffffffffffffffffffffffffffffffffffff82169050919050565b600061127d82611252565b9050919050565b600061128f82611272565b9050919050565b61129f81611284565b81146112aa57600080fd5b50565b6000813590506112bc81611296565b92915050565b6000602082840312156112d8576112d7610eb5565b5b60006112e6848285016112ad565b91505092915050565b7f4e487b7100000000000000000000000000000000000000000000000000000000600052601160045260246000fd5b600061132982610f58565b915061133483610f58565b925082820390508181111561134c5761134b6112ef565b5b92915050565b7f494e56414c49445f494e5055545f544f4b454e00000000000000000000000000600082015250565b6000611388601383610e2e565b915061139382611352565b602082019050919050565b600060208201905081810360008301526113b78161137b565b9050919050565b6113c781611272565b82525050565b60006020820190506113e260008301846113be565b92915050565b6113f181610f58565b81146113fc57600080fd5b50565b60008151905061140e816113e8565b92915050565b60006020828403121561142a57611429610eb5565b5b6000611438848285016113ff565b91505092915050565b600082905092915050565b61145581611272565b811461146057600080fd5b50565b6000813590506114728161144c565b92915050565b60006114876020840184611463565b905092915050565b61149881611272565b82525050565b6000813590506114ad816113e8565b92915050565b60006114c2602084018461149e565b905092915050565b604082016114db6000830183611478565b6114e8600085018261148f565b506114f660208301836114b3565b6115036020850182610f62565b50505050565b6080820161151a6000830183611441565b61152760008501826114ca565b5061153560408301836114b3565b6115426040850182610f62565b5061155060608301836114b3565b61155d6060850182610f62565b50505050565b604082016000820151611579600085018261148f565b50602082015161158c6020850182610f62565b50505050565b600082825260208201905092915050565b82818337600083830152505050565b6000601f19601f8301169050919050565b60006115cf8385611592565b93506115dc8385846115a3565b6115e5836115b2565b840190509392505050565b6000610100820190506116066000830188611509565b6116136080830187611563565b61162060c08301866113be565b81810360e08301526116338184866115c3565b90509695505050505050565b7f5265656e7472616e637947756172643a207265656e7472616e742063616c6c00600082015250565b6000611675601f83610e2e565b91506116808261163f565b602082019050919050565b600060208201905081810360008301526116a481611668565b9050919050565b6116b481610f58565b82525050565b60006060820190506116cf60008301866113be565b6116dc60208301856113be565b6116e960408301846116ab565b949350505050565b600080fd5b600080fd5b600080fd5b6000808335600160200384360303811261171d5761171c6116f1565b5b80840192508235915067ffffffffffffffff82111561173f5761173e6116f6565b5b60208301925060208202360383131561175b5761175a6116fb565b5b509250929050565b600080833560016020038436030381126117805761177f6116f1565b5b80840192508235915067ffffffffffffffff8211156117a2576117a16116f6565b5b6020830192506020820236038313156117be576117bd6116fb565b5b509250929050565b600080833560016020038436030381126117e3576117e26116f1565b5b80840192508235915067ffffffffffffffff821115611805576118046116f6565b5b602083019250602082023603831315611821576118206116fb565b5b509250929050565b600082825260208201905092915050565b600080fd5b82818337505050565b60006118548385611829565b93507f07ffffffffffffffffffffffffffffffffffffffffffffffffffffffffffffff8311156118875761188661183a565b5b60208302925061189883858461183f565b82840190509392505050565b600082825260208201905092915050565b6000819050919050565b600082825260208201905092915050565b60006118dc83856118bf565b93506118e98385846115a3565b6118f2836115b2565b840190509392505050565b600061190a8484846118d0565b90509392505050565b600080fd5b600080fd5b600080fd5b6000808335600160200384360303811261193f5761193e61191d565b5b83810192508235915060208301925067ffffffffffffffff82111561196757611966611913565b5b60018202360383131561197d5761197c611918565b5b509250929050565b6000602082019050919050565b600061199e83856118a4565b9350836020840285016119b0846118b5565b8060005b878110156119f65784840389526119cb8284611922565b6119d68682846118fd565b95506119e184611985565b935060208b019a5050506001810190506119b4565b50829750879450505050509392505050565b600082825260208201905092915050565b6000819050919050565b6000819050919050565b6000611a48611a43611a3e84611252565b611a23565b611252565b9050919050565b6000611a5a82611a2d565b9050919050565b6000611a6c82611a4f565b9050919050565b611a7c81611a61565b82525050565b6000611a8e8383611a73565b60208301905092915050565b6000611aa960208401846112ad565b905092915050565b6000602082019050919050565b6000611aca8385611a08565b9350611ad582611a19565b8060005b85811015611b0e57611aeb8284611a9a565b611af58882611a82565b9750611b0083611ab1565b925050600181019050611ad9565b5085925050509392505050565b60006060820190508181036000830152611b3681888a611848565b90508181036020830152611b4b818688611992565b90508181036040830152611b60818486611abe565b9050979650505050505050565b600080fd5b7f4e487b7100000000000000000000000000000000000000000000000000000000600052604160045260246000fd5b611baa826115b2565b810181811067ffffffffffffffff82111715611bc957611bc8611b72565b5b80604052505050565b6000611bdc610eab565b9050611be88282611ba1565b919050565b600080fd5b600067ffffffffffffffff821115611c0d57611c0c611b72565b5b602082029050602081019050919050565b6000611c31611c2c84611bf2565b611bd2565b90508083825260208201905060208402830185811115611c5457611c5361108f565b5b835b81811015611c7d5780611c6988826113ff565b845260208401935050602081019050611c56565b5050509392505050565b600082601f830112611c9c57611c9b611085565b5b8151611cac848260208601611c1e565b91505092915050565b600060208284031215611ccb57611cca611b6d565b5b611cd56020611bd2565b9050600082015167ffffffffffffffff811115611cf557611cf4611bed565b5b611d0184828501611c87565b60008301525092915050565b600060208284031215611d2357611d22610eb5565b5b600082015167ffffffffffffffff811115611d4157611d40610eba565b5b611d4d84828501611cb5565b91505092915050565b7f494e56414c49445f4e45575f42414c414e434500000000000000000000000000600082015250565b6000611d8c601383610e2e565b9150611d9782611d56565b602082019050919050565b60006020820190508181036000830152611dbb81611d7f565b9050919050565b7f494e53554646494349454e545f4f555400000000000000000000000000000000600082015250565b6000611df8601083610e2e565b9150611e0382611dc2565b602082019050919050565b60006020820190508181036000830152611e2781611deb565b9050919050565b6000604082019050611e4360008301856113be565b611e5060208301846116ab565b9392505050565b60008115159050919050565b611e6c81611e57565b8114611e7757600080fd5b50565b600081519050611e8981611e63565b92915050565b600060208284031215611ea557611ea4610eb5565b5b6000611eb384828501611e7a565b91505092915050565b7f5361666545524332303a204552433230206f7065726174696f6e20646964206e60008201527f6f74207375636365656400000000000000000000000000000000000000000000602082015250565b6000611f18602a83610e2e565b9150611f2382611ebc565b604082019050919050565b60006020820190508181036000830152611f4781611f0b565b9050919050565b7f416464726573733a20696e73756666696369656e742062616c616e636520666f60008201527f722063616c6c0000000000000000000000000000000000000000000000000000602082015250565b6000611faa602683610e2e565b9150611fb582611f4e565b604082019050919050565b60006020820190508181036000830152611fd981611f9d565b9050919050565b600081519050919050565b600081905092915050565b60005b83811015612014578082015181840152602081019050611ff9565b60008484015250505050565b600061202b82611fe0565b6120358185611feb565b9350612045818560208601611ff6565b80840191505092915050565b600061205d8284612020565b915081905092915050565b7f416464726573733a2063616c6c20746f206e6f6e2d636f6e7472616374000000600082015250565b600061209e601d83610e2e565b91506120a982612068565b602082019050919050565b600060208201905081810360008301526120cd81612091565b9050919050565b600081519050919050565b60006120ea826120d4565b6120f48185610e2e565b9350612104818560208601611ff6565b61210d816115b2565b840191505092915050565b6000602082019050818103600083015261213281846120df565b90509291505056fea26469706673582212204e6a8b68686e41d6810c511a7b1e9bcb6623161592956bbc9d9998118d2259ec64736f6c63430008110033",
    "linkReferences": {},
    "deployedLinkReferences": {}
}