{
    "_format": "hh-sol-artifact-1",
    "contractName": "ZapperExecutor",
    "sourceName": "contracts/Zapper.sol",
    "abi": [
        {
            "inputs": [
                {
                    "internalType": "uint256",
                    "name": "command_index",
                    "type": "uint256"
                },
                {
                    "internalType": "address",
                    "name": "target",
                    "type": "address"
                },
                {
                    "internalType": "string",
                    "name": "message",
                    "type": "string"
                }
            ],
            "name": "ExecutionFailed",
            "type": "error"
        },
        {
            "inputs": [
                {
                    "internalType": "uint256",
                    "name": "a",
                    "type": "uint256"
                },
                {
                    "internalType": "uint256",
                    "name": "b",
                    "type": "uint256"
                }
            ],
            "name": "add",
            "outputs": [
                {
                    "internalType": "uint256",
                    "name": "",
                    "type": "uint256"
                }
            ],
            "stateMutability": "pure",
            "type": "function"
        },
        {
            "inputs": [
                {
                    "internalType": "uint256",
                    "name": "a",
                    "type": "uint256"
                },
                {
                    "internalType": "uint256",
                    "name": "b",
                    "type": "uint256"
                }
            ],
            "name": "assertEqual",
            "outputs": [
                {
                    "internalType": "bool",
                    "name": "",
                    "type": "bool"
                }
            ],
            "stateMutability": "nonpayable",
            "type": "function"
        },
        {
            "inputs": [
                {
                    "internalType": "uint256",
                    "name": "a",
                    "type": "uint256"
                },
                {
                    "internalType": "uint256",
                    "name": "b",
                    "type": "uint256"
                }
            ],
            "name": "assertLarger",
            "outputs": [
                {
                    "internalType": "bool",
                    "name": "",
                    "type": "bool"
                }
            ],
            "stateMutability": "nonpayable",
            "type": "function"
        },
        {
            "inputs": [
                {
                    "internalType": "bytes32[]",
                    "name": "commands",
                    "type": "bytes32[]"
                },
                {
                    "internalType": "bytes[]",
                    "name": "state",
                    "type": "bytes[]"
                },
                {
                    "internalType": "contract IERC20[]",
                    "name": "tokens",
                    "type": "address[]"
                }
            ],
            "name": "execute",
            "outputs": [
                {
                    "components": [
                        {
                            "internalType": "uint256[]",
                            "name": "dust",
                            "type": "uint256[]"
                        }
                    ],
                    "internalType": "struct ExecuteOutput",
                    "name": "out",
                    "type": "tuple"
                }
            ],
            "stateMutability": "payable",
            "type": "function"
        },
        {
            "inputs": [
                {
                    "internalType": "uint256",
                    "name": "a",
                    "type": "uint256"
                },
                {
                    "internalType": "uint256",
                    "name": "b",
                    "type": "uint256"
                },
                {
                    "internalType": "uint256",
                    "name": "scale",
                    "type": "uint256"
                }
            ],
            "name": "fpMul",
            "outputs": [
                {
                    "internalType": "uint256",
                    "name": "",
                    "type": "uint256"
                }
            ],
            "stateMutability": "pure",
            "type": "function"
        },
        {
            "inputs": [
                {
                    "internalType": "contract FacadeRead",
                    "name": "facade",
                    "type": "address"
                },
                {
                    "internalType": "contract RToken",
                    "name": "token",
                    "type": "address"
                },
                {
                    "internalType": "address",
                    "name": "recipient",
                    "type": "address"
                }
            ],
            "name": "mintMaxRToken",
            "outputs": [],
            "stateMutability": "nonpayable",
            "type": "function"
        },
        {
            "inputs": [
                {
                    "internalType": "address",
                    "name": "to",
                    "type": "address"
                },
                {
                    "internalType": "uint256",
                    "name": "value",
                    "type": "uint256"
                },
                {
                    "internalType": "bytes",
                    "name": "data",
                    "type": "bytes"
                }
            ],
            "name": "rawCall",
            "outputs": [
                {
                    "internalType": "bool",
                    "name": "success",
                    "type": "bool"
                },
                {
                    "internalType": "bytes",
                    "name": "out",
                    "type": "bytes"
                }
            ],
            "stateMutability": "nonpayable",
            "type": "function"
        },
        {
            "inputs": [
                {
                    "internalType": "uint256",
                    "name": "a",
                    "type": "uint256"
                },
                {
                    "internalType": "uint256",
                    "name": "b",
                    "type": "uint256"
                }
            ],
            "name": "sub",
            "outputs": [
                {
                    "internalType": "uint256",
                    "name": "",
                    "type": "uint256"
                }
            ],
            "stateMutability": "pure",
            "type": "function"
        },
        {
            "stateMutability": "payable",
            "type": "receive"
        }
    ],
    "bytecode": "0x60a060405234801561001057600080fd5b503073ffffffffffffffffffffffffffffffffffffffff1660808173ffffffffffffffffffffffffffffffffffffffff168152505060805161241661005d600039600050506124166000f3fe60806040526004361061007f5760003560e01c806398a38d7d1161004e57806398a38d7d1461015e578063ad207fd71461019c578063b67d77c5146101d9578063d47b0de41461021657610086565b806308c4b4981461008b578063298e2c9e146100bb578063771602f7146100f857806394919ce81461013557610086565b3661008657005b600080fd5b6100a560048036038101906100a091906113b1565b610253565b6040516100b2919061154f565b60405180910390f35b3480156100c757600080fd5b506100e260048036038101906100dd919061159d565b610398565b6040516100ef91906115f8565b60405180910390f35b34801561010457600080fd5b5061011f600480360381019061011a919061159d565b6103e6565b60405161012c9190611622565b60405180910390f35b34801561014157600080fd5b5061015c600480360381019061015791906116e5565b6103fc565b005b34801561016a57600080fd5b506101856004803603810190610180919061178e565b6104f1565b604051610193929190611881565b60405180910390f35b3480156101a857600080fd5b506101c360048036038101906101be919061159d565b610571565b6040516101d091906115f8565b60405180910390f35b3480156101e557600080fd5b5061020060048036038101906101fb919061159d565b6105bf565b60405161020d9190611622565b60405180910390f35b34801561022257600080fd5b5061023d600480360381019061023891906118b1565b6105d5565b60405161024a9190611622565b60405180910390f35b61025b610fd0565b6102668585856105f7565b50815167ffffffffffffffff8111156102825761028161106d565b5b6040519080825280602002602001820160405280156102b05781602001602082028036833780820191505090505b50816000018190525060005b825181101561038f578281815181106102d8576102d7611904565b5b602002602001015173ffffffffffffffffffffffffffffffffffffffff166370a08231306040518263ffffffff1660e01b81526004016103189190611942565b602060405180830381865afa158015610335573d6000803e3d6000fd5b505050506040513d601f19601f820116820180604052508101906103599190611972565b826000015182815181106103705761036f611904565b5b6020026020010181815250508080610387906119ce565b9150506102bc565b50949350505050565b60008183116103dc576040517f08c379a00000000000000000000000000000000000000000000000000000000081526004016103d390611a73565b60405180910390fd5b6001905092915050565b600081836103f49190611a93565b905092915050565b60008373ffffffffffffffffffffffffffffffffffffffff16631c3debf484306040518363ffffffff1660e01b8152600401610439929190611b26565b6020604051808303816000875af1158015610458573d6000803e3d6000fd5b505050506040513d601f19601f8201168201806040525081019061047c9190611972565b90508273ffffffffffffffffffffffffffffffffffffffff16631207f0c183836040518363ffffffff1660e01b81526004016104b9929190611b4f565b600060405180830381600087803b1580156104d357600080fd5b505af11580156104e7573d6000803e3d6000fd5b5050505050505050565b600060608573ffffffffffffffffffffffffffffffffffffffff1685858560405161051d929190611ba8565b60006040518083038185875af1925050503d806000811461055a576040519150601f19603f3d011682016040523d82523d6000602084013e61055f565b606091505b50809250819350505094509492505050565b60008183146105b5576040517f08c379a00000000000000000000000000000000000000000000000000000000081526004016105ac90611c0d565b60405180910390fd5b6001905092915050565b600081836105cd9190611c2d565b905092915050565b60008183856105e49190611c61565b6105ee9190611cd2565b90509392505050565b60606000806000806060600089899050905060005b81811015610a5f578a8a8281811061062757610626611904565b5b905060200201359650602087901b60f81c60ff16955060006080871614610675578a8a8280610655906119ce565b935081811061066757610666611904565b5b90506020020135945061069f565b79ffffffffffffffffffffffffffffffffffffffffffffffffffff602888901b60001c1760001b94505b60006003871603610734578660001c73ffffffffffffffffffffffffffffffffffffffff166106d988878c610a709092919063ffffffff16565b6040516106e69190611d34565b600060405180830381855af49150503d8060008114610721576040519150601f19603f3d011682016040523d82523d6000602084013e610726565b606091505b5080945081955050506109b5565b600160038716036107cb578660001c73ffffffffffffffffffffffffffffffffffffffff1661076e88878c610a709092919063ffffffff16565b60405161077b9190611d34565b6000604051808303816000865af19150503d80600081146107b8576040519150601f19603f3d011682016040523d82523d6000602084013e6107bd565b606091505b5080945081955050506109b4565b60026003871603610860578660001c73ffffffffffffffffffffffffffffffffffffffff1661080588878c610a709092919063ffffffff16565b6040516108129190611d34565b600060405180830381855afa9150503d806000811461084d576040519150601f19603f3d011682016040523d82523d6000602084013e610852565b606091505b5080945081955050506109b3565b600380871603610977576000808a8760f81c60ff168151811061088657610885611904565b5b6020026020010151905060208151146108d4576040517f08c379a00000000000000000000000000000000000000000000000000000000081526004016108cb90611dbd565b60405180910390fd5b602081015191508860001c73ffffffffffffffffffffffffffffffffffffffff16826109188b60ff60088c901b60001c1760001b8f610a709092919063ffffffff16565b6040516109259190611d34565b60006040518083038185875af1925050503d8060008114610962576040519150601f19603f3d011682016040523d82523d6000602084013e610967565b606091505b50809650819750505050506109b2565b6040517f08c379a00000000000000000000000000000000000000000000000000000000081526004016109a990611e29565b60405180910390fd5b5b5b5b83610a0f576000835111156109cb576044830192505b808760001c846040517fef3dcb2f000000000000000000000000000000000000000000000000000000008152600401610a0693929190611e8d565b60405180910390fd5b60006040871614610a3857610a33605888901b848b610dd49092919063ffffffff16565b610a54565b610a51605888901b848b610e899092919063ffffffff16565b98505b80600101905061060c565b508796505050505050509392505050565b606060008060606000805b6020811015610c1457868160208110610a9757610a96611904565b5b1a60f81b60f81c60ff16915060ff820315610c145760006080831614610b925760fe8203610aff576000835103610aeb5788604051602001610ad99190611fd7565b60405160208183030381529060405292505b825185610af89190611a93565b9450610b8d565b600089607f841681518110610b1757610b16611904565b5b60200260200101515190506000602082610b319190611ff9565b14610b71576040517f08c379a0000000000000000000000000000000000000000000000000000000008152600401610b689061209c565b60405180910390fd5b602081610b7e9190611a93565b86610b899190611a93565b9550505b610c03565b602089607f841681518110610baa57610ba9611904565b5b60200260200101515114610bf3576040517f08c379a0000000000000000000000000000000000000000000000000000000008152600401610bea9061212e565b60405180910390fd5b602085610c009190611a93565b94505b602084019350806001019050610a7b565b50600484610c229190611a93565b67ffffffffffffffff811115610c3b57610c3a61106d565b5b6040519080825280601f01601f191660200182016040528015610c6d5781602001600182028036833780820191505090505b5094508660208601526000935060005b6020811015610dc857868160208110610c9957610c98611904565b5b1a60f81b60f81c60ff16915060ff820315610dc85760006080831614610d875760fe8203610d10578385602488010152610cf083602088600488610cdd9190611a93565b60208851610ceb9190611c2d565b610fb6565b60208351610cfe9190611c2d565b84610d099190611a93565b9350610d82565b600089607f841681518110610d2857610d27611904565b5b60200260200101515190508486602489010152610d728a607f851681518110610d5457610d53611904565b5b6020026020010151600089600489610d6c9190611a93565b85610fb6565b8085610d7e9190611a93565b9450505b610db7565b600089607f841681518110610d9f57610d9e611904565b5b60200260200101519050602081015186602489010152505b602085019450806001019050610c7d565b50505050509392505050565b60008260f81c60ff16905060ff8103610ded5750610e84565b600060208351610dfd9190611a93565b67ffffffffffffffff811115610e1657610e1561106d565b5b6040519080825280601f01601f191660200182016040528015610e485781602001600182028036833780820191505090505b50858381518110610e5c57610e5b611904565b5b602002602001018190529050610e788360008360208751610fb6565b82518060208301525050505b505050565b606060008360f81c60ff16905060ff8103610ea75784915050610faf565b60006080821614610f435760fe8103610ed55782806020019051810190610ece9190612273565b9450610f3e565b60006020840151905060208114610f21576040517f08c379a0000000000000000000000000000000000000000000000000000000008152600401610f189061232e565b60405180910390fd5b60208451036020850152602084016020607f841602602088010152505b610faa565b6020835114610f87576040517f08c379a0000000000000000000000000000000000000000000000000000000008152600401610f7e906123c0565b60405180910390fd5b8285607f831681518110610f9e57610f9d611904565b5b60200260200101819052505b849150505b9392505050565b808260208501018286602089010160045afa505050505050565b6040518060200160405280606081525090565b6000604051905090565b600080fd5b600080fd5b600080fd5b600080fd5b600080fd5b60008083601f84011261101c5761101b610ff7565b5b8235905067ffffffffffffffff81111561103957611038610ffc565b5b60208301915083602082028301111561105557611054611001565b5b9250929050565b6000601f19601f8301169050919050565b7f4e487b7100000000000000000000000000000000000000000000000000000000600052604160045260246000fd5b6110a58261105c565b810181811067ffffffffffffffff821117156110c4576110c361106d565b5b80604052505050565b60006110d7610fe3565b90506110e3828261109c565b919050565b600067ffffffffffffffff8211156111035761110261106d565b5b602082029050602081019050919050565b600080fd5b600067ffffffffffffffff8211156111345761113361106d565b5b61113d8261105c565b9050602081019050919050565b82818337600083830152505050565b600061116c61116784611119565b6110cd565b90508281526020810184848401111561118857611187611114565b5b61119384828561114a565b509392505050565b600082601f8301126111b0576111af610ff7565b5b81356111c0848260208601611159565b91505092915050565b60006111dc6111d7846110e8565b6110cd565b905080838252602082019050602084028301858111156111ff576111fe611001565b5b835b8181101561124657803567ffffffffffffffff81111561122457611223610ff7565b5b808601611231898261119b565b85526020850194505050602081019050611201565b5050509392505050565b600082601f83011261126557611264610ff7565b5b81356112758482602086016111c9565b91505092915050565b600067ffffffffffffffff8211156112995761129861106d565b5b602082029050602081019050919050565b600073ffffffffffffffffffffffffffffffffffffffff82169050919050565b60006112d5826112aa565b9050919050565b60006112e7826112ca565b9050919050565b6112f7816112dc565b811461130257600080fd5b50565b600081359050611314816112ee565b92915050565b600061132d6113288461127e565b6110cd565b905080838252602082019050602084028301858111156113505761134f611001565b5b835b8181101561137957806113658882611305565b845260208401935050602081019050611352565b5050509392505050565b600082601f83011261139857611397610ff7565b5b81356113a884826020860161131a565b91505092915050565b600080600080606085870312156113cb576113ca610fed565b5b600085013567ffffffffffffffff8111156113e9576113e8610ff2565b5b6113f587828801611006565b9450945050602085013567ffffffffffffffff81111561141857611417610ff2565b5b61142487828801611250565b925050604085013567ffffffffffffffff81111561144557611444610ff2565b5b61145187828801611383565b91505092959194509250565b600081519050919050565b600082825260208201905092915050565b6000819050602082019050919050565b6000819050919050565b61149c81611489565b82525050565b60006114ae8383611493565b60208301905092915050565b6000602082019050919050565b60006114d28261145d565b6114dc8185611468565b93506114e783611479565b8060005b838110156115185781516114ff88826114a2565b975061150a836114ba565b9250506001810190506114eb565b5085935050505092915050565b6000602083016000830151848203600086015261154282826114c7565b9150508091505092915050565b600060208201905081810360008301526115698184611525565b905092915050565b61157a81611489565b811461158557600080fd5b50565b60008135905061159781611571565b92915050565b600080604083850312156115b4576115b3610fed565b5b60006115c285828601611588565b92505060206115d385828601611588565b9150509250929050565b60008115159050919050565b6115f2816115dd565b82525050565b600060208201905061160d60008301846115e9565b92915050565b61161c81611489565b82525050565b60006020820190506116376000830184611613565b92915050565b6000611648826112ca565b9050919050565b6116588161163d565b811461166357600080fd5b50565b6000813590506116758161164f565b92915050565b6000611686826112ca565b9050919050565b6116968161167b565b81146116a157600080fd5b50565b6000813590506116b38161168d565b92915050565b6116c2816112ca565b81146116cd57600080fd5b50565b6000813590506116df816116b9565b92915050565b6000806000606084860312156116fe576116fd610fed565b5b600061170c86828701611666565b935050602061171d868287016116a4565b925050604061172e868287016116d0565b9150509250925092565b60008083601f84011261174e5761174d610ff7565b5b8235905067ffffffffffffffff81111561176b5761176a610ffc565b5b60208301915083600182028301111561178757611786611001565b5b9250929050565b600080600080606085870312156117a8576117a7610fed565b5b60006117b6878288016116d0565b94505060206117c787828801611588565b935050604085013567ffffffffffffffff8111156117e8576117e7610ff2565b5b6117f487828801611738565b925092505092959194509250565b600081519050919050565b600082825260208201905092915050565b60005b8381101561183c578082015181840152602081019050611821565b60008484015250505050565b600061185382611802565b61185d818561180d565b935061186d81856020860161181e565b6118768161105c565b840191505092915050565b600060408201905061189660008301856115e9565b81810360208301526118a88184611848565b90509392505050565b6000806000606084860312156118ca576118c9610fed565b5b60006118d886828701611588565b93505060206118e986828701611588565b92505060406118fa86828701611588565b9150509250925092565b7f4e487b7100000000000000000000000000000000000000000000000000000000600052603260045260246000fd5b61193c816112ca565b82525050565b60006020820190506119576000830184611933565b92915050565b60008151905061196c81611571565b92915050565b60006020828403121561198857611987610fed565b5b60006119968482850161195d565b91505092915050565b7f4e487b7100000000000000000000000000000000000000000000000000000000600052601160045260246000fd5b60006119d982611489565b91507fffffffffffffffffffffffffffffffffffffffffffffffffffffffffffffffff8203611a0b57611a0a61199f565b5b600182019050919050565b600082825260208201905092915050565b7f214153534552545f475400000000000000000000000000000000000000000000600082015250565b6000611a5d600a83611a16565b9150611a6882611a27565b602082019050919050565b60006020820190508181036000830152611a8c81611a50565b9050919050565b6000611a9e82611489565b9150611aa983611489565b9250828201905080821115611ac157611ac061199f565b5b92915050565b6000819050919050565b6000611aec611ae7611ae2846112aa565b611ac7565b6112aa565b9050919050565b6000611afe82611ad1565b9050919050565b6000611b1082611af3565b9050919050565b611b2081611b05565b82525050565b6000604082019050611b3b6000830185611b17565b611b486020830184611933565b9392505050565b6000604082019050611b646000830185611933565b611b716020830184611613565b9392505050565b600081905092915050565b6000611b8f8385611b78565b9350611b9c83858461114a565b82840190509392505050565b6000611bb5828486611b83565b91508190509392505050565b7f214153534552545f455100000000000000000000000000000000000000000000600082015250565b6000611bf7600a83611a16565b9150611c0282611bc1565b602082019050919050565b60006020820190508181036000830152611c2681611bea565b9050919050565b6000611c3882611489565b9150611c4383611489565b9250828203905081811115611c5b57611c5a61199f565b5b92915050565b6000611c6c82611489565b9150611c7783611489565b9250828202611c8581611489565b91508282048414831517611c9c57611c9b61199f565b5b5092915050565b7f4e487b7100000000000000000000000000000000000000000000000000000000600052601260045260246000fd5b6000611cdd82611489565b9150611ce883611489565b925082611cf857611cf7611ca3565b5b828204905092915050565b6000611d0e82611802565b611d188185611b78565b9350611d2881856020860161181e565b80840191505092915050565b6000611d408284611d03565b915081905092915050565b7f5f657865637574653a2076616c75652063616c6c20686173206e6f2076616c7560008201527f6520696e646963617465642e0000000000000000000000000000000000000000602082015250565b6000611da7602c83611a16565b9150611db282611d4b565b604082019050919050565b60006020820190508181036000830152611dd681611d9a565b9050919050565b7f496e76616c69642063616c6c7479706500000000000000000000000000000000600082015250565b6000611e13601083611a16565b9150611e1e82611ddd565b602082019050919050565b60006020820190508181036000830152611e4281611e06565b9050919050565b600081519050919050565b6000611e5f82611e49565b611e698185611a16565b9350611e7981856020860161181e565b611e828161105c565b840191505092915050565b6000606082019050611ea26000830186611613565b611eaf6020830185611933565b8181036040830152611ec18184611e54565b9050949350505050565b600081519050919050565b600082825260208201905092915050565b6000819050602082019050919050565b600082825260208201905092915050565b6000611f1382611802565b611f1d8185611ef7565b9350611f2d81856020860161181e565b611f368161105c565b840191505092915050565b6000611f4d8383611f08565b905092915050565b6000602082019050919050565b6000611f6d82611ecb565b611f778185611ed6565b935083602082028501611f8985611ee7565b8060005b85811015611fc55784840389528151611fa68582611f41565b9450611fb183611f55565b925060208a01995050600181019050611f8d565b50829750879550505050505092915050565b60006020820190508181036000830152611ff18184611f62565b905092915050565b600061200482611489565b915061200f83611489565b92508261201f5761201e611ca3565b5b828206905092915050565b7f44796e616d6963207374617465207661726961626c6573206d7573742062652060008201527f61206d756c7469706c65206f6620333220627974657300000000000000000000602082015250565b6000612086603683611a16565b91506120918261202a565b604082019050919050565b600060208201905081810360008301526120b581612079565b9050919050565b7f537461746963207374617465207661726961626c6573206d757374206265203360008201527f3220627974657300000000000000000000000000000000000000000000000000602082015250565b6000612118602783611a16565b9150612123826120bc565b604082019050919050565b600060208201905081810360008301526121478161210b565b9050919050565b600061216161215c84611119565b6110cd565b90508281526020810184848401111561217d5761217c611114565b5b61218884828561181e565b509392505050565b600082601f8301126121a5576121a4610ff7565b5b81516121b584826020860161214e565b91505092915050565b60006121d16121cc846110e8565b6110cd565b905080838252602082019050602084028301858111156121f4576121f3611001565b5b835b8181101561223b57805167ffffffffffffffff81111561221957612218610ff7565b5b8086016122268982612190565b855260208501945050506020810190506121f6565b5050509392505050565b600082601f83011261225a57612259610ff7565b5b815161226a8482602086016121be565b91505092915050565b60006020828403121561228957612288610fed565b5b600082015167ffffffffffffffff8111156122a7576122a6610ff2565b5b6122b384828501612245565b91505092915050565b7f4f6e6c79206f6e652072657475726e2076616c7565207065726d69747465642060008201527f287661726961626c652900000000000000000000000000000000000000000000602082015250565b6000612318602a83611a16565b9150612323826122bc565b604082019050919050565b600060208201905081810360008301526123478161230b565b9050919050565b7f4f6e6c79206f6e652072657475726e2076616c7565207065726d69747465642060008201527f2873746174696329000000000000000000000000000000000000000000000000602082015250565b60006123aa602883611a16565b91506123b58261234e565b604082019050919050565b600060208201905081810360008301526123d98161239d565b905091905056fea2646970667358221220fb17f2a6884df211da58fbbc0207199188bf0dcedaaa946bf5a24893b82b77f064736f6c63430008110033",
    "linkReferences": {},
    "deployedLinkReferences": {}
}