{
  "address": "0x8731d45ff9684d380302573cCFafd994Dfa7f7d3",
  "abi": [
    {
      "inputs": [
        {
          "internalType": "contract IERC20[]",
          "name": "tokens",
          "type": "address[]"
        },
        {
          "internalType": "address",
          "name": "destination",
          "type": "address"
        }
      ],
      "name": "drainERC20s",
      "outputs": [],
      "stateMutability": "nonpayable",
      "type": "function"
    },
    {
      "inputs": [
        {
          "components": [
            {
              "internalType": "address",
              "name": "to",
              "type": "address"
            },
            {
              "internalType": "bytes",
              "name": "data",
              "type": "bytes"
            },
            {
              "internalType": "uint256",
              "name": "value",
              "type": "uint256"
            }
          ],
          "internalType": "struct Call[]",
          "name": "calls",
          "type": "tuple[]"
        },
        {
          "internalType": "contract IERC20[]",
          "name": "tokens",
          "type": "address[]"
        }
      ],
      "name": "execute",
      "outputs": [
        {
          "components": [
            {
              "internalType": "uint256[]",
              "name": "dust",
              "type": "uint256[]"
            },
            {
              "internalType": "bool",
              "name": "success",
              "type": "bool"
            },
            {
              "internalType": "uint256",
              "name": "calls",
              "type": "uint256"
            },
            {
              "internalType": "string",
              "name": "errorMessage",
              "type": "string"
            }
          ],
          "internalType": "struct ExecuteOutput",
          "name": "out",
          "type": "tuple"
        }
      ],
      "stateMutability": "nonpayable",
      "type": "function"
    },
    {
      "inputs": [
        {
          "internalType": "contract FacadeRead",
          "name": "facade",
          "type": "address"
        },
        {
          "internalType": "contract RToken",
          "name": "token",
          "type": "address"
        },
        {
          "internalType": "address",
          "name": "recipient",
          "type": "address"
        }
      ],
      "name": "mintMaxRToken",
      "outputs": [],
      "stateMutability": "nonpayable",
      "type": "function"
    },
    {
      "inputs": [
        {
          "internalType": "contract IERC20[]",
          "name": "tokens",
          "type": "address[]"
        },
        {
          "internalType": "address[]",
          "name": "spenders",
          "type": "address[]"
        }
      ],
      "name": "setupApprovals",
      "outputs": [],
      "stateMutability": "nonpayable",
      "type": "function"
    },
    {
      "stateMutability": "payable",
      "type": "receive"
    }
  ],
  "transactionHash": "0xade3b428fed1ff90580308bed40e7c0a76a7933e3b144e2b313f0c69ba6f3ab2",
  "args": [],
  "numDeployments": 1,
  "solcInputHash": "5b5384562e9136218e1f7c80740af6c5",
  "bytecode": "0x608060405234801561001057600080fd5b5061192f806100206000396000f3fe6080604052600436106100435760003560e01c8063266ed2b61461004f57806394919ce81461008c578063f1fa5150146100b5578063f7cfaec0146100de5761004a565b3661004a57005b600080fd5b34801561005b57600080fd5b5061007660048036038101906100719190610ca4565b610107565b6040516100839190610f02565b60405180910390f35b34801561009857600080fd5b506100b360048036038101906100ae9190610ffe565b6103d6565b005b3480156100c157600080fd5b506100dc60048036038101906100d791906110a7565b6104cb565b005b3480156100ea57600080fd5b5061010560048036038101906101009190611128565b610658565b005b61010f610bb5565b600085859050905060005b818110156102805780836040018181525050600087878381811061014157610140611188565b5b905060200281019061015391906111c6565b600001602081019061016591906111ee565b90506000808273ffffffffffffffffffffffffffffffffffffffff168a8a8681811061019457610193611188565b5b90506020028101906101a691906111c6565b604001358b8b878181106101bd576101bc611188565b5b90506020028101906101cf91906111c6565b80602001906101de919061121b565b6040516020016101ef9291906112bd565b60405160208183030381529060405260405161020b9190611312565b60006040518083038185875af1925050503d8060008114610248576040519150601f19603f3d011682016040523d82523d6000602084013e61024d565b606091505b50915091508161026a5780866060018190525050505050506103ce565b505050808061027890611358565b91505061011a565b5060018260200190151590811515815250508383905067ffffffffffffffff8111156102af576102ae6113a0565b5b6040519080825280602002602001820160405280156102dd5781602001602082028036833780820191505090505b50826000018190525060005b848490508110156103cb5784848281811061030757610306611188565b5b905060200201602081019061031c919061140d565b73ffffffffffffffffffffffffffffffffffffffff166370a08231306040518263ffffffff1660e01b81526004016103549190611449565b602060405180830381865afa158015610371573d6000803e3d6000fd5b505050506040513d601f19601f820116820180604052508101906103959190611490565b836000015182815181106103ac576103ab611188565b5b60200260200101818152505080806103c390611358565b9150506102e9565b50505b949350505050565b60008373ffffffffffffffffffffffffffffffffffffffff16631c3debf484306040518363ffffffff1660e01b815260040161041392919061151c565b6020604051808303816000875af1158015610432573d6000803e3d6000fd5b505050506040513d601f19601f820116820180604052508101906104569190611490565b90508273ffffffffffffffffffffffffffffffffffffffff16631207f0c183836040518363ffffffff1660e01b8152600401610493929190611554565b600060405180830381600087803b1580156104ad57600080fd5b505af11580156104c1573d6000803e3d6000fd5b5050505050505050565b818190508484905014610513576040517f08c379a000000000000000000000000000000000000000000000000000000000815260040161050a906115da565b60405180910390fd5b600084849050905060005b8181101561065057600086868381811061053b5761053a611188565b5b9050602002016020810190610550919061140d565b9050600085858481811061056757610566611188565b5b905060200201602081019061057c91906111ee565b905060008273ffffffffffffffffffffffffffffffffffffffff1663dd62ed3e30846040518363ffffffff1660e01b81526004016105bb9291906115fa565b602060405180830381865afa1580156105d8573d6000803e3d6000fd5b505050506040513d601f19601f820116820180604052508101906105fc9190611490565b90506000811461060e5750505061063d565b61063983837fffffffffffffffffffffffffffffffffffffffffffffffffffffffffffffffff61074c565b5050505b808061064890611358565b91505061051e565b505050505050565b600083839050905060005b818110156107455760008585838181106106805761067f611188565b5b9050602002016020810190610695919061140d565b905060008173ffffffffffffffffffffffffffffffffffffffff166370a08231306040518263ffffffff1660e01b81526004016106d29190611449565b602060405180830381865afa1580156106ef573d6000803e3d6000fd5b505050506040513d601f19601f820116820180604052508101906107139190611490565b905060008103610724575050610732565b61072f82868361089b565b50505b808061073d90611358565b915050610663565b5050505050565b60008114806107d6575060008373ffffffffffffffffffffffffffffffffffffffff1663dd62ed3e30856040518363ffffffff1660e01b81526004016107939291906115fa565b602060405180830381865afa1580156107b0573d6000803e3d6000fd5b505050506040513d601f19601f820116820180604052508101906107d49190611490565b145b610815576040517f08c379a000000000000000000000000000000000000000000000000000000000815260040161080c90611695565b60405180910390fd5b6108968363095ea7b360e01b8484604051602401610834929190611554565b604051602081830303815290604052907bffffffffffffffffffffffffffffffffffffffffffffffffffffffff19166020820180517bffffffffffffffffffffffffffffffffffffffffffffffffffffffff8381831617835250505050610921565b505050565b61091c8363a9059cbb60e01b84846040516024016108ba929190611554565b604051602081830303815290604052907bffffffffffffffffffffffffffffffffffffffffffffffffffffffff19166020820180517bffffffffffffffffffffffffffffffffffffffffffffffffffffffff8381831617835250505050610921565b505050565b6000610983826040518060400160405280602081526020017f5361666545524332303a206c6f772d6c6576656c2063616c6c206661696c65648152508573ffffffffffffffffffffffffffffffffffffffff166109e89092919063ffffffff16565b90506000815111156109e357808060200190518101906109a391906116e1565b6109e2576040517f08c379a00000000000000000000000000000000000000000000000000000000081526004016109d990611780565b60405180910390fd5b5b505050565b60606109f78484600085610a00565b90509392505050565b606082471015610a45576040517f08c379a0000000000000000000000000000000000000000000000000000000008152600401610a3c90611812565b60405180910390fd5b6000808673ffffffffffffffffffffffffffffffffffffffff168587604051610a6e9190611312565b60006040518083038185875af1925050503d8060008114610aab576040519150601f19603f3d011682016040523d82523d6000602084013e610ab0565b606091505b5091509150610ac187838387610acd565b92505050949350505050565b60608315610b2f576000835103610b2757610ae785610b42565b610b26576040517f08c379a0000000000000000000000000000000000000000000000000000000008152600401610b1d9061187e565b60405180910390fd5b5b829050610b3a565b610b398383610b65565b5b949350505050565b6000808273ffffffffffffffffffffffffffffffffffffffff163b119050919050565b600082511115610b785781518083602001fd5b806040517f08c379a0000000000000000000000000000000000000000000000000000000008152600401610bac91906118d7565b60405180910390fd5b60405180608001604052806060815260200160001515815260200160008152602001606081525090565b600080fd5b600080fd5b600080fd5b600080fd5b600080fd5b60008083601f840112610c0e57610c0d610be9565b5b8235905067ffffffffffffffff811115610c2b57610c2a610bee565b5b602083019150836020820283011115610c4757610c46610bf3565b5b9250929050565b60008083601f840112610c6457610c63610be9565b5b8235905067ffffffffffffffff811115610c8157610c80610bee565b5b602083019150836020820283011115610c9d57610c9c610bf3565b5b9250929050565b60008060008060408587031215610cbe57610cbd610bdf565b5b600085013567ffffffffffffffff811115610cdc57610cdb610be4565b5b610ce887828801610bf8565b9450945050602085013567ffffffffffffffff811115610d0b57610d0a610be4565b5b610d1787828801610c4e565b925092505092959194509250565b600081519050919050565b600082825260208201905092915050565b6000819050602082019050919050565b6000819050919050565b610d6481610d51565b82525050565b6000610d768383610d5b565b60208301905092915050565b6000602082019050919050565b6000610d9a82610d25565b610da48185610d30565b9350610daf83610d41565b8060005b83811015610de0578151610dc78882610d6a565b9750610dd283610d82565b925050600181019050610db3565b5085935050505092915050565b60008115159050919050565b610e0281610ded565b82525050565b600081519050919050565b600082825260208201905092915050565b60005b83811015610e42578082015181840152602081019050610e27565b60008484015250505050565b6000601f19601f8301169050919050565b6000610e6a82610e08565b610e748185610e13565b9350610e84818560208601610e24565b610e8d81610e4e565b840191505092915050565b60006080830160008301518482036000860152610eb58282610d8f565b9150506020830151610eca6020860182610df9565b506040830151610edd6040860182610d5b565b5060608301518482036060860152610ef58282610e5f565b9150508091505092915050565b60006020820190508181036000830152610f1c8184610e98565b905092915050565b600073ffffffffffffffffffffffffffffffffffffffff82169050919050565b6000610f4f82610f24565b9050919050565b6000610f6182610f44565b9050919050565b610f7181610f56565b8114610f7c57600080fd5b50565b600081359050610f8e81610f68565b92915050565b6000610f9f82610f44565b9050919050565b610faf81610f94565b8114610fba57600080fd5b50565b600081359050610fcc81610fa6565b92915050565b610fdb81610f44565b8114610fe657600080fd5b50565b600081359050610ff881610fd2565b92915050565b60008060006060848603121561101757611016610bdf565b5b600061102586828701610f7f565b935050602061103686828701610fbd565b925050604061104786828701610fe9565b9150509250925092565b60008083601f84011261106757611066610be9565b5b8235905067ffffffffffffffff81111561108457611083610bee565b5b6020830191508360208202830111156110a05761109f610bf3565b5b9250929050565b600080600080604085870312156110c1576110c0610bdf565b5b600085013567ffffffffffffffff8111156110df576110de610be4565b5b6110eb87828801610c4e565b9450945050602085013567ffffffffffffffff81111561110e5761110d610be4565b5b61111a87828801611051565b925092505092959194509250565b60008060006040848603121561114157611140610bdf565b5b600084013567ffffffffffffffff81111561115f5761115e610be4565b5b61116b86828701610c4e565b9350935050602061117e86828701610fe9565b9150509250925092565b7f4e487b7100000000000000000000000000000000000000000000000000000000600052603260045260246000fd5b600080fd5b600080fd5b600080fd5b6000823560016060038336030381126111e2576111e16111b7565b5b80830191505092915050565b60006020828403121561120457611203610bdf565b5b600061121284828501610fe9565b91505092915050565b60008083356001602003843603038112611238576112376111b7565b5b80840192508235915067ffffffffffffffff82111561125a576112596111bc565b5b602083019250600182023603831315611276576112756111c1565b5b509250929050565b600081905092915050565b82818337600083830152505050565b60006112a4838561127e565b93506112b1838584611289565b82840190509392505050565b60006112ca828486611298565b91508190509392505050565b600081519050919050565b60006112ec826112d6565b6112f6818561127e565b9350611306818560208601610e24565b80840191505092915050565b600061131e82846112e1565b915081905092915050565b7f4e487b7100000000000000000000000000000000000000000000000000000000600052601160045260246000fd5b600061136382610d51565b91507fffffffffffffffffffffffffffffffffffffffffffffffffffffffffffffffff820361139557611394611329565b5b600182019050919050565b7f4e487b7100000000000000000000000000000000000000000000000000000000600052604160045260246000fd5b60006113da82610f44565b9050919050565b6113ea816113cf565b81146113f557600080fd5b50565b600081359050611407816113e1565b92915050565b60006020828403121561142357611422610bdf565b5b6000611431848285016113f8565b91505092915050565b61144381610f44565b82525050565b600060208201905061145e600083018461143a565b92915050565b61146d81610d51565b811461147857600080fd5b50565b60008151905061148a81611464565b92915050565b6000602082840312156114a6576114a5610bdf565b5b60006114b48482850161147b565b91505092915050565b6000819050919050565b60006114e26114dd6114d884610f24565b6114bd565b610f24565b9050919050565b60006114f4826114c7565b9050919050565b6000611506826114e9565b9050919050565b611516816114fb565b82525050565b6000604082019050611531600083018561150d565b61153e602083018461143a565b9392505050565b61154e81610d51565b82525050565b6000604082019050611569600083018561143a565b6115766020830184611545565b9392505050565b600082825260208201905092915050565b7f496e76616c696420706172616d73000000000000000000000000000000000000600082015250565b60006115c4600e8361157d565b91506115cf8261158e565b602082019050919050565b600060208201905081810360008301526115f3816115b7565b9050919050565b600060408201905061160f600083018561143a565b61161c602083018461143a565b9392505050565b7f5361666545524332303a20617070726f76652066726f6d206e6f6e2d7a65726f60008201527f20746f206e6f6e2d7a65726f20616c6c6f77616e636500000000000000000000602082015250565b600061167f60368361157d565b915061168a82611623565b604082019050919050565b600060208201905081810360008301526116ae81611672565b9050919050565b6116be81610ded565b81146116c957600080fd5b50565b6000815190506116db816116b5565b92915050565b6000602082840312156116f7576116f6610bdf565b5b6000611705848285016116cc565b91505092915050565b7f5361666545524332303a204552433230206f7065726174696f6e20646964206e60008201527f6f74207375636365656400000000000000000000000000000000000000000000602082015250565b600061176a602a8361157d565b91506117758261170e565b604082019050919050565b600060208201905081810360008301526117998161175d565b9050919050565b7f416464726573733a20696e73756666696369656e742062616c616e636520666f60008201527f722063616c6c0000000000000000000000000000000000000000000000000000602082015250565b60006117fc60268361157d565b9150611807826117a0565b604082019050919050565b6000602082019050818103600083015261182b816117ef565b9050919050565b7f416464726573733a2063616c6c20746f206e6f6e2d636f6e7472616374000000600082015250565b6000611868601d8361157d565b915061187382611832565b602082019050919050565b600060208201905081810360008301526118978161185b565b9050919050565b60006118a982610e08565b6118b3818561157d565b93506118c3818560208601610e24565b6118cc81610e4e565b840191505092915050565b600060208201905081810360008301526118f1818461189e565b90509291505056fea26469706673582212202d5e5e96afc3bd40e32bef0ec37974bc56a0c2f18ed689e32999679b13d9e2ea64736f6c63430008110033",
  "devdoc": {
    "kind": "dev",
    "methods": {
      "drainERC20s(address[],address)": {
        "details": "Utility for returning remaining funds back to user",
        "params": {
          "destination": "- Recipient of the ERC20 transfers",
          "tokens": "- Tokens to move out of the ZapperExecutor contract"
        }
      },
      "execute((address,bytes,uint256)[],address[])": {
        "details": "Main endpoint to call",
        "params": {
          "calls": "- Each call to execute"
        }
      },
      "mintMaxRToken(address,address,address)": {
        "details": "Utility for minting max amount of rToken. Should only be used off-chain to calculate the exact amount of an rToken that can be minted",
        "params": {
          "recipient": "- Recipient of the rToken",
          "token": "- rToken to mint"
        }
      },
      "setupApprovals(address[],address[])": {
        "details": "Utility for setting up all neccesary approvals for Zap",
        "params": {
          "spenders": "- Spenders - i'th token will be approved for i'th spender",
          "tokens": "- Tokens to set up approvals"
        }
      }
    },
    "version": 1
  },
  "userdoc": {
    "kind": "user",
    "methods": {},
    "version": 1
  },
  "storageLayout": {
    "storage": [],
    "types": null
  }
}