{
  "_format": "hh-sol-artifact-1",
  "contractName": "ZapperExecutor",
  "sourceName": "contracts/ZapperExecutor.sol",
  "abi": [
    {
      "inputs": [
        {
          "internalType": "uint256",
          "name": "command_index",
          "type": "uint256"
        },
        {
          "internalType": "address",
          "name": "target",
          "type": "address"
        },
        {
          "internalType": "string",
          "name": "message",
          "type": "string"
        }
      ],
      "name": "ExecutionFailed",
      "type": "error"
    },
    {
      "inputs": [
        {
          "internalType": "uint256",
          "name": "a",
          "type": "uint256"
        },
        {
          "internalType": "uint256",
          "name": "b",
          "type": "uint256"
        }
      ],
      "name": "add",
      "outputs": [
        {
          "internalType": "uint256",
          "name": "",
          "type": "uint256"
        }
      ],
      "stateMutability": "pure",
      "type": "function"
    },
    {
      "inputs": [
        {
          "internalType": "uint256",
          "name": "a",
          "type": "uint256"
        },
        {
          "internalType": "uint256",
          "name": "b",
          "type": "uint256"
        }
      ],
      "name": "assertEqual",
      "outputs": [
        {
          "internalType": "bool",
          "name": "",
          "type": "bool"
        }
      ],
      "stateMutability": "pure",
      "type": "function"
    },
    {
      "inputs": [
        {
          "internalType": "uint256",
          "name": "a",
          "type": "uint256"
        },
        {
          "internalType": "uint256",
          "name": "b",
          "type": "uint256"
        }
      ],
      "name": "assertLarger",
      "outputs": [
        {
          "internalType": "bool",
          "name": "",
          "type": "bool"
        }
      ],
      "stateMutability": "pure",
      "type": "function"
    },
    {
      "inputs": [
        {
          "internalType": "bytes32[]",
          "name": "commands",
          "type": "bytes32[]"
        },
        {
          "internalType": "bytes[]",
          "name": "state",
          "type": "bytes[]"
        },
        {
          "internalType": "contract IERC20[]",
          "name": "tokens",
          "type": "address[]"
        }
      ],
      "name": "execute",
      "outputs": [
        {
          "components": [
            {
              "internalType": "uint256[]",
              "name": "dust",
              "type": "uint256[]"
            }
          ],
          "internalType": "struct ExecuteOutput",
          "name": "out",
          "type": "tuple"
        }
      ],
      "stateMutability": "payable",
      "type": "function"
    },
    {
      "inputs": [
        {
          "internalType": "bytes32[]",
          "name": "commands",
          "type": "bytes32[]"
        },
        {
          "internalType": "bytes[]",
          "name": "state",
          "type": "bytes[]"
        },
        {
          "internalType": "contract IERC20[]",
          "name": "tokens",
          "type": "address[]"
        },
        {
          "components": [
            {
              "internalType": "address",
              "name": "deployer",
              "type": "address"
            },
            {
              "components": [
                {
                  "internalType": "string",
                  "name": "name",
                  "type": "string"
                },
                {
                  "internalType": "string",
                  "name": "symbol",
                  "type": "string"
                },
                {
                  "internalType": "address[]",
                  "name": "assets",
                  "type": "address[]"
                },
                {
                  "internalType": "uint256[]",
                  "name": "amounts",
                  "type": "uint256[]"
                },
                {
                  "internalType": "uint256",
                  "name": "initialShares",
                  "type": "uint256"
                }
              ],
              "internalType": "struct IFolio.FolioBasicDetails",
              "name": "basicDetails",
              "type": "tuple"
            },
            {
              "components": [
                {
                  "internalType": "uint256",
                  "name": "auctionDelay",
                  "type": "uint256"
                },
                {
                  "internalType": "uint256",
                  "name": "auctionLength",
                  "type": "uint256"
                },
                {
                  "components": [
                    {
                      "internalType": "address",
                      "name": "recipient",
                      "type": "address"
                    },
                    {
                      "internalType": "uint96",
                      "name": "portion",
                      "type": "uint96"
                    }
                  ],
                  "internalType": "struct IFolio.FeeRecipient[]",
                  "name": "feeRecipients",
                  "type": "tuple[]"
                },
                {
                  "internalType": "uint256",
                  "name": "tvlFee",
                  "type": "uint256"
                },
                {
                  "internalType": "uint256",
                  "name": "mintFee",
                  "type": "uint256"
                },
                {
                  "internalType": "string",
                  "name": "mandate",
                  "type": "string"
                }
              ],
              "internalType": "struct IFolio.FolioAdditionalDetails",
              "name": "additionalDetails",
              "type": "tuple"
            },
            {
              "components": [
                {
                  "internalType": "address[]",
                  "name": "existingTradeProposers",
                  "type": "address[]"
                },
                {
                  "internalType": "address[]",
                  "name": "tradeLaunchers",
                  "type": "address[]"
                },
                {
                  "internalType": "address[]",
                  "name": "vibesOfficers",
                  "type": "address[]"
                }
              ],
              "internalType": "struct GovRoles",
              "name": "govRoles",
              "type": "tuple"
            },
            {
              "internalType": "bool",
              "name": "isGoverned",
              "type": "bool"
            },
            {
              "internalType": "contract IVotes",
              "name": "stToken",
              "type": "address"
            },
            {
              "internalType": "address",
              "name": "owner",
              "type": "address"
            },
            {
              "components": [
                {
                  "internalType": "uint48",
                  "name": "votingDelay",
                  "type": "uint48"
                },
                {
                  "internalType": "uint32",
                  "name": "votingPeriod",
                  "type": "uint32"
                },
                {
                  "internalType": "uint256",
                  "name": "proposalThreshold",
                  "type": "uint256"
                },
                {
                  "internalType": "uint256",
                  "name": "quorumPercent",
                  "type": "uint256"
                },
                {
                  "internalType": "uint256",
                  "name": "timelockDelay",
                  "type": "uint256"
                },
                {
                  "internalType": "address[]",
                  "name": "guardians",
                  "type": "address[]"
                }
              ],
              "internalType": "struct IGovernanceDeployer.GovParams",
              "name": "ownerGovParams",
              "type": "tuple"
            },
            {
              "components": [
                {
                  "internalType": "uint48",
                  "name": "votingDelay",
                  "type": "uint48"
                },
                {
                  "internalType": "uint32",
                  "name": "votingPeriod",
                  "type": "uint32"
                },
                {
                  "internalType": "uint256",
                  "name": "proposalThreshold",
                  "type": "uint256"
                },
                {
                  "internalType": "uint256",
                  "name": "quorumPercent",
                  "type": "uint256"
                },
                {
                  "internalType": "uint256",
                  "name": "timelockDelay",
                  "type": "uint256"
                },
                {
                  "internalType": "address[]",
                  "name": "guardians",
                  "type": "address[]"
                }
              ],
              "internalType": "struct IGovernanceDeployer.GovParams",
              "name": "tradingGovParams",
              "type": "tuple"
            }
          ],
          "internalType": "struct DeployFolioConfig",
          "name": "config",
          "type": "tuple"
        },
        {
          "internalType": "address",
          "name": "recipient",
          "type": "address"
        }
      ],
      "name": "executeDeploy",
      "outputs": [
        {
          "components": [
            {
              "internalType": "uint256[]",
              "name": "dust",
              "type": "uint256[]"
            },
            {
              "internalType": "uint256",
              "name": "amountOut",
              "type": "uint256"
            }
          ],
          "internalType": "struct ExecuteDeployOutput",
          "name": "out",
          "type": "tuple"
        }
      ],
      "stateMutability": "payable",
      "type": "function"
    },
    {
      "inputs": [
        {
          "internalType": "uint256",
          "name": "a",
          "type": "uint256"
        },
        {
          "internalType": "uint256",
          "name": "b",
          "type": "uint256"
        },
        {
          "internalType": "uint256",
          "name": "scale",
          "type": "uint256"
        }
      ],
      "name": "fpMul",
      "outputs": [
        {
          "internalType": "uint256",
          "name": "",
          "type": "uint256"
        }
      ],
      "stateMutability": "pure",
      "type": "function"
    },
    {
      "inputs": [
        {
          "internalType": "contract FacadeRead",
          "name": "facade",
          "type": "address"
        },
        {
          "internalType": "contract RToken",
          "name": "token",
          "type": "address"
        },
        {
          "internalType": "address",
          "name": "recipient",
          "type": "address"
        }
      ],
      "name": "mintMaxRToken",
      "outputs": [],
      "stateMutability": "nonpayable",
      "type": "function"
    },
    {
      "inputs": [
        {
          "internalType": "address",
          "name": "to",
          "type": "address"
        },
        {
          "internalType": "uint256",
          "name": "value",
          "type": "uint256"
        },
        {
          "internalType": "bytes",
          "name": "data",
          "type": "bytes"
        }
      ],
      "name": "rawCall",
      "outputs": [
        {
          "internalType": "bool",
          "name": "success",
          "type": "bool"
        },
        {
          "internalType": "bytes",
          "name": "out",
          "type": "bytes"
        }
      ],
      "stateMutability": "nonpayable",
      "type": "function"
    },
    {
      "inputs": [
        {
          "internalType": "uint256",
          "name": "a",
          "type": "uint256"
        },
        {
          "internalType": "uint256",
          "name": "b",
          "type": "uint256"
        }
      ],
      "name": "sub",
      "outputs": [
        {
          "internalType": "uint256",
          "name": "",
          "type": "uint256"
        }
      ],
      "stateMutability": "pure",
      "type": "function"
    },
    {
      "stateMutability": "payable",
      "type": "receive"
    }
  ],
  "bytecode": "0x60a060405234801561001057600080fd5b503073ffffffffffffffffffffffffffffffffffffffff1660808173ffffffffffffffffffffffffffffffffffffffff16815250506080516147f561005d600039600050506147f56000f3fe60806040526004361061008a5760003560e01c806394919ce81161005957806394919ce81461017057806398a38d7d14610199578063ad207fd7146101d7578063b67d77c514610214578063d47b0de41461025157610091565b806308c4b49814610096578063298e2c9e146100c65780635d56d9c214610103578063771602f71461013357610091565b3661009157005b600080fd5b6100b060048036038101906100ab91906121a3565b61028e565b6040516100bd9190612341565b60405180910390f35b3480156100d257600080fd5b506100ed60048036038101906100e8919061238f565b610423565b6040516100fa91906123ea565b60405180910390f35b61011d60048036038101906101189190612d51565b610471565b60405161012a9190612e7c565b60405180910390f35b34801561013f57600080fd5b5061015a6004803603810190610155919061238f565b610cfb565b6040516101679190612ead565b60405180910390f35b34801561017c57600080fd5b5061019760048036038101906101929190612f44565b610d11565b005b3480156101a557600080fd5b506101c060048036038101906101bb9190612fed565b610e06565b6040516101ce9291906130e0565b60405180910390f35b3480156101e357600080fd5b506101fe60048036038101906101f9919061238f565b610ef4565b60405161020b91906123ea565b60405180910390f35b34801561022057600080fd5b5061023b6004803603810190610236919061238f565b610f42565b6040516102489190612ead565b60405180910390f35b34801561025d57600080fd5b5061027860048036038101906102739190613110565b610f58565b6040516102859190612ead565b60405180910390f35b610296611da8565b6000303f90506102a7868686610f7a565b50825167ffffffffffffffff8111156102c3576102c2611e5f565b5b6040519080825280602002602001820160405280156102f15781602001602082028036833780820191505090505b50826000018190525060005b83518110156103d05783818151811061031957610318613163565b5b602002602001015173ffffffffffffffffffffffffffffffffffffffff166370a08231306040518263ffffffff1660e01b815260040161035991906131a1565b602060405180830381865afa158015610376573d6000803e3d6000fd5b505050506040513d601f19601f8201168201806040525081019061039a91906131d1565b836000015182815181106103b1576103b0613163565b5b60200260200101818152505080806103c89061322d565b9150506102fd565b506000303f9050818114610419576040517f08c379a0000000000000000000000000000000000000000000000000000000008152600401610410906132f8565b60405180910390fd5b5050949350505050565b6000818311610467576040517f08c379a000000000000000000000000000000000000000000000000000000000815260040161045e90613364565b60405180910390fd5b6001905092915050565b610479611dbb565b6000303f905061048a888888610f7a565b5060007fffffffffffffffffffffffffffffffffffffffffffffffffffffffffffffffff905060005b856020015160400151518110156106d957600086602001516040015182815181106104e1576104e0613163565b5b602002602001015173ffffffffffffffffffffffffffffffffffffffff166370a08231306040518263ffffffff1660e01b815260040161052191906131a1565b602060405180830381865afa15801561053e573d6000803e3d6000fd5b505050506040513d601f19601f8201168201806040525081019061056291906131d1565b9050600081036105a7576040517f08c379a000000000000000000000000000000000000000000000000000000000815260040161059e906133d0565b60405180910390fd5b600087602001516060015183815181106105c4576105c3613163565b5b6020026020010151905060008103610611576040517f08c379a00000000000000000000000000000000000000000000000000000000081526004016106089061343c565b60405180910390fd5b600081670de0b6b3a764000084610628919061345c565b61063291906134cd565b905084811015610640578094505b610672896020015160400151858151811061065e5761065d613163565b5b60200260200101518a6000015160006113f3565b6106c389602001516040015185815181106106905761068f613163565b5b60200260200101518a600001517fffffffffffffffffffffffffffffffffffffffffffffffffffffffffffffffff6113f3565b50505080806106d19061322d565b9150506104b3565b507fffffffffffffffffffffffffffffffffffffffffffffffffffffffffffffffff810361073c576040517f08c379a00000000000000000000000000000000000000000000000000000000081526004016107339061354a565b60405180910390fd5b808560200151608001818152505084608001511561090c576000856000015173ffffffffffffffffffffffffffffffffffffffff1663281c186f8760a00151886020015189604001518a60e001518b61010001518c606001516040518763ffffffff1660e01b81526004016107b6969594939291906139e9565b60c0604051808303816000875af11580156107d5573d6000803e3d6000fd5b505050506040513d601f19601f820116820180604052508101906107f99190613a82565b505050505090508073ffffffffffffffffffffffffffffffffffffffff166370a08231306040518263ffffffff1660e01b815260040161083991906131a1565b602060405180830381865afa158015610856573d6000803e3d6000fd5b505050506040513d601f19601f8201168201806040525081019061087a91906131d1565b8460200181815250508073ffffffffffffffffffffffffffffffffffffffff1663a9059cbb8686602001516040518363ffffffff1660e01b81526004016108c2929190613b0f565b6020604051808303816000875af11580156108e1573d6000803e3d6000fd5b505050506040513d601f19601f820116820180604052508101906109059190613b4d565b5050610ac6565b6000856000015173ffffffffffffffffffffffffffffffffffffffff1663e45a297d876020015188604001518960c001518a60600151600001518b60600151602001518c60600151604001516040518763ffffffff1660e01b815260040161097996959493929190613be9565b60408051808303816000875af1158015610997573d6000803e3d6000fd5b505050506040513d601f19601f820116820180604052508101906109bb9190613c6d565b5090508073ffffffffffffffffffffffffffffffffffffffff166370a08231306040518263ffffffff1660e01b81526004016109f791906131a1565b602060405180830381865afa158015610a14573d6000803e3d6000fd5b505050506040513d601f19601f82011682018060405250810190610a3891906131d1565b8460200181815250508073ffffffffffffffffffffffffffffffffffffffff1663a9059cbb8686602001516040518363ffffffff1660e01b8152600401610a80929190613b0f565b6020604051808303816000875af1158015610a9f573d6000803e3d6000fd5b505050506040513d601f19601f82011682018060405250810190610ac39190613b4d565b50505b855167ffffffffffffffff811115610ae157610ae0611e5f565b5b604051908082528060200260200182016040528015610b0f5781602001602082028036833780820191505090505b50836000018190525060005b8651811015610ca557868181518110610b3757610b36613163565b5b602002602001015173ffffffffffffffffffffffffffffffffffffffff166370a08231306040518263ffffffff1660e01b8152600401610b7791906131a1565b602060405180830381865afa158015610b94573d6000803e3d6000fd5b505050506040513d601f19601f82011682018060405250810190610bb891906131d1565b84600001518281518110610bcf57610bce613163565b5b602002602001018181525050868181518110610bee57610bed613163565b5b602002602001015173ffffffffffffffffffffffffffffffffffffffff1663a9059cbb8686600001518481518110610c2957610c28613163565b5b60200260200101516040518363ffffffff1660e01b8152600401610c4e929190613b0f565b6020604051808303816000875af1158015610c6d573d6000803e3d6000fd5b505050506040513d601f19601f82011682018060405250810190610c919190613b4d565b508080610c9d9061322d565b915050610b1b565b50506000303f9050818114610cef576040517f08c379a0000000000000000000000000000000000000000000000000000000008152600401610ce6906132f8565b60405180910390fd5b50509695505050505050565b60008183610d099190613cad565b905092915050565b60008373ffffffffffffffffffffffffffffffffffffffff16631c3debf484306040518363ffffffff1660e01b8152600401610d4e929190613d02565b6020604051808303816000875af1158015610d6d573d6000803e3d6000fd5b505050506040513d601f19601f82011682018060405250810190610d9191906131d1565b90508273ffffffffffffffffffffffffffffffffffffffff16631207f0c183836040518363ffffffff1660e01b8152600401610dce929190613b0f565b600060405180830381600087803b158015610de857600080fd5b505af1158015610dfc573d6000803e3d6000fd5b5050505050505050565b600060603073ffffffffffffffffffffffffffffffffffffffff163373ffffffffffffffffffffffffffffffffffffffff1614610e78576040517f08c379a0000000000000000000000000000000000000000000000000000000008152600401610e6f90613d9d565b60405180910390fd5b8573ffffffffffffffffffffffffffffffffffffffff16858585604051610ea0929190613ded565b60006040518083038185875af1925050503d8060008114610edd576040519150601f19603f3d011682016040523d82523d6000602084013e610ee2565b606091505b50809250819350505094509492505050565b6000818314610f38576040517f08c379a0000000000000000000000000000000000000000000000000000000008152600401610f2f90613e52565b60405180910390fd5b6001905092915050565b60008183610f509190613e72565b905092915050565b6000818385610f67919061345c565b610f7191906134cd565b90509392505050565b60606000806000806060600089899050905060005b818110156113e2578a8a82818110610faa57610fa9613163565b5b905060200201359650602087901b60f81c60ff16955060006080871614610ff8578a8a8280610fd89061322d565b9350818110610fea57610fe9613163565b5b905060200201359450611022565b79ffffffffffffffffffffffffffffffffffffffffffffffffffff602888901b60001c1760001b94505b600060038716036110b7578660001c73ffffffffffffffffffffffffffffffffffffffff1661105c88878c6115429092919063ffffffff16565b6040516110699190613ed7565b600060405180830381855af49150503d80600081146110a4576040519150601f19603f3d011682016040523d82523d6000602084013e6110a9565b606091505b508094508195505050611338565b6001600387160361114e578660001c73ffffffffffffffffffffffffffffffffffffffff166110f188878c6115429092919063ffffffff16565b6040516110fe9190613ed7565b6000604051808303816000865af19150503d806000811461113b576040519150601f19603f3d011682016040523d82523d6000602084013e611140565b606091505b508094508195505050611337565b600260038716036111e3578660001c73ffffffffffffffffffffffffffffffffffffffff1661118888878c6115429092919063ffffffff16565b6040516111959190613ed7565b600060405180830381855afa9150503d80600081146111d0576040519150601f19603f3d011682016040523d82523d6000602084013e6111d5565b606091505b508094508195505050611336565b6003808716036112fa576000808a8760f81c60ff168151811061120957611208613163565b5b602002602001015190506020815114611257576040517f08c379a000000000000000000000000000000000000000000000000000000000815260040161124e90613f60565b60405180910390fd5b602081015191508860001c73ffffffffffffffffffffffffffffffffffffffff168261129b8b60ff60088c901b60001c1760001b8f6115429092919063ffffffff16565b6040516112a89190613ed7565b60006040518083038185875af1925050503d80600081146112e5576040519150601f19603f3d011682016040523d82523d6000602084013e6112ea565b606091505b5080965081975050505050611335565b6040517f08c379a000000000000000000000000000000000000000000000000000000000815260040161132c90613fcc565b60405180910390fd5b5b5b5b836113925760008351111561134e576044830192505b808760001c846040517fef3dcb2f00000000000000000000000000000000000000000000000000000000815260040161138993929190614025565b60405180910390fd5b600060408716146113bb576113b6605888901b848b6118a69092919063ffffffff16565b6113d7565b6113d4605888901b848b61195b9092919063ffffffff16565b98505b806001019050610f8f565b508796505050505050509392505050565b600081148061147d575060008373ffffffffffffffffffffffffffffffffffffffff1663dd62ed3e30856040518363ffffffff1660e01b815260040161143a929190614063565b602060405180830381865afa158015611457573d6000803e3d6000fd5b505050506040513d601f19601f8201168201806040525081019061147b91906131d1565b145b6114bc576040517f08c379a00000000000000000000000000000000000000000000000000000000081526004016114b3906140fe565b60405180910390fd5b61153d8363095ea7b360e01b84846040516024016114db929190613b0f565b604051602081830303815290604052907bffffffffffffffffffffffffffffffffffffffffffffffffffffffff19166020820180517bffffffffffffffffffffffffffffffffffffffffffffffffffffffff8381831617835250505050611afa565b505050565b606060008060606000805b60208110156116e65786816020811061156957611568613163565b5b1a60f81b60f81c60ff16915060ff8203156116e657600060808316146116645760fe82036115d15760008351036115bd57886040516020016115ab919061422a565b60405160208183030381529060405292505b8251856115ca9190613cad565b945061165f565b600089607f8416815181106115e9576115e8613163565b5b60200260200101515190506000602082611603919061424c565b14611643576040517f08c379a000000000000000000000000000000000000000000000000000000000815260040161163a906142ef565b60405180910390fd5b6020816116509190613cad565b8661165b9190613cad565b9550505b6116d5565b602089607f84168151811061167c5761167b613163565b5b602002602001015151146116c5576040517f08c379a00000000000000000000000000000000000000000000000000000000081526004016116bc90614381565b60405180910390fd5b6020856116d29190613cad565b94505b60208401935080600101905061154d565b506004846116f49190613cad565b67ffffffffffffffff81111561170d5761170c611e5f565b5b6040519080825280601f01601f19166020018201604052801561173f5781602001600182028036833780820191505090505b5094508660208601526000935060005b602081101561189a5786816020811061176b5761176a613163565b5b1a60f81b60f81c60ff16915060ff82031561189a57600060808316146118595760fe82036117e25783856024880101526117c2836020886004886117af9190613cad565b602088516117bd9190613e72565b611bc1565b602083516117d09190613e72565b846117db9190613cad565b9350611854565b600089607f8416815181106117fa576117f9613163565b5b602002602001015151905084866024890101526118448a607f85168151811061182657611825613163565b5b602002602001015160008960048961183e9190613cad565b85611bc1565b80856118509190613cad565b9450505b611889565b600089607f84168151811061187157611870613163565b5b60200260200101519050602081015186602489010152505b60208501945080600101905061174f565b50505050509392505050565b60008260f81c60ff16905060ff81036118bf5750611956565b6000602083516118cf9190613cad565b67ffffffffffffffff8111156118e8576118e7611e5f565b5b6040519080825280601f01601f19166020018201604052801561191a5781602001600182028036833780820191505090505b5085838151811061192e5761192d613163565b5b60200260200101819052905061194a8360008360208751611bc1565b82518060208301525050505b505050565b606060008360f81c60ff16905060ff81036119795784915050611af3565b60006080821614611a155760fe81036119a757828060200190518101906119a091906144c6565b9450611a10565b600060208401519050602081146119f3576040517f08c379a00000000000000000000000000000000000000000000000000000000081526004016119ea90614581565b60405180910390fd5b60208451036020850152602084016020607f841602602088010152505b611aee565b602083511015611a5a576040517f08c379a0000000000000000000000000000000000000000000000000000000008152600401611a51906145ed565b60405180910390fd5b602083511115611acb576000602067ffffffffffffffff811115611a8157611a80611e5f565b5b6040519080825280601f01601f191660200182016040528015611ab35781602001600182028036833780820191505090505b509050611ac68460008360008851611bc1565b809350505b8285607f831681518110611ae257611ae1613163565b5b60200260200101819052505b849150505b9392505050565b6000611b5c826040518060400160405280602081526020017f5361666545524332303a206c6f772d6c6576656c2063616c6c206661696c65648152508573ffffffffffffffffffffffffffffffffffffffff16611bdb9092919063ffffffff16565b9050600081511115611bbc5780806020019051810190611b7c9190613b4d565b611bbb576040517f08c379a0000000000000000000000000000000000000000000000000000000008152600401611bb29061467f565b60405180910390fd5b5b505050565b808260208501018286602089010160045afa505050505050565b6060611bea8484600085611bf3565b90509392505050565b606082471015611c38576040517f08c379a0000000000000000000000000000000000000000000000000000000008152600401611c2f90614711565b60405180910390fd5b6000808673ffffffffffffffffffffffffffffffffffffffff168587604051611c619190613ed7565b60006040518083038185875af1925050503d8060008114611c9e576040519150601f19603f3d011682016040523d82523d6000602084013e611ca3565b606091505b5091509150611cb487838387611cc0565b92505050949350505050565b60608315611d22576000835103611d1a57611cda85611d35565b611d19576040517f08c379a0000000000000000000000000000000000000000000000000000000008152600401611d109061477d565b60405180910390fd5b5b829050611d2d565b611d2c8383611d58565b5b949350505050565b6000808273ffffffffffffffffffffffffffffffffffffffff163b119050919050565b600082511115611d6b5781518083602001fd5b806040517f08c379a0000000000000000000000000000000000000000000000000000000008152600401611d9f919061479d565b60405180910390fd5b6040518060200160405280606081525090565b604051806040016040528060608152602001600081525090565b6000604051905090565b600080fd5b600080fd5b600080fd5b600080fd5b600080fd5b60008083601f840112611e0e57611e0d611de9565b5b8235905067ffffffffffffffff811115611e2b57611e2a611dee565b5b602083019150836020820283011115611e4757611e46611df3565b5b9250929050565b6000601f19601f8301169050919050565b7f4e487b7100000000000000000000000000000000000000000000000000000000600052604160045260246000fd5b611e9782611e4e565b810181811067ffffffffffffffff82111715611eb657611eb5611e5f565b5b80604052505050565b6000611ec9611dd5565b9050611ed58282611e8e565b919050565b600067ffffffffffffffff821115611ef557611ef4611e5f565b5b602082029050602081019050919050565b600080fd5b600067ffffffffffffffff821115611f2657611f25611e5f565b5b611f2f82611e4e565b9050602081019050919050565b82818337600083830152505050565b6000611f5e611f5984611f0b565b611ebf565b905082815260208101848484011115611f7a57611f79611f06565b5b611f85848285611f3c565b509392505050565b600082601f830112611fa257611fa1611de9565b5b8135611fb2848260208601611f4b565b91505092915050565b6000611fce611fc984611eda565b611ebf565b90508083825260208201905060208402830185811115611ff157611ff0611df3565b5b835b8181101561203857803567ffffffffffffffff81111561201657612015611de9565b5b8086016120238982611f8d565b85526020850194505050602081019050611ff3565b5050509392505050565b600082601f83011261205757612056611de9565b5b8135612067848260208601611fbb565b91505092915050565b600067ffffffffffffffff82111561208b5761208a611e5f565b5b602082029050602081019050919050565b600073ffffffffffffffffffffffffffffffffffffffff82169050919050565b60006120c78261209c565b9050919050565b60006120d9826120bc565b9050919050565b6120e9816120ce565b81146120f457600080fd5b50565b600081359050612106816120e0565b92915050565b600061211f61211a84612070565b611ebf565b9050808382526020820190506020840283018581111561214257612141611df3565b5b835b8181101561216b578061215788826120f7565b845260208401935050602081019050612144565b5050509392505050565b600082601f83011261218a57612189611de9565b5b813561219a84826020860161210c565b91505092915050565b600080600080606085870312156121bd576121bc611ddf565b5b600085013567ffffffffffffffff8111156121db576121da611de4565b5b6121e787828801611df8565b9450945050602085013567ffffffffffffffff81111561220a57612209611de4565b5b61221687828801612042565b925050604085013567ffffffffffffffff81111561223757612236611de4565b5b61224387828801612175565b91505092959194509250565b600081519050919050565b600082825260208201905092915050565b6000819050602082019050919050565b6000819050919050565b61228e8161227b565b82525050565b60006122a08383612285565b60208301905092915050565b6000602082019050919050565b60006122c48261224f565b6122ce818561225a565b93506122d98361226b565b8060005b8381101561230a5781516122f18882612294565b97506122fc836122ac565b9250506001810190506122dd565b5085935050505092915050565b6000602083016000830151848203600086015261233482826122b9565b9150508091505092915050565b6000602082019050818103600083015261235b8184612317565b905092915050565b61236c8161227b565b811461237757600080fd5b50565b60008135905061238981612363565b92915050565b600080604083850312156123a6576123a5611ddf565b5b60006123b48582860161237a565b92505060206123c58582860161237a565b9150509250929050565b60008115159050919050565b6123e4816123cf565b82525050565b60006020820190506123ff60008301846123db565b92915050565b600080fd5b600080fd5b612418816120bc565b811461242357600080fd5b50565b6000813590506124358161240f565b92915050565b600067ffffffffffffffff82111561245657612455611e5f565b5b61245f82611e4e565b9050602081019050919050565b600061247f61247a8461243b565b611ebf565b90508281526020810184848401111561249b5761249a611f06565b5b6124a6848285611f3c565b509392505050565b600082601f8301126124c3576124c2611de9565b5b81356124d384826020860161246c565b91505092915050565b600067ffffffffffffffff8211156124f7576124f6611e5f565b5b602082029050602081019050919050565b600061251b612516846124dc565b611ebf565b9050808382526020820190506020840283018581111561253e5761253d611df3565b5b835b8181101561256757806125538882612426565b845260208401935050602081019050612540565b5050509392505050565b600082601f83011261258657612585611de9565b5b8135612596848260208601612508565b91505092915050565b600067ffffffffffffffff8211156125ba576125b9611e5f565b5b602082029050602081019050919050565b60006125de6125d98461259f565b611ebf565b9050808382526020820190506020840283018581111561260157612600611df3565b5b835b8181101561262a5780612616888261237a565b845260208401935050602081019050612603565b5050509392505050565b600082601f83011261264957612648611de9565b5b81356126598482602086016125cb565b91505092915050565b600060a0828403121561267857612677612405565b5b61268260a0611ebf565b9050600082013567ffffffffffffffff8111156126a2576126a161240a565b5b6126ae848285016124ae565b600083015250602082013567ffffffffffffffff8111156126d2576126d161240a565b5b6126de848285016124ae565b602083015250604082013567ffffffffffffffff8111156127025761270161240a565b5b61270e84828501612571565b604083015250606082013567ffffffffffffffff8111156127325761273161240a565b5b61273e84828501612634565b60608301525060806127528482850161237a565b60808301525092915050565b600067ffffffffffffffff82111561277957612778611e5f565b5b602082029050602081019050919050565b60006bffffffffffffffffffffffff82169050919050565b6127ab8161278a565b81146127b657600080fd5b50565b6000813590506127c8816127a2565b92915050565b6000604082840312156127e4576127e3612405565b5b6127ee6040611ebf565b905060006127fe84828501612426565b6000830152506020612812848285016127b9565b60208301525092915050565b600061283161282c8461275e565b611ebf565b9050808382526020820190506040840283018581111561285457612853611df3565b5b835b8181101561287d578061286988826127ce565b845260208401935050604081019050612856565b5050509392505050565b600082601f83011261289c5761289b611de9565b5b81356128ac84826020860161281e565b91505092915050565b600060c082840312156128cb576128ca612405565b5b6128d560c0611ebf565b905060006128e58482850161237a565b60008301525060206128f98482850161237a565b602083015250604082013567ffffffffffffffff81111561291d5761291c61240a565b5b61292984828501612887565b604083015250606061293d8482850161237a565b60608301525060806129518482850161237a565b60808301525060a082013567ffffffffffffffff8111156129755761297461240a565b5b612981848285016124ae565b60a08301525092915050565b6000606082840312156129a3576129a2612405565b5b6129ad6060611ebf565b9050600082013567ffffffffffffffff8111156129cd576129cc61240a565b5b6129d984828501612571565b600083015250602082013567ffffffffffffffff8111156129fd576129fc61240a565b5b612a0984828501612571565b602083015250604082013567ffffffffffffffff811115612a2d57612a2c61240a565b5b612a3984828501612571565b60408301525092915050565b612a4e816123cf565b8114612a5957600080fd5b50565b600081359050612a6b81612a45565b92915050565b6000612a7c826120bc565b9050919050565b612a8c81612a71565b8114612a9757600080fd5b50565b600081359050612aa981612a83565b92915050565b600065ffffffffffff82169050919050565b612aca81612aaf565b8114612ad557600080fd5b50565b600081359050612ae781612ac1565b92915050565b600063ffffffff82169050919050565b612b0681612aed565b8114612b1157600080fd5b50565b600081359050612b2381612afd565b92915050565b600060c08284031215612b3f57612b3e612405565b5b612b4960c0611ebf565b90506000612b5984828501612ad8565b6000830152506020612b6d84828501612b14565b6020830152506040612b818482850161237a565b6040830152506060612b958482850161237a565b6060830152506080612ba98482850161237a565b60808301525060a082013567ffffffffffffffff811115612bcd57612bcc61240a565b5b612bd984828501612571565b60a08301525092915050565b60006101208284031215612bfc57612bfb612405565b5b612c07610120611ebf565b90506000612c1784828501612426565b600083015250602082013567ffffffffffffffff811115612c3b57612c3a61240a565b5b612c4784828501612662565b602083015250604082013567ffffffffffffffff811115612c6b57612c6a61240a565b5b612c77848285016128b5565b604083015250606082013567ffffffffffffffff811115612c9b57612c9a61240a565b5b612ca78482850161298d565b6060830152506080612cbb84828501612a5c565b60808301525060a0612ccf84828501612a9a565b60a08301525060c0612ce384828501612426565b60c08301525060e082013567ffffffffffffffff811115612d0757612d0661240a565b5b612d1384828501612b29565b60e08301525061010082013567ffffffffffffffff811115612d3857612d3761240a565b5b612d4484828501612b29565b6101008301525092915050565b60008060008060008060a08789031215612d6e57612d6d611ddf565b5b600087013567ffffffffffffffff811115612d8c57612d8b611de4565b5b612d9889828a01611df8565b9650965050602087013567ffffffffffffffff811115612dbb57612dba611de4565b5b612dc789828a01612042565b945050604087013567ffffffffffffffff811115612de857612de7611de4565b5b612df489828a01612175565b935050606087013567ffffffffffffffff811115612e1557612e14611de4565b5b612e2189828a01612be5565b9250506080612e3289828a01612426565b9150509295509295509295565b60006040830160008301518482036000860152612e5c82826122b9565b9150506020830151612e716020860182612285565b508091505092915050565b60006020820190508181036000830152612e968184612e3f565b905092915050565b612ea78161227b565b82525050565b6000602082019050612ec26000830184612e9e565b92915050565b6000612ed3826120bc565b9050919050565b612ee381612ec8565b8114612eee57600080fd5b50565b600081359050612f0081612eda565b92915050565b6000612f11826120bc565b9050919050565b612f2181612f06565b8114612f2c57600080fd5b50565b600081359050612f3e81612f18565b92915050565b600080600060608486031215612f5d57612f5c611ddf565b5b6000612f6b86828701612ef1565b9350506020612f7c86828701612f2f565b9250506040612f8d86828701612426565b9150509250925092565b60008083601f840112612fad57612fac611de9565b5b8235905067ffffffffffffffff811115612fca57612fc9611dee565b5b602083019150836001820283011115612fe657612fe5611df3565b5b9250929050565b6000806000806060858703121561300757613006611ddf565b5b600061301587828801612426565b94505060206130268782880161237a565b935050604085013567ffffffffffffffff81111561304757613046611de4565b5b61305387828801612f97565b925092505092959194509250565b600081519050919050565b600082825260208201905092915050565b60005b8381101561309b578082015181840152602081019050613080565b60008484015250505050565b60006130b282613061565b6130bc818561306c565b93506130cc81856020860161307d565b6130d581611e4e565b840191505092915050565b60006040820190506130f560008301856123db565b818103602083015261310781846130a7565b90509392505050565b60008060006060848603121561312957613128611ddf565b5b60006131378682870161237a565b93505060206131488682870161237a565b92505060406131598682870161237a565b9150509250925092565b7f4e487b7100000000000000000000000000000000000000000000000000000000600052603260045260246000fd5b61319b816120bc565b82525050565b60006020820190506131b66000830184613192565b92915050565b6000815190506131cb81612363565b92915050565b6000602082840312156131e7576131e6611ddf565b5b60006131f5848285016131bc565b91505092915050565b7f4e487b7100000000000000000000000000000000000000000000000000000000600052601160045260246000fd5b60006132388261227b565b91507fffffffffffffffffffffffffffffffffffffffffffffffffffffffffffffffff820361326a576132696131fe565b5b600182019050919050565b600082825260208201905092915050565b7f50726576656e7454616d706572696e673a20436f646520686173206368616e6760008201527f6564000000000000000000000000000000000000000000000000000000000000602082015250565b60006132e2602283613275565b91506132ed82613286565b604082019050919050565b60006020820190508181036000830152613311816132d5565b9050919050565b7f214153534552545f475400000000000000000000000000000000000000000000600082015250565b600061334e600a83613275565b915061335982613318565b602082019050919050565b6000602082019050818103600083015261337d81613341565b9050919050565b7f5a45524f2042414c414e43450000000000000000000000000000000000000000600082015250565b60006133ba600c83613275565b91506133c582613384565b602082019050919050565b600060208201905081810360008301526133e9816133ad565b9050919050565b7f5a45524f205155414e5449545900000000000000000000000000000000000000600082015250565b6000613426600d83613275565b9150613431826133f0565b602082019050919050565b6000602082019050818103600083015261345581613419565b9050919050565b60006134678261227b565b91506134728361227b565b92508282026134808161227b565b91508282048414831517613497576134966131fe565b5b5092915050565b7f4e487b7100000000000000000000000000000000000000000000000000000000600052601260045260246000fd5b60006134d88261227b565b91506134e38361227b565b9250826134f3576134f261349e565b5b828204905092915050565b7f4e4f205348415245530000000000000000000000000000000000000000000000600082015250565b6000613534600983613275565b915061353f826134fe565b602082019050919050565b6000602082019050818103600083015261356381613527565b9050919050565b6000819050919050565b600061358f61358a6135858461209c565b61356a565b61209c565b9050919050565b60006135a182613574565b9050919050565b60006135b382613596565b9050919050565b6135c3816135a8565b82525050565b600081519050919050565b600082825260208201905092915050565b60006135f0826135c9565b6135fa81856135d4565b935061360a81856020860161307d565b61361381611e4e565b840191505092915050565b600081519050919050565b600082825260208201905092915050565b6000819050602082019050919050565b613653816120bc565b82525050565b6000613665838361364a565b60208301905092915050565b6000602082019050919050565b60006136898261361e565b6136938185613629565b935061369e8361363a565b8060005b838110156136cf5781516136b68882613659565b97506136c183613671565b9250506001810190506136a2565b5085935050505092915050565b600060a08301600083015184820360008601526136f982826135e5565b9150506020830151848203602086015261371382826135e5565b9150506040830151848203604086015261372d828261367e565b9150506060830151848203606086015261374782826122b9565b915050608083015161375c6080860182612285565b508091505092915050565b600081519050919050565b600082825260208201905092915050565b6000819050602082019050919050565b61379c8161278a565b82525050565b6040820160008201516137b8600085018261364a565b5060208201516137cb6020850182613793565b50505050565b60006137dd83836137a2565b60408301905092915050565b6000602082019050919050565b600061380182613767565b61380b8185613772565b935061381683613783565b8060005b8381101561384757815161382e88826137d1565b9750613839836137e9565b92505060018101905061381a565b5085935050505092915050565b600060c08301600083015161386c6000860182612285565b50602083015161387f6020860182612285565b506040830151848203604086015261389782826137f6565b91505060608301516138ac6060860182612285565b5060808301516138bf6080860182612285565b5060a083015184820360a08601526138d782826135e5565b9150508091505092915050565b6138ed81612aaf565b82525050565b6138fc81612aed565b82525050565b600060c08301600083015161391a60008601826138e4565b50602083015161392d60208601826138f3565b5060408301516139406040860182612285565b5060608301516139536060860182612285565b5060808301516139666080860182612285565b5060a083015184820360a086015261397e828261367e565b9150508091505092915050565b600060608301600083015184820360008601526139a8828261367e565b915050602083015184820360208601526139c2828261367e565b915050604083015184820360408601526139dc828261367e565b9150508091505092915050565b600060c0820190506139fe60008301896135ba565b8181036020830152613a1081886136dc565b90508181036040830152613a248187613854565b90508181036060830152613a388186613902565b90508181036080830152613a4c8185613902565b905081810360a0830152613a60818461398b565b9050979650505050505050565b600081519050613a7c8161240f565b92915050565b60008060008060008060c08789031215613a9f57613a9e611ddf565b5b6000613aad89828a01613a6d565b9650506020613abe89828a01613a6d565b9550506040613acf89828a01613a6d565b9450506060613ae089828a01613a6d565b9350506080613af189828a01613a6d565b92505060a0613b0289828a01613a6d565b9150509295509295509295565b6000604082019050613b246000830185613192565b613b316020830184612e9e565b9392505050565b600081519050613b4781612a45565b92915050565b600060208284031215613b6357613b62611ddf565b5b6000613b7184828501613b38565b91505092915050565b600082825260208201905092915050565b6000613b968261361e565b613ba08185613b7a565b9350613bab8361363a565b8060005b83811015613bdc578151613bc38882613659565b9750613bce83613671565b925050600181019050613baf565b5085935050505092915050565b600060c0820190508181036000830152613c0381896136dc565b90508181036020830152613c178188613854565b9050613c266040830187613192565b8181036060830152613c388186613b8b565b90508181036080830152613c4c8185613b8b565b905081810360a0830152613c608184613b8b565b9050979650505050505050565b60008060408385031215613c8457613c83611ddf565b5b6000613c9285828601613a6d565b9250506020613ca385828601613a6d565b9150509250929050565b6000613cb88261227b565b9150613cc38361227b565b9250828201905080821115613cdb57613cda6131fe565b5b92915050565b6000613cec82613596565b9050919050565b613cfc81613ce1565b82525050565b6000604082019050613d176000830185613cf3565b613d246020830184613192565b9392505050565b7f5a61707065724578656375746f723a204f6e6c792063616c6c61626c6520627960008201527f205a617070657200000000000000000000000000000000000000000000000000602082015250565b6000613d87602783613275565b9150613d9282613d2b565b604082019050919050565b60006020820190508181036000830152613db681613d7a565b9050919050565b600081905092915050565b6000613dd48385613dbd565b9350613de1838584611f3c565b82840190509392505050565b6000613dfa828486613dc8565b91508190509392505050565b7f214153534552545f455100000000000000000000000000000000000000000000600082015250565b6000613e3c600a83613275565b9150613e4782613e06565b602082019050919050565b60006020820190508181036000830152613e6b81613e2f565b9050919050565b6000613e7d8261227b565b9150613e888361227b565b9250828203905081811115613ea057613e9f6131fe565b5b92915050565b6000613eb182613061565b613ebb8185613dbd565b9350613ecb81856020860161307d565b80840191505092915050565b6000613ee38284613ea6565b915081905092915050565b7f5f657865637574653a2076616c75652063616c6c20686173206e6f2076616c7560008201527f6520696e646963617465642e0000000000000000000000000000000000000000602082015250565b6000613f4a602c83613275565b9150613f5582613eee565b604082019050919050565b60006020820190508181036000830152613f7981613f3d565b9050919050565b7f496e76616c69642063616c6c7479706500000000000000000000000000000000600082015250565b6000613fb6601083613275565b9150613fc182613f80565b602082019050919050565b60006020820190508181036000830152613fe581613fa9565b9050919050565b6000613ff7826135c9565b6140018185613275565b935061401181856020860161307d565b61401a81611e4e565b840191505092915050565b600060608201905061403a6000830186612e9e565b6140476020830185613192565b81810360408301526140598184613fec565b9050949350505050565b60006040820190506140786000830185613192565b6140856020830184613192565b9392505050565b7f5361666545524332303a20617070726f76652066726f6d206e6f6e2d7a65726f60008201527f20746f206e6f6e2d7a65726f20616c6c6f77616e636500000000000000000000602082015250565b60006140e8603683613275565b91506140f38261408c565b604082019050919050565b60006020820190508181036000830152614117816140db565b9050919050565b600081519050919050565b600082825260208201905092915050565b6000819050602082019050919050565b600082825260208201905092915050565b600061416682613061565b614170818561414a565b935061418081856020860161307d565b61418981611e4e565b840191505092915050565b60006141a0838361415b565b905092915050565b6000602082019050919050565b60006141c08261411e565b6141ca8185614129565b9350836020820285016141dc8561413a565b8060005b8581101561421857848403895281516141f98582614194565b9450614204836141a8565b925060208a019950506001810190506141e0565b50829750879550505050505092915050565b6000602082019050818103600083015261424481846141b5565b905092915050565b60006142578261227b565b91506142628361227b565b9250826142725761427161349e565b5b828206905092915050565b7f44796e616d6963207374617465207661726961626c6573206d7573742062652060008201527f61206d756c7469706c65206f6620333220627974657300000000000000000000602082015250565b60006142d9603683613275565b91506142e48261427d565b604082019050919050565b60006020820190508181036000830152614308816142cc565b9050919050565b7f537461746963207374617465207661726961626c6573206d757374206265203360008201527f3220627974657300000000000000000000000000000000000000000000000000602082015250565b600061436b602783613275565b91506143768261430f565b604082019050919050565b6000602082019050818103600083015261439a8161435e565b9050919050565b60006143b46143af84611f0b565b611ebf565b9050828152602081018484840111156143d0576143cf611f06565b5b6143db84828561307d565b509392505050565b600082601f8301126143f8576143f7611de9565b5b81516144088482602086016143a1565b91505092915050565b600061442461441f84611eda565b611ebf565b9050808382526020820190506020840283018581111561444757614446611df3565b5b835b8181101561448e57805167ffffffffffffffff81111561446c5761446b611de9565b5b80860161447989826143e3565b85526020850194505050602081019050614449565b5050509392505050565b600082601f8301126144ad576144ac611de9565b5b81516144bd848260208601614411565b91505092915050565b6000602082840312156144dc576144db611ddf565b5b600082015167ffffffffffffffff8111156144fa576144f9611de4565b5b61450684828501614498565b91505092915050565b7f4f6e6c79206f6e652072657475726e2076616c7565207065726d69747465642060008201527f287661726961626c652900000000000000000000000000000000000000000000602082015250565b600061456b602a83613275565b91506145768261450f565b604082019050919050565b6000602082019050818103600083015261459a8161455e565b9050919050565b7f52657475726e206174206c656173742033322062797465730000000000000000600082015250565b60006145d7601883613275565b91506145e2826145a1565b602082019050919050565b60006020820190508181036000830152614606816145ca565b9050919050565b7f5361666545524332303a204552433230206f7065726174696f6e20646964206e60008201527f6f74207375636365656400000000000000000000000000000000000000000000602082015250565b6000614669602a83613275565b91506146748261460d565b604082019050919050565b600060208201905081810360008301526146988161465c565b9050919050565b7f416464726573733a20696e73756666696369656e742062616c616e636520666f60008201527f722063616c6c0000000000000000000000000000000000000000000000000000602082015250565b60006146fb602683613275565b91506147068261469f565b604082019050919050565b6000602082019050818103600083015261472a816146ee565b9050919050565b7f416464726573733a2063616c6c20746f206e6f6e2d636f6e7472616374000000600082015250565b6000614767601d83613275565b915061477282614731565b602082019050919050565b600060208201905081810360008301526147968161475a565b9050919050565b600060208201905081810360008301526147b78184613fec565b90509291505056fea2646970667358221220ff710c0bf42f3c4824c74db383dfcd0a7ae94cf26f04b8a745784e18a7216a8c64736f6c63430008110033",
  "linkReferences": {},
  "deployedLinkReferences": {}
}