{
  "_format": "hh-sol-artifact-1",
  "contractName": "ZapperExecutor",
  "sourceName": "contracts/Zapper.sol",
  "abi": [
    {
      "inputs": [
        {
          "internalType": "contract IERC20[]",
          "name": "tokens",
          "type": "address[]"
        },
        {
          "internalType": "address",
          "name": "destination",
          "type": "address"
        }
      ],
      "name": "drainERC20s",
      "outputs": [],
      "stateMutability": "nonpayable",
      "type": "function"
    },
    {
      "inputs": [
        {
          "components": [
            {
              "internalType": "address",
              "name": "to",
              "type": "address"
            },
            {
              "internalType": "bytes",
              "name": "data",
              "type": "bytes"
            },
            {
              "internalType": "uint256",
              "name": "value",
              "type": "uint256"
            }
          ],
          "internalType": "struct Call[]",
          "name": "calls",
          "type": "tuple[]"
        },
        {
          "internalType": "contract IERC20[]",
          "name": "tokens",
          "type": "address[]"
        }
      ],
      "name": "execute",
      "outputs": [
        {
          "components": [
            {
              "internalType": "uint256[]",
              "name": "dust",
              "type": "uint256[]"
            }
          ],
          "internalType": "struct ExecuteOutput",
          "name": "out",
          "type": "tuple"
        }
      ],
      "stateMutability": "nonpayable",
      "type": "function"
    },
    {
      "inputs": [
        {
          "internalType": "contract FacadeRead",
          "name": "facade",
          "type": "address"
        },
        {
          "internalType": "contract RToken",
          "name": "token",
          "type": "address"
        },
        {
          "internalType": "address",
          "name": "recipient",
          "type": "address"
        }
      ],
      "name": "mintMaxRToken",
      "outputs": [],
      "stateMutability": "nonpayable",
      "type": "function"
    },
    {
      "inputs": [
        {
          "internalType": "contract IERC20[]",
          "name": "tokens",
          "type": "address[]"
        },
        {
          "internalType": "address[]",
          "name": "spenders",
          "type": "address[]"
        }
      ],
      "name": "setupApprovals",
      "outputs": [],
      "stateMutability": "nonpayable",
      "type": "function"
    },
    {
      "stateMutability": "payable",
      "type": "receive"
    }
  ],
  "bytecode": "0x608060405234801561001057600080fd5b5061188f806100206000396000f3fe6080604052600436106100435760003560e01c8063266ed2b61461004f57806394919ce81461008c578063f1fa5150146100b5578063f7cfaec0146100de5761004a565b3661004a57005b600080fd5b34801561005b57600080fd5b5061007660048036038101906100719190610c9d565b610107565b6040516100839190610e10565b60405180910390f35b34801561009857600080fd5b506100b360048036038101906100ae9190610f0c565b6103e6565b005b3480156100c157600080fd5b506100dc60048036038101906100d79190610fb5565b6104db565b005b3480156100ea57600080fd5b5061010560048036038101906101009190611036565b610668565b005b61010f610bc5565b600085859050905060005b818110156102a257600087878381811061013757610136611096565b5b905060200281019061014991906110d4565b600001602081019061015b91906110fc565b90506000808273ffffffffffffffffffffffffffffffffffffffff168a8a8681811061018a57610189611096565b5b905060200281019061019c91906110d4565b604001358b8b878181106101b3576101b2611096565b5b90506020028101906101c591906110d4565b80602001906101d49190611129565b6040516020016101e59291906111cb565b604051602081830303815290604052604051610201919061124a565b60006040518083038185875af1925050503d806000811461023e576040519150601f19603f3d011682016040523d82523d6000602084013e610243565b606091505b509150915081819061028b576040517f08c379a000000000000000000000000000000000000000000000000000000000815260040161028291906112c7565b60405180910390fd5b50505050808061029a90611318565b91505061011a565b508383905067ffffffffffffffff8111156102c0576102bf611360565b5b6040519080825280602002602001820160405280156102ee5781602001602082028036833780820191505090505b50826000018190525060005b848490508110156103dc5784848281811061031857610317611096565b5b905060200201602081019061032d91906113cd565b73ffffffffffffffffffffffffffffffffffffffff166370a08231306040518263ffffffff1660e01b81526004016103659190611409565b602060405180830381865afa158015610382573d6000803e3d6000fd5b505050506040513d601f19601f820116820180604052508101906103a69190611450565b836000015182815181106103bd576103bc611096565b5b60200260200101818152505080806103d490611318565b9150506102fa565b5050949350505050565b60008373ffffffffffffffffffffffffffffffffffffffff16631c3debf484306040518363ffffffff1660e01b81526004016104239291906114dc565b6020604051808303816000875af1158015610442573d6000803e3d6000fd5b505050506040513d601f19601f820116820180604052508101906104669190611450565b90508273ffffffffffffffffffffffffffffffffffffffff16631207f0c183836040518363ffffffff1660e01b81526004016104a3929190611514565b600060405180830381600087803b1580156104bd57600080fd5b505af11580156104d1573d6000803e3d6000fd5b5050505050505050565b818190508484905014610523576040517f08c379a000000000000000000000000000000000000000000000000000000000815260040161051a90611589565b60405180910390fd5b600084849050905060005b8181101561066057600086868381811061054b5761054a611096565b5b905060200201602081019061056091906113cd565b9050600085858481811061057757610576611096565b5b905060200201602081019061058c91906110fc565b905060008273ffffffffffffffffffffffffffffffffffffffff1663dd62ed3e30846040518363ffffffff1660e01b81526004016105cb9291906115a9565b602060405180830381865afa1580156105e8573d6000803e3d6000fd5b505050506040513d601f19601f8201168201806040525081019061060c9190611450565b90506000811461061e5750505061064d565b61064983837fffffffffffffffffffffffffffffffffffffffffffffffffffffffffffffffff61075c565b5050505b808061065890611318565b91505061052e565b505050505050565b600083839050905060005b818110156107555760008585838181106106905761068f611096565b5b90506020020160208101906106a591906113cd565b905060008173ffffffffffffffffffffffffffffffffffffffff166370a08231306040518263ffffffff1660e01b81526004016106e29190611409565b602060405180830381865afa1580156106ff573d6000803e3d6000fd5b505050506040513d601f19601f820116820180604052508101906107239190611450565b905060008103610734575050610742565b61073f8286836108ab565b50505b808061074d90611318565b915050610673565b5050505050565b60008114806107e6575060008373ffffffffffffffffffffffffffffffffffffffff1663dd62ed3e30856040518363ffffffff1660e01b81526004016107a39291906115a9565b602060405180830381865afa1580156107c0573d6000803e3d6000fd5b505050506040513d601f19601f820116820180604052508101906107e49190611450565b145b610825576040517f08c379a000000000000000000000000000000000000000000000000000000000815260040161081c90611644565b60405180910390fd5b6108a68363095ea7b360e01b8484604051602401610844929190611514565b604051602081830303815290604052907bffffffffffffffffffffffffffffffffffffffffffffffffffffffff19166020820180517bffffffffffffffffffffffffffffffffffffffffffffffffffffffff8381831617835250505050610931565b505050565b61092c8363a9059cbb60e01b84846040516024016108ca929190611514565b604051602081830303815290604052907bffffffffffffffffffffffffffffffffffffffffffffffffffffffff19166020820180517bffffffffffffffffffffffffffffffffffffffffffffffffffffffff8381831617835250505050610931565b505050565b6000610993826040518060400160405280602081526020017f5361666545524332303a206c6f772d6c6576656c2063616c6c206661696c65648152508573ffffffffffffffffffffffffffffffffffffffff166109f89092919063ffffffff16565b90506000815111156109f357808060200190518101906109b3919061169c565b6109f2576040517f08c379a00000000000000000000000000000000000000000000000000000000081526004016109e99061173b565b60405180910390fd5b5b505050565b6060610a078484600085610a10565b90509392505050565b606082471015610a55576040517f08c379a0000000000000000000000000000000000000000000000000000000008152600401610a4c906117cd565b60405180910390fd5b6000808673ffffffffffffffffffffffffffffffffffffffff168587604051610a7e919061124a565b60006040518083038185875af1925050503d8060008114610abb576040519150601f19603f3d011682016040523d82523d6000602084013e610ac0565b606091505b5091509150610ad187838387610add565b92505050949350505050565b60608315610b3f576000835103610b3757610af785610b52565b610b36576040517f08c379a0000000000000000000000000000000000000000000000000000000008152600401610b2d90611839565b60405180910390fd5b5b829050610b4a565b610b498383610b75565b5b949350505050565b6000808273ffffffffffffffffffffffffffffffffffffffff163b119050919050565b600082511115610b885781518083602001fd5b806040517f08c379a0000000000000000000000000000000000000000000000000000000008152600401610bbc91906112c7565b60405180910390fd5b6040518060200160405280606081525090565b600080fd5b600080fd5b600080fd5b600080fd5b600080fd5b60008083601f840112610c0757610c06610be2565b5b8235905067ffffffffffffffff811115610c2457610c23610be7565b5b602083019150836020820283011115610c4057610c3f610bec565b5b9250929050565b60008083601f840112610c5d57610c5c610be2565b5b8235905067ffffffffffffffff811115610c7a57610c79610be7565b5b602083019150836020820283011115610c9657610c95610bec565b5b9250929050565b60008060008060408587031215610cb757610cb6610bd8565b5b600085013567ffffffffffffffff811115610cd557610cd4610bdd565b5b610ce187828801610bf1565b9450945050602085013567ffffffffffffffff811115610d0457610d03610bdd565b5b610d1087828801610c47565b925092505092959194509250565b600081519050919050565b600082825260208201905092915050565b6000819050602082019050919050565b6000819050919050565b610d5d81610d4a565b82525050565b6000610d6f8383610d54565b60208301905092915050565b6000602082019050919050565b6000610d9382610d1e565b610d9d8185610d29565b9350610da883610d3a565b8060005b83811015610dd9578151610dc08882610d63565b9750610dcb83610d7b565b925050600181019050610dac565b5085935050505092915050565b60006020830160008301518482036000860152610e038282610d88565b9150508091505092915050565b60006020820190508181036000830152610e2a8184610de6565b905092915050565b600073ffffffffffffffffffffffffffffffffffffffff82169050919050565b6000610e5d82610e32565b9050919050565b6000610e6f82610e52565b9050919050565b610e7f81610e64565b8114610e8a57600080fd5b50565b600081359050610e9c81610e76565b92915050565b6000610ead82610e52565b9050919050565b610ebd81610ea2565b8114610ec857600080fd5b50565b600081359050610eda81610eb4565b92915050565b610ee981610e52565b8114610ef457600080fd5b50565b600081359050610f0681610ee0565b92915050565b600080600060608486031215610f2557610f24610bd8565b5b6000610f3386828701610e8d565b9350506020610f4486828701610ecb565b9250506040610f5586828701610ef7565b9150509250925092565b60008083601f840112610f7557610f74610be2565b5b8235905067ffffffffffffffff811115610f9257610f91610be7565b5b602083019150836020820283011115610fae57610fad610bec565b5b9250929050565b60008060008060408587031215610fcf57610fce610bd8565b5b600085013567ffffffffffffffff811115610fed57610fec610bdd565b5b610ff987828801610c47565b9450945050602085013567ffffffffffffffff81111561101c5761101b610bdd565b5b61102887828801610f5f565b925092505092959194509250565b60008060006040848603121561104f5761104e610bd8565b5b600084013567ffffffffffffffff81111561106d5761106c610bdd565b5b61107986828701610c47565b9350935050602061108c86828701610ef7565b9150509250925092565b7f4e487b7100000000000000000000000000000000000000000000000000000000600052603260045260246000fd5b600080fd5b600080fd5b600080fd5b6000823560016060038336030381126110f0576110ef6110c5565b5b80830191505092915050565b60006020828403121561111257611111610bd8565b5b600061112084828501610ef7565b91505092915050565b60008083356001602003843603038112611146576111456110c5565b5b80840192508235915067ffffffffffffffff821115611168576111676110ca565b5b602083019250600182023603831315611184576111836110cf565b5b509250929050565b600081905092915050565b82818337600083830152505050565b60006111b2838561118c565b93506111bf838584611197565b82840190509392505050565b60006111d88284866111a6565b91508190509392505050565b600081519050919050565b60005b8381101561120d5780820151818401526020810190506111f2565b60008484015250505050565b6000611224826111e4565b61122e818561118c565b935061123e8185602086016111ef565b80840191505092915050565b60006112568284611219565b915081905092915050565b600081519050919050565b600082825260208201905092915050565b6000601f19601f8301169050919050565b600061129982611261565b6112a3818561126c565b93506112b38185602086016111ef565b6112bc8161127d565b840191505092915050565b600060208201905081810360008301526112e1818461128e565b905092915050565b7f4e487b7100000000000000000000000000000000000000000000000000000000600052601160045260246000fd5b600061132382610d4a565b91507fffffffffffffffffffffffffffffffffffffffffffffffffffffffffffffffff8203611355576113546112e9565b5b600182019050919050565b7f4e487b7100000000000000000000000000000000000000000000000000000000600052604160045260246000fd5b600061139a82610e52565b9050919050565b6113aa8161138f565b81146113b557600080fd5b50565b6000813590506113c7816113a1565b92915050565b6000602082840312156113e3576113e2610bd8565b5b60006113f1848285016113b8565b91505092915050565b61140381610e52565b82525050565b600060208201905061141e60008301846113fa565b92915050565b61142d81610d4a565b811461143857600080fd5b50565b60008151905061144a81611424565b92915050565b60006020828403121561146657611465610bd8565b5b60006114748482850161143b565b91505092915050565b6000819050919050565b60006114a261149d61149884610e32565b61147d565b610e32565b9050919050565b60006114b482611487565b9050919050565b60006114c6826114a9565b9050919050565b6114d6816114bb565b82525050565b60006040820190506114f160008301856114cd565b6114fe60208301846113fa565b9392505050565b61150e81610d4a565b82525050565b600060408201905061152960008301856113fa565b6115366020830184611505565b9392505050565b7f496e76616c696420706172616d73000000000000000000000000000000000000600082015250565b6000611573600e8361126c565b915061157e8261153d565b602082019050919050565b600060208201905081810360008301526115a281611566565b9050919050565b60006040820190506115be60008301856113fa565b6115cb60208301846113fa565b9392505050565b7f5361666545524332303a20617070726f76652066726f6d206e6f6e2d7a65726f60008201527f20746f206e6f6e2d7a65726f20616c6c6f77616e636500000000000000000000602082015250565b600061162e60368361126c565b9150611639826115d2565b604082019050919050565b6000602082019050818103600083015261165d81611621565b9050919050565b60008115159050919050565b61167981611664565b811461168457600080fd5b50565b60008151905061169681611670565b92915050565b6000602082840312156116b2576116b1610bd8565b5b60006116c084828501611687565b91505092915050565b7f5361666545524332303a204552433230206f7065726174696f6e20646964206e60008201527f6f74207375636365656400000000000000000000000000000000000000000000602082015250565b6000611725602a8361126c565b9150611730826116c9565b604082019050919050565b6000602082019050818103600083015261175481611718565b9050919050565b7f416464726573733a20696e73756666696369656e742062616c616e636520666f60008201527f722063616c6c0000000000000000000000000000000000000000000000000000602082015250565b60006117b760268361126c565b91506117c28261175b565b604082019050919050565b600060208201905081810360008301526117e6816117aa565b9050919050565b7f416464726573733a2063616c6c20746f206e6f6e2d636f6e7472616374000000600082015250565b6000611823601d8361126c565b915061182e826117ed565b602082019050919050565b6000602082019050818103600083015261185281611816565b905091905056fea2646970667358221220adbcc66c07de2ddbf72277188e633a60c3399b02db5f5c79b2789ed8b9ba420664736f6c63430008110033",
  "linkReferences": {},
  "deployedLinkReferences": {}
}