{
  "_format": "hh-sol-artifact-1",
  "contractName": "ZapperExecutor",
  "sourceName": "contracts/ZapperExecutor.sol",
  "abi": [
    {
      "inputs": [
        {
          "internalType": "uint256",
          "name": "command_index",
          "type": "uint256"
        },
        {
          "internalType": "address",
          "name": "target",
          "type": "address"
        },
        {
          "internalType": "string",
          "name": "message",
          "type": "string"
        }
      ],
      "name": "ExecutionFailed",
      "type": "error"
    },
    {
      "inputs": [
        {
          "internalType": "uint256",
          "name": "a",
          "type": "uint256"
        },
        {
          "internalType": "uint256",
          "name": "b",
          "type": "uint256"
        }
      ],
      "name": "add",
      "outputs": [
        {
          "internalType": "uint256",
          "name": "",
          "type": "uint256"
        }
      ],
      "stateMutability": "pure",
      "type": "function"
    },
    {
      "inputs": [
        {
          "internalType": "uint256",
          "name": "a",
          "type": "uint256"
        },
        {
          "internalType": "uint256",
          "name": "b",
          "type": "uint256"
        }
      ],
      "name": "assertEqual",
      "outputs": [
        {
          "internalType": "bool",
          "name": "",
          "type": "bool"
        }
      ],
      "stateMutability": "pure",
      "type": "function"
    },
    {
      "inputs": [
        {
          "internalType": "uint256",
          "name": "a",
          "type": "uint256"
        },
        {
          "internalType": "uint256",
          "name": "b",
          "type": "uint256"
        }
      ],
      "name": "assertLarger",
      "outputs": [
        {
          "internalType": "bool",
          "name": "",
          "type": "bool"
        }
      ],
      "stateMutability": "pure",
      "type": "function"
    },
    {
      "inputs": [
        {
          "internalType": "bytes32[]",
          "name": "commands",
          "type": "bytes32[]"
        },
        {
          "internalType": "bytes[]",
          "name": "state",
          "type": "bytes[]"
        },
        {
          "internalType": "contract IERC20[]",
          "name": "tokens",
          "type": "address[]"
        }
      ],
      "name": "execute",
      "outputs": [
        {
          "components": [
            {
              "internalType": "uint256[]",
              "name": "dust",
              "type": "uint256[]"
            }
          ],
          "internalType": "struct ExecuteOutput",
          "name": "out",
          "type": "tuple"
        }
      ],
      "stateMutability": "payable",
      "type": "function"
    },
    {
      "inputs": [
        {
          "internalType": "bytes32[]",
          "name": "commands",
          "type": "bytes32[]"
        },
        {
          "internalType": "bytes[]",
          "name": "state",
          "type": "bytes[]"
        },
        {
          "internalType": "contract IERC20[]",
          "name": "tokens",
          "type": "address[]"
        },
        {
          "components": [
            {
              "internalType": "address",
              "name": "deployer",
              "type": "address"
            },
            {
              "components": [
                {
                  "internalType": "string",
                  "name": "name",
                  "type": "string"
                },
                {
                  "internalType": "string",
                  "name": "symbol",
                  "type": "string"
                },
                {
                  "internalType": "address[]",
                  "name": "assets",
                  "type": "address[]"
                },
                {
                  "internalType": "uint256[]",
                  "name": "amounts",
                  "type": "uint256[]"
                },
                {
                  "internalType": "uint256",
                  "name": "initialShares",
                  "type": "uint256"
                }
              ],
              "internalType": "struct IFolio.FolioBasicDetails",
              "name": "basicDetails",
              "type": "tuple"
            },
            {
              "components": [
                {
                  "internalType": "uint256",
                  "name": "auctionDelay",
                  "type": "uint256"
                },
                {
                  "internalType": "uint256",
                  "name": "auctionLength",
                  "type": "uint256"
                },
                {
                  "components": [
                    {
                      "internalType": "address",
                      "name": "recipient",
                      "type": "address"
                    },
                    {
                      "internalType": "uint96",
                      "name": "portion",
                      "type": "uint96"
                    }
                  ],
                  "internalType": "struct IFolio.FeeRecipient[]",
                  "name": "feeRecipients",
                  "type": "tuple[]"
                },
                {
                  "internalType": "uint256",
                  "name": "tvlFee",
                  "type": "uint256"
                },
                {
                  "internalType": "uint256",
                  "name": "mintFee",
                  "type": "uint256"
                },
                {
                  "internalType": "string",
                  "name": "mandate",
                  "type": "string"
                }
              ],
              "internalType": "struct IFolio.FolioAdditionalDetails",
              "name": "additionalDetails",
              "type": "tuple"
            },
            {
              "components": [
                {
                  "internalType": "address[]",
                  "name": "existingTradeProposers",
                  "type": "address[]"
                },
                {
                  "internalType": "address[]",
                  "name": "tradeLaunchers",
                  "type": "address[]"
                },
                {
                  "internalType": "address[]",
                  "name": "vibesOfficers",
                  "type": "address[]"
                }
              ],
              "internalType": "struct GovRoles",
              "name": "govRoles",
              "type": "tuple"
            },
            {
              "internalType": "bool",
              "name": "isGoverned",
              "type": "bool"
            },
            {
              "internalType": "contract IVotes",
              "name": "stToken",
              "type": "address"
            },
            {
              "internalType": "address",
              "name": "owner",
              "type": "address"
            },
            {
              "components": [
                {
                  "internalType": "uint48",
                  "name": "votingDelay",
                  "type": "uint48"
                },
                {
                  "internalType": "uint32",
                  "name": "votingPeriod",
                  "type": "uint32"
                },
                {
                  "internalType": "uint256",
                  "name": "proposalThreshold",
                  "type": "uint256"
                },
                {
                  "internalType": "uint256",
                  "name": "quorumPercent",
                  "type": "uint256"
                },
                {
                  "internalType": "uint256",
                  "name": "timelockDelay",
                  "type": "uint256"
                },
                {
                  "internalType": "address[]",
                  "name": "guardians",
                  "type": "address[]"
                }
              ],
              "internalType": "struct IGovernanceDeployer.GovParams",
              "name": "ownerGovParams",
              "type": "tuple"
            },
            {
              "components": [
                {
                  "internalType": "uint48",
                  "name": "votingDelay",
                  "type": "uint48"
                },
                {
                  "internalType": "uint32",
                  "name": "votingPeriod",
                  "type": "uint32"
                },
                {
                  "internalType": "uint256",
                  "name": "proposalThreshold",
                  "type": "uint256"
                },
                {
                  "internalType": "uint256",
                  "name": "quorumPercent",
                  "type": "uint256"
                },
                {
                  "internalType": "uint256",
                  "name": "timelockDelay",
                  "type": "uint256"
                },
                {
                  "internalType": "address[]",
                  "name": "guardians",
                  "type": "address[]"
                }
              ],
              "internalType": "struct IGovernanceDeployer.GovParams",
              "name": "tradingGovParams",
              "type": "tuple"
            }
          ],
          "internalType": "struct DeployFolioConfig",
          "name": "config",
          "type": "tuple"
        },
        {
          "internalType": "address",
          "name": "recipient",
          "type": "address"
        },
        {
          "internalType": "bytes32",
          "name": "nonce",
          "type": "bytes32"
        }
      ],
      "name": "executeDeploy",
      "outputs": [
        {
          "components": [
            {
              "internalType": "uint256[]",
              "name": "dust",
              "type": "uint256[]"
            },
            {
              "internalType": "uint256",
              "name": "amountOut",
              "type": "uint256"
            }
          ],
          "internalType": "struct ExecuteDeployOutput",
          "name": "out",
          "type": "tuple"
        }
      ],
      "stateMutability": "payable",
      "type": "function"
    },
    {
      "inputs": [
        {
          "internalType": "uint256",
          "name": "a",
          "type": "uint256"
        },
        {
          "internalType": "uint256",
          "name": "b",
          "type": "uint256"
        },
        {
          "internalType": "uint256",
          "name": "scale",
          "type": "uint256"
        }
      ],
      "name": "fpMul",
      "outputs": [
        {
          "internalType": "uint256",
          "name": "",
          "type": "uint256"
        }
      ],
      "stateMutability": "pure",
      "type": "function"
    },
    {
      "inputs": [
        {
          "internalType": "address",
          "name": "to",
          "type": "address"
        },
        {
          "internalType": "uint256",
          "name": "value",
          "type": "uint256"
        },
        {
          "internalType": "bytes",
          "name": "data",
          "type": "bytes"
        }
      ],
      "name": "rawCall",
      "outputs": [
        {
          "internalType": "bool",
          "name": "success",
          "type": "bool"
        },
        {
          "internalType": "bytes",
          "name": "out",
          "type": "bytes"
        }
      ],
      "stateMutability": "nonpayable",
      "type": "function"
    },
    {
      "inputs": [
        {
          "internalType": "uint256",
          "name": "a",
          "type": "uint256"
        },
        {
          "internalType": "uint256",
          "name": "b",
          "type": "uint256"
        }
      ],
      "name": "sub",
      "outputs": [
        {
          "internalType": "uint256",
          "name": "",
          "type": "uint256"
        }
      ],
      "stateMutability": "pure",
      "type": "function"
    },
    {
      "stateMutability": "payable",
      "type": "receive"
    }
  ],
  "bytecode": "0x60a060405234801561001057600080fd5b503073ffffffffffffffffffffffffffffffffffffffff1660808173ffffffffffffffffffffffffffffffffffffffff16815250506080516146be61005d600039600050506146be6000f3fe60806040526004361061007f5760003560e01c8063ad207fd71161004e578063ad207fd714610173578063b67d77c5146101b0578063d47b0de4146101ed578063f95641621461022a57610086565b806308c4b4981461008b578063298e2c9e146100bb578063771602f7146100f857806398a38d7d1461013557610086565b3661008657005b600080fd5b6100a560048036038101906100a0919061210f565b61025a565b6040516100b291906122ad565b60405180910390f35b3480156100c757600080fd5b506100e260048036038101906100dd91906122fb565b6103ef565b6040516100ef9190612356565b60405180910390f35b34801561010457600080fd5b5061011f600480360381019061011a91906122fb565b61043d565b60405161012c9190612380565b60405180910390f35b34801561014157600080fd5b5061015c6004803603810190610157919061241d565b610453565b60405161016a929190612510565b60405180910390f35b34801561017f57600080fd5b5061019a600480360381019061019591906122fb565b610541565b6040516101a79190612356565b60405180910390f35b3480156101bc57600080fd5b506101d760048036038101906101d291906122fb565b61058f565b6040516101e49190612380565b60405180910390f35b3480156101f957600080fd5b50610214600480360381019061020f9190612540565b6105a5565b6040516102219190612380565b60405180910390f35b610244600480360381019061023f9190612ee9565b6105c7565b6040516102519190613029565b60405180910390f35b610262611d14565b6000303f9050610273868686610ee6565b50825167ffffffffffffffff81111561028f5761028e611dcb565b5b6040519080825280602002602001820160405280156102bd5781602001602082028036833780820191505090505b50826000018190525060005b835181101561039c578381815181106102e5576102e461304b565b5b602002602001015173ffffffffffffffffffffffffffffffffffffffff166370a08231306040518263ffffffff1660e01b81526004016103259190613089565b602060405180830381865afa158015610342573d6000803e3d6000fd5b505050506040513d601f19601f8201168201806040525081019061036691906130b9565b8360000151828151811061037d5761037c61304b565b5b602002602001018181525050808061039490613115565b9150506102c9565b506000303f90508181146103e5576040517f08c379a00000000000000000000000000000000000000000000000000000000081526004016103dc906131e0565b60405180910390fd5b5050949350505050565b6000818311610433576040517f08c379a000000000000000000000000000000000000000000000000000000000815260040161042a9061324c565b60405180910390fd5b6001905092915050565b6000818361044b919061326c565b905092915050565b600060603073ffffffffffffffffffffffffffffffffffffffff163373ffffffffffffffffffffffffffffffffffffffff16146104c5576040517f08c379a00000000000000000000000000000000000000000000000000000000081526004016104bc90613312565b60405180910390fd5b8573ffffffffffffffffffffffffffffffffffffffff168585856040516104ed929190613362565b60006040518083038185875af1925050503d806000811461052a576040519150601f19603f3d011682016040523d82523d6000602084013e61052f565b606091505b50809250819350505094509492505050565b6000818314610585576040517f08c379a000000000000000000000000000000000000000000000000000000000815260040161057c906133c7565b60405180910390fd5b6001905092915050565b6000818361059d91906133e7565b905092915050565b60008183856105b4919061341b565b6105be919061348c565b90509392505050565b6105cf611d27565b6000303f90506105e0898989610ee6565b5060007fffffffffffffffffffffffffffffffffffffffffffffffffffffffffffffffff905060005b8660200151604001515181101561082f57600087602001516040015182815181106106375761063661304b565b5b602002602001015173ffffffffffffffffffffffffffffffffffffffff166370a08231306040518263ffffffff1660e01b81526004016106779190613089565b602060405180830381865afa158015610694573d6000803e3d6000fd5b505050506040513d601f19601f820116820180604052508101906106b891906130b9565b9050600081036106fd576040517f08c379a00000000000000000000000000000000000000000000000000000000081526004016106f490613509565b60405180910390fd5b6000886020015160600151838151811061071a5761071961304b565b5b6020026020010151905060008103610767576040517f08c379a000000000000000000000000000000000000000000000000000000000815260040161075e90613575565b60405180910390fd5b600081670de0b6b3a76400008461077e919061341b565b610788919061348c565b905084811015610796578094505b6107c88a602001516040015185815181106107b4576107b361304b565b5b60200260200101518b60000151600061135f565b6108198a602001516040015185815181106107e6576107e561304b565b5b60200260200101518b600001517fffffffffffffffffffffffffffffffffffffffffffffffffffffffffffffffff61135f565b505050808061082790613115565b915050610609565b507fffffffffffffffffffffffffffffffffffffffffffffffffffffffffffffffff8103610892576040517f08c379a0000000000000000000000000000000000000000000000000000000008152600401610889906135e1565b60405180910390fd5b60005b8660200151604001515181101561092157670de0b6b3a764000087602001516060015182815181106108ca576108c961304b565b5b6020026020010151836108dd919061341b565b6108e7919061348c565b87602001516060015182815181106109025761090161304b565b5b602002602001018181525050808061091990613115565b915050610895565b508086602001516080018181525050856080015115610af4576000866000015173ffffffffffffffffffffffffffffffffffffffff1663784d48c78860a0015189602001518a604001518b60e001518c61010001518d606001518c6040518863ffffffff1660e01b815260040161099e9796959493929190613a8f565b60c0604051808303816000875af11580156109bd573d6000803e3d6000fd5b505050506040513d601f19601f820116820180604052508101906109e19190613b36565b505050505090508073ffffffffffffffffffffffffffffffffffffffff166370a08231306040518263ffffffff1660e01b8152600401610a219190613089565b602060405180830381865afa158015610a3e573d6000803e3d6000fd5b505050506040513d601f19601f82011682018060405250810190610a6291906130b9565b8460200181815250508073ffffffffffffffffffffffffffffffffffffffff1663a9059cbb8786602001516040518363ffffffff1660e01b8152600401610aaa929190613bc3565b6020604051808303816000875af1158015610ac9573d6000803e3d6000fd5b505050506040513d601f19601f82011682018060405250810190610aed9190613c01565b5050610cb0565b6000866000015173ffffffffffffffffffffffffffffffffffffffff1663fd7d2e4f886020015189604001518a60c001518b60600151600001518c60600151602001518d60600151604001518c6040518863ffffffff1660e01b8152600401610b639796959493929190613c9d565b60408051808303816000875af1158015610b81573d6000803e3d6000fd5b505050506040513d601f19601f82011682018060405250810190610ba59190613d2f565b5090508073ffffffffffffffffffffffffffffffffffffffff166370a08231306040518263ffffffff1660e01b8152600401610be19190613089565b602060405180830381865afa158015610bfe573d6000803e3d6000fd5b505050506040513d601f19601f82011682018060405250810190610c2291906130b9565b8460200181815250508073ffffffffffffffffffffffffffffffffffffffff1663a9059cbb8786602001516040518363ffffffff1660e01b8152600401610c6a929190613bc3565b6020604051808303816000875af1158015610c89573d6000803e3d6000fd5b505050506040513d601f19601f82011682018060405250810190610cad9190613c01565b50505b865167ffffffffffffffff811115610ccb57610cca611dcb565b5b604051908082528060200260200182016040528015610cf95781602001602082028036833780820191505090505b50836000018190525060005b8751811015610e8f57878181518110610d2157610d2061304b565b5b602002602001015173ffffffffffffffffffffffffffffffffffffffff166370a08231306040518263ffffffff1660e01b8152600401610d619190613089565b602060405180830381865afa158015610d7e573d6000803e3d6000fd5b505050506040513d601f19601f82011682018060405250810190610da291906130b9565b84600001518281518110610db957610db861304b565b5b602002602001018181525050878181518110610dd857610dd761304b565b5b602002602001015173ffffffffffffffffffffffffffffffffffffffff1663a9059cbb8786600001518481518110610e1357610e1261304b565b5b60200260200101516040518363ffffffff1660e01b8152600401610e38929190613bc3565b6020604051808303816000875af1158015610e57573d6000803e3d6000fd5b505050506040513d601f19601f82011682018060405250810190610e7b9190613c01565b508080610e8790613115565b915050610d05565b50506000303f9050818114610ed9576040517f08c379a0000000000000000000000000000000000000000000000000000000008152600401610ed0906131e0565b60405180910390fd5b5050979650505050505050565b60606000806000806060600089899050905060005b8181101561134e578a8a82818110610f1657610f1561304b565b5b905060200201359650602087901b60f81c60ff16955060006080871614610f64578a8a8280610f4490613115565b9350818110610f5657610f5561304b565b5b905060200201359450610f8e565b79ffffffffffffffffffffffffffffffffffffffffffffffffffff602888901b60001c1760001b94505b60006003871603611023578660001c73ffffffffffffffffffffffffffffffffffffffff16610fc888878c6114ae9092919063ffffffff16565b604051610fd59190613da0565b600060405180830381855af49150503d8060008114611010576040519150601f19603f3d011682016040523d82523d6000602084013e611015565b606091505b5080945081955050506112a4565b600160038716036110ba578660001c73ffffffffffffffffffffffffffffffffffffffff1661105d88878c6114ae9092919063ffffffff16565b60405161106a9190613da0565b6000604051808303816000865af19150503d80600081146110a7576040519150601f19603f3d011682016040523d82523d6000602084013e6110ac565b606091505b5080945081955050506112a3565b6002600387160361114f578660001c73ffffffffffffffffffffffffffffffffffffffff166110f488878c6114ae9092919063ffffffff16565b6040516111019190613da0565b600060405180830381855afa9150503d806000811461113c576040519150601f19603f3d011682016040523d82523d6000602084013e611141565b606091505b5080945081955050506112a2565b600380871603611266576000808a8760f81c60ff16815181106111755761117461304b565b5b6020026020010151905060208151146111c3576040517f08c379a00000000000000000000000000000000000000000000000000000000081526004016111ba90613e29565b60405180910390fd5b602081015191508860001c73ffffffffffffffffffffffffffffffffffffffff16826112078b60ff60088c901b60001c1760001b8f6114ae9092919063ffffffff16565b6040516112149190613da0565b60006040518083038185875af1925050503d8060008114611251576040519150601f19603f3d011682016040523d82523d6000602084013e611256565b606091505b50809650819750505050506112a1565b6040517f08c379a000000000000000000000000000000000000000000000000000000000815260040161129890613e95565b60405180910390fd5b5b5b5b836112fe576000835111156112ba576044830192505b808760001c846040517fef3dcb2f0000000000000000000000000000000000000000000000000000000081526004016112f593929190613eee565b60405180910390fd5b6000604087161461132757611322605888901b848b6118129092919063ffffffff16565b611343565b611340605888901b848b6118c79092919063ffffffff16565b98505b806001019050610efb565b508796505050505050509392505050565b60008114806113e9575060008373ffffffffffffffffffffffffffffffffffffffff1663dd62ed3e30856040518363ffffffff1660e01b81526004016113a6929190613f2c565b602060405180830381865afa1580156113c3573d6000803e3d6000fd5b505050506040513d601f19601f820116820180604052508101906113e791906130b9565b145b611428576040517f08c379a000000000000000000000000000000000000000000000000000000000815260040161141f90613fc7565b60405180910390fd5b6114a98363095ea7b360e01b8484604051602401611447929190613bc3565b604051602081830303815290604052907bffffffffffffffffffffffffffffffffffffffffffffffffffffffff19166020820180517bffffffffffffffffffffffffffffffffffffffffffffffffffffffff8381831617835250505050611a66565b505050565b606060008060606000805b6020811015611652578681602081106114d5576114d461304b565b5b1a60f81b60f81c60ff16915060ff82031561165257600060808316146115d05760fe820361153d576000835103611529578860405160200161151791906140f3565b60405160208183030381529060405292505b825185611536919061326c565b94506115cb565b600089607f8416815181106115555761155461304b565b5b6020026020010151519050600060208261156f9190614115565b146115af576040517f08c379a00000000000000000000000000000000000000000000000000000000081526004016115a6906141b8565b60405180910390fd5b6020816115bc919061326c565b866115c7919061326c565b9550505b611641565b602089607f8416815181106115e8576115e761304b565b5b60200260200101515114611631576040517f08c379a00000000000000000000000000000000000000000000000000000000081526004016116289061424a565b60405180910390fd5b60208561163e919061326c565b94505b6020840193508060010190506114b9565b50600484611660919061326c565b67ffffffffffffffff81111561167957611678611dcb565b5b6040519080825280601f01601f1916602001820160405280156116ab5781602001600182028036833780820191505090505b5094508660208601526000935060005b6020811015611806578681602081106116d7576116d661304b565b5b1a60f81b60f81c60ff16915060ff82031561180657600060808316146117c55760fe820361174e57838560248801015261172e8360208860048861171b919061326c565b6020885161172991906133e7565b611b2d565b6020835161173c91906133e7565b84611747919061326c565b93506117c0565b600089607f8416815181106117665761176561304b565b5b602002602001015151905084866024890101526117b08a607f8516815181106117925761179161304b565b5b60200260200101516000896004896117aa919061326c565b85611b2d565b80856117bc919061326c565b9450505b6117f5565b600089607f8416815181106117dd576117dc61304b565b5b60200260200101519050602081015186602489010152505b6020850194508060010190506116bb565b50505050509392505050565b60008260f81c60ff16905060ff810361182b57506118c2565b60006020835161183b919061326c565b67ffffffffffffffff81111561185457611853611dcb565b5b6040519080825280601f01601f1916602001820160405280156118865781602001600182028036833780820191505090505b5085838151811061189a5761189961304b565b5b6020026020010181905290506118b68360008360208751611b2d565b82518060208301525050505b505050565b606060008360f81c60ff16905060ff81036118e55784915050611a5f565b600060808216146119815760fe8103611913578280602001905181019061190c919061438f565b945061197c565b6000602084015190506020811461195f576040517f08c379a00000000000000000000000000000000000000000000000000000000081526004016119569061444a565b60405180910390fd5b60208451036020850152602084016020607f841602602088010152505b611a5a565b6020835110156119c6576040517f08c379a00000000000000000000000000000000000000000000000000000000081526004016119bd906144b6565b60405180910390fd5b602083511115611a37576000602067ffffffffffffffff8111156119ed576119ec611dcb565b5b6040519080825280601f01601f191660200182016040528015611a1f5781602001600182028036833780820191505090505b509050611a328460008360008851611b2d565b809350505b8285607f831681518110611a4e57611a4d61304b565b5b60200260200101819052505b849150505b9392505050565b6000611ac8826040518060400160405280602081526020017f5361666545524332303a206c6f772d6c6576656c2063616c6c206661696c65648152508573ffffffffffffffffffffffffffffffffffffffff16611b479092919063ffffffff16565b9050600081511115611b285780806020019051810190611ae89190613c01565b611b27576040517f08c379a0000000000000000000000000000000000000000000000000000000008152600401611b1e90614548565b60405180910390fd5b5b505050565b808260208501018286602089010160045afa505050505050565b6060611b568484600085611b5f565b90509392505050565b606082471015611ba4576040517f08c379a0000000000000000000000000000000000000000000000000000000008152600401611b9b906145da565b60405180910390fd5b6000808673ffffffffffffffffffffffffffffffffffffffff168587604051611bcd9190613da0565b60006040518083038185875af1925050503d8060008114611c0a576040519150601f19603f3d011682016040523d82523d6000602084013e611c0f565b606091505b5091509150611c2087838387611c2c565b92505050949350505050565b60608315611c8e576000835103611c8657611c4685611ca1565b611c85576040517f08c379a0000000000000000000000000000000000000000000000000000000008152600401611c7c90614646565b60405180910390fd5b5b829050611c99565b611c988383611cc4565b5b949350505050565b6000808273ffffffffffffffffffffffffffffffffffffffff163b119050919050565b600082511115611cd75781518083602001fd5b806040517f08c379a0000000000000000000000000000000000000000000000000000000008152600401611d0b9190614666565b60405180910390fd5b6040518060200160405280606081525090565b604051806040016040528060608152602001600081525090565b6000604051905090565b600080fd5b600080fd5b600080fd5b600080fd5b600080fd5b60008083601f840112611d7a57611d79611d55565b5b8235905067ffffffffffffffff811115611d9757611d96611d5a565b5b602083019150836020820283011115611db357611db2611d5f565b5b9250929050565b6000601f19601f8301169050919050565b7f4e487b7100000000000000000000000000000000000000000000000000000000600052604160045260246000fd5b611e0382611dba565b810181811067ffffffffffffffff82111715611e2257611e21611dcb565b5b80604052505050565b6000611e35611d41565b9050611e418282611dfa565b919050565b600067ffffffffffffffff821115611e6157611e60611dcb565b5b602082029050602081019050919050565b600080fd5b600067ffffffffffffffff821115611e9257611e91611dcb565b5b611e9b82611dba565b9050602081019050919050565b82818337600083830152505050565b6000611eca611ec584611e77565b611e2b565b905082815260208101848484011115611ee657611ee5611e72565b5b611ef1848285611ea8565b509392505050565b600082601f830112611f0e57611f0d611d55565b5b8135611f1e848260208601611eb7565b91505092915050565b6000611f3a611f3584611e46565b611e2b565b90508083825260208201905060208402830185811115611f5d57611f5c611d5f565b5b835b81811015611fa457803567ffffffffffffffff811115611f8257611f81611d55565b5b808601611f8f8982611ef9565b85526020850194505050602081019050611f5f565b5050509392505050565b600082601f830112611fc357611fc2611d55565b5b8135611fd3848260208601611f27565b91505092915050565b600067ffffffffffffffff821115611ff757611ff6611dcb565b5b602082029050602081019050919050565b600073ffffffffffffffffffffffffffffffffffffffff82169050919050565b600061203382612008565b9050919050565b600061204582612028565b9050919050565b6120558161203a565b811461206057600080fd5b50565b6000813590506120728161204c565b92915050565b600061208b61208684611fdc565b611e2b565b905080838252602082019050602084028301858111156120ae576120ad611d5f565b5b835b818110156120d757806120c38882612063565b8452602084019350506020810190506120b0565b5050509392505050565b600082601f8301126120f6576120f5611d55565b5b8135612106848260208601612078565b91505092915050565b6000806000806060858703121561212957612128611d4b565b5b600085013567ffffffffffffffff81111561214757612146611d50565b5b61215387828801611d64565b9450945050602085013567ffffffffffffffff81111561217657612175611d50565b5b61218287828801611fae565b925050604085013567ffffffffffffffff8111156121a3576121a2611d50565b5b6121af878288016120e1565b91505092959194509250565b600081519050919050565b600082825260208201905092915050565b6000819050602082019050919050565b6000819050919050565b6121fa816121e7565b82525050565b600061220c83836121f1565b60208301905092915050565b6000602082019050919050565b6000612230826121bb565b61223a81856121c6565b9350612245836121d7565b8060005b8381101561227657815161225d8882612200565b975061226883612218565b925050600181019050612249565b5085935050505092915050565b600060208301600083015184820360008601526122a08282612225565b9150508091505092915050565b600060208201905081810360008301526122c78184612283565b905092915050565b6122d8816121e7565b81146122e357600080fd5b50565b6000813590506122f5816122cf565b92915050565b6000806040838503121561231257612311611d4b565b5b6000612320858286016122e6565b9250506020612331858286016122e6565b9150509250929050565b60008115159050919050565b6123508161233b565b82525050565b600060208201905061236b6000830184612347565b92915050565b61237a816121e7565b82525050565b60006020820190506123956000830184612371565b92915050565b6123a481612028565b81146123af57600080fd5b50565b6000813590506123c18161239b565b92915050565b60008083601f8401126123dd576123dc611d55565b5b8235905067ffffffffffffffff8111156123fa576123f9611d5a565b5b60208301915083600182028301111561241657612415611d5f565b5b9250929050565b6000806000806060858703121561243757612436611d4b565b5b6000612445878288016123b2565b9450506020612456878288016122e6565b935050604085013567ffffffffffffffff81111561247757612476611d50565b5b612483878288016123c7565b925092505092959194509250565b600081519050919050565b600082825260208201905092915050565b60005b838110156124cb5780820151818401526020810190506124b0565b60008484015250505050565b60006124e282612491565b6124ec818561249c565b93506124fc8185602086016124ad565b61250581611dba565b840191505092915050565b60006040820190506125256000830185612347565b818103602083015261253781846124d7565b90509392505050565b60008060006060848603121561255957612558611d4b565b5b6000612567868287016122e6565b9350506020612578868287016122e6565b9250506040612589868287016122e6565b9150509250925092565b600080fd5b600080fd5b600067ffffffffffffffff8211156125b8576125b7611dcb565b5b6125c182611dba565b9050602081019050919050565b60006125e16125dc8461259d565b611e2b565b9050828152602081018484840111156125fd576125fc611e72565b5b612608848285611ea8565b509392505050565b600082601f83011261262557612624611d55565b5b81356126358482602086016125ce565b91505092915050565b600067ffffffffffffffff82111561265957612658611dcb565b5b602082029050602081019050919050565b600061267d6126788461263e565b611e2b565b905080838252602082019050602084028301858111156126a05761269f611d5f565b5b835b818110156126c957806126b588826123b2565b8452602084019350506020810190506126a2565b5050509392505050565b600082601f8301126126e8576126e7611d55565b5b81356126f884826020860161266a565b91505092915050565b600067ffffffffffffffff82111561271c5761271b611dcb565b5b602082029050602081019050919050565b600061274061273b84612701565b611e2b565b9050808382526020820190506020840283018581111561276357612762611d5f565b5b835b8181101561278c578061277888826122e6565b845260208401935050602081019050612765565b5050509392505050565b600082601f8301126127ab576127aa611d55565b5b81356127bb84826020860161272d565b91505092915050565b600060a082840312156127da576127d9612593565b5b6127e460a0611e2b565b9050600082013567ffffffffffffffff81111561280457612803612598565b5b61281084828501612610565b600083015250602082013567ffffffffffffffff81111561283457612833612598565b5b61284084828501612610565b602083015250604082013567ffffffffffffffff81111561286457612863612598565b5b612870848285016126d3565b604083015250606082013567ffffffffffffffff81111561289457612893612598565b5b6128a084828501612796565b60608301525060806128b4848285016122e6565b60808301525092915050565b600067ffffffffffffffff8211156128db576128da611dcb565b5b602082029050602081019050919050565b60006bffffffffffffffffffffffff82169050919050565b61290d816128ec565b811461291857600080fd5b50565b60008135905061292a81612904565b92915050565b60006040828403121561294657612945612593565b5b6129506040611e2b565b90506000612960848285016123b2565b60008301525060206129748482850161291b565b60208301525092915050565b600061299361298e846128c0565b611e2b565b905080838252602082019050604084028301858111156129b6576129b5611d5f565b5b835b818110156129df57806129cb8882612930565b8452602084019350506040810190506129b8565b5050509392505050565b600082601f8301126129fe576129fd611d55565b5b8135612a0e848260208601612980565b91505092915050565b600060c08284031215612a2d57612a2c612593565b5b612a3760c0611e2b565b90506000612a47848285016122e6565b6000830152506020612a5b848285016122e6565b602083015250604082013567ffffffffffffffff811115612a7f57612a7e612598565b5b612a8b848285016129e9565b6040830152506060612a9f848285016122e6565b6060830152506080612ab3848285016122e6565b60808301525060a082013567ffffffffffffffff811115612ad757612ad6612598565b5b612ae384828501612610565b60a08301525092915050565b600060608284031215612b0557612b04612593565b5b612b0f6060611e2b565b9050600082013567ffffffffffffffff811115612b2f57612b2e612598565b5b612b3b848285016126d3565b600083015250602082013567ffffffffffffffff811115612b5f57612b5e612598565b5b612b6b848285016126d3565b602083015250604082013567ffffffffffffffff811115612b8f57612b8e612598565b5b612b9b848285016126d3565b60408301525092915050565b612bb08161233b565b8114612bbb57600080fd5b50565b600081359050612bcd81612ba7565b92915050565b6000612bde82612028565b9050919050565b612bee81612bd3565b8114612bf957600080fd5b50565b600081359050612c0b81612be5565b92915050565b600065ffffffffffff82169050919050565b612c2c81612c11565b8114612c3757600080fd5b50565b600081359050612c4981612c23565b92915050565b600063ffffffff82169050919050565b612c6881612c4f565b8114612c7357600080fd5b50565b600081359050612c8581612c5f565b92915050565b600060c08284031215612ca157612ca0612593565b5b612cab60c0611e2b565b90506000612cbb84828501612c3a565b6000830152506020612ccf84828501612c76565b6020830152506040612ce3848285016122e6565b6040830152506060612cf7848285016122e6565b6060830152506080612d0b848285016122e6565b60808301525060a082013567ffffffffffffffff811115612d2f57612d2e612598565b5b612d3b848285016126d3565b60a08301525092915050565b60006101208284031215612d5e57612d5d612593565b5b612d69610120611e2b565b90506000612d79848285016123b2565b600083015250602082013567ffffffffffffffff811115612d9d57612d9c612598565b5b612da9848285016127c4565b602083015250604082013567ffffffffffffffff811115612dcd57612dcc612598565b5b612dd984828501612a17565b604083015250606082013567ffffffffffffffff811115612dfd57612dfc612598565b5b612e0984828501612aef565b6060830152506080612e1d84828501612bbe565b60808301525060a0612e3184828501612bfc565b60a08301525060c0612e45848285016123b2565b60c08301525060e082013567ffffffffffffffff811115612e6957612e68612598565b5b612e7584828501612c8b565b60e08301525061010082013567ffffffffffffffff811115612e9a57612e99612598565b5b612ea684828501612c8b565b6101008301525092915050565b6000819050919050565b612ec681612eb3565b8114612ed157600080fd5b50565b600081359050612ee381612ebd565b92915050565b600080600080600080600060c0888a031215612f0857612f07611d4b565b5b600088013567ffffffffffffffff811115612f2657612f25611d50565b5b612f328a828b01611d64565b9750975050602088013567ffffffffffffffff811115612f5557612f54611d50565b5b612f618a828b01611fae565b955050604088013567ffffffffffffffff811115612f8257612f81611d50565b5b612f8e8a828b016120e1565b945050606088013567ffffffffffffffff811115612faf57612fae611d50565b5b612fbb8a828b01612d47565b9350506080612fcc8a828b016123b2565b92505060a0612fdd8a828b01612ed4565b91505092959891949750929550565b600060408301600083015184820360008601526130098282612225565b915050602083015161301e60208601826121f1565b508091505092915050565b600060208201905081810360008301526130438184612fec565b905092915050565b7f4e487b7100000000000000000000000000000000000000000000000000000000600052603260045260246000fd5b61308381612028565b82525050565b600060208201905061309e600083018461307a565b92915050565b6000815190506130b3816122cf565b92915050565b6000602082840312156130cf576130ce611d4b565b5b60006130dd848285016130a4565b91505092915050565b7f4e487b7100000000000000000000000000000000000000000000000000000000600052601160045260246000fd5b6000613120826121e7565b91507fffffffffffffffffffffffffffffffffffffffffffffffffffffffffffffffff8203613152576131516130e6565b5b600182019050919050565b600082825260208201905092915050565b7f50726576656e7454616d706572696e673a20436f646520686173206368616e6760008201527f6564000000000000000000000000000000000000000000000000000000000000602082015250565b60006131ca60228361315d565b91506131d58261316e565b604082019050919050565b600060208201905081810360008301526131f9816131bd565b9050919050565b7f214153534552545f475400000000000000000000000000000000000000000000600082015250565b6000613236600a8361315d565b915061324182613200565b602082019050919050565b6000602082019050818103600083015261326581613229565b9050919050565b6000613277826121e7565b9150613282836121e7565b925082820190508082111561329a576132996130e6565b5b92915050565b7f5a61707065724578656375746f723a204f6e6c792063616c6c61626c6520627960008201527f205a617070657200000000000000000000000000000000000000000000000000602082015250565b60006132fc60278361315d565b9150613307826132a0565b604082019050919050565b6000602082019050818103600083015261332b816132ef565b9050919050565b600081905092915050565b60006133498385613332565b9350613356838584611ea8565b82840190509392505050565b600061336f82848661333d565b91508190509392505050565b7f214153534552545f455100000000000000000000000000000000000000000000600082015250565b60006133b1600a8361315d565b91506133bc8261337b565b602082019050919050565b600060208201905081810360008301526133e0816133a4565b9050919050565b60006133f2826121e7565b91506133fd836121e7565b9250828203905081811115613415576134146130e6565b5b92915050565b6000613426826121e7565b9150613431836121e7565b925082820261343f816121e7565b91508282048414831517613456576134556130e6565b5b5092915050565b7f4e487b7100000000000000000000000000000000000000000000000000000000600052601260045260246000fd5b6000613497826121e7565b91506134a2836121e7565b9250826134b2576134b161345d565b5b828204905092915050565b7f5a45524f2042414c414e43450000000000000000000000000000000000000000600082015250565b60006134f3600c8361315d565b91506134fe826134bd565b602082019050919050565b60006020820190508181036000830152613522816134e6565b9050919050565b7f5a45524f205155414e5449545900000000000000000000000000000000000000600082015250565b600061355f600d8361315d565b915061356a82613529565b602082019050919050565b6000602082019050818103600083015261358e81613552565b9050919050565b7f4e4f205348415245530000000000000000000000000000000000000000000000600082015250565b60006135cb60098361315d565b91506135d682613595565b602082019050919050565b600060208201905081810360008301526135fa816135be565b9050919050565b6000819050919050565b600061362661362161361c84612008565b613601565b612008565b9050919050565b60006136388261360b565b9050919050565b600061364a8261362d565b9050919050565b61365a8161363f565b82525050565b600081519050919050565b600082825260208201905092915050565b600061368782613660565b613691818561366b565b93506136a18185602086016124ad565b6136aa81611dba565b840191505092915050565b600081519050919050565b600082825260208201905092915050565b6000819050602082019050919050565b6136ea81612028565b82525050565b60006136fc83836136e1565b60208301905092915050565b6000602082019050919050565b6000613720826136b5565b61372a81856136c0565b9350613735836136d1565b8060005b8381101561376657815161374d88826136f0565b975061375883613708565b925050600181019050613739565b5085935050505092915050565b600060a0830160008301518482036000860152613790828261367c565b915050602083015184820360208601526137aa828261367c565b915050604083015184820360408601526137c48282613715565b915050606083015184820360608601526137de8282612225565b91505060808301516137f360808601826121f1565b508091505092915050565b600081519050919050565b600082825260208201905092915050565b6000819050602082019050919050565b613833816128ec565b82525050565b60408201600082015161384f60008501826136e1565b506020820151613862602085018261382a565b50505050565b60006138748383613839565b60408301905092915050565b6000602082019050919050565b6000613898826137fe565b6138a28185613809565b93506138ad8361381a565b8060005b838110156138de5781516138c58882613868565b97506138d083613880565b9250506001810190506138b1565b5085935050505092915050565b600060c08301600083015161390360008601826121f1565b50602083015161391660208601826121f1565b506040830151848203604086015261392e828261388d565b915050606083015161394360608601826121f1565b50608083015161395660808601826121f1565b5060a083015184820360a086015261396e828261367c565b9150508091505092915050565b61398481612c11565b82525050565b61399381612c4f565b82525050565b600060c0830160008301516139b1600086018261397b565b5060208301516139c4602086018261398a565b5060408301516139d760408601826121f1565b5060608301516139ea60608601826121f1565b5060808301516139fd60808601826121f1565b5060a083015184820360a0860152613a158282613715565b9150508091505092915050565b60006060830160008301518482036000860152613a3f8282613715565b91505060208301518482036020860152613a598282613715565b91505060408301518482036040860152613a738282613715565b9150508091505092915050565b613a8981612eb3565b82525050565b600060e082019050613aa4600083018a613651565b8181036020830152613ab68189613773565b90508181036040830152613aca81886138eb565b90508181036060830152613ade8187613999565b90508181036080830152613af28186613999565b905081810360a0830152613b068185613a22565b9050613b1560c0830184613a80565b98975050505050505050565b600081519050613b308161239b565b92915050565b60008060008060008060c08789031215613b5357613b52611d4b565b5b6000613b6189828a01613b21565b9650506020613b7289828a01613b21565b9550506040613b8389828a01613b21565b9450506060613b9489828a01613b21565b9350506080613ba589828a01613b21565b92505060a0613bb689828a01613b21565b9150509295509295509295565b6000604082019050613bd8600083018561307a565b613be56020830184612371565b9392505050565b600081519050613bfb81612ba7565b92915050565b600060208284031215613c1757613c16611d4b565b5b6000613c2584828501613bec565b91505092915050565b600082825260208201905092915050565b6000613c4a826136b5565b613c548185613c2e565b9350613c5f836136d1565b8060005b83811015613c90578151613c7788826136f0565b9750613c8283613708565b925050600181019050613c63565b5085935050505092915050565b600060e0820190508181036000830152613cb7818a613773565b90508181036020830152613ccb81896138eb565b9050613cda604083018861307a565b8181036060830152613cec8187613c3f565b90508181036080830152613d008186613c3f565b905081810360a0830152613d148185613c3f565b9050613d2360c0830184613a80565b98975050505050505050565b60008060408385031215613d4657613d45611d4b565b5b6000613d5485828601613b21565b9250506020613d6585828601613b21565b9150509250929050565b6000613d7a82612491565b613d848185613332565b9350613d948185602086016124ad565b80840191505092915050565b6000613dac8284613d6f565b915081905092915050565b7f5f657865637574653a2076616c75652063616c6c20686173206e6f2076616c7560008201527f6520696e646963617465642e0000000000000000000000000000000000000000602082015250565b6000613e13602c8361315d565b9150613e1e82613db7565b604082019050919050565b60006020820190508181036000830152613e4281613e06565b9050919050565b7f496e76616c69642063616c6c7479706500000000000000000000000000000000600082015250565b6000613e7f60108361315d565b9150613e8a82613e49565b602082019050919050565b60006020820190508181036000830152613eae81613e72565b9050919050565b6000613ec082613660565b613eca818561315d565b9350613eda8185602086016124ad565b613ee381611dba565b840191505092915050565b6000606082019050613f036000830186612371565b613f10602083018561307a565b8181036040830152613f228184613eb5565b9050949350505050565b6000604082019050613f41600083018561307a565b613f4e602083018461307a565b9392505050565b7f5361666545524332303a20617070726f76652066726f6d206e6f6e2d7a65726f60008201527f20746f206e6f6e2d7a65726f20616c6c6f77616e636500000000000000000000602082015250565b6000613fb160368361315d565b9150613fbc82613f55565b604082019050919050565b60006020820190508181036000830152613fe081613fa4565b9050919050565b600081519050919050565b600082825260208201905092915050565b6000819050602082019050919050565b600082825260208201905092915050565b600061402f82612491565b6140398185614013565b93506140498185602086016124ad565b61405281611dba565b840191505092915050565b60006140698383614024565b905092915050565b6000602082019050919050565b600061408982613fe7565b6140938185613ff2565b9350836020820285016140a585614003565b8060005b858110156140e157848403895281516140c2858261405d565b94506140cd83614071565b925060208a019950506001810190506140a9565b50829750879550505050505092915050565b6000602082019050818103600083015261410d818461407e565b905092915050565b6000614120826121e7565b915061412b836121e7565b92508261413b5761413a61345d565b5b828206905092915050565b7f44796e616d6963207374617465207661726961626c6573206d7573742062652060008201527f61206d756c7469706c65206f6620333220627974657300000000000000000000602082015250565b60006141a260368361315d565b91506141ad82614146565b604082019050919050565b600060208201905081810360008301526141d181614195565b9050919050565b7f537461746963207374617465207661726961626c6573206d757374206265203360008201527f3220627974657300000000000000000000000000000000000000000000000000602082015250565b600061423460278361315d565b915061423f826141d8565b604082019050919050565b6000602082019050818103600083015261426381614227565b9050919050565b600061427d61427884611e77565b611e2b565b90508281526020810184848401111561429957614298611e72565b5b6142a48482856124ad565b509392505050565b600082601f8301126142c1576142c0611d55565b5b81516142d184826020860161426a565b91505092915050565b60006142ed6142e884611e46565b611e2b565b905080838252602082019050602084028301858111156143105761430f611d5f565b5b835b8181101561435757805167ffffffffffffffff81111561433557614334611d55565b5b80860161434289826142ac565b85526020850194505050602081019050614312565b5050509392505050565b600082601f83011261437657614375611d55565b5b81516143868482602086016142da565b91505092915050565b6000602082840312156143a5576143a4611d4b565b5b600082015167ffffffffffffffff8111156143c3576143c2611d50565b5b6143cf84828501614361565b91505092915050565b7f4f6e6c79206f6e652072657475726e2076616c7565207065726d69747465642060008201527f287661726961626c652900000000000000000000000000000000000000000000602082015250565b6000614434602a8361315d565b915061443f826143d8565b604082019050919050565b6000602082019050818103600083015261446381614427565b9050919050565b7f52657475726e206174206c656173742033322062797465730000000000000000600082015250565b60006144a060188361315d565b91506144ab8261446a565b602082019050919050565b600060208201905081810360008301526144cf81614493565b9050919050565b7f5361666545524332303a204552433230206f7065726174696f6e20646964206e60008201527f6f74207375636365656400000000000000000000000000000000000000000000602082015250565b6000614532602a8361315d565b915061453d826144d6565b604082019050919050565b6000602082019050818103600083015261456181614525565b9050919050565b7f416464726573733a20696e73756666696369656e742062616c616e636520666f60008201527f722063616c6c0000000000000000000000000000000000000000000000000000602082015250565b60006145c460268361315d565b91506145cf82614568565b604082019050919050565b600060208201905081810360008301526145f3816145b7565b9050919050565b7f416464726573733a2063616c6c20746f206e6f6e2d636f6e7472616374000000600082015250565b6000614630601d8361315d565b915061463b826145fa565b602082019050919050565b6000602082019050818103600083015261465f81614623565b9050919050565b600060208201905081810360008301526146808184613eb5565b90509291505056fea264697066735822122042b7cde9cd60ebee42d6b47b2c2b7a579a95a98bd0db0df592ce1e9b36da7ead64736f6c63430008110033",
  "linkReferences": {},
  "deployedLinkReferences": {}
}