{
  "_format": "hh-sol-artifact-1",
  "contractName": "ZapperExecutor",
  "sourceName": "contracts/ZapperExecutor.sol",
  "abi": [
    {
      "inputs": [
        {
          "internalType": "uint256",
          "name": "command_index",
          "type": "uint256"
        },
        {
          "internalType": "address",
          "name": "target",
          "type": "address"
        },
        {
          "internalType": "string",
          "name": "message",
          "type": "string"
        }
      ],
      "name": "ExecutionFailed",
      "type": "error"
    },
    {
      "inputs": [
        {
          "internalType": "uint256",
          "name": "a",
          "type": "uint256"
        },
        {
          "internalType": "uint256",
          "name": "b",
          "type": "uint256"
        }
      ],
      "name": "add",
      "outputs": [
        {
          "internalType": "uint256",
          "name": "",
          "type": "uint256"
        }
      ],
      "stateMutability": "pure",
      "type": "function"
    },
    {
      "inputs": [
        {
          "internalType": "uint256",
          "name": "a",
          "type": "uint256"
        },
        {
          "internalType": "uint256",
          "name": "b",
          "type": "uint256"
        }
      ],
      "name": "assertEqual",
      "outputs": [
        {
          "internalType": "bool",
          "name": "",
          "type": "bool"
        }
      ],
      "stateMutability": "pure",
      "type": "function"
    },
    {
      "inputs": [
        {
          "internalType": "uint256",
          "name": "a",
          "type": "uint256"
        },
        {
          "internalType": "uint256",
          "name": "b",
          "type": "uint256"
        }
      ],
      "name": "assertLarger",
      "outputs": [
        {
          "internalType": "bool",
          "name": "",
          "type": "bool"
        }
      ],
      "stateMutability": "pure",
      "type": "function"
    },
    {
      "inputs": [
        {
          "internalType": "bytes32[]",
          "name": "commands",
          "type": "bytes32[]"
        },
        {
          "internalType": "bytes[]",
          "name": "state",
          "type": "bytes[]"
        },
        {
          "internalType": "contract IERC20[]",
          "name": "tokens",
          "type": "address[]"
        }
      ],
      "name": "execute",
      "outputs": [
        {
          "components": [
            {
              "internalType": "uint256[]",
              "name": "dust",
              "type": "uint256[]"
            }
          ],
          "internalType": "struct ExecuteOutput",
          "name": "out",
          "type": "tuple"
        }
      ],
      "stateMutability": "payable",
      "type": "function"
    },
    {
      "inputs": [
        {
          "internalType": "bytes32[]",
          "name": "commands",
          "type": "bytes32[]"
        },
        {
          "internalType": "bytes[]",
          "name": "state",
          "type": "bytes[]"
        },
        {
          "internalType": "contract IERC20[]",
          "name": "tokens",
          "type": "address[]"
        },
        {
          "components": [
            {
              "internalType": "address",
              "name": "deployer",
              "type": "address"
            },
            {
              "components": [
                {
                  "internalType": "string",
                  "name": "name",
                  "type": "string"
                },
                {
                  "internalType": "string",
                  "name": "symbol",
                  "type": "string"
                },
                {
                  "internalType": "address[]",
                  "name": "assets",
                  "type": "address[]"
                },
                {
                  "internalType": "uint256[]",
                  "name": "amounts",
                  "type": "uint256[]"
                },
                {
                  "internalType": "uint256",
                  "name": "initialShares",
                  "type": "uint256"
                }
              ],
              "internalType": "struct IFolio.FolioBasicDetails",
              "name": "basicDetails",
              "type": "tuple"
            },
            {
              "components": [
                {
                  "internalType": "uint256",
                  "name": "auctionDelay",
                  "type": "uint256"
                },
                {
                  "internalType": "uint256",
                  "name": "auctionLength",
                  "type": "uint256"
                },
                {
                  "components": [
                    {
                      "internalType": "address",
                      "name": "recipient",
                      "type": "address"
                    },
                    {
                      "internalType": "uint96",
                      "name": "portion",
                      "type": "uint96"
                    }
                  ],
                  "internalType": "struct IFolio.FeeRecipient[]",
                  "name": "feeRecipients",
                  "type": "tuple[]"
                },
                {
                  "internalType": "uint256",
                  "name": "tvlFee",
                  "type": "uint256"
                },
                {
                  "internalType": "uint256",
                  "name": "mintFee",
                  "type": "uint256"
                },
                {
                  "internalType": "string",
                  "name": "mandate",
                  "type": "string"
                }
              ],
              "internalType": "struct IFolio.FolioAdditionalDetails",
              "name": "additionalDetails",
              "type": "tuple"
            },
            {
              "components": [
                {
                  "internalType": "address[]",
                  "name": "existingTradeProposers",
                  "type": "address[]"
                },
                {
                  "internalType": "address[]",
                  "name": "tradeLaunchers",
                  "type": "address[]"
                },
                {
                  "internalType": "address[]",
                  "name": "vibesOfficers",
                  "type": "address[]"
                }
              ],
              "internalType": "struct GovRoles",
              "name": "govRoles",
              "type": "tuple"
            },
            {
              "internalType": "bool",
              "name": "isGoverned",
              "type": "bool"
            },
            {
              "internalType": "contract IVotes",
              "name": "stToken",
              "type": "address"
            },
            {
              "internalType": "address",
              "name": "owner",
              "type": "address"
            },
            {
              "components": [
                {
                  "internalType": "uint48",
                  "name": "votingDelay",
                  "type": "uint48"
                },
                {
                  "internalType": "uint32",
                  "name": "votingPeriod",
                  "type": "uint32"
                },
                {
                  "internalType": "uint256",
                  "name": "proposalThreshold",
                  "type": "uint256"
                },
                {
                  "internalType": "uint256",
                  "name": "quorumPercent",
                  "type": "uint256"
                },
                {
                  "internalType": "uint256",
                  "name": "timelockDelay",
                  "type": "uint256"
                },
                {
                  "internalType": "address[]",
                  "name": "guardians",
                  "type": "address[]"
                }
              ],
              "internalType": "struct IGovernanceDeployer.GovParams",
              "name": "ownerGovParams",
              "type": "tuple"
            },
            {
              "components": [
                {
                  "internalType": "uint48",
                  "name": "votingDelay",
                  "type": "uint48"
                },
                {
                  "internalType": "uint32",
                  "name": "votingPeriod",
                  "type": "uint32"
                },
                {
                  "internalType": "uint256",
                  "name": "proposalThreshold",
                  "type": "uint256"
                },
                {
                  "internalType": "uint256",
                  "name": "quorumPercent",
                  "type": "uint256"
                },
                {
                  "internalType": "uint256",
                  "name": "timelockDelay",
                  "type": "uint256"
                },
                {
                  "internalType": "address[]",
                  "name": "guardians",
                  "type": "address[]"
                }
              ],
              "internalType": "struct IGovernanceDeployer.GovParams",
              "name": "tradingGovParams",
              "type": "tuple"
            }
          ],
          "internalType": "struct DeployFolioConfig",
          "name": "config",
          "type": "tuple"
        },
        {
          "internalType": "address",
          "name": "recipient",
          "type": "address"
        },
        {
          "internalType": "bytes32",
          "name": "nonce",
          "type": "bytes32"
        }
      ],
      "name": "executeDeploy",
      "outputs": [
        {
          "components": [
            {
              "internalType": "uint256[]",
              "name": "dust",
              "type": "uint256[]"
            },
            {
              "internalType": "uint256",
              "name": "amountOut",
              "type": "uint256"
            }
          ],
          "internalType": "struct ExecuteDeployOutput",
          "name": "out",
          "type": "tuple"
        }
      ],
      "stateMutability": "payable",
      "type": "function"
    },
    {
      "inputs": [
        {
          "internalType": "uint256",
          "name": "a",
          "type": "uint256"
        },
        {
          "internalType": "uint256",
          "name": "b",
          "type": "uint256"
        },
        {
          "internalType": "uint256",
          "name": "scale",
          "type": "uint256"
        }
      ],
      "name": "fpMul",
      "outputs": [
        {
          "internalType": "uint256",
          "name": "",
          "type": "uint256"
        }
      ],
      "stateMutability": "pure",
      "type": "function"
    },
    {
      "inputs": [
        {
          "internalType": "address",
          "name": "to",
          "type": "address"
        },
        {
          "internalType": "uint256",
          "name": "value",
          "type": "uint256"
        },
        {
          "internalType": "bytes",
          "name": "data",
          "type": "bytes"
        }
      ],
      "name": "rawCall",
      "outputs": [
        {
          "internalType": "bool",
          "name": "success",
          "type": "bool"
        },
        {
          "internalType": "bytes",
          "name": "out",
          "type": "bytes"
        }
      ],
      "stateMutability": "nonpayable",
      "type": "function"
    },
    {
      "inputs": [
        {
          "internalType": "uint256",
          "name": "a",
          "type": "uint256"
        },
        {
          "internalType": "uint256",
          "name": "b",
          "type": "uint256"
        }
      ],
      "name": "sub",
      "outputs": [
        {
          "internalType": "uint256",
          "name": "",
          "type": "uint256"
        }
      ],
      "stateMutability": "pure",
      "type": "function"
    },
    {
      "stateMutability": "payable",
      "type": "receive"
    }
  ],
  "bytecode": "0x60a060405234801561001057600080fd5b503073ffffffffffffffffffffffffffffffffffffffff1660808173ffffffffffffffffffffffffffffffffffffffff16815250506080516145e861005d600039600050506145e86000f3fe60806040526004361061007f5760003560e01c8063ad207fd71161004e578063ad207fd714610173578063b67d77c5146101b0578063d47b0de4146101ed578063f95641621461022a57610086565b806308c4b4981461008b578063298e2c9e146100bb578063771602f7146100f857806398a38d7d1461013557610086565b3661008657005b600080fd5b6100a560048036038101906100a09190612039565b61025a565b6040516100b291906121d7565b60405180910390f35b3480156100c757600080fd5b506100e260048036038101906100dd9190612225565b6103ef565b6040516100ef9190612280565b60405180910390f35b34801561010457600080fd5b5061011f600480360381019061011a9190612225565b61043d565b60405161012c91906122aa565b60405180910390f35b34801561014157600080fd5b5061015c60048036038101906101579190612347565b610453565b60405161016a92919061243a565b60405180910390f35b34801561017f57600080fd5b5061019a60048036038101906101959190612225565b610541565b6040516101a79190612280565b60405180910390f35b3480156101bc57600080fd5b506101d760048036038101906101d29190612225565b61058f565b6040516101e491906122aa565b60405180910390f35b3480156101f957600080fd5b50610214600480360381019061020f919061246a565b6105a5565b60405161022191906122aa565b60405180910390f35b610244600480360381019061023f9190612e13565b6105c7565b6040516102519190612f53565b60405180910390f35b610262611c3e565b6000303f9050610273868686610d8a565b50825167ffffffffffffffff81111561028f5761028e611cf5565b5b6040519080825280602002602001820160405280156102bd5781602001602082028036833780820191505090505b50826000018190525060005b835181101561039c578381815181106102e5576102e4612f75565b5b602002602001015173ffffffffffffffffffffffffffffffffffffffff166370a08231306040518263ffffffff1660e01b81526004016103259190612fb3565b602060405180830381865afa158015610342573d6000803e3d6000fd5b505050506040513d601f19601f820116820180604052508101906103669190612fe3565b8360000151828151811061037d5761037c612f75565b5b60200260200101818152505080806103949061303f565b9150506102c9565b506000303f90508181146103e5576040517f08c379a00000000000000000000000000000000000000000000000000000000081526004016103dc9061310a565b60405180910390fd5b5050949350505050565b6000818311610433576040517f08c379a000000000000000000000000000000000000000000000000000000000815260040161042a90613176565b60405180910390fd5b6001905092915050565b6000818361044b9190613196565b905092915050565b600060603073ffffffffffffffffffffffffffffffffffffffff163373ffffffffffffffffffffffffffffffffffffffff16146104c5576040517f08c379a00000000000000000000000000000000000000000000000000000000081526004016104bc9061323c565b60405180910390fd5b8573ffffffffffffffffffffffffffffffffffffffff168585856040516104ed92919061328c565b60006040518083038185875af1925050503d806000811461052a576040519150601f19603f3d011682016040523d82523d6000602084013e61052f565b606091505b50809250819350505094509492505050565b6000818314610585576040517f08c379a000000000000000000000000000000000000000000000000000000000815260040161057c906132f1565b60405180910390fd5b6001905092915050565b6000818361059d9190613311565b905092915050565b60008183856105b49190613345565b6105be91906133b6565b90509392505050565b6105cf611c51565b6000303f90506105e0898989610d8a565b5060007fffffffffffffffffffffffffffffffffffffffffffffffffffffffffffffffff905060005b8660200151604001515181101561082f576000876020015160400151828151811061063757610636612f75565b5b602002602001015173ffffffffffffffffffffffffffffffffffffffff166370a08231306040518263ffffffff1660e01b81526004016106779190612fb3565b602060405180830381865afa158015610694573d6000803e3d6000fd5b505050506040513d601f19601f820116820180604052508101906106b89190612fe3565b9050600081036106fd576040517f08c379a00000000000000000000000000000000000000000000000000000000081526004016106f490613433565b60405180910390fd5b6000886020015160600151838151811061071a57610719612f75565b5b6020026020010151905060008103610767576040517f08c379a000000000000000000000000000000000000000000000000000000000815260040161075e9061349f565b60405180910390fd5b600081670de0b6b3a76400008461077e9190613345565b61078891906133b6565b905084811015610796578094505b6107c88a602001516040015185815181106107b4576107b3612f75565b5b60200260200101518b600001516000611203565b6108198a602001516040015185815181106107e6576107e5612f75565b5b60200260200101518b600001517fffffffffffffffffffffffffffffffffffffffffffffffffffffffffffffffff611203565b50505080806108279061303f565b915050610609565b507fffffffffffffffffffffffffffffffffffffffffffffffffffffffffffffffff8103610892576040517f08c379a00000000000000000000000000000000000000000000000000000000081526004016108899061350b565b60405180910390fd5b60005b8660200151604001515181101561092157670de0b6b3a764000087602001516060015182815181106108ca576108c9612f75565b5b6020026020010151836108dd9190613345565b6108e791906133b6565b876020015160600151828151811061090257610901612f75565b5b60200260200101818152505080806109199061303f565b915050610895565b508086602001516080018181525050856080015115610a80576000866000015173ffffffffffffffffffffffffffffffffffffffff1663784d48c78860a0015189602001518a604001518b60e001518c61010001518d606001518c6040518863ffffffff1660e01b815260040161099e97969594939291906139b9565b60c0604051808303816000875af11580156109bd573d6000803e3d6000fd5b505050506040513d601f19601f820116820180604052508101906109e19190613a60565b505050505090508073ffffffffffffffffffffffffffffffffffffffff166370a08231306040518263ffffffff1660e01b8152600401610a219190612fb3565b602060405180830381865afa158015610a3e573d6000803e3d6000fd5b505050506040513d601f19601f82011682018060405250810190610a629190612fe3565b846020018181525050610a7a81878660200151611352565b50610bc8565b6000866000015173ffffffffffffffffffffffffffffffffffffffff1663fd7d2e4f886020015189604001518a60c001518b60600151600001518c60600151602001518d60600151604001518c6040518863ffffffff1660e01b8152600401610aef9796959493929190613b5c565b60408051808303816000875af1158015610b0d573d6000803e3d6000fd5b505050506040513d601f19601f82011682018060405250810190610b319190613bee565b5090508073ffffffffffffffffffffffffffffffffffffffff166370a08231306040518263ffffffff1660e01b8152600401610b6d9190612fb3565b602060405180830381865afa158015610b8a573d6000803e3d6000fd5b505050506040513d601f19601f82011682018060405250810190610bae9190612fe3565b846020018181525050610bc681878660200151611352565b505b865167ffffffffffffffff811115610be357610be2611cf5565b5b604051908082528060200260200182016040528015610c115781602001602082028036833780820191505090505b50836000018190525060005b8751811015610d3357878181518110610c3957610c38612f75565b5b602002602001015173ffffffffffffffffffffffffffffffffffffffff166370a08231306040518263ffffffff1660e01b8152600401610c799190612fb3565b602060405180830381865afa158015610c96573d6000803e3d6000fd5b505050506040513d601f19601f82011682018060405250810190610cba9190612fe3565b84600001518281518110610cd157610cd0612f75565b5b602002602001018181525050610d20888281518110610cf357610cf2612f75565b5b60200260200101518786600001518481518110610d1357610d12612f75565b5b6020026020010151611352565b8080610d2b9061303f565b915050610c1d565b50506000303f9050818114610d7d576040517f08c379a0000000000000000000000000000000000000000000000000000000008152600401610d749061310a565b60405180910390fd5b5050979650505050505050565b60606000806000806060600089899050905060005b818110156111f2578a8a82818110610dba57610db9612f75565b5b905060200201359650602087901b60f81c60ff16955060006080871614610e08578a8a8280610de89061303f565b9350818110610dfa57610df9612f75565b5b905060200201359450610e32565b79ffffffffffffffffffffffffffffffffffffffffffffffffffff602888901b60001c1760001b94505b60006003871603610ec7578660001c73ffffffffffffffffffffffffffffffffffffffff16610e6c88878c6113d89092919063ffffffff16565b604051610e799190613c5f565b600060405180830381855af49150503d8060008114610eb4576040519150601f19603f3d011682016040523d82523d6000602084013e610eb9565b606091505b508094508195505050611148565b60016003871603610f5e578660001c73ffffffffffffffffffffffffffffffffffffffff16610f0188878c6113d89092919063ffffffff16565b604051610f0e9190613c5f565b6000604051808303816000865af19150503d8060008114610f4b576040519150601f19603f3d011682016040523d82523d6000602084013e610f50565b606091505b508094508195505050611147565b60026003871603610ff3578660001c73ffffffffffffffffffffffffffffffffffffffff16610f9888878c6113d89092919063ffffffff16565b604051610fa59190613c5f565b600060405180830381855afa9150503d8060008114610fe0576040519150601f19603f3d011682016040523d82523d6000602084013e610fe5565b606091505b508094508195505050611146565b60038087160361110a576000808a8760f81c60ff168151811061101957611018612f75565b5b602002602001015190506020815114611067576040517f08c379a000000000000000000000000000000000000000000000000000000000815260040161105e90613ce8565b60405180910390fd5b602081015191508860001c73ffffffffffffffffffffffffffffffffffffffff16826110ab8b60ff60088c901b60001c1760001b8f6113d89092919063ffffffff16565b6040516110b89190613c5f565b60006040518083038185875af1925050503d80600081146110f5576040519150601f19603f3d011682016040523d82523d6000602084013e6110fa565b606091505b5080965081975050505050611145565b6040517f08c379a000000000000000000000000000000000000000000000000000000000815260040161113c90613d54565b60405180910390fd5b5b5b5b836111a25760008351111561115e576044830192505b808760001c846040517fef3dcb2f00000000000000000000000000000000000000000000000000000000815260040161119993929190613dad565b60405180910390fd5b600060408716146111cb576111c6605888901b848b61173c9092919063ffffffff16565b6111e7565b6111e4605888901b848b6117f19092919063ffffffff16565b98505b806001019050610d9f565b508796505050505050509392505050565b600081148061128d575060008373ffffffffffffffffffffffffffffffffffffffff1663dd62ed3e30856040518363ffffffff1660e01b815260040161124a929190613deb565b602060405180830381865afa158015611267573d6000803e3d6000fd5b505050506040513d601f19601f8201168201806040525081019061128b9190612fe3565b145b6112cc576040517f08c379a00000000000000000000000000000000000000000000000000000000081526004016112c390613e86565b60405180910390fd5b61134d8363095ea7b360e01b84846040516024016112eb929190613ea6565b604051602081830303815290604052907bffffffffffffffffffffffffffffffffffffffffffffffffffffffff19166020820180517bffffffffffffffffffffffffffffffffffffffffffffffffffffffff8381831617835250505050611990565b505050565b6113d38363a9059cbb60e01b8484604051602401611371929190613ea6565b604051602081830303815290604052907bffffffffffffffffffffffffffffffffffffffffffffffffffffffff19166020820180517bffffffffffffffffffffffffffffffffffffffffffffffffffffffff8381831617835250505050611990565b505050565b606060008060606000805b602081101561157c578681602081106113ff576113fe612f75565b5b1a60f81b60f81c60ff16915060ff82031561157c57600060808316146114fa5760fe820361146757600083510361145357886040516020016114419190613fdb565b60405160208183030381529060405292505b8251856114609190613196565b94506114f5565b600089607f84168151811061147f5761147e612f75565b5b602002602001015151905060006020826114999190613ffd565b146114d9576040517f08c379a00000000000000000000000000000000000000000000000000000000081526004016114d0906140a0565b60405180910390fd5b6020816114e69190613196565b866114f19190613196565b9550505b61156b565b602089607f84168151811061151257611511612f75565b5b6020026020010151511461155b576040517f08c379a000000000000000000000000000000000000000000000000000000000815260040161155290614132565b60405180910390fd5b6020856115689190613196565b94505b6020840193508060010190506113e3565b5060048461158a9190613196565b67ffffffffffffffff8111156115a3576115a2611cf5565b5b6040519080825280601f01601f1916602001820160405280156115d55781602001600182028036833780820191505090505b5094508660208601526000935060005b60208110156117305786816020811061160157611600612f75565b5b1a60f81b60f81c60ff16915060ff82031561173057600060808316146116ef5760fe8203611678578385602488010152611658836020886004886116459190613196565b602088516116539190613311565b611a57565b602083516116669190613311565b846116719190613196565b93506116ea565b600089607f8416815181106116905761168f612f75565b5b602002602001015151905084866024890101526116da8a607f8516815181106116bc576116bb612f75565b5b60200260200101516000896004896116d49190613196565b85611a57565b80856116e69190613196565b9450505b61171f565b600089607f84168151811061170757611706612f75565b5b60200260200101519050602081015186602489010152505b6020850194508060010190506115e5565b50505050509392505050565b60008260f81c60ff16905060ff810361175557506117ec565b6000602083516117659190613196565b67ffffffffffffffff81111561177e5761177d611cf5565b5b6040519080825280601f01601f1916602001820160405280156117b05781602001600182028036833780820191505090505b508583815181106117c4576117c3612f75565b5b6020026020010181905290506117e08360008360208751611a57565b82518060208301525050505b505050565b606060008360f81c60ff16905060ff810361180f5784915050611989565b600060808216146118ab5760fe810361183d57828060200190518101906118369190614277565b94506118a6565b60006020840151905060208114611889576040517f08c379a000000000000000000000000000000000000000000000000000000000815260040161188090614332565b60405180910390fd5b60208451036020850152602084016020607f841602602088010152505b611984565b6020835110156118f0576040517f08c379a00000000000000000000000000000000000000000000000000000000081526004016118e79061439e565b60405180910390fd5b602083511115611961576000602067ffffffffffffffff81111561191757611916611cf5565b5b6040519080825280601f01601f1916602001820160405280156119495781602001600182028036833780820191505090505b50905061195c8460008360008851611a57565b809350505b8285607f83168151811061197857611977612f75565b5b60200260200101819052505b849150505b9392505050565b60006119f2826040518060400160405280602081526020017f5361666545524332303a206c6f772d6c6576656c2063616c6c206661696c65648152508573ffffffffffffffffffffffffffffffffffffffff16611a719092919063ffffffff16565b9050600081511115611a525780806020019051810190611a1291906143d3565b611a51576040517f08c379a0000000000000000000000000000000000000000000000000000000008152600401611a4890614472565b60405180910390fd5b5b505050565b808260208501018286602089010160045afa505050505050565b6060611a808484600085611a89565b90509392505050565b606082471015611ace576040517f08c379a0000000000000000000000000000000000000000000000000000000008152600401611ac590614504565b60405180910390fd5b6000808673ffffffffffffffffffffffffffffffffffffffff168587604051611af79190613c5f565b60006040518083038185875af1925050503d8060008114611b34576040519150601f19603f3d011682016040523d82523d6000602084013e611b39565b606091505b5091509150611b4a87838387611b56565b92505050949350505050565b60608315611bb8576000835103611bb057611b7085611bcb565b611baf576040517f08c379a0000000000000000000000000000000000000000000000000000000008152600401611ba690614570565b60405180910390fd5b5b829050611bc3565b611bc28383611bee565b5b949350505050565b6000808273ffffffffffffffffffffffffffffffffffffffff163b119050919050565b600082511115611c015781518083602001fd5b806040517f08c379a0000000000000000000000000000000000000000000000000000000008152600401611c359190614590565b60405180910390fd5b6040518060200160405280606081525090565b604051806040016040528060608152602001600081525090565b6000604051905090565b600080fd5b600080fd5b600080fd5b600080fd5b600080fd5b60008083601f840112611ca457611ca3611c7f565b5b8235905067ffffffffffffffff811115611cc157611cc0611c84565b5b602083019150836020820283011115611cdd57611cdc611c89565b5b9250929050565b6000601f19601f8301169050919050565b7f4e487b7100000000000000000000000000000000000000000000000000000000600052604160045260246000fd5b611d2d82611ce4565b810181811067ffffffffffffffff82111715611d4c57611d4b611cf5565b5b80604052505050565b6000611d5f611c6b565b9050611d6b8282611d24565b919050565b600067ffffffffffffffff821115611d8b57611d8a611cf5565b5b602082029050602081019050919050565b600080fd5b600067ffffffffffffffff821115611dbc57611dbb611cf5565b5b611dc582611ce4565b9050602081019050919050565b82818337600083830152505050565b6000611df4611def84611da1565b611d55565b905082815260208101848484011115611e1057611e0f611d9c565b5b611e1b848285611dd2565b509392505050565b600082601f830112611e3857611e37611c7f565b5b8135611e48848260208601611de1565b91505092915050565b6000611e64611e5f84611d70565b611d55565b90508083825260208201905060208402830185811115611e8757611e86611c89565b5b835b81811015611ece57803567ffffffffffffffff811115611eac57611eab611c7f565b5b808601611eb98982611e23565b85526020850194505050602081019050611e89565b5050509392505050565b600082601f830112611eed57611eec611c7f565b5b8135611efd848260208601611e51565b91505092915050565b600067ffffffffffffffff821115611f2157611f20611cf5565b5b602082029050602081019050919050565b600073ffffffffffffffffffffffffffffffffffffffff82169050919050565b6000611f5d82611f32565b9050919050565b6000611f6f82611f52565b9050919050565b611f7f81611f64565b8114611f8a57600080fd5b50565b600081359050611f9c81611f76565b92915050565b6000611fb5611fb084611f06565b611d55565b90508083825260208201905060208402830185811115611fd857611fd7611c89565b5b835b818110156120015780611fed8882611f8d565b845260208401935050602081019050611fda565b5050509392505050565b600082601f8301126120205761201f611c7f565b5b8135612030848260208601611fa2565b91505092915050565b6000806000806060858703121561205357612052611c75565b5b600085013567ffffffffffffffff81111561207157612070611c7a565b5b61207d87828801611c8e565b9450945050602085013567ffffffffffffffff8111156120a05761209f611c7a565b5b6120ac87828801611ed8565b925050604085013567ffffffffffffffff8111156120cd576120cc611c7a565b5b6120d98782880161200b565b91505092959194509250565b600081519050919050565b600082825260208201905092915050565b6000819050602082019050919050565b6000819050919050565b61212481612111565b82525050565b6000612136838361211b565b60208301905092915050565b6000602082019050919050565b600061215a826120e5565b61216481856120f0565b935061216f83612101565b8060005b838110156121a0578151612187888261212a565b975061219283612142565b925050600181019050612173565b5085935050505092915050565b600060208301600083015184820360008601526121ca828261214f565b9150508091505092915050565b600060208201905081810360008301526121f181846121ad565b905092915050565b61220281612111565b811461220d57600080fd5b50565b60008135905061221f816121f9565b92915050565b6000806040838503121561223c5761223b611c75565b5b600061224a85828601612210565b925050602061225b85828601612210565b9150509250929050565b60008115159050919050565b61227a81612265565b82525050565b60006020820190506122956000830184612271565b92915050565b6122a481612111565b82525050565b60006020820190506122bf600083018461229b565b92915050565b6122ce81611f52565b81146122d957600080fd5b50565b6000813590506122eb816122c5565b92915050565b60008083601f84011261230757612306611c7f565b5b8235905067ffffffffffffffff81111561232457612323611c84565b5b6020830191508360018202830111156123405761233f611c89565b5b9250929050565b6000806000806060858703121561236157612360611c75565b5b600061236f878288016122dc565b945050602061238087828801612210565b935050604085013567ffffffffffffffff8111156123a1576123a0611c7a565b5b6123ad878288016122f1565b925092505092959194509250565b600081519050919050565b600082825260208201905092915050565b60005b838110156123f55780820151818401526020810190506123da565b60008484015250505050565b600061240c826123bb565b61241681856123c6565b93506124268185602086016123d7565b61242f81611ce4565b840191505092915050565b600060408201905061244f6000830185612271565b81810360208301526124618184612401565b90509392505050565b60008060006060848603121561248357612482611c75565b5b600061249186828701612210565b93505060206124a286828701612210565b92505060406124b386828701612210565b9150509250925092565b600080fd5b600080fd5b600067ffffffffffffffff8211156124e2576124e1611cf5565b5b6124eb82611ce4565b9050602081019050919050565b600061250b612506846124c7565b611d55565b90508281526020810184848401111561252757612526611d9c565b5b612532848285611dd2565b509392505050565b600082601f83011261254f5761254e611c7f565b5b813561255f8482602086016124f8565b91505092915050565b600067ffffffffffffffff82111561258357612582611cf5565b5b602082029050602081019050919050565b60006125a76125a284612568565b611d55565b905080838252602082019050602084028301858111156125ca576125c9611c89565b5b835b818110156125f357806125df88826122dc565b8452602084019350506020810190506125cc565b5050509392505050565b600082601f83011261261257612611611c7f565b5b8135612622848260208601612594565b91505092915050565b600067ffffffffffffffff82111561264657612645611cf5565b5b602082029050602081019050919050565b600061266a6126658461262b565b611d55565b9050808382526020820190506020840283018581111561268d5761268c611c89565b5b835b818110156126b657806126a28882612210565b84526020840193505060208101905061268f565b5050509392505050565b600082601f8301126126d5576126d4611c7f565b5b81356126e5848260208601612657565b91505092915050565b600060a08284031215612704576127036124bd565b5b61270e60a0611d55565b9050600082013567ffffffffffffffff81111561272e5761272d6124c2565b5b61273a8482850161253a565b600083015250602082013567ffffffffffffffff81111561275e5761275d6124c2565b5b61276a8482850161253a565b602083015250604082013567ffffffffffffffff81111561278e5761278d6124c2565b5b61279a848285016125fd565b604083015250606082013567ffffffffffffffff8111156127be576127bd6124c2565b5b6127ca848285016126c0565b60608301525060806127de84828501612210565b60808301525092915050565b600067ffffffffffffffff82111561280557612804611cf5565b5b602082029050602081019050919050565b60006bffffffffffffffffffffffff82169050919050565b61283781612816565b811461284257600080fd5b50565b6000813590506128548161282e565b92915050565b6000604082840312156128705761286f6124bd565b5b61287a6040611d55565b9050600061288a848285016122dc565b600083015250602061289e84828501612845565b60208301525092915050565b60006128bd6128b8846127ea565b611d55565b905080838252602082019050604084028301858111156128e0576128df611c89565b5b835b8181101561290957806128f5888261285a565b8452602084019350506040810190506128e2565b5050509392505050565b600082601f83011261292857612927611c7f565b5b81356129388482602086016128aa565b91505092915050565b600060c08284031215612957576129566124bd565b5b61296160c0611d55565b9050600061297184828501612210565b600083015250602061298584828501612210565b602083015250604082013567ffffffffffffffff8111156129a9576129a86124c2565b5b6129b584828501612913565b60408301525060606129c984828501612210565b60608301525060806129dd84828501612210565b60808301525060a082013567ffffffffffffffff811115612a0157612a006124c2565b5b612a0d8482850161253a565b60a08301525092915050565b600060608284031215612a2f57612a2e6124bd565b5b612a396060611d55565b9050600082013567ffffffffffffffff811115612a5957612a586124c2565b5b612a65848285016125fd565b600083015250602082013567ffffffffffffffff811115612a8957612a886124c2565b5b612a95848285016125fd565b602083015250604082013567ffffffffffffffff811115612ab957612ab86124c2565b5b612ac5848285016125fd565b60408301525092915050565b612ada81612265565b8114612ae557600080fd5b50565b600081359050612af781612ad1565b92915050565b6000612b0882611f52565b9050919050565b612b1881612afd565b8114612b2357600080fd5b50565b600081359050612b3581612b0f565b92915050565b600065ffffffffffff82169050919050565b612b5681612b3b565b8114612b6157600080fd5b50565b600081359050612b7381612b4d565b92915050565b600063ffffffff82169050919050565b612b9281612b79565b8114612b9d57600080fd5b50565b600081359050612baf81612b89565b92915050565b600060c08284031215612bcb57612bca6124bd565b5b612bd560c0611d55565b90506000612be584828501612b64565b6000830152506020612bf984828501612ba0565b6020830152506040612c0d84828501612210565b6040830152506060612c2184828501612210565b6060830152506080612c3584828501612210565b60808301525060a082013567ffffffffffffffff811115612c5957612c586124c2565b5b612c65848285016125fd565b60a08301525092915050565b60006101208284031215612c8857612c876124bd565b5b612c93610120611d55565b90506000612ca3848285016122dc565b600083015250602082013567ffffffffffffffff811115612cc757612cc66124c2565b5b612cd3848285016126ee565b602083015250604082013567ffffffffffffffff811115612cf757612cf66124c2565b5b612d0384828501612941565b604083015250606082013567ffffffffffffffff811115612d2757612d266124c2565b5b612d3384828501612a19565b6060830152506080612d4784828501612ae8565b60808301525060a0612d5b84828501612b26565b60a08301525060c0612d6f848285016122dc565b60c08301525060e082013567ffffffffffffffff811115612d9357612d926124c2565b5b612d9f84828501612bb5565b60e08301525061010082013567ffffffffffffffff811115612dc457612dc36124c2565b5b612dd084828501612bb5565b6101008301525092915050565b6000819050919050565b612df081612ddd565b8114612dfb57600080fd5b50565b600081359050612e0d81612de7565b92915050565b600080600080600080600060c0888a031215612e3257612e31611c75565b5b600088013567ffffffffffffffff811115612e5057612e4f611c7a565b5b612e5c8a828b01611c8e565b9750975050602088013567ffffffffffffffff811115612e7f57612e7e611c7a565b5b612e8b8a828b01611ed8565b955050604088013567ffffffffffffffff811115612eac57612eab611c7a565b5b612eb88a828b0161200b565b945050606088013567ffffffffffffffff811115612ed957612ed8611c7a565b5b612ee58a828b01612c71565b9350506080612ef68a828b016122dc565b92505060a0612f078a828b01612dfe565b91505092959891949750929550565b60006040830160008301518482036000860152612f33828261214f565b9150506020830151612f48602086018261211b565b508091505092915050565b60006020820190508181036000830152612f6d8184612f16565b905092915050565b7f4e487b7100000000000000000000000000000000000000000000000000000000600052603260045260246000fd5b612fad81611f52565b82525050565b6000602082019050612fc86000830184612fa4565b92915050565b600081519050612fdd816121f9565b92915050565b600060208284031215612ff957612ff8611c75565b5b600061300784828501612fce565b91505092915050565b7f4e487b7100000000000000000000000000000000000000000000000000000000600052601160045260246000fd5b600061304a82612111565b91507fffffffffffffffffffffffffffffffffffffffffffffffffffffffffffffffff820361307c5761307b613010565b5b600182019050919050565b600082825260208201905092915050565b7f50726576656e7454616d706572696e673a20436f646520686173206368616e6760008201527f6564000000000000000000000000000000000000000000000000000000000000602082015250565b60006130f4602283613087565b91506130ff82613098565b604082019050919050565b60006020820190508181036000830152613123816130e7565b9050919050565b7f214153534552545f475400000000000000000000000000000000000000000000600082015250565b6000613160600a83613087565b915061316b8261312a565b602082019050919050565b6000602082019050818103600083015261318f81613153565b9050919050565b60006131a182612111565b91506131ac83612111565b92508282019050808211156131c4576131c3613010565b5b92915050565b7f5a61707065724578656375746f723a204f6e6c792063616c6c61626c6520627960008201527f205a617070657200000000000000000000000000000000000000000000000000602082015250565b6000613226602783613087565b9150613231826131ca565b604082019050919050565b6000602082019050818103600083015261325581613219565b9050919050565b600081905092915050565b6000613273838561325c565b9350613280838584611dd2565b82840190509392505050565b6000613299828486613267565b91508190509392505050565b7f214153534552545f455100000000000000000000000000000000000000000000600082015250565b60006132db600a83613087565b91506132e6826132a5565b602082019050919050565b6000602082019050818103600083015261330a816132ce565b9050919050565b600061331c82612111565b915061332783612111565b925082820390508181111561333f5761333e613010565b5b92915050565b600061335082612111565b915061335b83612111565b925082820261336981612111565b915082820484148315176133805761337f613010565b5b5092915050565b7f4e487b7100000000000000000000000000000000000000000000000000000000600052601260045260246000fd5b60006133c182612111565b91506133cc83612111565b9250826133dc576133db613387565b5b828204905092915050565b7f5a45524f2042414c414e43450000000000000000000000000000000000000000600082015250565b600061341d600c83613087565b9150613428826133e7565b602082019050919050565b6000602082019050818103600083015261344c81613410565b9050919050565b7f5a45524f205155414e5449545900000000000000000000000000000000000000600082015250565b6000613489600d83613087565b915061349482613453565b602082019050919050565b600060208201905081810360008301526134b88161347c565b9050919050565b7f4e4f205348415245530000000000000000000000000000000000000000000000600082015250565b60006134f5600983613087565b9150613500826134bf565b602082019050919050565b60006020820190508181036000830152613524816134e8565b9050919050565b6000819050919050565b600061355061354b61354684611f32565b61352b565b611f32565b9050919050565b600061356282613535565b9050919050565b600061357482613557565b9050919050565b61358481613569565b82525050565b600081519050919050565b600082825260208201905092915050565b60006135b18261358a565b6135bb8185613595565b93506135cb8185602086016123d7565b6135d481611ce4565b840191505092915050565b600081519050919050565b600082825260208201905092915050565b6000819050602082019050919050565b61361481611f52565b82525050565b6000613626838361360b565b60208301905092915050565b6000602082019050919050565b600061364a826135df565b61365481856135ea565b935061365f836135fb565b8060005b83811015613690578151613677888261361a565b975061368283613632565b925050600181019050613663565b5085935050505092915050565b600060a08301600083015184820360008601526136ba82826135a6565b915050602083015184820360208601526136d482826135a6565b915050604083015184820360408601526136ee828261363f565b91505060608301518482036060860152613708828261214f565b915050608083015161371d608086018261211b565b508091505092915050565b600081519050919050565b600082825260208201905092915050565b6000819050602082019050919050565b61375d81612816565b82525050565b604082016000820151613779600085018261360b565b50602082015161378c6020850182613754565b50505050565b600061379e8383613763565b60408301905092915050565b6000602082019050919050565b60006137c282613728565b6137cc8185613733565b93506137d783613744565b8060005b838110156138085781516137ef8882613792565b97506137fa836137aa565b9250506001810190506137db565b5085935050505092915050565b600060c08301600083015161382d600086018261211b565b506020830151613840602086018261211b565b506040830151848203604086015261385882826137b7565b915050606083015161386d606086018261211b565b506080830151613880608086018261211b565b5060a083015184820360a086015261389882826135a6565b9150508091505092915050565b6138ae81612b3b565b82525050565b6138bd81612b79565b82525050565b600060c0830160008301516138db60008601826138a5565b5060208301516138ee60208601826138b4565b506040830151613901604086018261211b565b506060830151613914606086018261211b565b506080830151613927608086018261211b565b5060a083015184820360a086015261393f828261363f565b9150508091505092915050565b60006060830160008301518482036000860152613969828261363f565b91505060208301518482036020860152613983828261363f565b9150506040830151848203604086015261399d828261363f565b9150508091505092915050565b6139b381612ddd565b82525050565b600060e0820190506139ce600083018a61357b565b81810360208301526139e0818961369d565b905081810360408301526139f48188613815565b90508181036060830152613a0881876138c3565b90508181036080830152613a1c81866138c3565b905081810360a0830152613a30818561394c565b9050613a3f60c08301846139aa565b98975050505050505050565b600081519050613a5a816122c5565b92915050565b60008060008060008060c08789031215613a7d57613a7c611c75565b5b6000613a8b89828a01613a4b565b9650506020613a9c89828a01613a4b565b9550506040613aad89828a01613a4b565b9450506060613abe89828a01613a4b565b9350506080613acf89828a01613a4b565b92505060a0613ae089828a01613a4b565b9150509295509295509295565b600082825260208201905092915050565b6000613b09826135df565b613b138185613aed565b9350613b1e836135fb565b8060005b83811015613b4f578151613b36888261361a565b9750613b4183613632565b925050600181019050613b22565b5085935050505092915050565b600060e0820190508181036000830152613b76818a61369d565b90508181036020830152613b8a8189613815565b9050613b996040830188612fa4565b8181036060830152613bab8187613afe565b90508181036080830152613bbf8186613afe565b905081810360a0830152613bd38185613afe565b9050613be260c08301846139aa565b98975050505050505050565b60008060408385031215613c0557613c04611c75565b5b6000613c1385828601613a4b565b9250506020613c2485828601613a4b565b9150509250929050565b6000613c39826123bb565b613c43818561325c565b9350613c538185602086016123d7565b80840191505092915050565b6000613c6b8284613c2e565b915081905092915050565b7f5f657865637574653a2076616c75652063616c6c20686173206e6f2076616c7560008201527f6520696e646963617465642e0000000000000000000000000000000000000000602082015250565b6000613cd2602c83613087565b9150613cdd82613c76565b604082019050919050565b60006020820190508181036000830152613d0181613cc5565b9050919050565b7f496e76616c69642063616c6c7479706500000000000000000000000000000000600082015250565b6000613d3e601083613087565b9150613d4982613d08565b602082019050919050565b60006020820190508181036000830152613d6d81613d31565b9050919050565b6000613d7f8261358a565b613d898185613087565b9350613d998185602086016123d7565b613da281611ce4565b840191505092915050565b6000606082019050613dc2600083018661229b565b613dcf6020830185612fa4565b8181036040830152613de18184613d74565b9050949350505050565b6000604082019050613e006000830185612fa4565b613e0d6020830184612fa4565b9392505050565b7f5361666545524332303a20617070726f76652066726f6d206e6f6e2d7a65726f60008201527f20746f206e6f6e2d7a65726f20616c6c6f77616e636500000000000000000000602082015250565b6000613e70603683613087565b9150613e7b82613e14565b604082019050919050565b60006020820190508181036000830152613e9f81613e63565b9050919050565b6000604082019050613ebb6000830185612fa4565b613ec8602083018461229b565b9392505050565b600081519050919050565b600082825260208201905092915050565b6000819050602082019050919050565b600082825260208201905092915050565b6000613f17826123bb565b613f218185613efb565b9350613f318185602086016123d7565b613f3a81611ce4565b840191505092915050565b6000613f518383613f0c565b905092915050565b6000602082019050919050565b6000613f7182613ecf565b613f7b8185613eda565b935083602082028501613f8d85613eeb565b8060005b85811015613fc95784840389528151613faa8582613f45565b9450613fb583613f59565b925060208a01995050600181019050613f91565b50829750879550505050505092915050565b60006020820190508181036000830152613ff58184613f66565b905092915050565b600061400882612111565b915061401383612111565b92508261402357614022613387565b5b828206905092915050565b7f44796e616d6963207374617465207661726961626c6573206d7573742062652060008201527f61206d756c7469706c65206f6620333220627974657300000000000000000000602082015250565b600061408a603683613087565b91506140958261402e565b604082019050919050565b600060208201905081810360008301526140b98161407d565b9050919050565b7f537461746963207374617465207661726961626c6573206d757374206265203360008201527f3220627974657300000000000000000000000000000000000000000000000000602082015250565b600061411c602783613087565b9150614127826140c0565b604082019050919050565b6000602082019050818103600083015261414b8161410f565b9050919050565b600061416561416084611da1565b611d55565b90508281526020810184848401111561418157614180611d9c565b5b61418c8482856123d7565b509392505050565b600082601f8301126141a9576141a8611c7f565b5b81516141b9848260208601614152565b91505092915050565b60006141d56141d084611d70565b611d55565b905080838252602082019050602084028301858111156141f8576141f7611c89565b5b835b8181101561423f57805167ffffffffffffffff81111561421d5761421c611c7f565b5b80860161422a8982614194565b855260208501945050506020810190506141fa565b5050509392505050565b600082601f83011261425e5761425d611c7f565b5b815161426e8482602086016141c2565b91505092915050565b60006020828403121561428d5761428c611c75565b5b600082015167ffffffffffffffff8111156142ab576142aa611c7a565b5b6142b784828501614249565b91505092915050565b7f4f6e6c79206f6e652072657475726e2076616c7565207065726d69747465642060008201527f287661726961626c652900000000000000000000000000000000000000000000602082015250565b600061431c602a83613087565b9150614327826142c0565b604082019050919050565b6000602082019050818103600083015261434b8161430f565b9050919050565b7f52657475726e206174206c656173742033322062797465730000000000000000600082015250565b6000614388601883613087565b915061439382614352565b602082019050919050565b600060208201905081810360008301526143b78161437b565b9050919050565b6000815190506143cd81612ad1565b92915050565b6000602082840312156143e9576143e8611c75565b5b60006143f7848285016143be565b91505092915050565b7f5361666545524332303a204552433230206f7065726174696f6e20646964206e60008201527f6f74207375636365656400000000000000000000000000000000000000000000602082015250565b600061445c602a83613087565b915061446782614400565b604082019050919050565b6000602082019050818103600083015261448b8161444f565b9050919050565b7f416464726573733a20696e73756666696369656e742062616c616e636520666f60008201527f722063616c6c0000000000000000000000000000000000000000000000000000602082015250565b60006144ee602683613087565b91506144f982614492565b604082019050919050565b6000602082019050818103600083015261451d816144e1565b9050919050565b7f416464726573733a2063616c6c20746f206e6f6e2d636f6e7472616374000000600082015250565b600061455a601d83613087565b915061456582614524565b602082019050919050565b600060208201905081810360008301526145898161454d565b9050919050565b600060208201905081810360008301526145aa8184613d74565b90509291505056fea2646970667358221220a7a6a9b2a852ea5432a1f2630ebd20fde618d154aad4308f4f9fc9706c26121264736f6c63430008110033",
  "linkReferences": {},
  "deployedLinkReferences": {}
}