{
  "address": "0x6582631B849cCc9c0943fD7C1D702E25d2A80E16",
  "abi": [
    {
      "inputs": [
        {
          "internalType": "address",
          "name": "to",
          "type": "address"
        },
        {
          "internalType": "address",
          "name": "weth",
          "type": "address"
        },
        {
          "internalType": "uint256",
          "name": "amount",
          "type": "uint256"
        }
      ],
      "name": "moveEth",
      "outputs": [],
      "stateMutability": "nonpayable",
      "type": "function"
    }
  ],
  "transactionHash": "0xa8319d2c472d3d7004f48706557e9845b1e89dd0ed6e9abb2e88e9c54fc6691c",
  "args": [],
  "numDeployments": 2,
  "solcInputHash": "e9355f7f429b09cc7f848f4b27d512b8",
  "bytecode": "0x608060405234801561001057600080fd5b50610378806100206000396000f3fe608060405234801561001057600080fd5b506004361061002b5760003560e01c8063cd35231c14610030575b600080fd5b61004a60048036038101906100459190610202565b61004c565b005b8173ffffffffffffffffffffffffffffffffffffffff16632e1a7d4d826040518263ffffffff1660e01b81526004016100859190610264565b600060405180830381600087803b15801561009f57600080fd5b505af11580156100b3573d6000803e3d6000fd5b5050505060008373ffffffffffffffffffffffffffffffffffffffff16826040516100dd906102b0565b60006040518083038185875af1925050503d806000811461011a576040519150601f19603f3d011682016040523d82523d6000602084013e61011f565b606091505b5050905080610163576040517f08c379a000000000000000000000000000000000000000000000000000000000815260040161015a90610322565b60405180910390fd5b50505050565b600080fd5b600073ffffffffffffffffffffffffffffffffffffffff82169050919050565b60006101998261016e565b9050919050565b6101a98161018e565b81146101b457600080fd5b50565b6000813590506101c6816101a0565b92915050565b6000819050919050565b6101df816101cc565b81146101ea57600080fd5b50565b6000813590506101fc816101d6565b92915050565b60008060006060848603121561021b5761021a610169565b5b6000610229868287016101b7565b935050602061023a868287016101b7565b925050604061024b868287016101ed565b9150509250925092565b61025e816101cc565b82525050565b60006020820190506102796000830184610255565b92915050565b600081905092915050565b50565b600061029a60008361027f565b91506102a58261028a565b600082019050919050565b60006102bb8261028d565b9150819050919050565b600082825260208201905092915050565b7f4661696c656420746f2073656e64204574686572000000000000000000000000600082015250565b600061030c6014836102c5565b9150610317826102d6565b602082019050919050565b6000602082019050818103600083015261033b816102ff565b905091905056fea26469706673582212208d25a1bdcce7035c41bae40eaef0d637a0de5c3acf85f136b59e5fecf620b91c64736f6c63430008110033",
  "devdoc": {
    "kind": "dev",
    "methods": {},
    "version": 1
  },
  "userdoc": {
    "kind": "user",
    "methods": {},
    "version": 1
  },
  "storageLayout": {
    "storage": [],
    "types": null
  }
}