{
  "address": "0x57F6aE5415bc2855D9e50FC52E13811557FFB1C9",
  "abi": [
    {
      "inputs": [
        {
          "internalType": "address",
          "name": "pool",
          "type": "address"
        },
        {
          "internalType": "bool",
          "name": "zeroForOne",
          "type": "bool"
        },
        {
          "internalType": "address",
          "name": "tokenIn",
          "type": "address"
        },
        {
          "internalType": "uint256",
          "name": "amountIn",
          "type": "uint256"
        }
      ],
      "name": "swap",
      "outputs": [
        {
          "internalType": "uint256",
          "name": "amountOut",
          "type": "uint256"
        }
      ],
      "stateMutability": "nonpayable",
      "type": "function"
    }
  ],
  "transactionHash": "0xcdaa8da70916002fb101a6ffce1c7112cd0b8188d74fee4410408716a573d9e0",
  "args": [],
  "numDeployments": 1,
  "solcInputHash": "ad08863fc35117a60afa2b9c59b9fb7b",
  "bytecode": "0x608060405234801561001057600080fd5b50610fe7806100206000396000f3fe608060405234801561001057600080fd5b506004361061002b5760003560e01c806390712b0714610030575b600080fd5b61004a600480360381019061004591906107b2565b610060565b6040516100579190610828565b60405180910390f35b60008060008673ffffffffffffffffffffffffffffffffffffffff16630902f1ac6040518163ffffffff1660e01b8152600401606060405180830381865afa1580156100b0573d6000803e3d6000fd5b505050506040513d601f19601f820116820180604052508101906100d491906108c5565b509150915085156101db5761010a84836dffffffffffffffffffffffffffff16836dffffffffffffffffffffffffffff166102dd565b92506101178588866103c7565b8673ffffffffffffffffffffffffffffffffffffffff1663022c0d9f84600030600067ffffffffffffffff81111561015257610151610918565b5b6040519080825280601f01601f1916602001820160405280156101845781602001600182028036833780820191505090505b506040518563ffffffff1660e01b81526004016101a49493929190610a2b565b600060405180830381600087803b1580156101be57600080fd5b505af11580156101d2573d6000803e3d6000fd5b505050506102d3565b61020684826dffffffffffffffffffffffffffff16846dffffffffffffffffffffffffffff166102dd565b92506102138588866103c7565b8673ffffffffffffffffffffffffffffffffffffffff1663022c0d9f60008530600067ffffffffffffffff81111561024e5761024d610918565b5b6040519080825280601f01601f1916602001820160405280156102805781602001600182028036833780820191505090505b506040518563ffffffff1660e01b81526004016102a09493929190610a77565b600060405180830381600087803b1580156102ba57600080fd5b505af11580156102ce573d6000803e3d6000fd5b505050505b5050949350505050565b6000808411610321576040517f08c379a000000000000000000000000000000000000000000000000000000000815260040161031890610b46565b60405180910390fd5b6000831180156103315750600082115b610370576040517f08c379a000000000000000000000000000000000000000000000000000000000815260040161036790610bd8565b60405180910390fd5b60006103e5856103809190610c27565b9050600083826103909190610c27565b90506000826103e8876103a39190610c27565b6103ad9190610c69565b905080826103bb9190610ccc565b93505050509392505050565b6104488363a9059cbb60e01b84846040516024016103e6929190610cfd565b604051602081830303815290604052907bffffffffffffffffffffffffffffffffffffffffffffffffffffffff19166020820180517bffffffffffffffffffffffffffffffffffffffffffffffffffffffff838183161783525050505061044d565b505050565b60006104af826040518060400160405280602081526020017f5361666545524332303a206c6f772d6c6576656c2063616c6c206661696c65648152508573ffffffffffffffffffffffffffffffffffffffff166105149092919063ffffffff16565b905060008151111561050f57808060200190518101906104cf9190610d3b565b61050e576040517f08c379a000000000000000000000000000000000000000000000000000000000815260040161050590610dda565b60405180910390fd5b5b505050565b6060610523848460008561052c565b90509392505050565b606082471015610571576040517f08c379a000000000000000000000000000000000000000000000000000000000815260040161056890610e6c565b60405180910390fd5b6000808673ffffffffffffffffffffffffffffffffffffffff16858760405161059a9190610ec8565b60006040518083038185875af1925050503d80600081146105d7576040519150601f19603f3d011682016040523d82523d6000602084013e6105dc565b606091505b50915091506105ed878383876105f9565b92505050949350505050565b6060831561065b576000835103610653576106138561066e565b610652576040517f08c379a000000000000000000000000000000000000000000000000000000000815260040161064990610f2b565b60405180910390fd5b5b829050610666565b6106658383610691565b5b949350505050565b6000808273ffffffffffffffffffffffffffffffffffffffff163b119050919050565b6000825111156106a45781518083602001fd5b806040517f08c379a00000000000000000000000000000000000000000000000000000000081526004016106d89190610f8f565b60405180910390fd5b600080fd5b600073ffffffffffffffffffffffffffffffffffffffff82169050919050565b6000610711826106e6565b9050919050565b61072181610706565b811461072c57600080fd5b50565b60008135905061073e81610718565b92915050565b60008115159050919050565b61075981610744565b811461076457600080fd5b50565b60008135905061077681610750565b92915050565b6000819050919050565b61078f8161077c565b811461079a57600080fd5b50565b6000813590506107ac81610786565b92915050565b600080600080608085870312156107cc576107cb6106e1565b5b60006107da8782880161072f565b94505060206107eb87828801610767565b93505060406107fc8782880161072f565b925050606061080d8782880161079d565b91505092959194509250565b6108228161077c565b82525050565b600060208201905061083d6000830184610819565b92915050565b60006dffffffffffffffffffffffffffff82169050919050565b61086681610843565b811461087157600080fd5b50565b6000815190506108838161085d565b92915050565b600063ffffffff82169050919050565b6108a281610889565b81146108ad57600080fd5b50565b6000815190506108bf81610899565b92915050565b6000806000606084860312156108de576108dd6106e1565b5b60006108ec86828701610874565b93505060206108fd86828701610874565b925050604061090e868287016108b0565b9150509250925092565b7f4e487b7100000000000000000000000000000000000000000000000000000000600052604160045260246000fd5b6000819050919050565b6000819050919050565b600061097661097161096c84610947565b610951565b61077c565b9050919050565b6109868161095b565b82525050565b61099581610706565b82525050565b600081519050919050565b600082825260208201905092915050565b60005b838110156109d55780820151818401526020810190506109ba565b60008484015250505050565b6000601f19601f8301169050919050565b60006109fd8261099b565b610a0781856109a6565b9350610a178185602086016109b7565b610a20816109e1565b840191505092915050565b6000608082019050610a406000830187610819565b610a4d602083018661097d565b610a5a604083018561098c565b8181036060830152610a6c81846109f2565b905095945050505050565b6000608082019050610a8c600083018761097d565b610a996020830186610819565b610aa6604083018561098c565b8181036060830152610ab881846109f2565b905095945050505050565b600082825260208201905092915050565b7f556e697377617056324c6962726172793a20494e53554646494349454e545f4960008201527f4e5055545f414d4f554e54000000000000000000000000000000000000000000602082015250565b6000610b30602b83610ac3565b9150610b3b82610ad4565b604082019050919050565b60006020820190508181036000830152610b5f81610b23565b9050919050565b7f556e697377617056324c6962726172793a20494e53554646494349454e545f4c60008201527f4951554944495459000000000000000000000000000000000000000000000000602082015250565b6000610bc2602883610ac3565b9150610bcd82610b66565b604082019050919050565b60006020820190508181036000830152610bf181610bb5565b9050919050565b7f4e487b7100000000000000000000000000000000000000000000000000000000600052601160045260246000fd5b6000610c328261077c565b9150610c3d8361077c565b9250828202610c4b8161077c565b91508282048414831517610c6257610c61610bf8565b5b5092915050565b6000610c748261077c565b9150610c7f8361077c565b9250828201905080821115610c9757610c96610bf8565b5b92915050565b7f4e487b7100000000000000000000000000000000000000000000000000000000600052601260045260246000fd5b6000610cd78261077c565b9150610ce28361077c565b925082610cf257610cf1610c9d565b5b828204905092915050565b6000604082019050610d12600083018561098c565b610d1f6020830184610819565b9392505050565b600081519050610d3581610750565b92915050565b600060208284031215610d5157610d506106e1565b5b6000610d5f84828501610d26565b91505092915050565b7f5361666545524332303a204552433230206f7065726174696f6e20646964206e60008201527f6f74207375636365656400000000000000000000000000000000000000000000602082015250565b6000610dc4602a83610ac3565b9150610dcf82610d68565b604082019050919050565b60006020820190508181036000830152610df381610db7565b9050919050565b7f416464726573733a20696e73756666696369656e742062616c616e636520666f60008201527f722063616c6c0000000000000000000000000000000000000000000000000000602082015250565b6000610e56602683610ac3565b9150610e6182610dfa565b604082019050919050565b60006020820190508181036000830152610e8581610e49565b9050919050565b600081905092915050565b6000610ea28261099b565b610eac8185610e8c565b9350610ebc8185602086016109b7565b80840191505092915050565b6000610ed48284610e97565b915081905092915050565b7f416464726573733a2063616c6c20746f206e6f6e2d636f6e7472616374000000600082015250565b6000610f15601d83610ac3565b9150610f2082610edf565b602082019050919050565b60006020820190508181036000830152610f4481610f08565b9050919050565b600081519050919050565b6000610f6182610f4b565b610f6b8185610ac3565b9350610f7b8185602086016109b7565b610f84816109e1565b840191505092915050565b60006020820190508181036000830152610fa98184610f56565b90509291505056fea26469706673582212205e03b73b8446815c3053c2a03ef5eed37888864821f378b34c68644d095ac37964736f6c63430008110033",
  "devdoc": {
    "kind": "dev",
    "methods": {},
    "version": 1
  },
  "userdoc": {
    "kind": "user",
    "methods": {},
    "version": 1
  },
  "storageLayout": {
    "storage": [],
    "types": null
  }
}