{
  "address": "0x3E42f2C352Ba3679433d1bFA2661E743B72514bb",
  "abi": [
    {
      "inputs": [
        {
          "internalType": "address",
          "name": "_vaultAddress",
          "type": "address"
        },
        {
          "internalType": "uint256",
          "name": "_pid",
          "type": "uint256"
        },
        {
          "internalType": "string",
          "name": "name_",
          "type": "string"
        },
        {
          "internalType": "string",
          "name": "symbol_",
          "type": "string"
        },
        {
          "internalType": "uint8",
          "name": "decimals_",
          "type": "uint8"
        }
      ],
      "stateMutability": "nonpayable",
      "type": "constructor"
    },
    {
      "inputs": [],
      "name": "_decimals",
      "outputs": [
        {
          "internalType": "uint8",
          "name": "",
          "type": "uint8"
        }
      ],
      "stateMutability": "view",
      "type": "function"
    },
    {
      "inputs": [],
      "name": "_name",
      "outputs": [
        {
          "internalType": "string",
          "name": "",
          "type": "string"
        }
      ],
      "stateMutability": "view",
      "type": "function"
    },
    {
      "inputs": [],
      "name": "_symbol",
      "outputs": [
        {
          "internalType": "string",
          "name": "",
          "type": "string"
        }
      ],
      "stateMutability": "view",
      "type": "function"
    },
    {
      "inputs": [
        {
          "internalType": "address",
          "name": "account",
          "type": "address"
        }
      ],
      "name": "balanceOf",
      "outputs": [
        {
          "internalType": "uint256",
          "name": "",
          "type": "uint256"
        }
      ],
      "stateMutability": "view",
      "type": "function"
    },
    {
      "inputs": [],
      "name": "concentratorVault",
      "outputs": [
        {
          "internalType": "contract IConcentratorVault",
          "name": "",
          "type": "address"
        }
      ],
      "stateMutability": "view",
      "type": "function"
    },
    {
      "inputs": [],
      "name": "pid",
      "outputs": [
        {
          "internalType": "uint256",
          "name": "",
          "type": "uint256"
        }
      ],
      "stateMutability": "view",
      "type": "function"
    },
    {
      "inputs": [
        {
          "internalType": "address",
          "name": "",
          "type": "address"
        },
        {
          "internalType": "uint256",
          "name": "amt",
          "type": "uint256"
        }
      ],
      "name": "transfer",
      "outputs": [
        {
          "internalType": "bool",
          "name": "",
          "type": "bool"
        }
      ],
      "stateMutability": "pure",
      "type": "function"
    }
  ],
  "transactionHash": "0x9be44187b600045e10160dc22a0f09c52ef03b6e18cd03008d4a0d30260cc669",
  "args": [
    "0x59866ec5650e9ba00c51f6d681762b48b0ada3de",
    14,
    "Concentrator: ETH+ETH-f",
    "consETHETH-f",
    18
  ],
  "numDeployments": 1,
  "solcInputHash": "a33318dd88bb5f4b35499b991d73f87a",
  "bytecode": "0x60c06040523480156200001157600080fd5b5060405162000f8238038062000f82833981810160405281019062000037919062000320565b8473ffffffffffffffffffffffffffffffffffffffff1660808173ffffffffffffffffffffffffffffffffffffffff168152505083600081905550826001908162000083919062000627565b50816002908162000095919062000627565b508060ff1660a08160ff168152505050505050506200070e565b6000604051905090565b600080fd5b600080fd5b600073ffffffffffffffffffffffffffffffffffffffff82169050919050565b6000620000f082620000c3565b9050919050565b6200010281620000e3565b81146200010e57600080fd5b50565b6000815190506200012281620000f7565b92915050565b6000819050919050565b6200013d8162000128565b81146200014957600080fd5b50565b6000815190506200015d8162000132565b92915050565b600080fd5b600080fd5b6000601f19601f8301169050919050565b7f4e487b7100000000000000000000000000000000000000000000000000000000600052604160045260246000fd5b620001b8826200016d565b810181811067ffffffffffffffff82111715620001da57620001d96200017e565b5b80604052505050565b6000620001ef620000af565b9050620001fd8282620001ad565b919050565b600067ffffffffffffffff82111562000220576200021f6200017e565b5b6200022b826200016d565b9050602081019050919050565b60005b83811015620002585780820151818401526020810190506200023b565b60008484015250505050565b60006200027b620002758462000202565b620001e3565b9050828152602081018484840111156200029a576200029962000168565b5b620002a784828562000238565b509392505050565b600082601f830112620002c757620002c662000163565b5b8151620002d984826020860162000264565b91505092915050565b600060ff82169050919050565b620002fa81620002e2565b81146200030657600080fd5b50565b6000815190506200031a81620002ef565b92915050565b600080600080600060a086880312156200033f576200033e620000b9565b5b60006200034f8882890162000111565b955050602062000362888289016200014c565b945050604086015167ffffffffffffffff811115620003865762000385620000be565b5b6200039488828901620002af565b935050606086015167ffffffffffffffff811115620003b857620003b7620000be565b5b620003c688828901620002af565b9250506080620003d98882890162000309565b9150509295509295909350565b600081519050919050565b7f4e487b7100000000000000000000000000000000000000000000000000000000600052602260045260246000fd5b600060028204905060018216806200043957607f821691505b6020821081036200044f576200044e620003f1565b5b50919050565b60008190508160005260206000209050919050565b60006020601f8301049050919050565b600082821b905092915050565b600060088302620004b97fffffffffffffffffffffffffffffffffffffffffffffffffffffffffffffffff826200047a565b620004c586836200047a565b95508019841693508086168417925050509392505050565b6000819050919050565b60006200050862000502620004fc8462000128565b620004dd565b62000128565b9050919050565b6000819050919050565b6200052483620004e7565b6200053c62000533826200050f565b84845462000487565b825550505050565b600090565b6200055362000544565b6200056081848462000519565b505050565b5b8181101562000588576200057c60008262000549565b60018101905062000566565b5050565b601f821115620005d757620005a18162000455565b620005ac846200046a565b81016020851015620005bc578190505b620005d4620005cb856200046a565b83018262000565565b50505b505050565b600082821c905092915050565b6000620005fc60001984600802620005dc565b1980831691505092915050565b6000620006178383620005e9565b9150826002028217905092915050565b6200063282620003e6565b67ffffffffffffffff8111156200064e576200064d6200017e565b5b6200065a825462000420565b620006678282856200058c565b600060209050601f8311600181146200069f57600084156200068a578287015190505b62000696858262000609565b86555062000706565b601f198416620006af8662000455565b60005b82811015620006d957848901518255600182019150602085019450602081019050620006b2565b86831015620006f95784890151620006f5601f891682620005e9565b8355505b6001600288020188555050505b505050505050565b60805160a0516108476200073b600039600061019e01526000818161017a01526101c401526108476000f3fe608060405234801561001057600080fd5b506004361061007d5760003560e01c8063a9059cbb1161005b578063a9059cbb146100ee578063b09f12661461011e578063d28d88521461013c578063f10684541461015a5761007d565b80630433da301461008257806332424aa3146100a057806370a08231146100be575b600080fd5b61008a610178565b604051610097919061045b565b60405180910390f35b6100a861019c565b6040516100b59190610492565b60405180910390f35b6100d860048036038101906100d391906104f0565b6101c0565b6040516100e59190610536565b60405180910390f35b6101086004803603810190610103919061057d565b610267565b60405161011591906105d8565b60405180910390f35b6101266102ba565b6040516101339190610683565b60405180910390f35b610144610348565b6040516101519190610683565b60405180910390f35b6101626103d6565b60405161016f9190610536565b60405180910390f35b7f000000000000000000000000000000000000000000000000000000000000000081565b7f000000000000000000000000000000000000000000000000000000000000000081565b60007f000000000000000000000000000000000000000000000000000000000000000073ffffffffffffffffffffffffffffffffffffffff16630ea5e462600054846040518363ffffffff1660e01b815260040161021f9291906106b4565b602060405180830381865afa15801561023c573d6000803e3d6000fd5b505050506040513d601f19601f8201168201806040525081019061026091906106f2565b9050919050565b600080820361027957600190506102b4565b6040517f08c379a00000000000000000000000000000000000000000000000000000000081526004016102ab90610791565b60405180910390fd5b92915050565b600280546102c7906107e0565b80601f01602080910402602001604051908101604052809291908181526020018280546102f3906107e0565b80156103405780601f1061031557610100808354040283529160200191610340565b820191906000526020600020905b81548152906001019060200180831161032357829003601f168201915b505050505081565b60018054610355906107e0565b80601f0160208091040260200160405190810160405280929190818152602001828054610381906107e0565b80156103ce5780601f106103a3576101008083540402835291602001916103ce565b820191906000526020600020905b8154815290600101906020018083116103b157829003601f168201915b505050505081565b60005481565b600073ffffffffffffffffffffffffffffffffffffffff82169050919050565b6000819050919050565b600061042161041c610417846103dc565b6103fc565b6103dc565b9050919050565b600061043382610406565b9050919050565b600061044582610428565b9050919050565b6104558161043a565b82525050565b6000602082019050610470600083018461044c565b92915050565b600060ff82169050919050565b61048c81610476565b82525050565b60006020820190506104a76000830184610483565b92915050565b600080fd5b60006104bd826103dc565b9050919050565b6104cd816104b2565b81146104d857600080fd5b50565b6000813590506104ea816104c4565b92915050565b600060208284031215610506576105056104ad565b5b6000610514848285016104db565b91505092915050565b6000819050919050565b6105308161051d565b82525050565b600060208201905061054b6000830184610527565b92915050565b61055a8161051d565b811461056557600080fd5b50565b60008135905061057781610551565b92915050565b60008060408385031215610594576105936104ad565b5b60006105a2858286016104db565b92505060206105b385828601610568565b9150509250929050565b60008115159050919050565b6105d2816105bd565b82525050565b60006020820190506105ed60008301846105c9565b92915050565b600081519050919050565b600082825260208201905092915050565b60005b8381101561062d578082015181840152602081019050610612565b60008484015250505050565b6000601f19601f8301169050919050565b6000610655826105f3565b61065f81856105fe565b935061066f81856020860161060f565b61067881610639565b840191505092915050565b6000602082019050818103600083015261069d818461064a565b905092915050565b6106ae816104b2565b82525050565b60006040820190506106c96000830185610527565b6106d660208301846106a5565b9392505050565b6000815190506106ec81610551565b92915050565b600060208284031215610708576107076104ad565b5b6000610716848285016106dd565b91505092915050565b7f5669727475616c45524332303a205472616e7366657273206e6f74207375707060008201527f6f72746564000000000000000000000000000000000000000000000000000000602082015250565b600061077b6025836105fe565b91506107868261071f565b604082019050919050565b600060208201905081810360008301526107aa8161076e565b9050919050565b7f4e487b7100000000000000000000000000000000000000000000000000000000600052602260045260246000fd5b600060028204905060018216806107f857607f821691505b60208210810361080b5761080a6107b1565b5b5091905056fea2646970667358221220688c7970275108c11e4eae4a888472998bb7182a3c087b4a09af375fd8d6ca2064736f6c63430008110033",
  "devdoc": {
    "kind": "dev",
    "methods": {},
    "version": 1
  },
  "userdoc": {
    "kind": "user",
    "methods": {},
    "version": 1
  },
  "storageLayout": {
    "storage": [
      {
        "astId": 10481,
        "contract": "contracts/VirtualERC20.sol:VirtualERC20",
        "label": "pid",
        "offset": 0,
        "slot": "0",
        "type": "t_uint256"
      },
      {
        "astId": 10483,
        "contract": "contracts/VirtualERC20.sol:VirtualERC20",
        "label": "_name",
        "offset": 0,
        "slot": "1",
        "type": "t_string_storage"
      },
      {
        "astId": 10485,
        "contract": "contracts/VirtualERC20.sol:VirtualERC20",
        "label": "_symbol",
        "offset": 0,
        "slot": "2",
        "type": "t_string_storage"
      }
    ],
    "types": {
      "t_string_storage": {
        "encoding": "bytes",
        "label": "string",
        "numberOfBytes": "32"
      },
      "t_uint256": {
        "encoding": "inplace",
        "label": "uint256",
        "numberOfBytes": "32"
      }
    }
  }
}