{
  "address": "0xC073223F307C5Eb12EB9e95779DFb61aeF0Ac4A6",
  "abi": [
    {
      "inputs": [
        {
          "internalType": "address",
          "name": "deployer",
          "type": "address"
        },
        {
          "internalType": "address",
          "name": "expectedTokenAddress",
          "type": "address"
        },
        {
          "internalType": "bool",
          "name": "isGoverned",
          "type": "bool"
        },
        {
          "internalType": "bytes",
          "name": "encodedFolioDeployerCall",
          "type": "bytes"
        }
      ],
      "name": "deployFolio",
      "outputs": [
        {
          "internalType": "uint256",
          "name": "",
          "type": "uint256"
        }
      ],
      "stateMutability": "nonpayable",
      "type": "function"
    }
  ],
  "transactionHash": "0xcd94647d5810f7f6d39fdc79930887f8e2542609b6099cfefdb56cf0b46be497",
  "args": [],
  "numDeployments": 2,
  "solcInputHash": "6176805fe8929f5afd355e8b95bad29f",
  "bytecode": "0x608060405234801561001057600080fd5b50610872806100206000396000f3fe608060405234801561001057600080fd5b506004361061002b5760003560e01c80630365567514610030575b600080fd5b61004a600480360381019061004591906104f2565b610060565b604051610057919061058e565b60405180910390f35b60008060008673ffffffffffffffffffffffffffffffffffffffff168460405161008a919061061a565b6000604051808303816000865af19150503d80600081146100c7576040519150601f19603f3d011682016040523d82523d6000602084013e6100cc565b606091505b5091509150816100de57805160208201fd5b84156101f3576000818060200190518101906100fa919061066f565b505050505090508673ffffffffffffffffffffffffffffffffffffffff168173ffffffffffffffffffffffffffffffffffffffff161461016f576040517f08c379a000000000000000000000000000000000000000000000000000000000815260040161016690610759565b60405180910390fd5b8673ffffffffffffffffffffffffffffffffffffffff166370a08231306040518263ffffffff1660e01b81526004016101a89190610788565b602060405180830381865afa1580156101c5573d6000803e3d6000fd5b505050506040513d601f19601f820116820180604052508101906101e991906107cf565b93505050506102fa565b60008180602001905181019061020991906107fc565b5090508673ffffffffffffffffffffffffffffffffffffffff168173ffffffffffffffffffffffffffffffffffffffff161461027a576040517f08c379a000000000000000000000000000000000000000000000000000000000815260040161027190610759565b60405180910390fd5b8673ffffffffffffffffffffffffffffffffffffffff166370a08231306040518263ffffffff1660e01b81526004016102b39190610788565b602060405180830381865afa1580156102d0573d6000803e3d6000fd5b505050506040513d601f19601f820116820180604052508101906102f491906107cf565b93505050505b949350505050565b6000604051905090565b600080fd5b600080fd5b600073ffffffffffffffffffffffffffffffffffffffff82169050919050565b600061034182610316565b9050919050565b61035181610336565b811461035c57600080fd5b50565b60008135905061036e81610348565b92915050565b60008115159050919050565b61038981610374565b811461039457600080fd5b50565b6000813590506103a681610380565b92915050565b600080fd5b600080fd5b6000601f19601f8301169050919050565b7f4e487b7100000000000000000000000000000000000000000000000000000000600052604160045260246000fd5b6103ff826103b6565b810181811067ffffffffffffffff8211171561041e5761041d6103c7565b5b80604052505050565b6000610431610302565b905061043d82826103f6565b919050565b600067ffffffffffffffff82111561045d5761045c6103c7565b5b610466826103b6565b9050602081019050919050565b82818337600083830152505050565b600061049561049084610442565b610427565b9050828152602081018484840111156104b1576104b06103b1565b5b6104bc848285610473565b509392505050565b600082601f8301126104d9576104d86103ac565b5b81356104e9848260208601610482565b91505092915050565b6000806000806080858703121561050c5761050b61030c565b5b600061051a8782880161035f565b945050602061052b8782880161035f565b935050604061053c87828801610397565b925050606085013567ffffffffffffffff81111561055d5761055c610311565b5b610569878288016104c4565b91505092959194509250565b6000819050919050565b61058881610575565b82525050565b60006020820190506105a3600083018461057f565b92915050565b600081519050919050565b600081905092915050565b60005b838110156105dd5780820151818401526020810190506105c2565b60008484015250505050565b60006105f4826105a9565b6105fe81856105b4565b935061060e8185602086016105bf565b80840191505092915050565b600061062682846105e9565b915081905092915050565b600061063c82610316565b9050919050565b61064c81610631565b811461065757600080fd5b50565b60008151905061066981610643565b92915050565b60008060008060008060c0878903121561068c5761068b61030c565b5b600061069a89828a0161065a565b96505060206106ab89828a0161065a565b95505060406106bc89828a0161065a565b94505060606106cd89828a0161065a565b93505060806106de89828a0161065a565b92505060a06106ef89828a0161065a565b9150509295509295509295565b600082825260208201905092915050565b7f455850454354454420213d2041435455414c0000000000000000000000000000600082015250565b60006107436012836106fc565b915061074e8261070d565b602082019050919050565b6000602082019050818103600083015261077281610736565b9050919050565b61078281610336565b82525050565b600060208201905061079d6000830184610779565b92915050565b6107ac81610575565b81146107b757600080fd5b50565b6000815190506107c9816107a3565b92915050565b6000602082840312156107e5576107e461030c565b5b60006107f3848285016107ba565b91505092915050565b600080604083850312156108135761081261030c565b5b60006108218582860161065a565b92505060206108328582860161065a565b915050925092905056fea2646970667358221220d51bd6fd2a0c50690d77a8f96f797ea87dcfe395772ee5e77fef58d295fb6cde64736f6c63430008110033",
  "devdoc": {
    "kind": "dev",
    "methods": {},
    "version": 1
  },
  "userdoc": {
    "kind": "user",
    "methods": {},
    "version": 1
  },
  "storageLayout": {
    "storage": [],
    "types": null
  }
}