{
  "address": "0xD03CA77E300429564588687746577B52Ed67554B",
  "abi": [
    {
      "inputs": [
        {
          "internalType": "address",
          "name": "deployer",
          "type": "address"
        },
        {
          "internalType": "address",
          "name": "expectedTokenAddress",
          "type": "address"
        },
        {
          "internalType": "bool",
          "name": "isGoverned",
          "type": "bool"
        },
        {
          "internalType": "bytes",
          "name": "encodedFolioDeployerCall",
          "type": "bytes"
        }
      ],
      "name": "deployFolio",
      "outputs": [
        {
          "internalType": "uint256",
          "name": "",
          "type": "uint256"
        }
      ],
      "stateMutability": "nonpayable",
      "type": "function"
    }
  ],
  "transactionHash": "0x5217d6ff66fbd88d51c4219d8d1d5e012e67dc2030e4c5a64b05153dd20e640b",
  "args": [],
  "numDeployments": 3,
  "solcInputHash": "b6aa2969393965e258f3f2769bca0bf7",
  "bytecode": "0x608060405234801561001057600080fd5b50610874806100206000396000f3fe608060405234801561001057600080fd5b506004361061002b5760003560e01c80630365567514610030575b600080fd5b61004a600480360381019061004591906104f4565b610060565b6040516100579190610590565b60405180910390f35b60008060008673ffffffffffffffffffffffffffffffffffffffff168460405161008a919061061c565b6000604051808303816000865af19150503d80600081146100c7576040519150601f19603f3d011682016040523d82523d6000602084013e6100cc565b606091505b5091509150816100e0578051602082018181fd5b84156101f5576000818060200190518101906100fc9190610671565b505050505090508673ffffffffffffffffffffffffffffffffffffffff168173ffffffffffffffffffffffffffffffffffffffff1614610171576040517f08c379a00000000000000000000000000000000000000000000000000000000081526004016101689061075b565b60405180910390fd5b8673ffffffffffffffffffffffffffffffffffffffff166370a08231306040518263ffffffff1660e01b81526004016101aa919061078a565b602060405180830381865afa1580156101c7573d6000803e3d6000fd5b505050506040513d601f19601f820116820180604052508101906101eb91906107d1565b93505050506102fc565b60008180602001905181019061020b91906107fe565b5090508673ffffffffffffffffffffffffffffffffffffffff168173ffffffffffffffffffffffffffffffffffffffff161461027c576040517f08c379a00000000000000000000000000000000000000000000000000000000081526004016102739061075b565b60405180910390fd5b8673ffffffffffffffffffffffffffffffffffffffff166370a08231306040518263ffffffff1660e01b81526004016102b5919061078a565b602060405180830381865afa1580156102d2573d6000803e3d6000fd5b505050506040513d601f19601f820116820180604052508101906102f691906107d1565b93505050505b949350505050565b6000604051905090565b600080fd5b600080fd5b600073ffffffffffffffffffffffffffffffffffffffff82169050919050565b600061034382610318565b9050919050565b61035381610338565b811461035e57600080fd5b50565b6000813590506103708161034a565b92915050565b60008115159050919050565b61038b81610376565b811461039657600080fd5b50565b6000813590506103a881610382565b92915050565b600080fd5b600080fd5b6000601f19601f8301169050919050565b7f4e487b7100000000000000000000000000000000000000000000000000000000600052604160045260246000fd5b610401826103b8565b810181811067ffffffffffffffff821117156104205761041f6103c9565b5b80604052505050565b6000610433610304565b905061043f82826103f8565b919050565b600067ffffffffffffffff82111561045f5761045e6103c9565b5b610468826103b8565b9050602081019050919050565b82818337600083830152505050565b600061049761049284610444565b610429565b9050828152602081018484840111156104b3576104b26103b3565b5b6104be848285610475565b509392505050565b600082601f8301126104db576104da6103ae565b5b81356104eb848260208601610484565b91505092915050565b6000806000806080858703121561050e5761050d61030e565b5b600061051c87828801610361565b945050602061052d87828801610361565b935050604061053e87828801610399565b925050606085013567ffffffffffffffff81111561055f5761055e610313565b5b61056b878288016104c6565b91505092959194509250565b6000819050919050565b61058a81610577565b82525050565b60006020820190506105a56000830184610581565b92915050565b600081519050919050565b600081905092915050565b60005b838110156105df5780820151818401526020810190506105c4565b60008484015250505050565b60006105f6826105ab565b61060081856105b6565b93506106108185602086016105c1565b80840191505092915050565b600061062882846105eb565b915081905092915050565b600061063e82610318565b9050919050565b61064e81610633565b811461065957600080fd5b50565b60008151905061066b81610645565b92915050565b60008060008060008060c0878903121561068e5761068d61030e565b5b600061069c89828a0161065c565b96505060206106ad89828a0161065c565b95505060406106be89828a0161065c565b94505060606106cf89828a0161065c565b93505060806106e089828a0161065c565b92505060a06106f189828a0161065c565b9150509295509295509295565b600082825260208201905092915050565b7f455850454354454420213d2041435455414c0000000000000000000000000000600082015250565b60006107456012836106fe565b91506107508261070f565b602082019050919050565b6000602082019050818103600083015261077481610738565b9050919050565b61078481610338565b82525050565b600060208201905061079f600083018461077b565b92915050565b6107ae81610577565b81146107b957600080fd5b50565b6000815190506107cb816107a5565b92915050565b6000602082840312156107e7576107e661030e565b5b60006107f5848285016107bc565b91505092915050565b600080604083850312156108155761081461030e565b5b60006108238582860161065c565b92505060206108348582860161065c565b915050925092905056fea2646970667358221220b8859d03867c7e0f2d8d29ec4aca9b244928c24ab746537df452394249e522ea64736f6c63430008110033",
  "devdoc": {
    "kind": "dev",
    "methods": {},
    "version": 1
  },
  "userdoc": {
    "kind": "user",
    "methods": {},
    "version": 1
  },
  "storageLayout": {
    "storage": [],
    "types": null
  }
}