{
  "address": "0x9C862AA7752E1f5B266C615439594C77B6cee438",
  "abi": [
    {
      "inputs": [
        {
          "internalType": "contract IFolio",
          "name": "folio",
          "type": "address"
        }
      ],
      "name": "mint",
      "outputs": [
        {
          "internalType": "uint256",
          "name": "shares",
          "type": "uint256"
        }
      ],
      "stateMutability": "nonpayable",
      "type": "function"
    },
    {
      "inputs": [
        {
          "internalType": "contract IFolio",
          "name": "folio",
          "type": "address"
        },
        {
          "internalType": "uint256",
          "name": "shares",
          "type": "uint256"
        }
      ],
      "name": "redeem",
      "outputs": [],
      "stateMutability": "nonpayable",
      "type": "function"
    }
  ],
  "transactionHash": "0xa5788f4b012a88aafb1cc4558ef731bd3ee13fe59ad30afe6c9fb4ac1744366e",
  "args": [],
  "numDeployments": 7,
  "solcInputHash": "96381e89dec1ec25252193f9a77bf647",
  "bytecode": "0x608060405234801561001057600080fd5b50610eac806100206000396000f3fe608060405234801561001057600080fd5b50600436106100365760003560e01c80631e9a69501461003b5780636a62784214610057575b600080fd5b61005560048036038101906100509190610611565b610087565b005b610071600480360381019061006c9190610651565b6101d1565b60405161007e919061068d565b60405180910390f35b6000808373ffffffffffffffffffffffffffffffffffffffff1663647bec256040518163ffffffff1660e01b8152600401600060405180830381865afa1580156100d5573d6000803e3d6000fd5b505050506040513d6000823e3d601f19601f820116820180604052508101906100fe9190610905565b9150915060005b82518110156101425760008282815181106101235761012261097d565b5b602002602001018181525050808061013a906109db565b915050610105565b508373ffffffffffffffffffffffffffffffffffffffff1663b0384a0b843085856040518563ffffffff1660e01b81526004016101829493929190610bae565b6000604051808303816000875af11580156101a1573d6000803e3d6000fd5b505050506040513d6000823e3d601f19601f820116820180604052508101906101ca9190610c01565b5050505050565b60008060008373ffffffffffffffffffffffffffffffffffffffff1663d17618bf670de0b6b3a764000060016040518363ffffffff1660e01b815260040161021a929190610d06565b600060405180830381865afa158015610237573d6000803e3d6000fd5b505050506040513d6000823e3d601f19601f820116820180604052508101906102609190610905565b915091506000610270838361040b565b905060008573ffffffffffffffffffffffffffffffffffffffff166370a08231306040518263ffffffff1660e01b81526004016102ad9190610d2f565b602060405180830381865afa1580156102ca573d6000803e3d6000fd5b505050506040513d601f19601f820116820180604052508101906102ee9190610d4a565b90508573ffffffffffffffffffffffffffffffffffffffff166394bf804d83306040518363ffffffff1660e01b815260040161032b929190610d77565b6000604051808303816000875af115801561034a573d6000803e3d6000fd5b505050506040513d6000823e3d601f19601f820116820180604052508101906103739190610905565b505060008673ffffffffffffffffffffffffffffffffffffffff166370a08231306040518263ffffffff1660e01b81526004016103b09190610d2f565b602060405180830381865afa1580156103cd573d6000803e3d6000fd5b505050506040513d601f19601f820116820180604052508101906103f19190610d4a565b905081816103ff9190610da0565b95505050505050919050565b6000807fffffffffffffffffffffffffffffffffffffffffffffffffffffffffffffffff905060005b84518110156105335760008582815181106104525761045161097d565b5b602002602001015173ffffffffffffffffffffffffffffffffffffffff166370a08231306040518263ffffffff1660e01b81526004016104929190610d2f565b602060405180830381865afa1580156104af573d6000803e3d6000fd5b505050506040513d601f19601f820116820180604052508101906104d39190610d4a565b905060008583815181106104ea576104e961097d565b5b6020026020010151905061051c8482670de0b6b3a76400008561050d9190610dd4565b6105179190610e45565b61053e565b93505050808061052b906109db565b915050610434565b508091505092915050565b600081831061054d578161054f565b825b905092915050565b6000604051905090565b600080fd5b600080fd5b600073ffffffffffffffffffffffffffffffffffffffff82169050919050565b60006105968261056b565b9050919050565b60006105a88261058b565b9050919050565b6105b88161059d565b81146105c357600080fd5b50565b6000813590506105d5816105af565b92915050565b6000819050919050565b6105ee816105db565b81146105f957600080fd5b50565b60008135905061060b816105e5565b92915050565b6000806040838503121561062857610627610561565b5b6000610636858286016105c6565b9250506020610647858286016105fc565b9150509250929050565b60006020828403121561066757610666610561565b5b6000610675848285016105c6565b91505092915050565b610687816105db565b82525050565b60006020820190506106a2600083018461067e565b92915050565b600080fd5b6000601f19601f8301169050919050565b7f4e487b7100000000000000000000000000000000000000000000000000000000600052604160045260246000fd5b6106f6826106ad565b810181811067ffffffffffffffff82111715610715576107146106be565b5b80604052505050565b6000610728610557565b905061073482826106ed565b919050565b600067ffffffffffffffff821115610754576107536106be565b5b602082029050602081019050919050565b600080fd5b6107738161058b565b811461077e57600080fd5b50565b6000815190506107908161076a565b92915050565b60006107a96107a484610739565b61071e565b905080838252602082019050602084028301858111156107cc576107cb610765565b5b835b818110156107f557806107e18882610781565b8452602084019350506020810190506107ce565b5050509392505050565b600082601f830112610814576108136106a8565b5b8151610824848260208601610796565b91505092915050565b600067ffffffffffffffff821115610848576108476106be565b5b602082029050602081019050919050565b600081519050610868816105e5565b92915050565b600061088161087c8461082d565b61071e565b905080838252602082019050602084028301858111156108a4576108a3610765565b5b835b818110156108cd57806108b98882610859565b8452602084019350506020810190506108a6565b5050509392505050565b600082601f8301126108ec576108eb6106a8565b5b81516108fc84826020860161086e565b91505092915050565b6000806040838503121561091c5761091b610561565b5b600083015167ffffffffffffffff81111561093a57610939610566565b5b610946858286016107ff565b925050602083015167ffffffffffffffff81111561096757610966610566565b5b610973858286016108d7565b9150509250929050565b7f4e487b7100000000000000000000000000000000000000000000000000000000600052603260045260246000fd5b7f4e487b7100000000000000000000000000000000000000000000000000000000600052601160045260246000fd5b60006109e6826105db565b91507fffffffffffffffffffffffffffffffffffffffffffffffffffffffffffffffff8203610a1857610a176109ac565b5b600182019050919050565b610a2c8161058b565b82525050565b600081519050919050565b600082825260208201905092915050565b6000819050602082019050919050565b610a678161058b565b82525050565b6000610a798383610a5e565b60208301905092915050565b6000602082019050919050565b6000610a9d82610a32565b610aa78185610a3d565b9350610ab283610a4e565b8060005b83811015610ae3578151610aca8882610a6d565b9750610ad583610a85565b925050600181019050610ab6565b5085935050505092915050565b600081519050919050565b600082825260208201905092915050565b6000819050602082019050919050565b610b25816105db565b82525050565b6000610b378383610b1c565b60208301905092915050565b6000602082019050919050565b6000610b5b82610af0565b610b658185610afb565b9350610b7083610b0c565b8060005b83811015610ba1578151610b888882610b2b565b9750610b9383610b43565b925050600181019050610b74565b5085935050505092915050565b6000608082019050610bc3600083018761067e565b610bd06020830186610a23565b8181036040830152610be28185610a92565b90508181036060830152610bf68184610b50565b905095945050505050565b600060208284031215610c1757610c16610561565b5b600082015167ffffffffffffffff811115610c3557610c34610566565b5b610c41848285016108d7565b91505092915050565b6000819050919050565b6000819050919050565b6000610c79610c74610c6f84610c4a565b610c54565b6105db565b9050919050565b610c8981610c5e565b82525050565b7f4e487b7100000000000000000000000000000000000000000000000000000000600052602160045260246000fd5b60038110610ccf57610cce610c8f565b5b50565b6000819050610ce082610cbe565b919050565b6000610cf082610cd2565b9050919050565b610d0081610ce5565b82525050565b6000604082019050610d1b6000830185610c80565b610d286020830184610cf7565b9392505050565b6000602082019050610d446000830184610a23565b92915050565b600060208284031215610d6057610d5f610561565b5b6000610d6e84828501610859565b91505092915050565b6000604082019050610d8c600083018561067e565b610d996020830184610a23565b9392505050565b6000610dab826105db565b9150610db6836105db565b9250828203905081811115610dce57610dcd6109ac565b5b92915050565b6000610ddf826105db565b9150610dea836105db565b9250828202610df8816105db565b91508282048414831517610e0f57610e0e6109ac565b5b5092915050565b7f4e487b7100000000000000000000000000000000000000000000000000000000600052601260045260246000fd5b6000610e50826105db565b9150610e5b836105db565b925082610e6b57610e6a610e16565b5b82820490509291505056fea264697066735822122013edc8c52bd6edfa80bca0a23b006cc658b825ecc949d9620c34fa0f6aef112664736f6c63430008110033",
  "devdoc": {
    "kind": "dev",
    "methods": {},
    "version": 1
  },
  "userdoc": {
    "kind": "user",
    "methods": {},
    "version": 1
  },
  "storageLayout": {
    "storage": [],
    "types": null
  }
}