{
  "address": "0x75327a429459a9b182f6063784118a08b2269e5c",
  "abi": [
    {
      "inputs": [
        {
          "internalType": "contract IWrappedNative",
          "name": "wrappedNative_",
          "type": "address"
        },
        {
          "internalType": "contract ZapperExecutor",
          "name": "executor_",
          "type": "address"
        }
      ],
      "stateMutability": "nonpayable",
      "type": "constructor"
    },
    {
      "inputs": [
        {
          "components": [
            {
              "internalType": "address",
              "name": "tokenIn",
              "type": "address"
            },
            {
              "internalType": "uint256",
              "name": "amountIn",
              "type": "uint256"
            },
            {
              "internalType": "bytes32[]",
              "name": "commands",
              "type": "bytes32[]"
            },
            {
              "internalType": "bytes[]",
              "name": "state",
              "type": "bytes[]"
            },
            {
              "internalType": "contract IERC20[]",
              "name": "tokens",
              "type": "address[]"
            },
            {
              "internalType": "uint256",
              "name": "amountOut",
              "type": "uint256"
            },
            {
              "internalType": "address",
              "name": "tokenOut",
              "type": "address"
            },
            {
              "internalType": "address",
              "name": "recipient",
              "type": "address"
            }
          ],
          "internalType": "struct ZapParams",
          "name": "params",
          "type": "tuple"
        }
      ],
      "name": "zap",
      "outputs": [
        {
          "components": [
            {
              "internalType": "uint256[]",
              "name": "dust",
              "type": "uint256[]"
            },
            {
              "internalType": "uint256",
              "name": "amountOut",
              "type": "uint256"
            },
            {
              "internalType": "uint256",
              "name": "gasUsed",
              "type": "uint256"
            }
          ],
          "internalType": "struct ZapperOutput",
          "name": "",
          "type": "tuple"
        }
      ],
      "stateMutability": "payable",
      "type": "function"
    },
    {
      "inputs": [
        {
          "components": [
            {
              "internalType": "address",
              "name": "tokenIn",
              "type": "address"
            },
            {
              "internalType": "uint256",
              "name": "amountIn",
              "type": "uint256"
            },
            {
              "internalType": "bytes32[]",
              "name": "commands",
              "type": "bytes32[]"
            },
            {
              "internalType": "bytes[]",
              "name": "state",
              "type": "bytes[]"
            },
            {
              "internalType": "contract IERC20[]",
              "name": "tokens",
              "type": "address[]"
            },
            {
              "internalType": "uint256",
              "name": "amountOut",
              "type": "uint256"
            },
            {
              "internalType": "address",
              "name": "tokenOut",
              "type": "address"
            },
            {
              "internalType": "address",
              "name": "recipient",
              "type": "address"
            }
          ],
          "internalType": "struct ZapParams",
          "name": "params",
          "type": "tuple"
        },
        {
          "components": [
            {
              "internalType": "address",
              "name": "deployer",
              "type": "address"
            },
            {
              "components": [
                {
                  "internalType": "string",
                  "name": "name",
                  "type": "string"
                },
                {
                  "internalType": "string",
                  "name": "symbol",
                  "type": "string"
                },
                {
                  "internalType": "address[]",
                  "name": "assets",
                  "type": "address[]"
                },
                {
                  "internalType": "uint256[]",
                  "name": "amounts",
                  "type": "uint256[]"
                },
                {
                  "internalType": "uint256",
                  "name": "initialShares",
                  "type": "uint256"
                }
              ],
              "internalType": "struct IFolio.FolioBasicDetails",
              "name": "basicDetails",
              "type": "tuple"
            },
            {
              "components": [
                {
                  "internalType": "uint256",
                  "name": "auctionDelay",
                  "type": "uint256"
                },
                {
                  "internalType": "uint256",
                  "name": "auctionLength",
                  "type": "uint256"
                },
                {
                  "components": [
                    {
                      "internalType": "address",
                      "name": "recipient",
                      "type": "address"
                    },
                    {
                      "internalType": "uint96",
                      "name": "portion",
                      "type": "uint96"
                    }
                  ],
                  "internalType": "struct IFolio.FeeRecipient[]",
                  "name": "feeRecipients",
                  "type": "tuple[]"
                },
                {
                  "internalType": "uint256",
                  "name": "tvlFee",
                  "type": "uint256"
                },
                {
                  "internalType": "uint256",
                  "name": "mintFee",
                  "type": "uint256"
                },
                {
                  "internalType": "string",
                  "name": "mandate",
                  "type": "string"
                }
              ],
              "internalType": "struct IFolio.FolioAdditionalDetails",
              "name": "additionalDetails",
              "type": "tuple"
            },
            {
              "components": [
                {
                  "internalType": "address[]",
                  "name": "existingTradeProposers",
                  "type": "address[]"
                },
                {
                  "internalType": "address[]",
                  "name": "tradeLaunchers",
                  "type": "address[]"
                },
                {
                  "internalType": "address[]",
                  "name": "vibesOfficers",
                  "type": "address[]"
                }
              ],
              "internalType": "struct GovRoles",
              "name": "govRoles",
              "type": "tuple"
            },
            {
              "internalType": "bool",
              "name": "isGoverned",
              "type": "bool"
            },
            {
              "internalType": "contract IVotes",
              "name": "stToken",
              "type": "address"
            },
            {
              "internalType": "address",
              "name": "owner",
              "type": "address"
            },
            {
              "components": [
                {
                  "internalType": "uint48",
                  "name": "votingDelay",
                  "type": "uint48"
                },
                {
                  "internalType": "uint32",
                  "name": "votingPeriod",
                  "type": "uint32"
                },
                {
                  "internalType": "uint256",
                  "name": "proposalThreshold",
                  "type": "uint256"
                },
                {
                  "internalType": "uint256",
                  "name": "quorumPercent",
                  "type": "uint256"
                },
                {
                  "internalType": "uint256",
                  "name": "timelockDelay",
                  "type": "uint256"
                },
                {
                  "internalType": "address[]",
                  "name": "guardians",
                  "type": "address[]"
                }
              ],
              "internalType": "struct IGovernanceDeployer.GovParams",
              "name": "ownerGovParams",
              "type": "tuple"
            },
            {
              "components": [
                {
                  "internalType": "uint48",
                  "name": "votingDelay",
                  "type": "uint48"
                },
                {
                  "internalType": "uint32",
                  "name": "votingPeriod",
                  "type": "uint32"
                },
                {
                  "internalType": "uint256",
                  "name": "proposalThreshold",
                  "type": "uint256"
                },
                {
                  "internalType": "uint256",
                  "name": "quorumPercent",
                  "type": "uint256"
                },
                {
                  "internalType": "uint256",
                  "name": "timelockDelay",
                  "type": "uint256"
                },
                {
                  "internalType": "address[]",
                  "name": "guardians",
                  "type": "address[]"
                }
              ],
              "internalType": "struct IGovernanceDeployer.GovParams",
              "name": "tradingGovParams",
              "type": "tuple"
            }
          ],
          "internalType": "struct DeployFolioConfig",
          "name": "config",
          "type": "tuple"
        }
      ],
      "name": "zapDeploy",
      "outputs": [
        {
          "components": [
            {
              "internalType": "uint256[]",
              "name": "dust",
              "type": "uint256[]"
            },
            {
              "internalType": "uint256",
              "name": "amountOut",
              "type": "uint256"
            },
            {
              "internalType": "uint256",
              "name": "gasUsed",
              "type": "uint256"
            }
          ],
          "internalType": "struct ZapperOutput",
          "name": "out",
          "type": "tuple"
        }
      ],
      "stateMutability": "payable",
      "type": "function"
    },
    {
      "inputs": [
        {
          "components": [
            {
              "internalType": "contract IERC20",
              "name": "tokenIn",
              "type": "address"
            },
            {
              "internalType": "uint256",
              "name": "amountIn",
              "type": "uint256"
            },
            {
              "internalType": "bytes32[]",
              "name": "commands",
              "type": "bytes32[]"
            },
            {
              "internalType": "bytes[]",
              "name": "state",
              "type": "bytes[]"
            },
            {
              "internalType": "contract IERC20[]",
              "name": "tokens",
              "type": "address[]"
            },
            {
              "internalType": "uint256",
              "name": "amountOut",
              "type": "uint256"
            },
            {
              "internalType": "contract IERC20",
              "name": "tokenOut",
              "type": "address"
            }
          ],
          "internalType": "struct ZapERC20Params",
          "name": "params",
          "type": "tuple"
        }
      ],
      "name": "zapERC20",
      "outputs": [
        {
          "components": [
            {
              "internalType": "uint256[]",
              "name": "dust",
              "type": "uint256[]"
            },
            {
              "internalType": "uint256",
              "name": "amountOut",
              "type": "uint256"
            },
            {
              "internalType": "uint256",
              "name": "gasUsed",
              "type": "uint256"
            }
          ],
          "internalType": "struct ZapperOutput",
          "name": "",
          "type": "tuple"
        }
      ],
      "stateMutability": "nonpayable",
      "type": "function"
    },
    {
      "inputs": [
        {
          "components": [
            {
              "internalType": "contract IERC20",
              "name": "tokenIn",
              "type": "address"
            },
            {
              "internalType": "uint256",
              "name": "amountIn",
              "type": "uint256"
            },
            {
              "internalType": "bytes32[]",
              "name": "commands",
              "type": "bytes32[]"
            },
            {
              "internalType": "bytes[]",
              "name": "state",
              "type": "bytes[]"
            },
            {
              "internalType": "contract IERC20[]",
              "name": "tokens",
              "type": "address[]"
            },
            {
              "internalType": "uint256",
              "name": "amountOut",
              "type": "uint256"
            },
            {
              "internalType": "contract IERC20",
              "name": "tokenOut",
              "type": "address"
            }
          ],
          "internalType": "struct ZapERC20Params",
          "name": "params",
          "type": "tuple"
        }
      ],
      "name": "zapETH",
      "outputs": [
        {
          "components": [
            {
              "internalType": "uint256[]",
              "name": "dust",
              "type": "uint256[]"
            },
            {
              "internalType": "uint256",
              "name": "amountOut",
              "type": "uint256"
            },
            {
              "internalType": "uint256",
              "name": "gasUsed",
              "type": "uint256"
            }
          ],
          "internalType": "struct ZapperOutput",
          "name": "",
          "type": "tuple"
        }
      ],
      "stateMutability": "payable",
      "type": "function"
    },
    {
      "inputs": [
        {
          "components": [
            {
              "internalType": "contract IERC20",
              "name": "tokenIn",
              "type": "address"
            },
            {
              "internalType": "uint256",
              "name": "amountIn",
              "type": "uint256"
            },
            {
              "internalType": "bytes32[]",
              "name": "commands",
              "type": "bytes32[]"
            },
            {
              "internalType": "bytes[]",
              "name": "state",
              "type": "bytes[]"
            },
            {
              "internalType": "contract IERC20[]",
              "name": "tokens",
              "type": "address[]"
            },
            {
              "internalType": "uint256",
              "name": "amountOut",
              "type": "uint256"
            },
            {
              "internalType": "contract IERC20",
              "name": "tokenOut",
              "type": "address"
            }
          ],
          "internalType": "struct ZapERC20Params",
          "name": "params",
          "type": "tuple"
        }
      ],
      "name": "zapToETH",
      "outputs": [
        {
          "components": [
            {
              "internalType": "uint256[]",
              "name": "dust",
              "type": "uint256[]"
            },
            {
              "internalType": "uint256",
              "name": "amountOut",
              "type": "uint256"
            },
            {
              "internalType": "uint256",
              "name": "gasUsed",
              "type": "uint256"
            }
          ],
          "internalType": "struct ZapperOutput",
          "name": "",
          "type": "tuple"
        }
      ],
      "stateMutability": "payable",
      "type": "function"
    },
    {
      "stateMutability": "payable",
      "type": "receive"
    }
  ],
  "transactionHash": "0x21e7b38a9a6e63e7f8366e7d27b41c2ad6c19f5e662abfe805b304f72516533b",
  "args": [
    "0x4200000000000000000000000000000000000006",
    "0x6a4697f3fd07c9E7D58dB76eFfa80Ff3dd5e7C20"
  ],
  "numDeployments": 3,
  "solcInputHash": "a98919ff69ad17b977e692c1f6fbd132",
  "bytecode": "0x60c06040523480156200001157600080fd5b50604051620033ac380380620033ac833981810160405281019062000037919062000186565b60016000819055508173ffffffffffffffffffffffffffffffffffffffff1660808173ffffffffffffffffffffffffffffffffffffffff16815250508073ffffffffffffffffffffffffffffffffffffffff1660a08173ffffffffffffffffffffffffffffffffffffffff16815250505050620001cd565b600080fd5b600073ffffffffffffffffffffffffffffffffffffffff82169050919050565b6000620000e182620000b4565b9050919050565b6000620000f582620000d4565b9050919050565b6200010781620000e8565b81146200011357600080fd5b50565b6000815190506200012781620000fc565b92915050565b60006200013a82620000b4565b9050919050565b60006200014e826200012d565b9050919050565b620001608162000141565b81146200016c57600080fd5b50565b600081519050620001808162000155565b92915050565b60008060408385031215620001a0576200019f620000af565b5b6000620001b08582860162000116565b9250506020620001c3858286016200016f565b9150509250929050565b60805160a05161319d6200020f600039600081816101ef01528181610217015281816105cf01526105f501526000818161081b015261089f015261319d6000f3fe60806040526004361061004e5760003560e01c80633e86ff701461005a5780636783cfff1461008a5780638e0a8e9d146100ba578063ceba504d146100f7578063dd074ea01461012757610055565b3661005557005b600080fd5b610074600480360381019061006f9190610e68565b610157565b6040516100819190610fc9565b60405180910390f35b6100a4600480360381019061009f919061100b565b6101bd565b6040516100b19190610fc9565b60405180910390f35b3480156100c657600080fd5b506100e160048036038101906100dc91906110a2565b61038c565b6040516100ee9190610fc9565b60405180910390f35b610111600480360381019061010c91906110a2565b6103b4565b60405161011e9190610fc9565b60405180910390f35b610141600480360381019061013c91906110a2565b6103dc565b60405161014e9190610fc9565b60405180910390f35b61015f610e0e565b610167610404565b60005a90506101ad83610179906116c3565b6101a78560c001602081019061018f91906116d6565b8660e00160208101906101a291906116d6565b610453565b8361052a565b9150506101b8610787565b919050565b6101c5610e0e565b6101cd610404565b60005a90506102138460000160208101906101e891906116d6565b85602001357f0000000000000000000000000000000000000000000000000000000000000000610791565b60007f000000000000000000000000000000000000000000000000000000000000000073ffffffffffffffffffffffffffffffffffffffff16635d56d9c28680604001906102619190611712565b8880606001906102719190611775565b8a806080019061028191906117d8565b8b8d60e001602081019061029591906116d6565b6040518963ffffffff1660e01b81526004016102b89897969594939291906125a6565b6000604051808303816000875af11580156102d7573d6000803e3d6000fd5b505050506040513d6000823e3d601f19601f82011682018060405250810190610300919061275f565b90508060200151836020018181525050806000015183600001819052508460a00135836020015111610367576040517f08c379a000000000000000000000000000000000000000000000000000000000815260040161035e90612805565b60405180910390fd5b5a826103739190612854565b8360400181815250505050610386610787565b92915050565b610394610e0e565b61039c610404565b6103a5826108cb565b90506103af610787565b919050565b6103bc610e0e565b6103c4610404565b6103cd826108cb565b90506103d7610787565b919050565b6103e4610e0e565b6103ec610404565b6103f5826108cb565b90506103ff610787565b919050565b600260005403610449576040517f08c379a0000000000000000000000000000000000000000000000000000000008152600401610440906128d4565b60405180910390fd5b6002600081905550565b60008073ffffffffffffffffffffffffffffffffffffffff168373ffffffffffffffffffffffffffffffffffffffff1614610509578273ffffffffffffffffffffffffffffffffffffffff166370a08231836040518263ffffffff1660e01b81526004016104c191906128f4565b602060405180830381865afa1580156104de573d6000803e3d6000fd5b505050506040513d601f19601f82011682018060405250810190610502919061290f565b9050610524565b8173ffffffffffffffffffffffffffffffffffffffff163190505b92915050565b610532610e0e565b6000846020015103610579576040517f08c379a000000000000000000000000000000000000000000000000000000000815260040161057090612988565b60405180910390fd5b60008460a00151036105c0576040517f08c379a00000000000000000000000000000000000000000000000000000000081526004016105b7906129f4565b60405180910390fd5b6105f3846000015185602001517f0000000000000000000000000000000000000000000000000000000000000000610791565b7f000000000000000000000000000000000000000000000000000000000000000073ffffffffffffffffffffffffffffffffffffffff166308c4b4988560400151866060015187608001516040518463ffffffff1660e01b815260040161065c93929190612c66565b6000604051808303816000875af115801561067b573d6000803e3d6000fd5b505050506040513d6000823e3d601f19601f820116820180604052508101906106a49190612d0a565b60000151816000018190525060006106c48560c001518660e00151610453565b9050838111610708576040517f08c379a00000000000000000000000000000000000000000000000000000000081526004016106ff90612d9f565b60405180910390fd5b600084826107169190612854565b90508560a0015181101561075f576040517f08c379a000000000000000000000000000000000000000000000000000000000815260040161075690612805565b60405180910390fd5b808360200181815250505a846107759190612854565b83604001818152505050509392505050565b6001600081905550565b600073ffffffffffffffffffffffffffffffffffffffff168373ffffffffffffffffffffffffffffffffffffffff16146107d6576107d183338385610a6b565b6108c6565b81341015610819576040517f08c379a000000000000000000000000000000000000000000000000000000000815260040161081090612e0b565b60405180910390fd5b7f000000000000000000000000000000000000000000000000000000000000000073ffffffffffffffffffffffffffffffffffffffff1663d0e30db0836040518263ffffffff1660e01b81526004016000604051808303818588803b15801561088157600080fd5b505af1158015610895573d6000803e3d6000fd5b50505050506108c57f00000000000000000000000000000000000000000000000000000000000000008284610af4565b5b505050565b6108d3610e0e565b60005a905060006040518061010001604052808560000160208101906108f99190612e2b565b73ffffffffffffffffffffffffffffffffffffffff1681526020018560200135815260200185806040019061092e9190611712565b80806020026020016040519081016040528093929190818152602001838360200280828437600081840152601f19601f8201169050808301925050505050505081526020018580606001906109839190611775565b9061098e9190612e58565b81526020018580608001906109a391906117d8565b80806020026020016040519081016040528093929190818152602001838360200280828437600081840152601f19601f8201169050808301925050505050505081526020018560a0013581526020018560c0016020810190610a059190612e2b565b73ffffffffffffffffffffffffffffffffffffffff1681526020013373ffffffffffffffffffffffffffffffffffffffff168152509050610a6281610a5c8660c0016020810190610a569190612e2b565b33610453565b8461052a565b92505050919050565b610aee846323b872dd60e01b858585604051602401610a8c93929190612e7c565b604051602081830303815290604052907bffffffffffffffffffffffffffffffffffffffffffffffffffffffff19166020820180517bffffffffffffffffffffffffffffffffffffffffffffffffffffffff8381831617835250505050610b7a565b50505050565b610b758363a9059cbb60e01b8484604051602401610b13929190612eb3565b604051602081830303815290604052907bffffffffffffffffffffffffffffffffffffffffffffffffffffffff19166020820180517bffffffffffffffffffffffffffffffffffffffffffffffffffffffff8381831617835250505050610b7a565b505050565b6000610bdc826040518060400160405280602081526020017f5361666545524332303a206c6f772d6c6576656c2063616c6c206661696c65648152508573ffffffffffffffffffffffffffffffffffffffff16610c419092919063ffffffff16565b9050600081511115610c3c5780806020019051810190610bfc9190612ef1565b610c3b576040517f08c379a0000000000000000000000000000000000000000000000000000000008152600401610c3290612f90565b60405180910390fd5b5b505050565b6060610c508484600085610c59565b90509392505050565b606082471015610c9e576040517f08c379a0000000000000000000000000000000000000000000000000000000008152600401610c9590613022565b60405180910390fd5b6000808673ffffffffffffffffffffffffffffffffffffffff168587604051610cc7919061307e565b60006040518083038185875af1925050503d8060008114610d04576040519150601f19603f3d011682016040523d82523d6000602084013e610d09565b606091505b5091509150610d1a87838387610d26565b92505050949350505050565b60608315610d88576000835103610d8057610d4085610d9b565b610d7f576040517f08c379a0000000000000000000000000000000000000000000000000000000008152600401610d76906130e1565b60405180910390fd5b5b829050610d93565b610d928383610dbe565b5b949350505050565b6000808273ffffffffffffffffffffffffffffffffffffffff163b119050919050565b600082511115610dd15781518083602001fd5b806040517f08c379a0000000000000000000000000000000000000000000000000000000008152600401610e059190613145565b60405180910390fd5b60405180606001604052806060815260200160008152602001600081525090565b6000604051905090565b600080fd5b600080fd5b600080fd5b60006101008284031215610e5f57610e5e610e43565b5b81905092915050565b600060208284031215610e7e57610e7d610e39565b5b600082013567ffffffffffffffff811115610e9c57610e9b610e3e565b5b610ea884828501610e48565b91505092915050565b600081519050919050565b600082825260208201905092915050565b6000819050602082019050919050565b6000819050919050565b610ef081610edd565b82525050565b6000610f028383610ee7565b60208301905092915050565b6000602082019050919050565b6000610f2682610eb1565b610f308185610ebc565b9350610f3b83610ecd565b8060005b83811015610f6c578151610f538882610ef6565b9750610f5e83610f0e565b925050600181019050610f3f565b5085935050505092915050565b60006060830160008301518482036000860152610f968282610f1b565b9150506020830151610fab6020860182610ee7565b506040830151610fbe6040860182610ee7565b508091505092915050565b60006020820190508181036000830152610fe38184610f79565b905092915050565b6000610120828403121561100257611001610e43565b5b81905092915050565b6000806040838503121561102257611021610e39565b5b600083013567ffffffffffffffff8111156110405761103f610e3e565b5b61104c85828601610e48565b925050602083013567ffffffffffffffff81111561106d5761106c610e3e565b5b61107985828601610feb565b9150509250929050565b600060e0828403121561109957611098610e43565b5b81905092915050565b6000602082840312156110b8576110b7610e39565b5b600082013567ffffffffffffffff8111156110d6576110d5610e3e565b5b6110e284828501611083565b91505092915050565b600080fd5b6000601f19601f8301169050919050565b7f4e487b7100000000000000000000000000000000000000000000000000000000600052604160045260246000fd5b611139826110f0565b810181811067ffffffffffffffff8211171561115857611157611101565b5b80604052505050565b600061116b610e2f565b90506111778282611130565b919050565b600080fd5b600073ffffffffffffffffffffffffffffffffffffffff82169050919050565b60006111ac82611181565b9050919050565b6111bc816111a1565b81146111c757600080fd5b50565b6000813590506111d9816111b3565b92915050565b6111e881610edd565b81146111f357600080fd5b50565b600081359050611205816111df565b92915050565b600080fd5b600067ffffffffffffffff82111561122b5761122a611101565b5b602082029050602081019050919050565b600080fd5b6000819050919050565b61125481611241565b811461125f57600080fd5b50565b6000813590506112718161124b565b92915050565b600061128a61128584611210565b611161565b905080838252602082019050602084028301858111156112ad576112ac61123c565b5b835b818110156112d657806112c28882611262565b8452602084019350506020810190506112af565b5050509392505050565b600082601f8301126112f5576112f461120b565b5b8135611305848260208601611277565b91505092915050565b600067ffffffffffffffff82111561132957611328611101565b5b602082029050602081019050919050565b600080fd5b600067ffffffffffffffff82111561135a57611359611101565b5b611363826110f0565b9050602081019050919050565b82818337600083830152505050565b600061139261138d8461133f565b611161565b9050828152602081018484840111156113ae576113ad61133a565b5b6113b9848285611370565b509392505050565b600082601f8301126113d6576113d561120b565b5b81356113e684826020860161137f565b91505092915050565b60006114026113fd8461130e565b611161565b905080838252602082019050602084028301858111156114255761142461123c565b5b835b8181101561146c57803567ffffffffffffffff81111561144a5761144961120b565b5b80860161145789826113c1565b85526020850194505050602081019050611427565b5050509392505050565b600082601f83011261148b5761148a61120b565b5b813561149b8482602086016113ef565b91505092915050565b600067ffffffffffffffff8211156114bf576114be611101565b5b602082029050602081019050919050565b60006114db826111a1565b9050919050565b6114eb816114d0565b81146114f657600080fd5b50565b600081359050611508816114e2565b92915050565b600061152161151c846114a4565b611161565b905080838252602082019050602084028301858111156115445761154361123c565b5b835b8181101561156d578061155988826114f9565b845260208401935050602081019050611546565b5050509392505050565b600082601f83011261158c5761158b61120b565b5b813561159c84826020860161150e565b91505092915050565b600061010082840312156115bc576115bb6110eb565b5b6115c7610100611161565b905060006115d7848285016111ca565b60008301525060206115eb848285016111f6565b602083015250604082013567ffffffffffffffff81111561160f5761160e61117c565b5b61161b848285016112e0565b604083015250606082013567ffffffffffffffff81111561163f5761163e61117c565b5b61164b84828501611476565b606083015250608082013567ffffffffffffffff81111561166f5761166e61117c565b5b61167b84828501611577565b60808301525060a061168f848285016111f6565b60a08301525060c06116a3848285016111ca565b60c08301525060e06116b7848285016111ca565b60e08301525092915050565b60006116cf36836115a5565b9050919050565b6000602082840312156116ec576116eb610e39565b5b60006116fa848285016111ca565b91505092915050565b600080fd5b600080fd5b600080fd5b6000808335600160200384360303811261172f5761172e611703565b5b80840192508235915067ffffffffffffffff82111561175157611750611708565b5b60208301925060208202360383131561176d5761176c61170d565b5b509250929050565b6000808335600160200384360303811261179257611791611703565b5b80840192508235915067ffffffffffffffff8211156117b4576117b3611708565b5b6020830192506020820236038313156117d0576117cf61170d565b5b509250929050565b600080833560016020038436030381126117f5576117f4611703565b5b80840192508235915067ffffffffffffffff82111561181757611816611708565b5b6020830192506020820236038313156118335761183261170d565b5b509250929050565b600082825260208201905092915050565b600080fd5b82818337505050565b6000611866838561183b565b93507f07ffffffffffffffffffffffffffffffffffffffffffffffffffffffffffffff8311156118995761189861184c565b5b6020830292506118aa838584611851565b82840190509392505050565b600082825260208201905092915050565b6000819050919050565b600082825260208201905092915050565b60006118ee83856118d1565b93506118fb838584611370565b611904836110f0565b840190509392505050565b600061191c8484846118e2565b90509392505050565b600080fd5b600080fd5b600080fd5b600080833560016020038436030381126119515761195061192f565b5b83810192508235915060208301925067ffffffffffffffff82111561197957611978611925565b5b60018202360383131561198f5761198e61192a565b5b509250929050565b6000602082019050919050565b60006119b083856118b6565b9350836020840285016119c2846118c7565b8060005b87811015611a085784840389526119dd8284611934565b6119e886828461190f565b95506119f384611997565b935060208b019a5050506001810190506119c6565b50829750879450505050509392505050565b600082825260208201905092915050565b6000819050919050565b6000819050919050565b6000611a5a611a55611a5084611181565b611a35565b611181565b9050919050565b6000611a6c82611a3f565b9050919050565b6000611a7e82611a61565b9050919050565b611a8e81611a73565b82525050565b6000611aa08383611a85565b60208301905092915050565b6000611abb60208401846114f9565b905092915050565b6000602082019050919050565b6000611adc8385611a1a565b9350611ae782611a2b565b8060005b85811015611b2057611afd8284611aac565b611b078882611a94565b9750611b1283611ac3565b925050600181019050611aeb565b5085925050509392505050565b6000611b3c60208401846111ca565b905092915050565b611b4d816111a1565b82525050565b60008235600160a003833603038112611b6f57611b6e61192f565b5b82810191505092915050565b60008083356001602003843603038112611b9857611b9761192f565b5b83810192508235915060208301925067ffffffffffffffff821115611bc057611bbf611925565b5b600182023603831315611bd657611bd561192a565b5b509250929050565b600082825260208201905092915050565b6000611bfb8385611bde565b9350611c08838584611370565b611c11836110f0565b840190509392505050565b60008083356001602003843603038112611c3957611c3861192f565b5b83810192508235915060208301925067ffffffffffffffff821115611c6157611c60611925565b5b602082023603831315611c7757611c7661192a565b5b509250929050565b600082825260208201905092915050565b6000819050919050565b6000611ca68383611b44565b60208301905092915050565b6000602082019050919050565b6000611ccb8385611c7f565b9350611cd682611c90565b8060005b85811015611d0f57611cec8284611b2d565b611cf68882611c9a565b9750611d0183611cb2565b925050600181019050611cda565b5085925050509392505050565b60008083356001602003843603038112611d3957611d3861192f565b5b83810192508235915060208301925067ffffffffffffffff821115611d6157611d60611925565b5b602082023603831315611d7757611d7661192a565b5b509250929050565b6000611d8b8385610ebc565b93507f07ffffffffffffffffffffffffffffffffffffffffffffffffffffffffffffff831115611dbe57611dbd61184c565b5b602083029250611dcf838584611851565b82840190509392505050565b6000611dea60208401846111f6565b905092915050565b600060a08301611e056000840184611b7b565b8583036000870152611e18838284611bef565b92505050611e296020840184611b7b565b8583036020870152611e3c838284611bef565b92505050611e4d6040840184611c1c565b8583036040870152611e60838284611cbf565b92505050611e716060840184611d1c565b8583036060870152611e84838284611d7f565b92505050611e956080840184611ddb565b611ea26080860182610ee7565b508091505092915050565b60008235600160c003833603038112611ec957611ec861192f565b5b82810191505092915050565b60008083356001602003843603038112611ef257611ef161192f565b5b83810192508235915060208301925067ffffffffffffffff821115611f1a57611f19611925565b5b604082023603831315611f3057611f2f61192a565b5b509250929050565b600082825260208201905092915050565b6000819050919050565b60006bffffffffffffffffffffffff82169050919050565b611f7481611f53565b8114611f7f57600080fd5b50565b600081359050611f9181611f6b565b92915050565b6000611fa66020840184611f82565b905092915050565b611fb781611f53565b82525050565b60408201611fce6000830183611b2d565b611fdb6000850182611b44565b50611fe96020830183611f97565b611ff66020850182611fae565b50505050565b60006120088383611fbd565b60408301905092915050565b600082905092915050565b6000604082019050919050565b60006120388385611f38565b935061204382611f49565b8060005b8581101561207c576120598284612014565b6120638882611ffc565b975061206e8361201f565b925050600181019050612047565b5085925050509392505050565b600060c0830161209c6000840184611ddb565b6120a96000860182610ee7565b506120b76020840184611ddb565b6120c46020860182610ee7565b506120d26040840184611ed5565b85830360408701526120e583828461202c565b925050506120f66060840184611ddb565b6121036060860182610ee7565b506121116080840184611ddb565b61211e6080860182610ee7565b5061212c60a0840184611b7b565b85830360a087015261213f838284611bef565b925050508091505092915050565b6000823560016060038336030381126121695761216861192f565b5b82810191505092915050565b6000606083016121886000840184611c1c565b858303600087015261219b838284611cbf565b925050506121ac6020840184611c1c565b85830360208701526121bf838284611cbf565b925050506121d06040840184611c1c565b85830360408701526121e3838284611cbf565b925050508091505092915050565b60008115159050919050565b612206816121f1565b811461221157600080fd5b50565b600081359050612223816121fd565b92915050565b60006122386020840184612214565b905092915050565b612249816121f1565b82525050565b600061225a826111a1565b9050919050565b61226a8161224f565b811461227557600080fd5b50565b60008135905061228781612261565b92915050565b600061229c6020840184612278565b905092915050565b60006122af82611a61565b9050919050565b6122bf816122a4565b82525050565b60008235600160c0038336030381126122e1576122e061192f565b5b82810191505092915050565b600065ffffffffffff82169050919050565b612308816122ed565b811461231357600080fd5b50565b600081359050612325816122ff565b92915050565b600061233a6020840184612316565b905092915050565b61234b816122ed565b82525050565b600063ffffffff82169050919050565b61236a81612351565b811461237557600080fd5b50565b60008135905061238781612361565b92915050565b600061239c6020840184612378565b905092915050565b6123ad81612351565b82525050565b600060c083016123c6600084018461232b565b6123d36000860182612342565b506123e1602084018461238d565b6123ee60208601826123a4565b506123fc6040840184611ddb565b6124096040860182610ee7565b506124176060840184611ddb565b6124246060860182610ee7565b506124326080840184611ddb565b61243f6080860182610ee7565b5061244d60a0840184611c1c565b85830360a0870152612460838284611cbf565b925050508091505092915050565b600061012083016124826000840184611b2d565b61248f6000860182611b44565b5061249d6020840184611b53565b84820360208601526124af8282611df2565b9150506124bf6040840184611ead565b84820360408601526124d18282612089565b9150506124e1606084018461214d565b84820360608601526124f38282612175565b9150506125036080840184612229565b6125106080860182612240565b5061251e60a084018461228d565b61252b60a08601826122b6565b5061253960c0840184611b2d565b61254660c0860182611b44565b5061255460e08401846122c5565b84820360e086015261256682826123b3565b9150506125776101008401846122c5565b84820361010086015261258a82826123b3565b9150508091505092915050565b6125a0816111a1565b82525050565b600060a08201905081810360008301526125c1818a8c61185a565b905081810360208301526125d681888a6119a4565b905081810360408301526125eb818688611ad0565b905081810360608301526125ff818561246e565b905061260e6080830184612597565b9998505050505050505050565b600067ffffffffffffffff82111561263657612635611101565b5b602082029050602081019050919050565b600081519050612656816111df565b92915050565b600061266f61266a8461261b565b611161565b905080838252602082019050602084028301858111156126925761269161123c565b5b835b818110156126bb57806126a78882612647565b845260208401935050602081019050612694565b5050509392505050565b600082601f8301126126da576126d961120b565b5b81516126ea84826020860161265c565b91505092915050565b600060408284031215612709576127086110eb565b5b6127136040611161565b9050600082015167ffffffffffffffff8111156127335761273261117c565b5b61273f848285016126c5565b600083015250602061275384828501612647565b60208301525092915050565b60006020828403121561277557612774610e39565b5b600082015167ffffffffffffffff81111561279357612792610e3e565b5b61279f848285016126f3565b91505092915050565b600082825260208201905092915050565b7f494e53554646494349454e545f4f555400000000000000000000000000000000600082015250565b60006127ef6010836127a8565b91506127fa826127b9565b602082019050919050565b6000602082019050818103600083015261281e816127e2565b9050919050565b7f4e487b7100000000000000000000000000000000000000000000000000000000600052601160045260246000fd5b600061285f82610edd565b915061286a83610edd565b925082820390508181111561288257612881612825565b5b92915050565b7f5265656e7472616e637947756172643a207265656e7472616e742063616c6c00600082015250565b60006128be601f836127a8565b91506128c982612888565b602082019050919050565b600060208201905081810360008301526128ed816128b1565b9050919050565b60006020820190506129096000830184612597565b92915050565b60006020828403121561292557612924610e39565b5b600061293384828501612647565b91505092915050565b7f494e56414c49445f494e5055545f414d4f554e54000000000000000000000000600082015250565b60006129726014836127a8565b915061297d8261293c565b602082019050919050565b600060208201905081810360008301526129a181612965565b9050919050565b7f494e56414c49445f4f55545055545f414d4f554e540000000000000000000000600082015250565b60006129de6015836127a8565b91506129e9826129a8565b602082019050919050565b60006020820190508181036000830152612a0d816129d1565b9050919050565b600081519050919050565b6000819050602082019050919050565b612a3881611241565b82525050565b6000612a4a8383612a2f565b60208301905092915050565b6000602082019050919050565b6000612a6e82612a14565b612a78818561183b565b9350612a8383612a1f565b8060005b83811015612ab4578151612a9b8882612a3e565b9750612aa683612a56565b925050600181019050612a87565b5085935050505092915050565b600081519050919050565b6000819050602082019050919050565b600081519050919050565b60005b83811015612b05578082015181840152602081019050612aea565b60008484015250505050565b6000612b1c82612adc565b612b2681856118d1565b9350612b36818560208601612ae7565b612b3f816110f0565b840191505092915050565b6000612b568383612b11565b905092915050565b6000602082019050919050565b6000612b7682612ac1565b612b8081856118b6565b935083602082028501612b9285612acc565b8060005b85811015612bce5784840389528151612baf8582612b4a565b9450612bba83612b5e565b925060208a01995050600181019050612b96565b50829750879550505050505092915050565b600081519050919050565b6000819050602082019050919050565b6000602082019050919050565b6000612c1382612be0565b612c1d8185611a1a565b9350612c2883612beb565b8060005b83811015612c59578151612c408882611a94565b9750612c4b83612bfb565b925050600181019050612c2c565b5085935050505092915050565b60006060820190508181036000830152612c808186612a63565b90508181036020830152612c948185612b6b565b90508181036040830152612ca88184612c08565b9050949350505050565b600060208284031215612cc857612cc76110eb565b5b612cd26020611161565b9050600082015167ffffffffffffffff811115612cf257612cf161117c565b5b612cfe848285016126c5565b60008301525092915050565b600060208284031215612d2057612d1f610e39565b5b600082015167ffffffffffffffff811115612d3e57612d3d610e3e565b5b612d4a84828501612cb2565b91505092915050565b7f494e56414c49445f4e45575f42414c414e434500000000000000000000000000600082015250565b6000612d896013836127a8565b9150612d9482612d53565b602082019050919050565b60006020820190508181036000830152612db881612d7c565b9050919050565b7f494e53554646494349454e545f45544800000000000000000000000000000000600082015250565b6000612df56010836127a8565b9150612e0082612dbf565b602082019050919050565b60006020820190508181036000830152612e2481612de8565b9050919050565b600060208284031215612e4157612e40610e39565b5b6000612e4f848285016114f9565b91505092915050565b6000612e653684846113ef565b905092915050565b612e7681610edd565b82525050565b6000606082019050612e916000830186612597565b612e9e6020830185612597565b612eab6040830184612e6d565b949350505050565b6000604082019050612ec86000830185612597565b612ed56020830184612e6d565b9392505050565b600081519050612eeb816121fd565b92915050565b600060208284031215612f0757612f06610e39565b5b6000612f1584828501612edc565b91505092915050565b7f5361666545524332303a204552433230206f7065726174696f6e20646964206e60008201527f6f74207375636365656400000000000000000000000000000000000000000000602082015250565b6000612f7a602a836127a8565b9150612f8582612f1e565b604082019050919050565b60006020820190508181036000830152612fa981612f6d565b9050919050565b7f416464726573733a20696e73756666696369656e742062616c616e636520666f60008201527f722063616c6c0000000000000000000000000000000000000000000000000000602082015250565b600061300c6026836127a8565b915061301782612fb0565b604082019050919050565b6000602082019050818103600083015261303b81612fff565b9050919050565b600081905092915050565b600061305882612adc565b6130628185613042565b9350613072818560208601612ae7565b80840191505092915050565b600061308a828461304d565b915081905092915050565b7f416464726573733a2063616c6c20746f206e6f6e2d636f6e7472616374000000600082015250565b60006130cb601d836127a8565b91506130d682613095565b602082019050919050565b600060208201905081810360008301526130fa816130be565b9050919050565b600081519050919050565b600061311782613101565b61312181856127a8565b9350613131818560208601612ae7565b61313a816110f0565b840191505092915050565b6000602082019050818103600083015261315f818461310c565b90509291505056fea2646970667358221220d13a4257652f73056a41620f842526e3b2406373fb890b6205dbb12949b3352b64736f6c63430008110033",
  "devdoc": {
    "kind": "dev",
    "methods": {},
    "version": 1
  },
  "userdoc": {
    "kind": "user",
    "methods": {},
    "version": 1
  },
  "storageLayout": {
    "storage": [
      {
        "astId": 167,
        "contract": "contracts/Zapper2.sol:Zapper2",
        "label": "_status",
        "offset": 0,
        "slot": "0",
        "type": "t_uint256"
      }
    ],
    "types": {
      "t_uint256": {
        "encoding": "inplace",
        "label": "uint256",
        "numberOfBytes": "32"
      }
    }
  }
}