{
  "address": "0x58E1E7213d35340be69CCEfCF7C7815940BF8021",
  "abi": [
    {
      "inputs": [
        {
          "internalType": "uint256",
          "name": "command_index",
          "type": "uint256"
        },
        {
          "internalType": "address",
          "name": "target",
          "type": "address"
        },
        {
          "internalType": "string",
          "name": "message",
          "type": "string"
        }
      ],
      "name": "ExecutionFailed",
      "type": "error"
    },
    {
      "inputs": [
        {
          "internalType": "uint256",
          "name": "a",
          "type": "uint256"
        },
        {
          "internalType": "uint256",
          "name": "b",
          "type": "uint256"
        }
      ],
      "name": "add",
      "outputs": [
        {
          "internalType": "uint256",
          "name": "",
          "type": "uint256"
        }
      ],
      "stateMutability": "pure",
      "type": "function"
    },
    {
      "inputs": [
        {
          "internalType": "uint256",
          "name": "a",
          "type": "uint256"
        },
        {
          "internalType": "uint256",
          "name": "b",
          "type": "uint256"
        }
      ],
      "name": "assertEqual",
      "outputs": [
        {
          "internalType": "bool",
          "name": "",
          "type": "bool"
        }
      ],
      "stateMutability": "pure",
      "type": "function"
    },
    {
      "inputs": [
        {
          "internalType": "uint256",
          "name": "a",
          "type": "uint256"
        },
        {
          "internalType": "uint256",
          "name": "b",
          "type": "uint256"
        }
      ],
      "name": "assertLarger",
      "outputs": [
        {
          "internalType": "bool",
          "name": "",
          "type": "bool"
        }
      ],
      "stateMutability": "pure",
      "type": "function"
    },
    {
      "inputs": [
        {
          "internalType": "bytes32[]",
          "name": "commands",
          "type": "bytes32[]"
        },
        {
          "internalType": "bytes[]",
          "name": "state",
          "type": "bytes[]"
        },
        {
          "internalType": "contract IERC20[]",
          "name": "tokens",
          "type": "address[]"
        }
      ],
      "name": "execute",
      "outputs": [
        {
          "components": [
            {
              "internalType": "uint256[]",
              "name": "dust",
              "type": "uint256[]"
            }
          ],
          "internalType": "struct ExecuteOutput",
          "name": "out",
          "type": "tuple"
        }
      ],
      "stateMutability": "payable",
      "type": "function"
    },
    {
      "inputs": [
        {
          "internalType": "bytes32[]",
          "name": "commands",
          "type": "bytes32[]"
        },
        {
          "internalType": "bytes[]",
          "name": "state",
          "type": "bytes[]"
        },
        {
          "internalType": "contract IERC20[]",
          "name": "tokens",
          "type": "address[]"
        },
        {
          "components": [
            {
              "internalType": "address",
              "name": "deployer",
              "type": "address"
            },
            {
              "components": [
                {
                  "internalType": "string",
                  "name": "name",
                  "type": "string"
                },
                {
                  "internalType": "string",
                  "name": "symbol",
                  "type": "string"
                },
                {
                  "internalType": "address[]",
                  "name": "assets",
                  "type": "address[]"
                },
                {
                  "internalType": "uint256[]",
                  "name": "amounts",
                  "type": "uint256[]"
                },
                {
                  "internalType": "uint256",
                  "name": "initialShares",
                  "type": "uint256"
                }
              ],
              "internalType": "struct IFolio.FolioBasicDetails",
              "name": "basicDetails",
              "type": "tuple"
            },
            {
              "components": [
                {
                  "internalType": "uint256",
                  "name": "auctionDelay",
                  "type": "uint256"
                },
                {
                  "internalType": "uint256",
                  "name": "auctionLength",
                  "type": "uint256"
                },
                {
                  "components": [
                    {
                      "internalType": "address",
                      "name": "recipient",
                      "type": "address"
                    },
                    {
                      "internalType": "uint96",
                      "name": "portion",
                      "type": "uint96"
                    }
                  ],
                  "internalType": "struct IFolio.FeeRecipient[]",
                  "name": "feeRecipients",
                  "type": "tuple[]"
                },
                {
                  "internalType": "uint256",
                  "name": "tvlFee",
                  "type": "uint256"
                },
                {
                  "internalType": "uint256",
                  "name": "mintFee",
                  "type": "uint256"
                },
                {
                  "internalType": "string",
                  "name": "mandate",
                  "type": "string"
                }
              ],
              "internalType": "struct IFolio.FolioAdditionalDetails",
              "name": "additionalDetails",
              "type": "tuple"
            },
            {
              "components": [
                {
                  "internalType": "address[]",
                  "name": "existingTradeProposers",
                  "type": "address[]"
                },
                {
                  "internalType": "address[]",
                  "name": "tradeLaunchers",
                  "type": "address[]"
                },
                {
                  "internalType": "address[]",
                  "name": "vibesOfficers",
                  "type": "address[]"
                }
              ],
              "internalType": "struct GovRoles",
              "name": "govRoles",
              "type": "tuple"
            },
            {
              "internalType": "bool",
              "name": "isGoverned",
              "type": "bool"
            },
            {
              "internalType": "contract IVotes",
              "name": "stToken",
              "type": "address"
            },
            {
              "internalType": "address",
              "name": "owner",
              "type": "address"
            },
            {
              "components": [
                {
                  "internalType": "uint48",
                  "name": "votingDelay",
                  "type": "uint48"
                },
                {
                  "internalType": "uint32",
                  "name": "votingPeriod",
                  "type": "uint32"
                },
                {
                  "internalType": "uint256",
                  "name": "proposalThreshold",
                  "type": "uint256"
                },
                {
                  "internalType": "uint256",
                  "name": "quorumPercent",
                  "type": "uint256"
                },
                {
                  "internalType": "uint256",
                  "name": "timelockDelay",
                  "type": "uint256"
                },
                {
                  "internalType": "address[]",
                  "name": "guardians",
                  "type": "address[]"
                }
              ],
              "internalType": "struct IGovernanceDeployer.GovParams",
              "name": "ownerGovParams",
              "type": "tuple"
            },
            {
              "components": [
                {
                  "internalType": "uint48",
                  "name": "votingDelay",
                  "type": "uint48"
                },
                {
                  "internalType": "uint32",
                  "name": "votingPeriod",
                  "type": "uint32"
                },
                {
                  "internalType": "uint256",
                  "name": "proposalThreshold",
                  "type": "uint256"
                },
                {
                  "internalType": "uint256",
                  "name": "quorumPercent",
                  "type": "uint256"
                },
                {
                  "internalType": "uint256",
                  "name": "timelockDelay",
                  "type": "uint256"
                },
                {
                  "internalType": "address[]",
                  "name": "guardians",
                  "type": "address[]"
                }
              ],
              "internalType": "struct IGovernanceDeployer.GovParams",
              "name": "tradingGovParams",
              "type": "tuple"
            }
          ],
          "internalType": "struct DeployFolioConfig",
          "name": "config",
          "type": "tuple"
        },
        {
          "internalType": "address",
          "name": "recipient",
          "type": "address"
        },
        {
          "internalType": "bytes32",
          "name": "nonce",
          "type": "bytes32"
        }
      ],
      "name": "executeDeploy",
      "outputs": [
        {
          "components": [
            {
              "internalType": "uint256[]",
              "name": "dust",
              "type": "uint256[]"
            },
            {
              "internalType": "uint256",
              "name": "amountOut",
              "type": "uint256"
            }
          ],
          "internalType": "struct ExecuteDeployOutput",
          "name": "out",
          "type": "tuple"
        }
      ],
      "stateMutability": "payable",
      "type": "function"
    },
    {
      "inputs": [
        {
          "internalType": "uint256",
          "name": "a",
          "type": "uint256"
        },
        {
          "internalType": "uint256",
          "name": "b",
          "type": "uint256"
        },
        {
          "internalType": "uint256",
          "name": "scale",
          "type": "uint256"
        }
      ],
      "name": "fpMul",
      "outputs": [
        {
          "internalType": "uint256",
          "name": "",
          "type": "uint256"
        }
      ],
      "stateMutability": "pure",
      "type": "function"
    },
    {
      "inputs": [
        {
          "internalType": "contract FacadeRead",
          "name": "facade",
          "type": "address"
        },
        {
          "internalType": "contract RToken",
          "name": "token",
          "type": "address"
        },
        {
          "internalType": "address",
          "name": "recipient",
          "type": "address"
        }
      ],
      "name": "mintMaxRToken",
      "outputs": [],
      "stateMutability": "nonpayable",
      "type": "function"
    },
    {
      "inputs": [
        {
          "internalType": "address",
          "name": "to",
          "type": "address"
        },
        {
          "internalType": "uint256",
          "name": "value",
          "type": "uint256"
        },
        {
          "internalType": "bytes",
          "name": "data",
          "type": "bytes"
        }
      ],
      "name": "rawCall",
      "outputs": [
        {
          "internalType": "bool",
          "name": "success",
          "type": "bool"
        },
        {
          "internalType": "bytes",
          "name": "out",
          "type": "bytes"
        }
      ],
      "stateMutability": "nonpayable",
      "type": "function"
    },
    {
      "inputs": [
        {
          "internalType": "uint256",
          "name": "a",
          "type": "uint256"
        },
        {
          "internalType": "uint256",
          "name": "b",
          "type": "uint256"
        }
      ],
      "name": "sub",
      "outputs": [
        {
          "internalType": "uint256",
          "name": "",
          "type": "uint256"
        }
      ],
      "stateMutability": "pure",
      "type": "function"
    },
    {
      "stateMutability": "payable",
      "type": "receive"
    }
  ],
  "transactionHash": "0x0c75ad9014d6e7931cc3147b1eea0f00d81d2725878eca58ee8db41833ff84d8",
  "args": [],
  "numDeployments": 11,
  "solcInputHash": "5fa7a95b3b441850fdcf31db57448cd0",
  "bytecode": "0x60a060405234801561001057600080fd5b503073ffffffffffffffffffffffffffffffffffffffff1660808173ffffffffffffffffffffffffffffffffffffffff168152505060805161490061005d600039600050506149006000f3fe60806040526004361061008a5760003560e01c806398a38d7d1161005957806398a38d7d14610169578063ad207fd7146101a7578063b67d77c5146101e4578063d47b0de414610221578063f95641621461025e57610091565b806308c4b49814610096578063298e2c9e146100c6578063771602f71461010357806394919ce81461014057610091565b3661009157005b600080fd5b6100b060048036038101906100ab9190612238565b61028e565b6040516100bd91906123d6565b60405180910390f35b3480156100d257600080fd5b506100ed60048036038101906100e89190612424565b610423565b6040516100fa919061247f565b60405180910390f35b34801561010f57600080fd5b5061012a60048036038101906101259190612424565b610471565b60405161013791906124a9565b60405180910390f35b34801561014c57600080fd5b506101676004803603810190610162919061256c565b610487565b005b34801561017557600080fd5b50610190600480360381019061018b9190612615565b61057c565b60405161019e929190612708565b60405180910390f35b3480156101b357600080fd5b506101ce60048036038101906101c99190612424565b61066a565b6040516101db919061247f565b60405180910390f35b3480156101f057600080fd5b5061020b60048036038101906102069190612424565b6106b8565b60405161021891906124a9565b60405180910390f35b34801561022d57600080fd5b5061024860048036038101906102439190612738565b6106ce565b60405161025591906124a9565b60405180910390f35b610278600480360381019061027391906130e1565b6106f0565b6040516102859190613221565b60405180910390f35b610296611e3d565b6000303f90506102a786868661100f565b50825167ffffffffffffffff8111156102c3576102c2611ef4565b5b6040519080825280602002602001820160405280156102f15781602001602082028036833780820191505090505b50826000018190525060005b83518110156103d05783818151811061031957610318613243565b5b602002602001015173ffffffffffffffffffffffffffffffffffffffff166370a08231306040518263ffffffff1660e01b81526004016103599190613281565b602060405180830381865afa158015610376573d6000803e3d6000fd5b505050506040513d601f19601f8201168201806040525081019061039a91906132b1565b836000015182815181106103b1576103b0613243565b5b60200260200101818152505080806103c89061330d565b9150506102fd565b506000303f9050818114610419576040517f08c379a0000000000000000000000000000000000000000000000000000000008152600401610410906133d8565b60405180910390fd5b5050949350505050565b6000818311610467576040517f08c379a000000000000000000000000000000000000000000000000000000000815260040161045e90613444565b60405180910390fd5b6001905092915050565b6000818361047f9190613464565b905092915050565b60008373ffffffffffffffffffffffffffffffffffffffff16631c3debf484306040518363ffffffff1660e01b81526004016104c49291906134f7565b6020604051808303816000875af11580156104e3573d6000803e3d6000fd5b505050506040513d601f19601f8201168201806040525081019061050791906132b1565b90508273ffffffffffffffffffffffffffffffffffffffff16631207f0c183836040518363ffffffff1660e01b8152600401610544929190613520565b600060405180830381600087803b15801561055e57600080fd5b505af1158015610572573d6000803e3d6000fd5b5050505050505050565b600060603073ffffffffffffffffffffffffffffffffffffffff163373ffffffffffffffffffffffffffffffffffffffff16146105ee576040517f08c379a00000000000000000000000000000000000000000000000000000000081526004016105e5906135bb565b60405180910390fd5b8573ffffffffffffffffffffffffffffffffffffffff1685858560405161061692919061360b565b60006040518083038185875af1925050503d8060008114610653576040519150601f19603f3d011682016040523d82523d6000602084013e610658565b606091505b50809250819350505094509492505050565b60008183146106ae576040517f08c379a00000000000000000000000000000000000000000000000000000000081526004016106a590613670565b60405180910390fd5b6001905092915050565b600081836106c69190613690565b905092915050565b60008183856106dd91906136c4565b6106e79190613735565b90509392505050565b6106f8611e50565b6000303f905061070989898961100f565b5060007fffffffffffffffffffffffffffffffffffffffffffffffffffffffffffffffff905060005b8660200151604001515181101561095857600087602001516040015182815181106107605761075f613243565b5b602002602001015173ffffffffffffffffffffffffffffffffffffffff166370a08231306040518263ffffffff1660e01b81526004016107a09190613281565b602060405180830381865afa1580156107bd573d6000803e3d6000fd5b505050506040513d601f19601f820116820180604052508101906107e191906132b1565b905060008103610826576040517f08c379a000000000000000000000000000000000000000000000000000000000815260040161081d906137b2565b60405180910390fd5b6000886020015160600151838151811061084357610842613243565b5b6020026020010151905060008103610890576040517f08c379a00000000000000000000000000000000000000000000000000000000081526004016108879061381e565b60405180910390fd5b600081670de0b6b3a7640000846108a791906136c4565b6108b19190613735565b9050848110156108bf578094505b6108f18a602001516040015185815181106108dd576108dc613243565b5b60200260200101518b600001516000611488565b6109428a6020015160400151858151811061090f5761090e613243565b5b60200260200101518b600001517fffffffffffffffffffffffffffffffffffffffffffffffffffffffffffffffff611488565b50505080806109509061330d565b915050610732565b507fffffffffffffffffffffffffffffffffffffffffffffffffffffffffffffffff81036109bb576040517f08c379a00000000000000000000000000000000000000000000000000000000081526004016109b29061388a565b60405180910390fd5b60005b86602001516040015151811015610a4a57670de0b6b3a764000087602001516060015182815181106109f3576109f2613243565b5b602002602001015183610a0691906136c4565b610a109190613735565b8760200151606001518281518110610a2b57610a2a613243565b5b6020026020010181815250508080610a429061330d565b9150506109be565b508086602001516080018181525050856080015115610c1d576000866000015173ffffffffffffffffffffffffffffffffffffffff1663784d48c78860a0015189602001518a604001518b60e001518c61010001518d606001518c6040518863ffffffff1660e01b8152600401610ac79796959493929190613cfa565b60c0604051808303816000875af1158015610ae6573d6000803e3d6000fd5b505050506040513d601f19601f82011682018060405250810190610b0a9190613da1565b505050505090508073ffffffffffffffffffffffffffffffffffffffff166370a08231306040518263ffffffff1660e01b8152600401610b4a9190613281565b602060405180830381865afa158015610b67573d6000803e3d6000fd5b505050506040513d601f19601f82011682018060405250810190610b8b91906132b1565b8460200181815250508073ffffffffffffffffffffffffffffffffffffffff1663a9059cbb8786602001516040518363ffffffff1660e01b8152600401610bd3929190613520565b6020604051808303816000875af1158015610bf2573d6000803e3d6000fd5b505050506040513d601f19601f82011682018060405250810190610c169190613e43565b5050610dd9565b6000866000015173ffffffffffffffffffffffffffffffffffffffff1663fd7d2e4f886020015189604001518a60c001518b60600151600001518c60600151602001518d60600151604001518c6040518863ffffffff1660e01b8152600401610c8c9796959493929190613edf565b60408051808303816000875af1158015610caa573d6000803e3d6000fd5b505050506040513d601f19601f82011682018060405250810190610cce9190613f71565b5090508073ffffffffffffffffffffffffffffffffffffffff166370a08231306040518263ffffffff1660e01b8152600401610d0a9190613281565b602060405180830381865afa158015610d27573d6000803e3d6000fd5b505050506040513d601f19601f82011682018060405250810190610d4b91906132b1565b8460200181815250508073ffffffffffffffffffffffffffffffffffffffff1663a9059cbb8786602001516040518363ffffffff1660e01b8152600401610d93929190613520565b6020604051808303816000875af1158015610db2573d6000803e3d6000fd5b505050506040513d601f19601f82011682018060405250810190610dd69190613e43565b50505b865167ffffffffffffffff811115610df457610df3611ef4565b5b604051908082528060200260200182016040528015610e225781602001602082028036833780820191505090505b50836000018190525060005b8751811015610fb857878181518110610e4a57610e49613243565b5b602002602001015173ffffffffffffffffffffffffffffffffffffffff166370a08231306040518263ffffffff1660e01b8152600401610e8a9190613281565b602060405180830381865afa158015610ea7573d6000803e3d6000fd5b505050506040513d601f19601f82011682018060405250810190610ecb91906132b1565b84600001518281518110610ee257610ee1613243565b5b602002602001018181525050878181518110610f0157610f00613243565b5b602002602001015173ffffffffffffffffffffffffffffffffffffffff1663a9059cbb8786600001518481518110610f3c57610f3b613243565b5b60200260200101516040518363ffffffff1660e01b8152600401610f61929190613520565b6020604051808303816000875af1158015610f80573d6000803e3d6000fd5b505050506040513d601f19601f82011682018060405250810190610fa49190613e43565b508080610fb09061330d565b915050610e2e565b50506000303f9050818114611002576040517f08c379a0000000000000000000000000000000000000000000000000000000008152600401610ff9906133d8565b60405180910390fd5b5050979650505050505050565b60606000806000806060600089899050905060005b81811015611477578a8a8281811061103f5761103e613243565b5b905060200201359650602087901b60f81c60ff1695506000608087161461108d578a8a828061106d9061330d565b935081811061107f5761107e613243565b5b9050602002013594506110b7565b79ffffffffffffffffffffffffffffffffffffffffffffffffffff602888901b60001c1760001b94505b6000600387160361114c578660001c73ffffffffffffffffffffffffffffffffffffffff166110f188878c6115d79092919063ffffffff16565b6040516110fe9190613fe2565b600060405180830381855af49150503d8060008114611139576040519150601f19603f3d011682016040523d82523d6000602084013e61113e565b606091505b5080945081955050506113cd565b600160038716036111e3578660001c73ffffffffffffffffffffffffffffffffffffffff1661118688878c6115d79092919063ffffffff16565b6040516111939190613fe2565b6000604051808303816000865af19150503d80600081146111d0576040519150601f19603f3d011682016040523d82523d6000602084013e6111d5565b606091505b5080945081955050506113cc565b60026003871603611278578660001c73ffffffffffffffffffffffffffffffffffffffff1661121d88878c6115d79092919063ffffffff16565b60405161122a9190613fe2565b600060405180830381855afa9150503d8060008114611265576040519150601f19603f3d011682016040523d82523d6000602084013e61126a565b606091505b5080945081955050506113cb565b60038087160361138f576000808a8760f81c60ff168151811061129e5761129d613243565b5b6020026020010151905060208151146112ec576040517f08c379a00000000000000000000000000000000000000000000000000000000081526004016112e39061406b565b60405180910390fd5b602081015191508860001c73ffffffffffffffffffffffffffffffffffffffff16826113308b60ff60088c901b60001c1760001b8f6115d79092919063ffffffff16565b60405161133d9190613fe2565b60006040518083038185875af1925050503d806000811461137a576040519150601f19603f3d011682016040523d82523d6000602084013e61137f565b606091505b50809650819750505050506113ca565b6040517f08c379a00000000000000000000000000000000000000000000000000000000081526004016113c1906140d7565b60405180910390fd5b5b5b5b83611427576000835111156113e3576044830192505b808760001c846040517fef3dcb2f00000000000000000000000000000000000000000000000000000000815260040161141e93929190614130565b60405180910390fd5b600060408716146114505761144b605888901b848b61193b9092919063ffffffff16565b61146c565b611469605888901b848b6119f09092919063ffffffff16565b98505b806001019050611024565b508796505050505050509392505050565b6000811480611512575060008373ffffffffffffffffffffffffffffffffffffffff1663dd62ed3e30856040518363ffffffff1660e01b81526004016114cf92919061416e565b602060405180830381865afa1580156114ec573d6000803e3d6000fd5b505050506040513d601f19601f8201168201806040525081019061151091906132b1565b145b611551576040517f08c379a000000000000000000000000000000000000000000000000000000000815260040161154890614209565b60405180910390fd5b6115d28363095ea7b360e01b8484604051602401611570929190613520565b604051602081830303815290604052907bffffffffffffffffffffffffffffffffffffffffffffffffffffffff19166020820180517bffffffffffffffffffffffffffffffffffffffffffffffffffffffff8381831617835250505050611b8f565b505050565b606060008060606000805b602081101561177b578681602081106115fe576115fd613243565b5b1a60f81b60f81c60ff16915060ff82031561177b57600060808316146116f95760fe820361166657600083510361165257886040516020016116409190614335565b60405160208183030381529060405292505b82518561165f9190613464565b94506116f4565b600089607f84168151811061167e5761167d613243565b5b602002602001015151905060006020826116989190614357565b146116d8576040517f08c379a00000000000000000000000000000000000000000000000000000000081526004016116cf906143fa565b60405180910390fd5b6020816116e59190613464565b866116f09190613464565b9550505b61176a565b602089607f84168151811061171157611710613243565b5b6020026020010151511461175a576040517f08c379a00000000000000000000000000000000000000000000000000000000081526004016117519061448c565b60405180910390fd5b6020856117679190613464565b94505b6020840193508060010190506115e2565b506004846117899190613464565b67ffffffffffffffff8111156117a2576117a1611ef4565b5b6040519080825280601f01601f1916602001820160405280156117d45781602001600182028036833780820191505090505b5094508660208601526000935060005b602081101561192f57868160208110611800576117ff613243565b5b1a60f81b60f81c60ff16915060ff82031561192f57600060808316146118ee5760fe8203611877578385602488010152611857836020886004886118449190613464565b602088516118529190613690565b611c56565b602083516118659190613690565b846118709190613464565b93506118e9565b600089607f84168151811061188f5761188e613243565b5b602002602001015151905084866024890101526118d98a607f8516815181106118bb576118ba613243565b5b60200260200101516000896004896118d39190613464565b85611c56565b80856118e59190613464565b9450505b61191e565b600089607f84168151811061190657611905613243565b5b60200260200101519050602081015186602489010152505b6020850194508060010190506117e4565b50505050509392505050565b60008260f81c60ff16905060ff810361195457506119eb565b6000602083516119649190613464565b67ffffffffffffffff81111561197d5761197c611ef4565b5b6040519080825280601f01601f1916602001820160405280156119af5781602001600182028036833780820191505090505b508583815181106119c3576119c2613243565b5b6020026020010181905290506119df8360008360208751611c56565b82518060208301525050505b505050565b606060008360f81c60ff16905060ff8103611a0e5784915050611b88565b60006080821614611aaa5760fe8103611a3c5782806020019051810190611a3591906145d1565b9450611aa5565b60006020840151905060208114611a88576040517f08c379a0000000000000000000000000000000000000000000000000000000008152600401611a7f9061468c565b60405180910390fd5b60208451036020850152602084016020607f841602602088010152505b611b83565b602083511015611aef576040517f08c379a0000000000000000000000000000000000000000000000000000000008152600401611ae6906146f8565b60405180910390fd5b602083511115611b60576000602067ffffffffffffffff811115611b1657611b15611ef4565b5b6040519080825280601f01601f191660200182016040528015611b485781602001600182028036833780820191505090505b509050611b5b8460008360008851611c56565b809350505b8285607f831681518110611b7757611b76613243565b5b60200260200101819052505b849150505b9392505050565b6000611bf1826040518060400160405280602081526020017f5361666545524332303a206c6f772d6c6576656c2063616c6c206661696c65648152508573ffffffffffffffffffffffffffffffffffffffff16611c709092919063ffffffff16565b9050600081511115611c515780806020019051810190611c119190613e43565b611c50576040517f08c379a0000000000000000000000000000000000000000000000000000000008152600401611c479061478a565b60405180910390fd5b5b505050565b808260208501018286602089010160045afa505050505050565b6060611c7f8484600085611c88565b90509392505050565b606082471015611ccd576040517f08c379a0000000000000000000000000000000000000000000000000000000008152600401611cc49061481c565b60405180910390fd5b6000808673ffffffffffffffffffffffffffffffffffffffff168587604051611cf69190613fe2565b60006040518083038185875af1925050503d8060008114611d33576040519150601f19603f3d011682016040523d82523d6000602084013e611d38565b606091505b5091509150611d4987838387611d55565b92505050949350505050565b60608315611db7576000835103611daf57611d6f85611dca565b611dae576040517f08c379a0000000000000000000000000000000000000000000000000000000008152600401611da590614888565b60405180910390fd5b5b829050611dc2565b611dc18383611ded565b5b949350505050565b6000808273ffffffffffffffffffffffffffffffffffffffff163b119050919050565b600082511115611e005781518083602001fd5b806040517f08c379a0000000000000000000000000000000000000000000000000000000008152600401611e3491906148a8565b60405180910390fd5b6040518060200160405280606081525090565b604051806040016040528060608152602001600081525090565b6000604051905090565b600080fd5b600080fd5b600080fd5b600080fd5b600080fd5b60008083601f840112611ea357611ea2611e7e565b5b8235905067ffffffffffffffff811115611ec057611ebf611e83565b5b602083019150836020820283011115611edc57611edb611e88565b5b9250929050565b6000601f19601f8301169050919050565b7f4e487b7100000000000000000000000000000000000000000000000000000000600052604160045260246000fd5b611f2c82611ee3565b810181811067ffffffffffffffff82111715611f4b57611f4a611ef4565b5b80604052505050565b6000611f5e611e6a565b9050611f6a8282611f23565b919050565b600067ffffffffffffffff821115611f8a57611f89611ef4565b5b602082029050602081019050919050565b600080fd5b600067ffffffffffffffff821115611fbb57611fba611ef4565b5b611fc482611ee3565b9050602081019050919050565b82818337600083830152505050565b6000611ff3611fee84611fa0565b611f54565b90508281526020810184848401111561200f5761200e611f9b565b5b61201a848285611fd1565b509392505050565b600082601f83011261203757612036611e7e565b5b8135612047848260208601611fe0565b91505092915050565b600061206361205e84611f6f565b611f54565b9050808382526020820190506020840283018581111561208657612085611e88565b5b835b818110156120cd57803567ffffffffffffffff8111156120ab576120aa611e7e565b5b8086016120b88982612022565b85526020850194505050602081019050612088565b5050509392505050565b600082601f8301126120ec576120eb611e7e565b5b81356120fc848260208601612050565b91505092915050565b600067ffffffffffffffff8211156121205761211f611ef4565b5b602082029050602081019050919050565b600073ffffffffffffffffffffffffffffffffffffffff82169050919050565b600061215c82612131565b9050919050565b600061216e82612151565b9050919050565b61217e81612163565b811461218957600080fd5b50565b60008135905061219b81612175565b92915050565b60006121b46121af84612105565b611f54565b905080838252602082019050602084028301858111156121d7576121d6611e88565b5b835b8181101561220057806121ec888261218c565b8452602084019350506020810190506121d9565b5050509392505050565b600082601f83011261221f5761221e611e7e565b5b813561222f8482602086016121a1565b91505092915050565b6000806000806060858703121561225257612251611e74565b5b600085013567ffffffffffffffff8111156122705761226f611e79565b5b61227c87828801611e8d565b9450945050602085013567ffffffffffffffff81111561229f5761229e611e79565b5b6122ab878288016120d7565b925050604085013567ffffffffffffffff8111156122cc576122cb611e79565b5b6122d88782880161220a565b91505092959194509250565b600081519050919050565b600082825260208201905092915050565b6000819050602082019050919050565b6000819050919050565b61232381612310565b82525050565b6000612335838361231a565b60208301905092915050565b6000602082019050919050565b6000612359826122e4565b61236381856122ef565b935061236e83612300565b8060005b8381101561239f5781516123868882612329565b975061239183612341565b925050600181019050612372565b5085935050505092915050565b600060208301600083015184820360008601526123c9828261234e565b9150508091505092915050565b600060208201905081810360008301526123f081846123ac565b905092915050565b61240181612310565b811461240c57600080fd5b50565b60008135905061241e816123f8565b92915050565b6000806040838503121561243b5761243a611e74565b5b60006124498582860161240f565b925050602061245a8582860161240f565b9150509250929050565b60008115159050919050565b61247981612464565b82525050565b60006020820190506124946000830184612470565b92915050565b6124a381612310565b82525050565b60006020820190506124be600083018461249a565b92915050565b60006124cf82612151565b9050919050565b6124df816124c4565b81146124ea57600080fd5b50565b6000813590506124fc816124d6565b92915050565b600061250d82612151565b9050919050565b61251d81612502565b811461252857600080fd5b50565b60008135905061253a81612514565b92915050565b61254981612151565b811461255457600080fd5b50565b60008135905061256681612540565b92915050565b60008060006060848603121561258557612584611e74565b5b6000612593868287016124ed565b93505060206125a48682870161252b565b92505060406125b586828701612557565b9150509250925092565b60008083601f8401126125d5576125d4611e7e565b5b8235905067ffffffffffffffff8111156125f2576125f1611e83565b5b60208301915083600182028301111561260e5761260d611e88565b5b9250929050565b6000806000806060858703121561262f5761262e611e74565b5b600061263d87828801612557565b945050602061264e8782880161240f565b935050604085013567ffffffffffffffff81111561266f5761266e611e79565b5b61267b878288016125bf565b925092505092959194509250565b600081519050919050565b600082825260208201905092915050565b60005b838110156126c35780820151818401526020810190506126a8565b60008484015250505050565b60006126da82612689565b6126e48185612694565b93506126f48185602086016126a5565b6126fd81611ee3565b840191505092915050565b600060408201905061271d6000830185612470565b818103602083015261272f81846126cf565b90509392505050565b60008060006060848603121561275157612750611e74565b5b600061275f8682870161240f565b93505060206127708682870161240f565b92505060406127818682870161240f565b9150509250925092565b600080fd5b600080fd5b600067ffffffffffffffff8211156127b0576127af611ef4565b5b6127b982611ee3565b9050602081019050919050565b60006127d96127d484612795565b611f54565b9050828152602081018484840111156127f5576127f4611f9b565b5b612800848285611fd1565b509392505050565b600082601f83011261281d5761281c611e7e565b5b813561282d8482602086016127c6565b91505092915050565b600067ffffffffffffffff82111561285157612850611ef4565b5b602082029050602081019050919050565b600061287561287084612836565b611f54565b9050808382526020820190506020840283018581111561289857612897611e88565b5b835b818110156128c157806128ad8882612557565b84526020840193505060208101905061289a565b5050509392505050565b600082601f8301126128e0576128df611e7e565b5b81356128f0848260208601612862565b91505092915050565b600067ffffffffffffffff82111561291457612913611ef4565b5b602082029050602081019050919050565b6000612938612933846128f9565b611f54565b9050808382526020820190506020840283018581111561295b5761295a611e88565b5b835b818110156129845780612970888261240f565b84526020840193505060208101905061295d565b5050509392505050565b600082601f8301126129a3576129a2611e7e565b5b81356129b3848260208601612925565b91505092915050565b600060a082840312156129d2576129d161278b565b5b6129dc60a0611f54565b9050600082013567ffffffffffffffff8111156129fc576129fb612790565b5b612a0884828501612808565b600083015250602082013567ffffffffffffffff811115612a2c57612a2b612790565b5b612a3884828501612808565b602083015250604082013567ffffffffffffffff811115612a5c57612a5b612790565b5b612a68848285016128cb565b604083015250606082013567ffffffffffffffff811115612a8c57612a8b612790565b5b612a988482850161298e565b6060830152506080612aac8482850161240f565b60808301525092915050565b600067ffffffffffffffff821115612ad357612ad2611ef4565b5b602082029050602081019050919050565b60006bffffffffffffffffffffffff82169050919050565b612b0581612ae4565b8114612b1057600080fd5b50565b600081359050612b2281612afc565b92915050565b600060408284031215612b3e57612b3d61278b565b5b612b486040611f54565b90506000612b5884828501612557565b6000830152506020612b6c84828501612b13565b60208301525092915050565b6000612b8b612b8684612ab8565b611f54565b90508083825260208201905060408402830185811115612bae57612bad611e88565b5b835b81811015612bd75780612bc38882612b28565b845260208401935050604081019050612bb0565b5050509392505050565b600082601f830112612bf657612bf5611e7e565b5b8135612c06848260208601612b78565b91505092915050565b600060c08284031215612c2557612c2461278b565b5b612c2f60c0611f54565b90506000612c3f8482850161240f565b6000830152506020612c538482850161240f565b602083015250604082013567ffffffffffffffff811115612c7757612c76612790565b5b612c8384828501612be1565b6040830152506060612c978482850161240f565b6060830152506080612cab8482850161240f565b60808301525060a082013567ffffffffffffffff811115612ccf57612cce612790565b5b612cdb84828501612808565b60a08301525092915050565b600060608284031215612cfd57612cfc61278b565b5b612d076060611f54565b9050600082013567ffffffffffffffff811115612d2757612d26612790565b5b612d33848285016128cb565b600083015250602082013567ffffffffffffffff811115612d5757612d56612790565b5b612d63848285016128cb565b602083015250604082013567ffffffffffffffff811115612d8757612d86612790565b5b612d93848285016128cb565b60408301525092915050565b612da881612464565b8114612db357600080fd5b50565b600081359050612dc581612d9f565b92915050565b6000612dd682612151565b9050919050565b612de681612dcb565b8114612df157600080fd5b50565b600081359050612e0381612ddd565b92915050565b600065ffffffffffff82169050919050565b612e2481612e09565b8114612e2f57600080fd5b50565b600081359050612e4181612e1b565b92915050565b600063ffffffff82169050919050565b612e6081612e47565b8114612e6b57600080fd5b50565b600081359050612e7d81612e57565b92915050565b600060c08284031215612e9957612e9861278b565b5b612ea360c0611f54565b90506000612eb384828501612e32565b6000830152506020612ec784828501612e6e565b6020830152506040612edb8482850161240f565b6040830152506060612eef8482850161240f565b6060830152506080612f038482850161240f565b60808301525060a082013567ffffffffffffffff811115612f2757612f26612790565b5b612f33848285016128cb565b60a08301525092915050565b60006101208284031215612f5657612f5561278b565b5b612f61610120611f54565b90506000612f7184828501612557565b600083015250602082013567ffffffffffffffff811115612f9557612f94612790565b5b612fa1848285016129bc565b602083015250604082013567ffffffffffffffff811115612fc557612fc4612790565b5b612fd184828501612c0f565b604083015250606082013567ffffffffffffffff811115612ff557612ff4612790565b5b61300184828501612ce7565b606083015250608061301584828501612db6565b60808301525060a061302984828501612df4565b60a08301525060c061303d84828501612557565b60c08301525060e082013567ffffffffffffffff81111561306157613060612790565b5b61306d84828501612e83565b60e08301525061010082013567ffffffffffffffff81111561309257613091612790565b5b61309e84828501612e83565b6101008301525092915050565b6000819050919050565b6130be816130ab565b81146130c957600080fd5b50565b6000813590506130db816130b5565b92915050565b600080600080600080600060c0888a031215613100576130ff611e74565b5b600088013567ffffffffffffffff81111561311e5761311d611e79565b5b61312a8a828b01611e8d565b9750975050602088013567ffffffffffffffff81111561314d5761314c611e79565b5b6131598a828b016120d7565b955050604088013567ffffffffffffffff81111561317a57613179611e79565b5b6131868a828b0161220a565b945050606088013567ffffffffffffffff8111156131a7576131a6611e79565b5b6131b38a828b01612f3f565b93505060806131c48a828b01612557565b92505060a06131d58a828b016130cc565b91505092959891949750929550565b60006040830160008301518482036000860152613201828261234e565b9150506020830151613216602086018261231a565b508091505092915050565b6000602082019050818103600083015261323b81846131e4565b905092915050565b7f4e487b7100000000000000000000000000000000000000000000000000000000600052603260045260246000fd5b61327b81612151565b82525050565b60006020820190506132966000830184613272565b92915050565b6000815190506132ab816123f8565b92915050565b6000602082840312156132c7576132c6611e74565b5b60006132d58482850161329c565b91505092915050565b7f4e487b7100000000000000000000000000000000000000000000000000000000600052601160045260246000fd5b600061331882612310565b91507fffffffffffffffffffffffffffffffffffffffffffffffffffffffffffffffff820361334a576133496132de565b5b600182019050919050565b600082825260208201905092915050565b7f50726576656e7454616d706572696e673a20436f646520686173206368616e6760008201527f6564000000000000000000000000000000000000000000000000000000000000602082015250565b60006133c2602283613355565b91506133cd82613366565b604082019050919050565b600060208201905081810360008301526133f1816133b5565b9050919050565b7f214153534552545f475400000000000000000000000000000000000000000000600082015250565b600061342e600a83613355565b9150613439826133f8565b602082019050919050565b6000602082019050818103600083015261345d81613421565b9050919050565b600061346f82612310565b915061347a83612310565b9250828201905080821115613492576134916132de565b5b92915050565b6000819050919050565b60006134bd6134b86134b384612131565b613498565b612131565b9050919050565b60006134cf826134a2565b9050919050565b60006134e1826134c4565b9050919050565b6134f1816134d6565b82525050565b600060408201905061350c60008301856134e8565b6135196020830184613272565b9392505050565b60006040820190506135356000830185613272565b613542602083018461249a565b9392505050565b7f5a61707065724578656375746f723a204f6e6c792063616c6c61626c6520627960008201527f205a617070657200000000000000000000000000000000000000000000000000602082015250565b60006135a5602783613355565b91506135b082613549565b604082019050919050565b600060208201905081810360008301526135d481613598565b9050919050565b600081905092915050565b60006135f283856135db565b93506135ff838584611fd1565b82840190509392505050565b60006136188284866135e6565b91508190509392505050565b7f214153534552545f455100000000000000000000000000000000000000000000600082015250565b600061365a600a83613355565b915061366582613624565b602082019050919050565b600060208201905081810360008301526136898161364d565b9050919050565b600061369b82612310565b91506136a683612310565b92508282039050818111156136be576136bd6132de565b5b92915050565b60006136cf82612310565b91506136da83612310565b92508282026136e881612310565b915082820484148315176136ff576136fe6132de565b5b5092915050565b7f4e487b7100000000000000000000000000000000000000000000000000000000600052601260045260246000fd5b600061374082612310565b915061374b83612310565b92508261375b5761375a613706565b5b828204905092915050565b7f5a45524f2042414c414e43450000000000000000000000000000000000000000600082015250565b600061379c600c83613355565b91506137a782613766565b602082019050919050565b600060208201905081810360008301526137cb8161378f565b9050919050565b7f5a45524f205155414e5449545900000000000000000000000000000000000000600082015250565b6000613808600d83613355565b9150613813826137d2565b602082019050919050565b60006020820190508181036000830152613837816137fb565b9050919050565b7f4e4f205348415245530000000000000000000000000000000000000000000000600082015250565b6000613874600983613355565b915061387f8261383e565b602082019050919050565b600060208201905081810360008301526138a381613867565b9050919050565b60006138b5826134c4565b9050919050565b6138c5816138aa565b82525050565b600081519050919050565b600082825260208201905092915050565b60006138f2826138cb565b6138fc81856138d6565b935061390c8185602086016126a5565b61391581611ee3565b840191505092915050565b600081519050919050565b600082825260208201905092915050565b6000819050602082019050919050565b61395581612151565b82525050565b6000613967838361394c565b60208301905092915050565b6000602082019050919050565b600061398b82613920565b613995818561392b565b93506139a08361393c565b8060005b838110156139d15781516139b8888261395b565b97506139c383613973565b9250506001810190506139a4565b5085935050505092915050565b600060a08301600083015184820360008601526139fb82826138e7565b91505060208301518482036020860152613a1582826138e7565b91505060408301518482036040860152613a2f8282613980565b91505060608301518482036060860152613a49828261234e565b9150506080830151613a5e608086018261231a565b508091505092915050565b600081519050919050565b600082825260208201905092915050565b6000819050602082019050919050565b613a9e81612ae4565b82525050565b604082016000820151613aba600085018261394c565b506020820151613acd6020850182613a95565b50505050565b6000613adf8383613aa4565b60408301905092915050565b6000602082019050919050565b6000613b0382613a69565b613b0d8185613a74565b9350613b1883613a85565b8060005b83811015613b49578151613b308882613ad3565b9750613b3b83613aeb565b925050600181019050613b1c565b5085935050505092915050565b600060c083016000830151613b6e600086018261231a565b506020830151613b81602086018261231a565b5060408301518482036040860152613b998282613af8565b9150506060830151613bae606086018261231a565b506080830151613bc1608086018261231a565b5060a083015184820360a0860152613bd982826138e7565b9150508091505092915050565b613bef81612e09565b82525050565b613bfe81612e47565b82525050565b600060c083016000830151613c1c6000860182613be6565b506020830151613c2f6020860182613bf5565b506040830151613c42604086018261231a565b506060830151613c55606086018261231a565b506080830151613c68608086018261231a565b5060a083015184820360a0860152613c808282613980565b9150508091505092915050565b60006060830160008301518482036000860152613caa8282613980565b91505060208301518482036020860152613cc48282613980565b91505060408301518482036040860152613cde8282613980565b9150508091505092915050565b613cf4816130ab565b82525050565b600060e082019050613d0f600083018a6138bc565b8181036020830152613d2181896139de565b90508181036040830152613d358188613b56565b90508181036060830152613d498187613c04565b90508181036080830152613d5d8186613c04565b905081810360a0830152613d718185613c8d565b9050613d8060c0830184613ceb565b98975050505050505050565b600081519050613d9b81612540565b92915050565b60008060008060008060c08789031215613dbe57613dbd611e74565b5b6000613dcc89828a01613d8c565b9650506020613ddd89828a01613d8c565b9550506040613dee89828a01613d8c565b9450506060613dff89828a01613d8c565b9350506080613e1089828a01613d8c565b92505060a0613e2189828a01613d8c565b9150509295509295509295565b600081519050613e3d81612d9f565b92915050565b600060208284031215613e5957613e58611e74565b5b6000613e6784828501613e2e565b91505092915050565b600082825260208201905092915050565b6000613e8c82613920565b613e968185613e70565b9350613ea18361393c565b8060005b83811015613ed2578151613eb9888261395b565b9750613ec483613973565b925050600181019050613ea5565b5085935050505092915050565b600060e0820190508181036000830152613ef9818a6139de565b90508181036020830152613f0d8189613b56565b9050613f1c6040830188613272565b8181036060830152613f2e8187613e81565b90508181036080830152613f428186613e81565b905081810360a0830152613f568185613e81565b9050613f6560c0830184613ceb565b98975050505050505050565b60008060408385031215613f8857613f87611e74565b5b6000613f9685828601613d8c565b9250506020613fa785828601613d8c565b9150509250929050565b6000613fbc82612689565b613fc681856135db565b9350613fd68185602086016126a5565b80840191505092915050565b6000613fee8284613fb1565b915081905092915050565b7f5f657865637574653a2076616c75652063616c6c20686173206e6f2076616c7560008201527f6520696e646963617465642e0000000000000000000000000000000000000000602082015250565b6000614055602c83613355565b915061406082613ff9565b604082019050919050565b6000602082019050818103600083015261408481614048565b9050919050565b7f496e76616c69642063616c6c7479706500000000000000000000000000000000600082015250565b60006140c1601083613355565b91506140cc8261408b565b602082019050919050565b600060208201905081810360008301526140f0816140b4565b9050919050565b6000614102826138cb565b61410c8185613355565b935061411c8185602086016126a5565b61412581611ee3565b840191505092915050565b6000606082019050614145600083018661249a565b6141526020830185613272565b818103604083015261416481846140f7565b9050949350505050565b60006040820190506141836000830185613272565b6141906020830184613272565b9392505050565b7f5361666545524332303a20617070726f76652066726f6d206e6f6e2d7a65726f60008201527f20746f206e6f6e2d7a65726f20616c6c6f77616e636500000000000000000000602082015250565b60006141f3603683613355565b91506141fe82614197565b604082019050919050565b60006020820190508181036000830152614222816141e6565b9050919050565b600081519050919050565b600082825260208201905092915050565b6000819050602082019050919050565b600082825260208201905092915050565b600061427182612689565b61427b8185614255565b935061428b8185602086016126a5565b61429481611ee3565b840191505092915050565b60006142ab8383614266565b905092915050565b6000602082019050919050565b60006142cb82614229565b6142d58185614234565b9350836020820285016142e785614245565b8060005b858110156143235784840389528151614304858261429f565b945061430f836142b3565b925060208a019950506001810190506142eb565b50829750879550505050505092915050565b6000602082019050818103600083015261434f81846142c0565b905092915050565b600061436282612310565b915061436d83612310565b92508261437d5761437c613706565b5b828206905092915050565b7f44796e616d6963207374617465207661726961626c6573206d7573742062652060008201527f61206d756c7469706c65206f6620333220627974657300000000000000000000602082015250565b60006143e4603683613355565b91506143ef82614388565b604082019050919050565b60006020820190508181036000830152614413816143d7565b9050919050565b7f537461746963207374617465207661726961626c6573206d757374206265203360008201527f3220627974657300000000000000000000000000000000000000000000000000602082015250565b6000614476602783613355565b91506144818261441a565b604082019050919050565b600060208201905081810360008301526144a581614469565b9050919050565b60006144bf6144ba84611fa0565b611f54565b9050828152602081018484840111156144db576144da611f9b565b5b6144e68482856126a5565b509392505050565b600082601f83011261450357614502611e7e565b5b81516145138482602086016144ac565b91505092915050565b600061452f61452a84611f6f565b611f54565b9050808382526020820190506020840283018581111561455257614551611e88565b5b835b8181101561459957805167ffffffffffffffff81111561457757614576611e7e565b5b80860161458489826144ee565b85526020850194505050602081019050614554565b5050509392505050565b600082601f8301126145b8576145b7611e7e565b5b81516145c884826020860161451c565b91505092915050565b6000602082840312156145e7576145e6611e74565b5b600082015167ffffffffffffffff81111561460557614604611e79565b5b614611848285016145a3565b91505092915050565b7f4f6e6c79206f6e652072657475726e2076616c7565207065726d69747465642060008201527f287661726961626c652900000000000000000000000000000000000000000000602082015250565b6000614676602a83613355565b91506146818261461a565b604082019050919050565b600060208201905081810360008301526146a581614669565b9050919050565b7f52657475726e206174206c656173742033322062797465730000000000000000600082015250565b60006146e2601883613355565b91506146ed826146ac565b602082019050919050565b60006020820190508181036000830152614711816146d5565b9050919050565b7f5361666545524332303a204552433230206f7065726174696f6e20646964206e60008201527f6f74207375636365656400000000000000000000000000000000000000000000602082015250565b6000614774602a83613355565b915061477f82614718565b604082019050919050565b600060208201905081810360008301526147a381614767565b9050919050565b7f416464726573733a20696e73756666696369656e742062616c616e636520666f60008201527f722063616c6c0000000000000000000000000000000000000000000000000000602082015250565b6000614806602683613355565b9150614811826147aa565b604082019050919050565b60006020820190508181036000830152614835816147f9565b9050919050565b7f416464726573733a2063616c6c20746f206e6f6e2d636f6e7472616374000000600082015250565b6000614872601d83613355565b915061487d8261483c565b602082019050919050565b600060208201905081810360008301526148a181614865565b9050919050565b600060208201905081810360008301526148c281846140f7565b90509291505056fea264697066735822122003850aaddac09e2cc358f077da012e1b48db6ac5b4d7e3d6db8655ff972674ad64736f6c63430008110033",
  "devdoc": {
    "kind": "dev",
    "methods": {
      "execute(bytes32[],bytes[],address[])": {
        "details": "Main endpoint to call",
        "params": {
          "commands": "- Weiroll code to execute",
          "state": "- Intiaial Weiroll state to use",
          "tokens": "- All tokens used by the Zap in order to calculate dust"
        }
      },
      "mintMaxRToken(address,address,address)": {
        "details": "Utility for minting max amount of rToken. Should only be used off-chain to calculate the exact amount of an rToken that can be minted",
        "params": {
          "recipient": "- Recipient of the rToken",
          "token": "- rToken to mint"
        }
      },
      "rawCall(address,uint256,bytes)": {
        "details": "Workaround for weiroll not supporting a way to make untyped calls.",
        "params": {
          "data": "- Data to send",
          "to": "- Address to call",
          "value": "- Amount of ETH to send"
        }
      }
    },
    "version": 1
  },
  "userdoc": {
    "kind": "user",
    "methods": {},
    "version": 1
  },
  "storageLayout": {
    "storage": [],
    "types": null
  }
}