{
  "address": "0x522Ae7F0aE430c3AC1993E27a555024C1cB72FA3",
  "abi": [
    {
      "inputs": [
        {
          "internalType": "uint256",
          "name": "command_index",
          "type": "uint256"
        },
        {
          "internalType": "address",
          "name": "target",
          "type": "address"
        },
        {
          "internalType": "string",
          "name": "message",
          "type": "string"
        }
      ],
      "name": "ExecutionFailed",
      "type": "error"
    },
    {
      "inputs": [
        {
          "internalType": "uint256",
          "name": "a",
          "type": "uint256"
        },
        {
          "internalType": "uint256",
          "name": "b",
          "type": "uint256"
        }
      ],
      "name": "add",
      "outputs": [
        {
          "internalType": "uint256",
          "name": "",
          "type": "uint256"
        }
      ],
      "stateMutability": "pure",
      "type": "function"
    },
    {
      "inputs": [
        {
          "internalType": "uint256",
          "name": "a",
          "type": "uint256"
        },
        {
          "internalType": "uint256",
          "name": "b",
          "type": "uint256"
        }
      ],
      "name": "assertEqual",
      "outputs": [
        {
          "internalType": "bool",
          "name": "",
          "type": "bool"
        }
      ],
      "stateMutability": "pure",
      "type": "function"
    },
    {
      "inputs": [
        {
          "internalType": "uint256",
          "name": "a",
          "type": "uint256"
        },
        {
          "internalType": "uint256",
          "name": "b",
          "type": "uint256"
        }
      ],
      "name": "assertLarger",
      "outputs": [
        {
          "internalType": "bool",
          "name": "",
          "type": "bool"
        }
      ],
      "stateMutability": "pure",
      "type": "function"
    },
    {
      "inputs": [
        {
          "internalType": "bytes32[]",
          "name": "commands",
          "type": "bytes32[]"
        },
        {
          "internalType": "bytes[]",
          "name": "state",
          "type": "bytes[]"
        },
        {
          "internalType": "contract IERC20[]",
          "name": "tokens",
          "type": "address[]"
        }
      ],
      "name": "execute",
      "outputs": [
        {
          "components": [
            {
              "internalType": "uint256[]",
              "name": "dust",
              "type": "uint256[]"
            }
          ],
          "internalType": "struct ExecuteOutput",
          "name": "out",
          "type": "tuple"
        }
      ],
      "stateMutability": "payable",
      "type": "function"
    },
    {
      "inputs": [
        {
          "internalType": "bytes32[]",
          "name": "commands",
          "type": "bytes32[]"
        },
        {
          "internalType": "bytes[]",
          "name": "state",
          "type": "bytes[]"
        },
        {
          "internalType": "contract IERC20[]",
          "name": "tokens",
          "type": "address[]"
        },
        {
          "components": [
            {
              "internalType": "address",
              "name": "deployer",
              "type": "address"
            },
            {
              "components": [
                {
                  "internalType": "string",
                  "name": "name",
                  "type": "string"
                },
                {
                  "internalType": "string",
                  "name": "symbol",
                  "type": "string"
                },
                {
                  "internalType": "address[]",
                  "name": "assets",
                  "type": "address[]"
                },
                {
                  "internalType": "uint256[]",
                  "name": "amounts",
                  "type": "uint256[]"
                },
                {
                  "internalType": "uint256",
                  "name": "initialShares",
                  "type": "uint256"
                }
              ],
              "internalType": "struct IFolio.FolioBasicDetails",
              "name": "basicDetails",
              "type": "tuple"
            },
            {
              "components": [
                {
                  "internalType": "uint256",
                  "name": "auctionDelay",
                  "type": "uint256"
                },
                {
                  "internalType": "uint256",
                  "name": "auctionLength",
                  "type": "uint256"
                },
                {
                  "components": [
                    {
                      "internalType": "address",
                      "name": "recipient",
                      "type": "address"
                    },
                    {
                      "internalType": "uint96",
                      "name": "portion",
                      "type": "uint96"
                    }
                  ],
                  "internalType": "struct IFolio.FeeRecipient[]",
                  "name": "feeRecipients",
                  "type": "tuple[]"
                },
                {
                  "internalType": "uint256",
                  "name": "tvlFee",
                  "type": "uint256"
                },
                {
                  "internalType": "uint256",
                  "name": "mintFee",
                  "type": "uint256"
                },
                {
                  "internalType": "string",
                  "name": "mandate",
                  "type": "string"
                }
              ],
              "internalType": "struct IFolio.FolioAdditionalDetails",
              "name": "additionalDetails",
              "type": "tuple"
            },
            {
              "components": [
                {
                  "internalType": "address[]",
                  "name": "existingTradeProposers",
                  "type": "address[]"
                },
                {
                  "internalType": "address[]",
                  "name": "tradeLaunchers",
                  "type": "address[]"
                },
                {
                  "internalType": "address[]",
                  "name": "vibesOfficers",
                  "type": "address[]"
                }
              ],
              "internalType": "struct GovRoles",
              "name": "govRoles",
              "type": "tuple"
            },
            {
              "internalType": "bool",
              "name": "isGoverned",
              "type": "bool"
            },
            {
              "internalType": "contract IVotes",
              "name": "stToken",
              "type": "address"
            },
            {
              "internalType": "address",
              "name": "owner",
              "type": "address"
            },
            {
              "components": [
                {
                  "internalType": "uint48",
                  "name": "votingDelay",
                  "type": "uint48"
                },
                {
                  "internalType": "uint32",
                  "name": "votingPeriod",
                  "type": "uint32"
                },
                {
                  "internalType": "uint256",
                  "name": "proposalThreshold",
                  "type": "uint256"
                },
                {
                  "internalType": "uint256",
                  "name": "quorumPercent",
                  "type": "uint256"
                },
                {
                  "internalType": "uint256",
                  "name": "timelockDelay",
                  "type": "uint256"
                },
                {
                  "internalType": "address[]",
                  "name": "guardians",
                  "type": "address[]"
                }
              ],
              "internalType": "struct IGovernanceDeployer.GovParams",
              "name": "ownerGovParams",
              "type": "tuple"
            },
            {
              "components": [
                {
                  "internalType": "uint48",
                  "name": "votingDelay",
                  "type": "uint48"
                },
                {
                  "internalType": "uint32",
                  "name": "votingPeriod",
                  "type": "uint32"
                },
                {
                  "internalType": "uint256",
                  "name": "proposalThreshold",
                  "type": "uint256"
                },
                {
                  "internalType": "uint256",
                  "name": "quorumPercent",
                  "type": "uint256"
                },
                {
                  "internalType": "uint256",
                  "name": "timelockDelay",
                  "type": "uint256"
                },
                {
                  "internalType": "address[]",
                  "name": "guardians",
                  "type": "address[]"
                }
              ],
              "internalType": "struct IGovernanceDeployer.GovParams",
              "name": "tradingGovParams",
              "type": "tuple"
            }
          ],
          "internalType": "struct DeployFolioConfig",
          "name": "config",
          "type": "tuple"
        },
        {
          "internalType": "address",
          "name": "recipient",
          "type": "address"
        },
        {
          "internalType": "bytes32",
          "name": "nonce",
          "type": "bytes32"
        }
      ],
      "name": "executeDeploy",
      "outputs": [
        {
          "components": [
            {
              "internalType": "uint256[]",
              "name": "dust",
              "type": "uint256[]"
            },
            {
              "internalType": "uint256",
              "name": "amountOut",
              "type": "uint256"
            }
          ],
          "internalType": "struct ExecuteDeployOutput",
          "name": "out",
          "type": "tuple"
        }
      ],
      "stateMutability": "payable",
      "type": "function"
    },
    {
      "inputs": [
        {
          "internalType": "uint256",
          "name": "a",
          "type": "uint256"
        },
        {
          "internalType": "uint256",
          "name": "b",
          "type": "uint256"
        },
        {
          "internalType": "uint256",
          "name": "scale",
          "type": "uint256"
        }
      ],
      "name": "fpMul",
      "outputs": [
        {
          "internalType": "uint256",
          "name": "",
          "type": "uint256"
        }
      ],
      "stateMutability": "pure",
      "type": "function"
    },
    {
      "inputs": [
        {
          "internalType": "contract FacadeRead",
          "name": "facade",
          "type": "address"
        },
        {
          "internalType": "contract RToken",
          "name": "token",
          "type": "address"
        },
        {
          "internalType": "address",
          "name": "recipient",
          "type": "address"
        }
      ],
      "name": "mintMaxRToken",
      "outputs": [],
      "stateMutability": "nonpayable",
      "type": "function"
    },
    {
      "inputs": [
        {
          "internalType": "address",
          "name": "to",
          "type": "address"
        },
        {
          "internalType": "uint256",
          "name": "value",
          "type": "uint256"
        },
        {
          "internalType": "bytes",
          "name": "data",
          "type": "bytes"
        }
      ],
      "name": "rawCall",
      "outputs": [
        {
          "internalType": "bool",
          "name": "success",
          "type": "bool"
        },
        {
          "internalType": "bytes",
          "name": "out",
          "type": "bytes"
        }
      ],
      "stateMutability": "nonpayable",
      "type": "function"
    },
    {
      "inputs": [
        {
          "internalType": "uint256",
          "name": "a",
          "type": "uint256"
        },
        {
          "internalType": "uint256",
          "name": "b",
          "type": "uint256"
        }
      ],
      "name": "sub",
      "outputs": [
        {
          "internalType": "uint256",
          "name": "",
          "type": "uint256"
        }
      ],
      "stateMutability": "pure",
      "type": "function"
    },
    {
      "stateMutability": "payable",
      "type": "receive"
    }
  ],
  "transactionHash": "0xb9d421a7742160289371a89bcdc0d834f26a037ccd388e4834d81623fa776673",
  "args": [],
  "numDeployments": 9,
  "solcInputHash": "d5299ae1b5b0f032ab336798e462ee17",
  "bytecode": "0x60a060405234801561001057600080fd5b503073ffffffffffffffffffffffffffffffffffffffff1660808173ffffffffffffffffffffffffffffffffffffffff168152505060805161487061005d600039600050506148706000f3fe60806040526004361061008a5760003560e01c806398a38d7d1161005957806398a38d7d14610169578063ad207fd7146101a7578063b67d77c5146101e4578063d47b0de414610221578063f95641621461025e57610091565b806308c4b49814610096578063298e2c9e146100c6578063771602f71461010357806394919ce81461014057610091565b3661009157005b600080fd5b6100b060048036038101906100ab91906121a8565b61028e565b6040516100bd9190612346565b60405180910390f35b3480156100d257600080fd5b506100ed60048036038101906100e89190612394565b610423565b6040516100fa91906123ef565b60405180910390f35b34801561010f57600080fd5b5061012a60048036038101906101259190612394565b610471565b6040516101379190612419565b60405180910390f35b34801561014c57600080fd5b50610167600480360381019061016291906124dc565b610487565b005b34801561017557600080fd5b50610190600480360381019061018b9190612585565b61057c565b60405161019e929190612678565b60405180910390f35b3480156101b357600080fd5b506101ce60048036038101906101c99190612394565b61066a565b6040516101db91906123ef565b60405180910390f35b3480156101f057600080fd5b5061020b60048036038101906102069190612394565b6106b8565b6040516102189190612419565b60405180910390f35b34801561022d57600080fd5b50610248600480360381019061024391906126a8565b6106ce565b6040516102559190612419565b60405180910390f35b61027860048036038101906102739190613051565b6106f0565b6040516102859190613191565b60405180910390f35b610296611dad565b6000303f90506102a7868686610f7f565b50825167ffffffffffffffff8111156102c3576102c2611e64565b5b6040519080825280602002602001820160405280156102f15781602001602082028036833780820191505090505b50826000018190525060005b83518110156103d057838181518110610319576103186131b3565b5b602002602001015173ffffffffffffffffffffffffffffffffffffffff166370a08231306040518263ffffffff1660e01b815260040161035991906131f1565b602060405180830381865afa158015610376573d6000803e3d6000fd5b505050506040513d601f19601f8201168201806040525081019061039a9190613221565b836000015182815181106103b1576103b06131b3565b5b60200260200101818152505080806103c89061327d565b9150506102fd565b506000303f9050818114610419576040517f08c379a000000000000000000000000000000000000000000000000000000000815260040161041090613348565b60405180910390fd5b5050949350505050565b6000818311610467576040517f08c379a000000000000000000000000000000000000000000000000000000000815260040161045e906133b4565b60405180910390fd5b6001905092915050565b6000818361047f91906133d4565b905092915050565b60008373ffffffffffffffffffffffffffffffffffffffff16631c3debf484306040518363ffffffff1660e01b81526004016104c4929190613467565b6020604051808303816000875af11580156104e3573d6000803e3d6000fd5b505050506040513d601f19601f820116820180604052508101906105079190613221565b90508273ffffffffffffffffffffffffffffffffffffffff16631207f0c183836040518363ffffffff1660e01b8152600401610544929190613490565b600060405180830381600087803b15801561055e57600080fd5b505af1158015610572573d6000803e3d6000fd5b5050505050505050565b600060603073ffffffffffffffffffffffffffffffffffffffff163373ffffffffffffffffffffffffffffffffffffffff16146105ee576040517f08c379a00000000000000000000000000000000000000000000000000000000081526004016105e59061352b565b60405180910390fd5b8573ffffffffffffffffffffffffffffffffffffffff1685858560405161061692919061357b565b60006040518083038185875af1925050503d8060008114610653576040519150601f19603f3d011682016040523d82523d6000602084013e610658565b606091505b50809250819350505094509492505050565b60008183146106ae576040517f08c379a00000000000000000000000000000000000000000000000000000000081526004016106a5906135e0565b60405180910390fd5b6001905092915050565b600081836106c69190613600565b905092915050565b60008183856106dd9190613634565b6106e791906136a5565b90509392505050565b6106f8611dc0565b6000303f9050610709898989610f7f565b5060007fffffffffffffffffffffffffffffffffffffffffffffffffffffffffffffffff905060005b8660200151604001515181101561095857600087602001516040015182815181106107605761075f6131b3565b5b602002602001015173ffffffffffffffffffffffffffffffffffffffff166370a08231306040518263ffffffff1660e01b81526004016107a091906131f1565b602060405180830381865afa1580156107bd573d6000803e3d6000fd5b505050506040513d601f19601f820116820180604052508101906107e19190613221565b905060008103610826576040517f08c379a000000000000000000000000000000000000000000000000000000000815260040161081d90613722565b60405180910390fd5b60008860200151606001518381518110610843576108426131b3565b5b6020026020010151905060008103610890576040517f08c379a00000000000000000000000000000000000000000000000000000000081526004016108879061378e565b60405180910390fd5b600081670de0b6b3a7640000846108a79190613634565b6108b191906136a5565b9050848110156108bf578094505b6108f18a602001516040015185815181106108dd576108dc6131b3565b5b60200260200101518b6000015160006113f8565b6109428a6020015160400151858151811061090f5761090e6131b3565b5b60200260200101518b600001517fffffffffffffffffffffffffffffffffffffffffffffffffffffffffffffffff6113f8565b50505080806109509061327d565b915050610732565b507fffffffffffffffffffffffffffffffffffffffffffffffffffffffffffffffff81036109bb576040517f08c379a00000000000000000000000000000000000000000000000000000000081526004016109b2906137fa565b60405180910390fd5b8086602001516080018181525050856080015115610b8d576000866000015173ffffffffffffffffffffffffffffffffffffffff1663784d48c78860a0015189602001518a604001518b60e001518c61010001518d606001518c6040518863ffffffff1660e01b8152600401610a379796959493929190613c6a565b60c0604051808303816000875af1158015610a56573d6000803e3d6000fd5b505050506040513d601f19601f82011682018060405250810190610a7a9190613d11565b505050505090508073ffffffffffffffffffffffffffffffffffffffff166370a08231306040518263ffffffff1660e01b8152600401610aba91906131f1565b602060405180830381865afa158015610ad7573d6000803e3d6000fd5b505050506040513d601f19601f82011682018060405250810190610afb9190613221565b8460200181815250508073ffffffffffffffffffffffffffffffffffffffff1663a9059cbb8786602001516040518363ffffffff1660e01b8152600401610b43929190613490565b6020604051808303816000875af1158015610b62573d6000803e3d6000fd5b505050506040513d601f19601f82011682018060405250810190610b869190613db3565b5050610d49565b6000866000015173ffffffffffffffffffffffffffffffffffffffff1663fd7d2e4f886020015189604001518a60c001518b60600151600001518c60600151602001518d60600151604001518c6040518863ffffffff1660e01b8152600401610bfc9796959493929190613e4f565b60408051808303816000875af1158015610c1a573d6000803e3d6000fd5b505050506040513d601f19601f82011682018060405250810190610c3e9190613ee1565b5090508073ffffffffffffffffffffffffffffffffffffffff166370a08231306040518263ffffffff1660e01b8152600401610c7a91906131f1565b602060405180830381865afa158015610c97573d6000803e3d6000fd5b505050506040513d601f19601f82011682018060405250810190610cbb9190613221565b8460200181815250508073ffffffffffffffffffffffffffffffffffffffff1663a9059cbb8786602001516040518363ffffffff1660e01b8152600401610d03929190613490565b6020604051808303816000875af1158015610d22573d6000803e3d6000fd5b505050506040513d601f19601f82011682018060405250810190610d469190613db3565b50505b865167ffffffffffffffff811115610d6457610d63611e64565b5b604051908082528060200260200182016040528015610d925781602001602082028036833780820191505090505b50836000018190525060005b8751811015610f2857878181518110610dba57610db96131b3565b5b602002602001015173ffffffffffffffffffffffffffffffffffffffff166370a08231306040518263ffffffff1660e01b8152600401610dfa91906131f1565b602060405180830381865afa158015610e17573d6000803e3d6000fd5b505050506040513d601f19601f82011682018060405250810190610e3b9190613221565b84600001518281518110610e5257610e516131b3565b5b602002602001018181525050878181518110610e7157610e706131b3565b5b602002602001015173ffffffffffffffffffffffffffffffffffffffff1663a9059cbb8786600001518481518110610eac57610eab6131b3565b5b60200260200101516040518363ffffffff1660e01b8152600401610ed1929190613490565b6020604051808303816000875af1158015610ef0573d6000803e3d6000fd5b505050506040513d601f19601f82011682018060405250810190610f149190613db3565b508080610f209061327d565b915050610d9e565b50506000303f9050818114610f72576040517f08c379a0000000000000000000000000000000000000000000000000000000008152600401610f6990613348565b60405180910390fd5b5050979650505050505050565b60606000806000806060600089899050905060005b818110156113e7578a8a82818110610faf57610fae6131b3565b5b905060200201359650602087901b60f81c60ff16955060006080871614610ffd578a8a8280610fdd9061327d565b9350818110610fef57610fee6131b3565b5b905060200201359450611027565b79ffffffffffffffffffffffffffffffffffffffffffffffffffff602888901b60001c1760001b94505b600060038716036110bc578660001c73ffffffffffffffffffffffffffffffffffffffff1661106188878c6115479092919063ffffffff16565b60405161106e9190613f52565b600060405180830381855af49150503d80600081146110a9576040519150601f19603f3d011682016040523d82523d6000602084013e6110ae565b606091505b50809450819550505061133d565b60016003871603611153578660001c73ffffffffffffffffffffffffffffffffffffffff166110f688878c6115479092919063ffffffff16565b6040516111039190613f52565b6000604051808303816000865af19150503d8060008114611140576040519150601f19603f3d011682016040523d82523d6000602084013e611145565b606091505b50809450819550505061133c565b600260038716036111e8578660001c73ffffffffffffffffffffffffffffffffffffffff1661118d88878c6115479092919063ffffffff16565b60405161119a9190613f52565b600060405180830381855afa9150503d80600081146111d5576040519150601f19603f3d011682016040523d82523d6000602084013e6111da565b606091505b50809450819550505061133b565b6003808716036112ff576000808a8760f81c60ff168151811061120e5761120d6131b3565b5b60200260200101519050602081511461125c576040517f08c379a000000000000000000000000000000000000000000000000000000000815260040161125390613fdb565b60405180910390fd5b602081015191508860001c73ffffffffffffffffffffffffffffffffffffffff16826112a08b60ff60088c901b60001c1760001b8f6115479092919063ffffffff16565b6040516112ad9190613f52565b60006040518083038185875af1925050503d80600081146112ea576040519150601f19603f3d011682016040523d82523d6000602084013e6112ef565b606091505b508096508197505050505061133a565b6040517f08c379a000000000000000000000000000000000000000000000000000000000815260040161133190614047565b60405180910390fd5b5b5b5b8361139757600083511115611353576044830192505b808760001c846040517fef3dcb2f00000000000000000000000000000000000000000000000000000000815260040161138e939291906140a0565b60405180910390fd5b600060408716146113c0576113bb605888901b848b6118ab9092919063ffffffff16565b6113dc565b6113d9605888901b848b6119609092919063ffffffff16565b98505b806001019050610f94565b508796505050505050509392505050565b6000811480611482575060008373ffffffffffffffffffffffffffffffffffffffff1663dd62ed3e30856040518363ffffffff1660e01b815260040161143f9291906140de565b602060405180830381865afa15801561145c573d6000803e3d6000fd5b505050506040513d601f19601f820116820180604052508101906114809190613221565b145b6114c1576040517f08c379a00000000000000000000000000000000000000000000000000000000081526004016114b890614179565b60405180910390fd5b6115428363095ea7b360e01b84846040516024016114e0929190613490565b604051602081830303815290604052907bffffffffffffffffffffffffffffffffffffffffffffffffffffffff19166020820180517bffffffffffffffffffffffffffffffffffffffffffffffffffffffff8381831617835250505050611aff565b505050565b606060008060606000805b60208110156116eb5786816020811061156e5761156d6131b3565b5b1a60f81b60f81c60ff16915060ff8203156116eb57600060808316146116695760fe82036115d65760008351036115c257886040516020016115b091906142a5565b60405160208183030381529060405292505b8251856115cf91906133d4565b9450611664565b600089607f8416815181106115ee576115ed6131b3565b5b6020026020010151519050600060208261160891906142c7565b14611648576040517f08c379a000000000000000000000000000000000000000000000000000000000815260040161163f9061436a565b60405180910390fd5b60208161165591906133d4565b8661166091906133d4565b9550505b6116da565b602089607f841681518110611681576116806131b3565b5b602002602001015151146116ca576040517f08c379a00000000000000000000000000000000000000000000000000000000081526004016116c1906143fc565b60405180910390fd5b6020856116d791906133d4565b94505b602084019350806001019050611552565b506004846116f991906133d4565b67ffffffffffffffff81111561171257611711611e64565b5b6040519080825280601f01601f1916602001820160405280156117445781602001600182028036833780820191505090505b5094508660208601526000935060005b602081101561189f578681602081106117705761176f6131b3565b5b1a60f81b60f81c60ff16915060ff82031561189f576000608083161461185e5760fe82036117e75783856024880101526117c7836020886004886117b491906133d4565b602088516117c29190613600565b611bc6565b602083516117d59190613600565b846117e091906133d4565b9350611859565b600089607f8416815181106117ff576117fe6131b3565b5b602002602001015151905084866024890101526118498a607f85168151811061182b5761182a6131b3565b5b602002602001015160008960048961184391906133d4565b85611bc6565b808561185591906133d4565b9450505b61188e565b600089607f841681518110611876576118756131b3565b5b60200260200101519050602081015186602489010152505b602085019450806001019050611754565b50505050509392505050565b60008260f81c60ff16905060ff81036118c4575061195b565b6000602083516118d491906133d4565b67ffffffffffffffff8111156118ed576118ec611e64565b5b6040519080825280601f01601f19166020018201604052801561191f5781602001600182028036833780820191505090505b50858381518110611933576119326131b3565b5b60200260200101819052905061194f8360008360208751611bc6565b82518060208301525050505b505050565b606060008360f81c60ff16905060ff810361197e5784915050611af8565b60006080821614611a1a5760fe81036119ac57828060200190518101906119a59190614541565b9450611a15565b600060208401519050602081146119f8576040517f08c379a00000000000000000000000000000000000000000000000000000000081526004016119ef906145fc565b60405180910390fd5b60208451036020850152602084016020607f841602602088010152505b611af3565b602083511015611a5f576040517f08c379a0000000000000000000000000000000000000000000000000000000008152600401611a5690614668565b60405180910390fd5b602083511115611ad0576000602067ffffffffffffffff811115611a8657611a85611e64565b5b6040519080825280601f01601f191660200182016040528015611ab85781602001600182028036833780820191505090505b509050611acb8460008360008851611bc6565b809350505b8285607f831681518110611ae757611ae66131b3565b5b60200260200101819052505b849150505b9392505050565b6000611b61826040518060400160405280602081526020017f5361666545524332303a206c6f772d6c6576656c2063616c6c206661696c65648152508573ffffffffffffffffffffffffffffffffffffffff16611be09092919063ffffffff16565b9050600081511115611bc15780806020019051810190611b819190613db3565b611bc0576040517f08c379a0000000000000000000000000000000000000000000000000000000008152600401611bb7906146fa565b60405180910390fd5b5b505050565b808260208501018286602089010160045afa505050505050565b6060611bef8484600085611bf8565b90509392505050565b606082471015611c3d576040517f08c379a0000000000000000000000000000000000000000000000000000000008152600401611c349061478c565b60405180910390fd5b6000808673ffffffffffffffffffffffffffffffffffffffff168587604051611c669190613f52565b60006040518083038185875af1925050503d8060008114611ca3576040519150601f19603f3d011682016040523d82523d6000602084013e611ca8565b606091505b5091509150611cb987838387611cc5565b92505050949350505050565b60608315611d27576000835103611d1f57611cdf85611d3a565b611d1e576040517f08c379a0000000000000000000000000000000000000000000000000000000008152600401611d15906147f8565b60405180910390fd5b5b829050611d32565b611d318383611d5d565b5b949350505050565b6000808273ffffffffffffffffffffffffffffffffffffffff163b119050919050565b600082511115611d705781518083602001fd5b806040517f08c379a0000000000000000000000000000000000000000000000000000000008152600401611da49190614818565b60405180910390fd5b6040518060200160405280606081525090565b604051806040016040528060608152602001600081525090565b6000604051905090565b600080fd5b600080fd5b600080fd5b600080fd5b600080fd5b60008083601f840112611e1357611e12611dee565b5b8235905067ffffffffffffffff811115611e3057611e2f611df3565b5b602083019150836020820283011115611e4c57611e4b611df8565b5b9250929050565b6000601f19601f8301169050919050565b7f4e487b7100000000000000000000000000000000000000000000000000000000600052604160045260246000fd5b611e9c82611e53565b810181811067ffffffffffffffff82111715611ebb57611eba611e64565b5b80604052505050565b6000611ece611dda565b9050611eda8282611e93565b919050565b600067ffffffffffffffff821115611efa57611ef9611e64565b5b602082029050602081019050919050565b600080fd5b600067ffffffffffffffff821115611f2b57611f2a611e64565b5b611f3482611e53565b9050602081019050919050565b82818337600083830152505050565b6000611f63611f5e84611f10565b611ec4565b905082815260208101848484011115611f7f57611f7e611f0b565b5b611f8a848285611f41565b509392505050565b600082601f830112611fa757611fa6611dee565b5b8135611fb7848260208601611f50565b91505092915050565b6000611fd3611fce84611edf565b611ec4565b90508083825260208201905060208402830185811115611ff657611ff5611df8565b5b835b8181101561203d57803567ffffffffffffffff81111561201b5761201a611dee565b5b8086016120288982611f92565b85526020850194505050602081019050611ff8565b5050509392505050565b600082601f83011261205c5761205b611dee565b5b813561206c848260208601611fc0565b91505092915050565b600067ffffffffffffffff8211156120905761208f611e64565b5b602082029050602081019050919050565b600073ffffffffffffffffffffffffffffffffffffffff82169050919050565b60006120cc826120a1565b9050919050565b60006120de826120c1565b9050919050565b6120ee816120d3565b81146120f957600080fd5b50565b60008135905061210b816120e5565b92915050565b600061212461211f84612075565b611ec4565b9050808382526020820190506020840283018581111561214757612146611df8565b5b835b81811015612170578061215c88826120fc565b845260208401935050602081019050612149565b5050509392505050565b600082601f83011261218f5761218e611dee565b5b813561219f848260208601612111565b91505092915050565b600080600080606085870312156121c2576121c1611de4565b5b600085013567ffffffffffffffff8111156121e0576121df611de9565b5b6121ec87828801611dfd565b9450945050602085013567ffffffffffffffff81111561220f5761220e611de9565b5b61221b87828801612047565b925050604085013567ffffffffffffffff81111561223c5761223b611de9565b5b6122488782880161217a565b91505092959194509250565b600081519050919050565b600082825260208201905092915050565b6000819050602082019050919050565b6000819050919050565b61229381612280565b82525050565b60006122a5838361228a565b60208301905092915050565b6000602082019050919050565b60006122c982612254565b6122d3818561225f565b93506122de83612270565b8060005b8381101561230f5781516122f68882612299565b9750612301836122b1565b9250506001810190506122e2565b5085935050505092915050565b6000602083016000830151848203600086015261233982826122be565b9150508091505092915050565b60006020820190508181036000830152612360818461231c565b905092915050565b61237181612280565b811461237c57600080fd5b50565b60008135905061238e81612368565b92915050565b600080604083850312156123ab576123aa611de4565b5b60006123b98582860161237f565b92505060206123ca8582860161237f565b9150509250929050565b60008115159050919050565b6123e9816123d4565b82525050565b600060208201905061240460008301846123e0565b92915050565b61241381612280565b82525050565b600060208201905061242e600083018461240a565b92915050565b600061243f826120c1565b9050919050565b61244f81612434565b811461245a57600080fd5b50565b60008135905061246c81612446565b92915050565b600061247d826120c1565b9050919050565b61248d81612472565b811461249857600080fd5b50565b6000813590506124aa81612484565b92915050565b6124b9816120c1565b81146124c457600080fd5b50565b6000813590506124d6816124b0565b92915050565b6000806000606084860312156124f5576124f4611de4565b5b60006125038682870161245d565b93505060206125148682870161249b565b9250506040612525868287016124c7565b9150509250925092565b60008083601f84011261254557612544611dee565b5b8235905067ffffffffffffffff81111561256257612561611df3565b5b60208301915083600182028301111561257e5761257d611df8565b5b9250929050565b6000806000806060858703121561259f5761259e611de4565b5b60006125ad878288016124c7565b94505060206125be8782880161237f565b935050604085013567ffffffffffffffff8111156125df576125de611de9565b5b6125eb8782880161252f565b925092505092959194509250565b600081519050919050565b600082825260208201905092915050565b60005b83811015612633578082015181840152602081019050612618565b60008484015250505050565b600061264a826125f9565b6126548185612604565b9350612664818560208601612615565b61266d81611e53565b840191505092915050565b600060408201905061268d60008301856123e0565b818103602083015261269f818461263f565b90509392505050565b6000806000606084860312156126c1576126c0611de4565b5b60006126cf8682870161237f565b93505060206126e08682870161237f565b92505060406126f18682870161237f565b9150509250925092565b600080fd5b600080fd5b600067ffffffffffffffff8211156127205761271f611e64565b5b61272982611e53565b9050602081019050919050565b600061274961274484612705565b611ec4565b90508281526020810184848401111561276557612764611f0b565b5b612770848285611f41565b509392505050565b600082601f83011261278d5761278c611dee565b5b813561279d848260208601612736565b91505092915050565b600067ffffffffffffffff8211156127c1576127c0611e64565b5b602082029050602081019050919050565b60006127e56127e0846127a6565b611ec4565b9050808382526020820190506020840283018581111561280857612807611df8565b5b835b81811015612831578061281d88826124c7565b84526020840193505060208101905061280a565b5050509392505050565b600082601f8301126128505761284f611dee565b5b81356128608482602086016127d2565b91505092915050565b600067ffffffffffffffff82111561288457612883611e64565b5b602082029050602081019050919050565b60006128a86128a384612869565b611ec4565b905080838252602082019050602084028301858111156128cb576128ca611df8565b5b835b818110156128f457806128e0888261237f565b8452602084019350506020810190506128cd565b5050509392505050565b600082601f83011261291357612912611dee565b5b8135612923848260208601612895565b91505092915050565b600060a08284031215612942576129416126fb565b5b61294c60a0611ec4565b9050600082013567ffffffffffffffff81111561296c5761296b612700565b5b61297884828501612778565b600083015250602082013567ffffffffffffffff81111561299c5761299b612700565b5b6129a884828501612778565b602083015250604082013567ffffffffffffffff8111156129cc576129cb612700565b5b6129d88482850161283b565b604083015250606082013567ffffffffffffffff8111156129fc576129fb612700565b5b612a08848285016128fe565b6060830152506080612a1c8482850161237f565b60808301525092915050565b600067ffffffffffffffff821115612a4357612a42611e64565b5b602082029050602081019050919050565b60006bffffffffffffffffffffffff82169050919050565b612a7581612a54565b8114612a8057600080fd5b50565b600081359050612a9281612a6c565b92915050565b600060408284031215612aae57612aad6126fb565b5b612ab86040611ec4565b90506000612ac8848285016124c7565b6000830152506020612adc84828501612a83565b60208301525092915050565b6000612afb612af684612a28565b611ec4565b90508083825260208201905060408402830185811115612b1e57612b1d611df8565b5b835b81811015612b475780612b338882612a98565b845260208401935050604081019050612b20565b5050509392505050565b600082601f830112612b6657612b65611dee565b5b8135612b76848260208601612ae8565b91505092915050565b600060c08284031215612b9557612b946126fb565b5b612b9f60c0611ec4565b90506000612baf8482850161237f565b6000830152506020612bc38482850161237f565b602083015250604082013567ffffffffffffffff811115612be757612be6612700565b5b612bf384828501612b51565b6040830152506060612c078482850161237f565b6060830152506080612c1b8482850161237f565b60808301525060a082013567ffffffffffffffff811115612c3f57612c3e612700565b5b612c4b84828501612778565b60a08301525092915050565b600060608284031215612c6d57612c6c6126fb565b5b612c776060611ec4565b9050600082013567ffffffffffffffff811115612c9757612c96612700565b5b612ca38482850161283b565b600083015250602082013567ffffffffffffffff811115612cc757612cc6612700565b5b612cd38482850161283b565b602083015250604082013567ffffffffffffffff811115612cf757612cf6612700565b5b612d038482850161283b565b60408301525092915050565b612d18816123d4565b8114612d2357600080fd5b50565b600081359050612d3581612d0f565b92915050565b6000612d46826120c1565b9050919050565b612d5681612d3b565b8114612d6157600080fd5b50565b600081359050612d7381612d4d565b92915050565b600065ffffffffffff82169050919050565b612d9481612d79565b8114612d9f57600080fd5b50565b600081359050612db181612d8b565b92915050565b600063ffffffff82169050919050565b612dd081612db7565b8114612ddb57600080fd5b50565b600081359050612ded81612dc7565b92915050565b600060c08284031215612e0957612e086126fb565b5b612e1360c0611ec4565b90506000612e2384828501612da2565b6000830152506020612e3784828501612dde565b6020830152506040612e4b8482850161237f565b6040830152506060612e5f8482850161237f565b6060830152506080612e738482850161237f565b60808301525060a082013567ffffffffffffffff811115612e9757612e96612700565b5b612ea38482850161283b565b60a08301525092915050565b60006101208284031215612ec657612ec56126fb565b5b612ed1610120611ec4565b90506000612ee1848285016124c7565b600083015250602082013567ffffffffffffffff811115612f0557612f04612700565b5b612f118482850161292c565b602083015250604082013567ffffffffffffffff811115612f3557612f34612700565b5b612f4184828501612b7f565b604083015250606082013567ffffffffffffffff811115612f6557612f64612700565b5b612f7184828501612c57565b6060830152506080612f8584828501612d26565b60808301525060a0612f9984828501612d64565b60a08301525060c0612fad848285016124c7565b60c08301525060e082013567ffffffffffffffff811115612fd157612fd0612700565b5b612fdd84828501612df3565b60e08301525061010082013567ffffffffffffffff81111561300257613001612700565b5b61300e84828501612df3565b6101008301525092915050565b6000819050919050565b61302e8161301b565b811461303957600080fd5b50565b60008135905061304b81613025565b92915050565b600080600080600080600060c0888a0312156130705761306f611de4565b5b600088013567ffffffffffffffff81111561308e5761308d611de9565b5b61309a8a828b01611dfd565b9750975050602088013567ffffffffffffffff8111156130bd576130bc611de9565b5b6130c98a828b01612047565b955050604088013567ffffffffffffffff8111156130ea576130e9611de9565b5b6130f68a828b0161217a565b945050606088013567ffffffffffffffff81111561311757613116611de9565b5b6131238a828b01612eaf565b93505060806131348a828b016124c7565b92505060a06131458a828b0161303c565b91505092959891949750929550565b6000604083016000830151848203600086015261317182826122be565b9150506020830151613186602086018261228a565b508091505092915050565b600060208201905081810360008301526131ab8184613154565b905092915050565b7f4e487b7100000000000000000000000000000000000000000000000000000000600052603260045260246000fd5b6131eb816120c1565b82525050565b600060208201905061320660008301846131e2565b92915050565b60008151905061321b81612368565b92915050565b60006020828403121561323757613236611de4565b5b60006132458482850161320c565b91505092915050565b7f4e487b7100000000000000000000000000000000000000000000000000000000600052601160045260246000fd5b600061328882612280565b91507fffffffffffffffffffffffffffffffffffffffffffffffffffffffffffffffff82036132ba576132b961324e565b5b600182019050919050565b600082825260208201905092915050565b7f50726576656e7454616d706572696e673a20436f646520686173206368616e6760008201527f6564000000000000000000000000000000000000000000000000000000000000602082015250565b60006133326022836132c5565b915061333d826132d6565b604082019050919050565b6000602082019050818103600083015261336181613325565b9050919050565b7f214153534552545f475400000000000000000000000000000000000000000000600082015250565b600061339e600a836132c5565b91506133a982613368565b602082019050919050565b600060208201905081810360008301526133cd81613391565b9050919050565b60006133df82612280565b91506133ea83612280565b92508282019050808211156134025761340161324e565b5b92915050565b6000819050919050565b600061342d613428613423846120a1565b613408565b6120a1565b9050919050565b600061343f82613412565b9050919050565b600061345182613434565b9050919050565b61346181613446565b82525050565b600060408201905061347c6000830185613458565b61348960208301846131e2565b9392505050565b60006040820190506134a560008301856131e2565b6134b2602083018461240a565b9392505050565b7f5a61707065724578656375746f723a204f6e6c792063616c6c61626c6520627960008201527f205a617070657200000000000000000000000000000000000000000000000000602082015250565b60006135156027836132c5565b9150613520826134b9565b604082019050919050565b6000602082019050818103600083015261354481613508565b9050919050565b600081905092915050565b6000613562838561354b565b935061356f838584611f41565b82840190509392505050565b6000613588828486613556565b91508190509392505050565b7f214153534552545f455100000000000000000000000000000000000000000000600082015250565b60006135ca600a836132c5565b91506135d582613594565b602082019050919050565b600060208201905081810360008301526135f9816135bd565b9050919050565b600061360b82612280565b915061361683612280565b925082820390508181111561362e5761362d61324e565b5b92915050565b600061363f82612280565b915061364a83612280565b925082820261365881612280565b9150828204841483151761366f5761366e61324e565b5b5092915050565b7f4e487b7100000000000000000000000000000000000000000000000000000000600052601260045260246000fd5b60006136b082612280565b91506136bb83612280565b9250826136cb576136ca613676565b5b828204905092915050565b7f5a45524f2042414c414e43450000000000000000000000000000000000000000600082015250565b600061370c600c836132c5565b9150613717826136d6565b602082019050919050565b6000602082019050818103600083015261373b816136ff565b9050919050565b7f5a45524f205155414e5449545900000000000000000000000000000000000000600082015250565b6000613778600d836132c5565b915061378382613742565b602082019050919050565b600060208201905081810360008301526137a78161376b565b9050919050565b7f4e4f205348415245530000000000000000000000000000000000000000000000600082015250565b60006137e46009836132c5565b91506137ef826137ae565b602082019050919050565b60006020820190508181036000830152613813816137d7565b9050919050565b600061382582613434565b9050919050565b6138358161381a565b82525050565b600081519050919050565b600082825260208201905092915050565b60006138628261383b565b61386c8185613846565b935061387c818560208601612615565b61388581611e53565b840191505092915050565b600081519050919050565b600082825260208201905092915050565b6000819050602082019050919050565b6138c5816120c1565b82525050565b60006138d783836138bc565b60208301905092915050565b6000602082019050919050565b60006138fb82613890565b613905818561389b565b9350613910836138ac565b8060005b8381101561394157815161392888826138cb565b9750613933836138e3565b925050600181019050613914565b5085935050505092915050565b600060a083016000830151848203600086015261396b8282613857565b915050602083015184820360208601526139858282613857565b9150506040830151848203604086015261399f82826138f0565b915050606083015184820360608601526139b982826122be565b91505060808301516139ce608086018261228a565b508091505092915050565b600081519050919050565b600082825260208201905092915050565b6000819050602082019050919050565b613a0e81612a54565b82525050565b604082016000820151613a2a60008501826138bc565b506020820151613a3d6020850182613a05565b50505050565b6000613a4f8383613a14565b60408301905092915050565b6000602082019050919050565b6000613a73826139d9565b613a7d81856139e4565b9350613a88836139f5565b8060005b83811015613ab9578151613aa08882613a43565b9750613aab83613a5b565b925050600181019050613a8c565b5085935050505092915050565b600060c083016000830151613ade600086018261228a565b506020830151613af1602086018261228a565b5060408301518482036040860152613b098282613a68565b9150506060830151613b1e606086018261228a565b506080830151613b31608086018261228a565b5060a083015184820360a0860152613b498282613857565b9150508091505092915050565b613b5f81612d79565b82525050565b613b6e81612db7565b82525050565b600060c083016000830151613b8c6000860182613b56565b506020830151613b9f6020860182613b65565b506040830151613bb2604086018261228a565b506060830151613bc5606086018261228a565b506080830151613bd8608086018261228a565b5060a083015184820360a0860152613bf082826138f0565b9150508091505092915050565b60006060830160008301518482036000860152613c1a82826138f0565b91505060208301518482036020860152613c3482826138f0565b91505060408301518482036040860152613c4e82826138f0565b9150508091505092915050565b613c648161301b565b82525050565b600060e082019050613c7f600083018a61382c565b8181036020830152613c91818961394e565b90508181036040830152613ca58188613ac6565b90508181036060830152613cb98187613b74565b90508181036080830152613ccd8186613b74565b905081810360a0830152613ce18185613bfd565b9050613cf060c0830184613c5b565b98975050505050505050565b600081519050613d0b816124b0565b92915050565b60008060008060008060c08789031215613d2e57613d2d611de4565b5b6000613d3c89828a01613cfc565b9650506020613d4d89828a01613cfc565b9550506040613d5e89828a01613cfc565b9450506060613d6f89828a01613cfc565b9350506080613d8089828a01613cfc565b92505060a0613d9189828a01613cfc565b9150509295509295509295565b600081519050613dad81612d0f565b92915050565b600060208284031215613dc957613dc8611de4565b5b6000613dd784828501613d9e565b91505092915050565b600082825260208201905092915050565b6000613dfc82613890565b613e068185613de0565b9350613e11836138ac565b8060005b83811015613e42578151613e2988826138cb565b9750613e34836138e3565b925050600181019050613e15565b5085935050505092915050565b600060e0820190508181036000830152613e69818a61394e565b90508181036020830152613e7d8189613ac6565b9050613e8c60408301886131e2565b8181036060830152613e9e8187613df1565b90508181036080830152613eb28186613df1565b905081810360a0830152613ec68185613df1565b9050613ed560c0830184613c5b565b98975050505050505050565b60008060408385031215613ef857613ef7611de4565b5b6000613f0685828601613cfc565b9250506020613f1785828601613cfc565b9150509250929050565b6000613f2c826125f9565b613f36818561354b565b9350613f46818560208601612615565b80840191505092915050565b6000613f5e8284613f21565b915081905092915050565b7f5f657865637574653a2076616c75652063616c6c20686173206e6f2076616c7560008201527f6520696e646963617465642e0000000000000000000000000000000000000000602082015250565b6000613fc5602c836132c5565b9150613fd082613f69565b604082019050919050565b60006020820190508181036000830152613ff481613fb8565b9050919050565b7f496e76616c69642063616c6c7479706500000000000000000000000000000000600082015250565b60006140316010836132c5565b915061403c82613ffb565b602082019050919050565b6000602082019050818103600083015261406081614024565b9050919050565b60006140728261383b565b61407c81856132c5565b935061408c818560208601612615565b61409581611e53565b840191505092915050565b60006060820190506140b5600083018661240a565b6140c260208301856131e2565b81810360408301526140d48184614067565b9050949350505050565b60006040820190506140f360008301856131e2565b61410060208301846131e2565b9392505050565b7f5361666545524332303a20617070726f76652066726f6d206e6f6e2d7a65726f60008201527f20746f206e6f6e2d7a65726f20616c6c6f77616e636500000000000000000000602082015250565b60006141636036836132c5565b915061416e82614107565b604082019050919050565b6000602082019050818103600083015261419281614156565b9050919050565b600081519050919050565b600082825260208201905092915050565b6000819050602082019050919050565b600082825260208201905092915050565b60006141e1826125f9565b6141eb81856141c5565b93506141fb818560208601612615565b61420481611e53565b840191505092915050565b600061421b83836141d6565b905092915050565b6000602082019050919050565b600061423b82614199565b61424581856141a4565b935083602082028501614257856141b5565b8060005b858110156142935784840389528151614274858261420f565b945061427f83614223565b925060208a0199505060018101905061425b565b50829750879550505050505092915050565b600060208201905081810360008301526142bf8184614230565b905092915050565b60006142d282612280565b91506142dd83612280565b9250826142ed576142ec613676565b5b828206905092915050565b7f44796e616d6963207374617465207661726961626c6573206d7573742062652060008201527f61206d756c7469706c65206f6620333220627974657300000000000000000000602082015250565b60006143546036836132c5565b915061435f826142f8565b604082019050919050565b6000602082019050818103600083015261438381614347565b9050919050565b7f537461746963207374617465207661726961626c6573206d757374206265203360008201527f3220627974657300000000000000000000000000000000000000000000000000602082015250565b60006143e66027836132c5565b91506143f18261438a565b604082019050919050565b60006020820190508181036000830152614415816143d9565b9050919050565b600061442f61442a84611f10565b611ec4565b90508281526020810184848401111561444b5761444a611f0b565b5b614456848285612615565b509392505050565b600082601f83011261447357614472611dee565b5b815161448384826020860161441c565b91505092915050565b600061449f61449a84611edf565b611ec4565b905080838252602082019050602084028301858111156144c2576144c1611df8565b5b835b8181101561450957805167ffffffffffffffff8111156144e7576144e6611dee565b5b8086016144f4898261445e565b855260208501945050506020810190506144c4565b5050509392505050565b600082601f83011261452857614527611dee565b5b815161453884826020860161448c565b91505092915050565b60006020828403121561455757614556611de4565b5b600082015167ffffffffffffffff81111561457557614574611de9565b5b61458184828501614513565b91505092915050565b7f4f6e6c79206f6e652072657475726e2076616c7565207065726d69747465642060008201527f287661726961626c652900000000000000000000000000000000000000000000602082015250565b60006145e6602a836132c5565b91506145f18261458a565b604082019050919050565b60006020820190508181036000830152614615816145d9565b9050919050565b7f52657475726e206174206c656173742033322062797465730000000000000000600082015250565b60006146526018836132c5565b915061465d8261461c565b602082019050919050565b6000602082019050818103600083015261468181614645565b9050919050565b7f5361666545524332303a204552433230206f7065726174696f6e20646964206e60008201527f6f74207375636365656400000000000000000000000000000000000000000000602082015250565b60006146e4602a836132c5565b91506146ef82614688565b604082019050919050565b60006020820190508181036000830152614713816146d7565b9050919050565b7f416464726573733a20696e73756666696369656e742062616c616e636520666f60008201527f722063616c6c0000000000000000000000000000000000000000000000000000602082015250565b60006147766026836132c5565b91506147818261471a565b604082019050919050565b600060208201905081810360008301526147a581614769565b9050919050565b7f416464726573733a2063616c6c20746f206e6f6e2d636f6e7472616374000000600082015250565b60006147e2601d836132c5565b91506147ed826147ac565b602082019050919050565b60006020820190508181036000830152614811816147d5565b9050919050565b600060208201905081810360008301526148328184614067565b90509291505056fea2646970667358221220dc6eba580308a180b13164cefb2a3a89065723e3d6542a635e304bc6995043a764736f6c63430008110033",
  "devdoc": {
    "kind": "dev",
    "methods": {
      "execute(bytes32[],bytes[],address[])": {
        "details": "Main endpoint to call",
        "params": {
          "commands": "- Weiroll code to execute",
          "state": "- Intiaial Weiroll state to use",
          "tokens": "- All tokens used by the Zap in order to calculate dust"
        }
      },
      "mintMaxRToken(address,address,address)": {
        "details": "Utility for minting max amount of rToken. Should only be used off-chain to calculate the exact amount of an rToken that can be minted",
        "params": {
          "recipient": "- Recipient of the rToken",
          "token": "- rToken to mint"
        }
      },
      "rawCall(address,uint256,bytes)": {
        "details": "Workaround for weiroll not supporting a way to make untyped calls.",
        "params": {
          "data": "- Data to send",
          "to": "- Address to call",
          "value": "- Amount of ETH to send"
        }
      }
    },
    "version": 1
  },
  "userdoc": {
    "kind": "user",
    "methods": {},
    "version": 1
  },
  "storageLayout": {
    "storage": [],
    "types": null
  }
}