{
  "address": "0xCe7cb4178B1EF36Cc5ecb72750E8d475568516c1",
  "abi": [
    {
      "inputs": [
        {
          "internalType": "contract IWrappedNative",
          "name": "wrappedNative_",
          "type": "address"
        },
        {
          "internalType": "contract ZapperExecutor",
          "name": "executor_",
          "type": "address"
        }
      ],
      "stateMutability": "nonpayable",
      "type": "constructor"
    },
    {
      "inputs": [
        {
          "components": [
            {
              "internalType": "address",
              "name": "tokenIn",
              "type": "address"
            },
            {
              "internalType": "uint256",
              "name": "amountIn",
              "type": "uint256"
            },
            {
              "internalType": "bytes32[]",
              "name": "commands",
              "type": "bytes32[]"
            },
            {
              "internalType": "bytes[]",
              "name": "state",
              "type": "bytes[]"
            },
            {
              "internalType": "contract IERC20[]",
              "name": "tokens",
              "type": "address[]"
            },
            {
              "internalType": "uint256",
              "name": "amountOut",
              "type": "uint256"
            },
            {
              "internalType": "address",
              "name": "tokenOut",
              "type": "address"
            },
            {
              "internalType": "address",
              "name": "recipient",
              "type": "address"
            }
          ],
          "internalType": "struct ZapParams",
          "name": "params",
          "type": "tuple"
        }
      ],
      "name": "zap",
      "outputs": [
        {
          "components": [
            {
              "internalType": "uint256[]",
              "name": "dust",
              "type": "uint256[]"
            },
            {
              "internalType": "uint256",
              "name": "amountOut",
              "type": "uint256"
            },
            {
              "internalType": "uint256",
              "name": "gasUsed",
              "type": "uint256"
            }
          ],
          "internalType": "struct ZapperOutput",
          "name": "",
          "type": "tuple"
        }
      ],
      "stateMutability": "payable",
      "type": "function"
    },
    {
      "inputs": [
        {
          "components": [
            {
              "internalType": "address",
              "name": "tokenIn",
              "type": "address"
            },
            {
              "internalType": "uint256",
              "name": "amountIn",
              "type": "uint256"
            },
            {
              "internalType": "bytes32[]",
              "name": "commands",
              "type": "bytes32[]"
            },
            {
              "internalType": "bytes[]",
              "name": "state",
              "type": "bytes[]"
            },
            {
              "internalType": "contract IERC20[]",
              "name": "tokens",
              "type": "address[]"
            },
            {
              "internalType": "uint256",
              "name": "amountOut",
              "type": "uint256"
            },
            {
              "internalType": "address",
              "name": "tokenOut",
              "type": "address"
            },
            {
              "internalType": "address",
              "name": "recipient",
              "type": "address"
            }
          ],
          "internalType": "struct ZapParams",
          "name": "params",
          "type": "tuple"
        }
      ],
      "name": "zapDeploy",
      "outputs": [
        {
          "components": [
            {
              "internalType": "uint256[]",
              "name": "dust",
              "type": "uint256[]"
            },
            {
              "internalType": "uint256",
              "name": "amountOut",
              "type": "uint256"
            },
            {
              "internalType": "uint256",
              "name": "gasUsed",
              "type": "uint256"
            }
          ],
          "internalType": "struct ZapperOutput",
          "name": "",
          "type": "tuple"
        }
      ],
      "stateMutability": "payable",
      "type": "function"
    },
    {
      "inputs": [
        {
          "components": [
            {
              "internalType": "contract IERC20",
              "name": "tokenIn",
              "type": "address"
            },
            {
              "internalType": "uint256",
              "name": "amountIn",
              "type": "uint256"
            },
            {
              "internalType": "bytes32[]",
              "name": "commands",
              "type": "bytes32[]"
            },
            {
              "internalType": "bytes[]",
              "name": "state",
              "type": "bytes[]"
            },
            {
              "internalType": "contract IERC20[]",
              "name": "tokens",
              "type": "address[]"
            },
            {
              "internalType": "uint256",
              "name": "amountOut",
              "type": "uint256"
            },
            {
              "internalType": "contract IERC20",
              "name": "tokenOut",
              "type": "address"
            }
          ],
          "internalType": "struct ZapERC20Params",
          "name": "params",
          "type": "tuple"
        }
      ],
      "name": "zapERC20",
      "outputs": [
        {
          "components": [
            {
              "internalType": "uint256[]",
              "name": "dust",
              "type": "uint256[]"
            },
            {
              "internalType": "uint256",
              "name": "amountOut",
              "type": "uint256"
            },
            {
              "internalType": "uint256",
              "name": "gasUsed",
              "type": "uint256"
            }
          ],
          "internalType": "struct ZapperOutput",
          "name": "",
          "type": "tuple"
        }
      ],
      "stateMutability": "nonpayable",
      "type": "function"
    },
    {
      "inputs": [
        {
          "components": [
            {
              "internalType": "contract IERC20",
              "name": "tokenIn",
              "type": "address"
            },
            {
              "internalType": "uint256",
              "name": "amountIn",
              "type": "uint256"
            },
            {
              "internalType": "bytes32[]",
              "name": "commands",
              "type": "bytes32[]"
            },
            {
              "internalType": "bytes[]",
              "name": "state",
              "type": "bytes[]"
            },
            {
              "internalType": "contract IERC20[]",
              "name": "tokens",
              "type": "address[]"
            },
            {
              "internalType": "uint256",
              "name": "amountOut",
              "type": "uint256"
            },
            {
              "internalType": "contract IERC20",
              "name": "tokenOut",
              "type": "address"
            }
          ],
          "internalType": "struct ZapERC20Params",
          "name": "params",
          "type": "tuple"
        }
      ],
      "name": "zapETH",
      "outputs": [
        {
          "components": [
            {
              "internalType": "uint256[]",
              "name": "dust",
              "type": "uint256[]"
            },
            {
              "internalType": "uint256",
              "name": "amountOut",
              "type": "uint256"
            },
            {
              "internalType": "uint256",
              "name": "gasUsed",
              "type": "uint256"
            }
          ],
          "internalType": "struct ZapperOutput",
          "name": "",
          "type": "tuple"
        }
      ],
      "stateMutability": "payable",
      "type": "function"
    },
    {
      "inputs": [
        {
          "components": [
            {
              "internalType": "contract IERC20",
              "name": "tokenIn",
              "type": "address"
            },
            {
              "internalType": "uint256",
              "name": "amountIn",
              "type": "uint256"
            },
            {
              "internalType": "bytes32[]",
              "name": "commands",
              "type": "bytes32[]"
            },
            {
              "internalType": "bytes[]",
              "name": "state",
              "type": "bytes[]"
            },
            {
              "internalType": "contract IERC20[]",
              "name": "tokens",
              "type": "address[]"
            },
            {
              "internalType": "uint256",
              "name": "amountOut",
              "type": "uint256"
            },
            {
              "internalType": "contract IERC20",
              "name": "tokenOut",
              "type": "address"
            }
          ],
          "internalType": "struct ZapERC20Params",
          "name": "params",
          "type": "tuple"
        }
      ],
      "name": "zapToETH",
      "outputs": [
        {
          "components": [
            {
              "internalType": "uint256[]",
              "name": "dust",
              "type": "uint256[]"
            },
            {
              "internalType": "uint256",
              "name": "amountOut",
              "type": "uint256"
            },
            {
              "internalType": "uint256",
              "name": "gasUsed",
              "type": "uint256"
            }
          ],
          "internalType": "struct ZapperOutput",
          "name": "",
          "type": "tuple"
        }
      ],
      "stateMutability": "payable",
      "type": "function"
    },
    {
      "stateMutability": "payable",
      "type": "receive"
    }
  ],
  "transactionHash": "0x9c98a06117ba50b5e01c477d35e3b5b6baab2265a4b929590c6925104bba7b3d",
  "args": [
    "0x4200000000000000000000000000000000000006",
    "0x9702a1934929557ee94a0BF446F29106a71b52F3"
  ],
  "numDeployments": 1,
  "solcInputHash": "704d79ce9d8f5032ebf99bc1ba56203d",
  "bytecode": "0x60c06040523480156200001157600080fd5b506040516200249d3803806200249d833981810160405281019062000037919062000186565b60016000819055508173ffffffffffffffffffffffffffffffffffffffff1660808173ffffffffffffffffffffffffffffffffffffffff16815250508073ffffffffffffffffffffffffffffffffffffffff1660a08173ffffffffffffffffffffffffffffffffffffffff16815250505050620001cd565b600080fd5b600073ffffffffffffffffffffffffffffffffffffffff82169050919050565b6000620000e182620000b4565b9050919050565b6000620000f582620000d4565b9050919050565b6200010781620000e8565b81146200011357600080fd5b50565b6000815190506200012781620000fc565b92915050565b60006200013a82620000b4565b9050919050565b60006200014e826200012d565b9050919050565b620001608162000141565b81146200016c57600080fd5b50565b600081519050620001808162000155565b92915050565b60008060408385031215620001a0576200019f620000af565b5b6000620001b08582860162000116565b9250506020620001c3858286016200016f565b9150509250929050565b60805160a05161229c62000201600039600081816103cb01526103f101526000818161088e0152610912015261229c6000f3fe60806040526004361061004e5760003560e01c80630ea3694c1461005a5780633e86ff701461008a5780638e0a8e9d146100ba578063ceba504d146100f7578063dd074ea01461012757610055565b3661005557005b600080fd5b610074600480360381019061006f9190610d3b565b610157565b6040516100819190610e9c565b60405180910390f35b6100a4600480360381019061009f9190610d3b565b6101ac565b6040516100b19190610e9c565b60405180910390f35b3480156100c657600080fd5b506100e160048036038101906100dc9190610edd565b610212565b6040516100ee9190610e9c565b60405180910390f35b610111600480360381019061010c9190610edd565b61023a565b60405161011e9190610e9c565b60405180910390f35b610141600480360381019061013c9190610edd565b610262565b60405161014e9190610e9c565b60405180910390f35b61015f610ce1565b61016761028a565b60005a90506101878360c00160208101906101829190610f84565b6102d9565b61019c836101949061152b565b600083610326565b9150506101a7610583565b919050565b6101b4610ce1565b6101bc61028a565b60005a9050610202836101ce9061152b565b6101fc8560c00160208101906101e49190610f84565b8660e00160208101906101f79190610f84565b61058d565b83610326565b91505061020d610583565b919050565b61021a610ce1565b61022261028a565b61022b82610664565b9050610235610583565b919050565b610242610ce1565b61024a61028a565b61025382610664565b905061025d610583565b919050565b61026a610ce1565b61027261028a565b61027b82610664565b9050610285610583565b919050565b6002600054036102cf576040517f08c379a00000000000000000000000000000000000000000000000000000000081526004016102c69061159b565b60405180910390fd5b6002600081905550565b6000813b905060008114610322576040517f08c379a000000000000000000000000000000000000000000000000000000000815260040161031990611607565b60405180910390fd5b5050565b61032e610ce1565b6000846020015103610375576040517f08c379a000000000000000000000000000000000000000000000000000000000815260040161036c90611673565b60405180910390fd5b60008460a00151036103bc576040517f08c379a00000000000000000000000000000000000000000000000000000000081526004016103b3906116df565b60405180910390fd5b6103ef846000015185602001517f0000000000000000000000000000000000000000000000000000000000000000610804565b7f000000000000000000000000000000000000000000000000000000000000000073ffffffffffffffffffffffffffffffffffffffff166308c4b4988560400151866060015187608001516040518463ffffffff1660e01b815260040161045893929190611a0c565b6000604051808303816000875af1158015610477573d6000803e3d6000fd5b505050506040513d6000823e3d601f19601f820116820180604052508101906104a09190611b88565b60000151816000018190525060006104c08560c001518660e0015161058d565b9050838111610504576040517f08c379a00000000000000000000000000000000000000000000000000000000081526004016104fb90611c1d565b60405180910390fd5b600084826105129190611c6c565b90508560a0015181101561055b576040517f08c379a000000000000000000000000000000000000000000000000000000000815260040161055290611cec565b60405180910390fd5b808360200181815250505a846105719190611c6c565b83604001818152505050509392505050565b6001600081905550565b60008073ffffffffffffffffffffffffffffffffffffffff168373ffffffffffffffffffffffffffffffffffffffff1614610643578273ffffffffffffffffffffffffffffffffffffffff166370a08231836040518263ffffffff1660e01b81526004016105fb9190611d1b565b602060405180830381865afa158015610618573d6000803e3d6000fd5b505050506040513d601f19601f8201168201806040525081019061063c9190611d36565b905061065e565b8173ffffffffffffffffffffffffffffffffffffffff163190505b92915050565b61066c610ce1565b60005a905060006040518061010001604052808560000160208101906106929190611d63565b73ffffffffffffffffffffffffffffffffffffffff168152602001856020013581526020018580604001906106c79190611d9f565b80806020026020016040519081016040528093929190818152602001838360200280828437600081840152601f19601f82011690508083019250505050505050815260200185806060019061071c9190611e02565b906107279190611e65565b815260200185806080019061073c9190611e7a565b80806020026020016040519081016040528093929190818152602001838360200280828437600081840152601f19601f8201169050808301925050505050505081526020018560a0013581526020018560c001602081019061079e9190611d63565b73ffffffffffffffffffffffffffffffffffffffff1681526020013373ffffffffffffffffffffffffffffffffffffffff1681525090506107fb816107f58660c00160208101906107ef9190611d63565b3361058d565b84610326565b92505050919050565b600073ffffffffffffffffffffffffffffffffffffffff168373ffffffffffffffffffffffffffffffffffffffff1614610849576108448333838561093e565b610939565b8134101561088c576040517f08c379a000000000000000000000000000000000000000000000000000000000815260040161088390611f29565b60405180910390fd5b7f000000000000000000000000000000000000000000000000000000000000000073ffffffffffffffffffffffffffffffffffffffff1663d0e30db0836040518263ffffffff1660e01b81526004016000604051808303818588803b1580156108f457600080fd5b505af1158015610908573d6000803e3d6000fd5b50505050506109387f000000000000000000000000000000000000000000000000000000000000000082846109c7565b5b505050565b6109c1846323b872dd60e01b85858560405160240161095f93929190611f58565b604051602081830303815290604052907bffffffffffffffffffffffffffffffffffffffffffffffffffffffff19166020820180517bffffffffffffffffffffffffffffffffffffffffffffffffffffffff8381831617835250505050610a4d565b50505050565b610a488363a9059cbb60e01b84846040516024016109e6929190611f8f565b604051602081830303815290604052907bffffffffffffffffffffffffffffffffffffffffffffffffffffffff19166020820180517bffffffffffffffffffffffffffffffffffffffffffffffffffffffff8381831617835250505050610a4d565b505050565b6000610aaf826040518060400160405280602081526020017f5361666545524332303a206c6f772d6c6576656c2063616c6c206661696c65648152508573ffffffffffffffffffffffffffffffffffffffff16610b149092919063ffffffff16565b9050600081511115610b0f5780806020019051810190610acf9190611ff0565b610b0e576040517f08c379a0000000000000000000000000000000000000000000000000000000008152600401610b059061208f565b60405180910390fd5b5b505050565b6060610b238484600085610b2c565b90509392505050565b606082471015610b71576040517f08c379a0000000000000000000000000000000000000000000000000000000008152600401610b6890612121565b60405180910390fd5b6000808673ffffffffffffffffffffffffffffffffffffffff168587604051610b9a919061217d565b60006040518083038185875af1925050503d8060008114610bd7576040519150601f19603f3d011682016040523d82523d6000602084013e610bdc565b606091505b5091509150610bed87838387610bf9565b92505050949350505050565b60608315610c5b576000835103610c5357610c1385610c6e565b610c52576040517f08c379a0000000000000000000000000000000000000000000000000000000008152600401610c49906121e0565b60405180910390fd5b5b829050610c66565b610c658383610c91565b5b949350505050565b6000808273ffffffffffffffffffffffffffffffffffffffff163b119050919050565b600082511115610ca45781518083602001fd5b806040517f08c379a0000000000000000000000000000000000000000000000000000000008152600401610cd89190612244565b60405180910390fd5b60405180606001604052806060815260200160008152602001600081525090565b6000604051905090565b600080fd5b600080fd5b600080fd5b60006101008284031215610d3257610d31610d16565b5b81905092915050565b600060208284031215610d5157610d50610d0c565b5b600082013567ffffffffffffffff811115610d6f57610d6e610d11565b5b610d7b84828501610d1b565b91505092915050565b600081519050919050565b600082825260208201905092915050565b6000819050602082019050919050565b6000819050919050565b610dc381610db0565b82525050565b6000610dd58383610dba565b60208301905092915050565b6000602082019050919050565b6000610df982610d84565b610e038185610d8f565b9350610e0e83610da0565b8060005b83811015610e3f578151610e268882610dc9565b9750610e3183610de1565b925050600181019050610e12565b5085935050505092915050565b60006060830160008301518482036000860152610e698282610dee565b9150506020830151610e7e6020860182610dba565b506040830151610e916040860182610dba565b508091505092915050565b60006020820190508181036000830152610eb68184610e4c565b905092915050565b600060e08284031215610ed457610ed3610d16565b5b81905092915050565b600060208284031215610ef357610ef2610d0c565b5b600082013567ffffffffffffffff811115610f1157610f10610d11565b5b610f1d84828501610ebe565b91505092915050565b600073ffffffffffffffffffffffffffffffffffffffff82169050919050565b6000610f5182610f26565b9050919050565b610f6181610f46565b8114610f6c57600080fd5b50565b600081359050610f7e81610f58565b92915050565b600060208284031215610f9a57610f99610d0c565b5b6000610fa884828501610f6f565b91505092915050565b600080fd5b6000601f19601f8301169050919050565b7f4e487b7100000000000000000000000000000000000000000000000000000000600052604160045260246000fd5b610fff82610fb6565b810181811067ffffffffffffffff8211171561101e5761101d610fc7565b5b80604052505050565b6000611031610d02565b905061103d8282610ff6565b919050565b600080fd5b61105081610db0565b811461105b57600080fd5b50565b60008135905061106d81611047565b92915050565b600080fd5b600067ffffffffffffffff82111561109357611092610fc7565b5b602082029050602081019050919050565b600080fd5b6000819050919050565b6110bc816110a9565b81146110c757600080fd5b50565b6000813590506110d9816110b3565b92915050565b60006110f26110ed84611078565b611027565b90508083825260208201905060208402830185811115611115576111146110a4565b5b835b8181101561113e578061112a88826110ca565b845260208401935050602081019050611117565b5050509392505050565b600082601f83011261115d5761115c611073565b5b813561116d8482602086016110df565b91505092915050565b600067ffffffffffffffff82111561119157611190610fc7565b5b602082029050602081019050919050565b600080fd5b600067ffffffffffffffff8211156111c2576111c1610fc7565b5b6111cb82610fb6565b9050602081019050919050565b82818337600083830152505050565b60006111fa6111f5846111a7565b611027565b905082815260208101848484011115611216576112156111a2565b5b6112218482856111d8565b509392505050565b600082601f83011261123e5761123d611073565b5b813561124e8482602086016111e7565b91505092915050565b600061126a61126584611176565b611027565b9050808382526020820190506020840283018581111561128d5761128c6110a4565b5b835b818110156112d457803567ffffffffffffffff8111156112b2576112b1611073565b5b8086016112bf8982611229565b8552602085019450505060208101905061128f565b5050509392505050565b600082601f8301126112f3576112f2611073565b5b8135611303848260208601611257565b91505092915050565b600067ffffffffffffffff82111561132757611326610fc7565b5b602082029050602081019050919050565b600061134382610f46565b9050919050565b61135381611338565b811461135e57600080fd5b50565b6000813590506113708161134a565b92915050565b60006113896113848461130c565b611027565b905080838252602082019050602084028301858111156113ac576113ab6110a4565b5b835b818110156113d557806113c18882611361565b8452602084019350506020810190506113ae565b5050509392505050565b600082601f8301126113f4576113f3611073565b5b8135611404848260208601611376565b91505092915050565b6000610100828403121561142457611423610fb1565b5b61142f610100611027565b9050600061143f84828501610f6f565b60008301525060206114538482850161105e565b602083015250604082013567ffffffffffffffff81111561147757611476611042565b5b61148384828501611148565b604083015250606082013567ffffffffffffffff8111156114a7576114a6611042565b5b6114b3848285016112de565b606083015250608082013567ffffffffffffffff8111156114d7576114d6611042565b5b6114e3848285016113df565b60808301525060a06114f78482850161105e565b60a08301525060c061150b84828501610f6f565b60c08301525060e061151f84828501610f6f565b60e08301525092915050565b6000611537368361140d565b9050919050565b600082825260208201905092915050565b7f5265656e7472616e637947756172643a207265656e7472616e742063616c6c00600082015250565b6000611585601f8361153e565b91506115908261154f565b602082019050919050565b600060208201905081810360008301526115b481611578565b9050919050565b7f5245545259000000000000000000000000000000000000000000000000000000600082015250565b60006115f160058361153e565b91506115fc826115bb565b602082019050919050565b60006020820190508181036000830152611620816115e4565b9050919050565b7f494e56414c49445f494e5055545f414d4f554e54000000000000000000000000600082015250565b600061165d60148361153e565b915061166882611627565b602082019050919050565b6000602082019050818103600083015261168c81611650565b9050919050565b7f494e56414c49445f4f55545055545f414d4f554e540000000000000000000000600082015250565b60006116c960158361153e565b91506116d482611693565b602082019050919050565b600060208201905081810360008301526116f8816116bc565b9050919050565b600081519050919050565b600082825260208201905092915050565b6000819050602082019050919050565b611734816110a9565b82525050565b6000611746838361172b565b60208301905092915050565b6000602082019050919050565b600061176a826116ff565b611774818561170a565b935061177f8361171b565b8060005b838110156117b0578151611797888261173a565b97506117a283611752565b925050600181019050611783565b5085935050505092915050565b600081519050919050565b600082825260208201905092915050565b6000819050602082019050919050565b600081519050919050565b600082825260208201905092915050565b60005b83811015611823578082015181840152602081019050611808565b60008484015250505050565b600061183a826117e9565b61184481856117f4565b9350611854818560208601611805565b61185d81610fb6565b840191505092915050565b6000611874838361182f565b905092915050565b6000602082019050919050565b6000611894826117bd565b61189e81856117c8565b9350836020820285016118b0856117d9565b8060005b858110156118ec57848403895281516118cd8582611868565b94506118d88361187c565b925060208a019950506001810190506118b4565b50829750879550505050505092915050565b600081519050919050565b600082825260208201905092915050565b6000819050602082019050919050565b6000819050919050565b600061194f61194a61194584610f26565b61192a565b610f26565b9050919050565b600061196182611934565b9050919050565b600061197382611956565b9050919050565b61198381611968565b82525050565b6000611995838361197a565b60208301905092915050565b6000602082019050919050565b60006119b9826118fe565b6119c38185611909565b93506119ce8361191a565b8060005b838110156119ff5781516119e68882611989565b97506119f1836119a1565b9250506001810190506119d2565b5085935050505092915050565b60006060820190508181036000830152611a26818661175f565b90508181036020830152611a3a8185611889565b90508181036040830152611a4e81846119ae565b9050949350505050565b600067ffffffffffffffff821115611a7357611a72610fc7565b5b602082029050602081019050919050565b600081519050611a9381611047565b92915050565b6000611aac611aa784611a58565b611027565b90508083825260208201905060208402830185811115611acf57611ace6110a4565b5b835b81811015611af85780611ae48882611a84565b845260208401935050602081019050611ad1565b5050509392505050565b600082601f830112611b1757611b16611073565b5b8151611b27848260208601611a99565b91505092915050565b600060208284031215611b4657611b45610fb1565b5b611b506020611027565b9050600082015167ffffffffffffffff811115611b7057611b6f611042565b5b611b7c84828501611b02565b60008301525092915050565b600060208284031215611b9e57611b9d610d0c565b5b600082015167ffffffffffffffff811115611bbc57611bbb610d11565b5b611bc884828501611b30565b91505092915050565b7f494e56414c49445f4e45575f42414c414e434500000000000000000000000000600082015250565b6000611c0760138361153e565b9150611c1282611bd1565b602082019050919050565b60006020820190508181036000830152611c3681611bfa565b9050919050565b7f4e487b7100000000000000000000000000000000000000000000000000000000600052601160045260246000fd5b6000611c7782610db0565b9150611c8283610db0565b9250828203905081811115611c9a57611c99611c3d565b5b92915050565b7f494e53554646494349454e545f4f555400000000000000000000000000000000600082015250565b6000611cd660108361153e565b9150611ce182611ca0565b602082019050919050565b60006020820190508181036000830152611d0581611cc9565b9050919050565b611d1581610f46565b82525050565b6000602082019050611d306000830184611d0c565b92915050565b600060208284031215611d4c57611d4b610d0c565b5b6000611d5a84828501611a84565b91505092915050565b600060208284031215611d7957611d78610d0c565b5b6000611d8784828501611361565b91505092915050565b600080fd5b600080fd5b600080fd5b60008083356001602003843603038112611dbc57611dbb611d90565b5b80840192508235915067ffffffffffffffff821115611dde57611ddd611d95565b5b602083019250602082023603831315611dfa57611df9611d9a565b5b509250929050565b60008083356001602003843603038112611e1f57611e1e611d90565b5b80840192508235915067ffffffffffffffff821115611e4157611e40611d95565b5b602083019250602082023603831315611e5d57611e5c611d9a565b5b509250929050565b6000611e72368484611257565b905092915050565b60008083356001602003843603038112611e9757611e96611d90565b5b80840192508235915067ffffffffffffffff821115611eb957611eb8611d95565b5b602083019250602082023603831315611ed557611ed4611d9a565b5b509250929050565b7f494e53554646494349454e545f45544800000000000000000000000000000000600082015250565b6000611f1360108361153e565b9150611f1e82611edd565b602082019050919050565b60006020820190508181036000830152611f4281611f06565b9050919050565b611f5281610db0565b82525050565b6000606082019050611f6d6000830186611d0c565b611f7a6020830185611d0c565b611f876040830184611f49565b949350505050565b6000604082019050611fa46000830185611d0c565b611fb16020830184611f49565b9392505050565b60008115159050919050565b611fcd81611fb8565b8114611fd857600080fd5b50565b600081519050611fea81611fc4565b92915050565b60006020828403121561200657612005610d0c565b5b600061201484828501611fdb565b91505092915050565b7f5361666545524332303a204552433230206f7065726174696f6e20646964206e60008201527f6f74207375636365656400000000000000000000000000000000000000000000602082015250565b6000612079602a8361153e565b91506120848261201d565b604082019050919050565b600060208201905081810360008301526120a88161206c565b9050919050565b7f416464726573733a20696e73756666696369656e742062616c616e636520666f60008201527f722063616c6c0000000000000000000000000000000000000000000000000000602082015250565b600061210b60268361153e565b9150612116826120af565b604082019050919050565b6000602082019050818103600083015261213a816120fe565b9050919050565b600081905092915050565b6000612157826117e9565b6121618185612141565b9350612171818560208601611805565b80840191505092915050565b6000612189828461214c565b915081905092915050565b7f416464726573733a2063616c6c20746f206e6f6e2d636f6e7472616374000000600082015250565b60006121ca601d8361153e565b91506121d582612194565b602082019050919050565b600060208201905081810360008301526121f9816121bd565b9050919050565b600081519050919050565b600061221682612200565b612220818561153e565b9350612230818560208601611805565b61223981610fb6565b840191505092915050565b6000602082019050818103600083015261225e818461220b565b90509291505056fea26469706673582212202c166dd6d02e48b7e45cdbcfee29b6192ca5f78b28b900aa19b1971a3d6fddf864736f6c63430008110033",
  "devdoc": {
    "kind": "dev",
    "methods": {},
    "version": 1
  },
  "userdoc": {
    "kind": "user",
    "methods": {},
    "version": 1
  },
  "storageLayout": {
    "storage": [
      {
        "astId": 89,
        "contract": "contracts/Zapper2.sol:Zapper2",
        "label": "_status",
        "offset": 0,
        "slot": "0",
        "type": "t_uint256"
      }
    ],
    "types": {
      "t_uint256": {
        "encoding": "inplace",
        "label": "uint256",
        "numberOfBytes": "32"
      }
    }
  }
}